:020000040800F2
:10000000A8070020ED0100080716000809150008E0
:1000100005160008E303000841170008000000006F
:100020000000000000000000000000000B160008A7
:10003000E503000800000000091600080D1600087E
:10004000070200080702000807020008070200086C
:10005000070200080702000807020008070200085C
:10006000070200080702000807020008070200084C
:10007000070200080702000807020008070200083C
:10008000070200080702000807020008070200082C
:10009000070200080702000807020008070200081C
:1000A000070200080702000807020008070200080C
:1000B00007020008070200080702000807020008FC
:1000C00007020008070200080702000807020008EC
:1000D00007020008070200080702000807020008DC
:1000E00007020008070200080702000800000000DD
:1000F0000000000000000000000000000000000000
:1001000000000000000000000702000807020008CD
:10011000070200080702000807020008070200089B
:10012000070200080702000807020008070200088B
:10013000070200080702000807020008070200087B
:10014000070200080702000807020008070200086B
:1001500000F002F800F03AF80AA090E8000C82449F
:100160008344AAF10107DA4501D100F02FF8AFF27C
:10017000090EBAE80F0013F0010F18BFFB1A43F085
:1001800001031847AC160000CC160000103A24BF3B
:1001900078C878C1FAD8520724BF30C830C144BFEC
:1001A00004680C607047000000230024002500262E
:1001B000103A28BF78C1FBD8520728BF30C148BFCA
:1001C0000B6070471FB51FBD10B510BD00F0CFF814
:1001D0001146FFF7F7FF01F0C5FA00F0EDF803B4A0
:1001E000FFF7F2FF03BC00F0F5F800000948804774
:1001F00009480047FEE7FEE7FEE7FEE7FEE7FEE709
:10020000FEE7FEE7FEE7FEE704480549054A064B20
:10021000704700008516000851010008A801002061
:10022000A8070020A8030020A803002053EA020C1E
:1002300000F069802DE9F04B4FF00006002B1FBF46
:10024000B3FA83F503FA05F424FA05F65E4012BF0B
:100250001643B2FA82F502FA05F4C5F120051EBF75
:1002600022FA05FC44EA0C04203556EA044C4FEA15
:10027000144418BF641C4FF000084FF0000990426E
:1002800071EB030C39D3002919BFB1FA81F701FAD8
:1002900007F6B0FA80F700FA07F6C7F120071EBF8D
:1002A00020FA07FC46EA0C062037B6FBF4FCA7EB65
:1002B0000507103F07F01F0BCBF120060CFA0BFBD4
:1002C0002CFA06F644BFB3460026202FA4BF5E4694
:1002D0004FF0000B5BEA060C08BF4FF0010B19EB67
:1002E0000B09ABFB027C48EB0608C01B06FB02CCEB
:1002F0000BFB03CC71EB0C01C1E70B4602464146F8
:100300004846BDE8F08B13B54FF000004FF00001F8
:10031000AFF30080BDE81C4070474FF0000200B50D
:10032000134694469646203922BFA0E80C50A0E818
:100330000C50B1F12001BFF4F7AF090728BFA0E8C6
:100340000C5048BF0CC05DF804EB890028BF40F892
:10035000042B08BF704748BF20F8022B11F0804FD4
:1003600018BF00F8012B70477047704770477546FB
:1003700000F02CF8AE4605006946534620F0070011
:10038000854618B020B5FFF73FFFBDE820404FF08D
:1003900000064FF000074FF000084FF0000B21F06F
:1003A0000701AC46ACE8C009ACE8C009ACE8C0093C
:1003B000ACE8C0098D46704710B50446AFF3008025
:1003C0002046BDE81040FFF70ABF00000048704714
:1003D0004401002001491820ABBEFEE726000200C0
:1003E0007047FEE7704700002DE9F041044621B157
:1003F0004FF40060E060C000A060E06900250028C4
:1004000061D02A462368402619683C480140D4E957
:1004100002073843104340F4007008431860206816
:100420000768012000F076F82068076020684660C1
:1004300020684668012000F06DF82068466020685A
:1004400085602068C560216888694FF64172104058
:1004500040F08000886120688669012000F05AF829
:10046000206886612068C5612068C569012000F0A8
:1004700051F82068C561216801F580518869204ADA
:100480001040204A02438A61206800F58050856947
:10049000012000F03FF8206800F580508561206859
:1004A000194900F580500160206800F5805005680A
:1004B000012000F02FF8206800F580500560A06949
:1004C000012803D009E04FF480629BE7206800F523
:1004D0008050C1690D4A1143C16160690C4A81882D
:1004E00011640178C37841EA0361837840781B0482
:1004F00043EA002001435164BDE8F0810F8120FFF1
:10050000233FDEF8040020020020C1024000010069
:100510000080024070B5044600F0CCFA0546601C2D
:1005200002D004480078044400F0C4FA401BA04202
:10053000FAD370BD080000202DE9F8434FF0000504
:100540000400A946009503D094F8440018B107E0D0
:100550000120BDE8F88384F84550204600F0BEF83D
:100560005948416821F4000141604168226A114301
:100570004160206800F58050016841F00101016090
:1005800000F098FA06464FF4FA7708E000F092FA85
:10059000801BB84203D9032004F8440F57E02068B9
:1005A00000F580500068C007F0D12068006920F095
:1005B0001C0600F097FC4549454A0144914202D28D
:1005C00046F0080606E0434908444349884201D200
:1005D00046F00C06206806614FF4004200212046D8
:1005E00000F036F90126A8BBFF20FFF793FF6068F3
:1005F00088B300F05FFA804641F288376A460121ED
:10060000204600F0E3F800F055FAA0EB0800B842ED
:1006100017D800984007F1D54FF4805200212046AA
:1006200000F016F9B0B900F045FA80466A4601219B
:10063000204600F0CBF800F03DFAA0EB0800B842ED
:100640000AD901212046FFF7CFFE04F8446F0320AA
:1006500065707EE724E018E000988006E6D56A46DB
:100660001021204600F0B2F8D0B90098410703D518
:100670004FF40061E16000E0E560800701D5A5600E
:1006800019E04FF48040A06015E0E068A168C00860
:1006900040EA510082B20021204600F0D9F830B182
:1006A00001212046FFF7A0FE84F8446050E740F6A1
:1006B000FF70FFF72FFF49462046FFF795FE84F8AD
:1006C0004460002045E700000000014000D3CEFE5A
:1006D000C0E1E40040F1E9FD40787D012DE9F04101
:1006E00086B0002400940194029403940068324977
:1006F00088425DD13148416941F48041416141699D
:1007000001F480410491416941F400414161416932
:1007100001F400410491416941F480314161416932
:1007200001F480310491816941F010018161816996
:1007300001F010010491816941F004018161816936
:1007400001F004010491816941F00801816180692F
:10075000022500F00800009503260195CDE903600D
:10076000DFF85C806946404600F0AEF88220CDE9B3
:100770000004144F69463846029400F0A5F804209E
:10078000CDE9000569460396384600F09DF8302013
:10079000CDE9000469464046029400F095F84FF414
:1007A0006050CDE9000569460396074800F08CF8D3
:1007B00006B0BDE8F0810000008002400010024059
:1007C0000010014000080140000C01402DE9F047F5
:1007D000044690F84400914682281DD0822084F877
:1007E0004400226810694FF6FF7500F01C03208A50
:1007F00005EAC02018434FF4F86303EA811101436E
:1008000021F0020040F00105156100F053F90646A1
:1008100001274FF4803810E00220BDE8F08700BFC8
:1008200000F048F9801B404505D304F8447F0020C0
:1008300060700320F1E720680569E807F0D12068BF
:10084000406981B2C9F8001084F844700020E4E7E0
:100850002DE9F041044690F8440042281ED0422081
:1008600084F84400236818694FF6FF7600F01C05F1
:10087000208A06EAC02028434FF4F86505EA811172
:10088000014390B241F0030558612068056100F012
:1008900011F9064601274FF4803810E00220BDE828
:1008A000F08100BF00F006F9801B404505D304F835
:1008B000447F002060700320F1E720680569E807A5
:1008C000F0D184F84470EAE72DE9F84FDFF8B891E9
:1008D0000024A9F1040B23460F2709F1040AABF108
:1008E000040EC9E00125A5402A40AA427DD1674EE9
:1008F000D1F804C0ACEB0608B44532D014DCBCF12E
:10090000030F3AD009DCBCF1000F2AD0BCF1010F73
:100910001CD0BCF1020F31D11DE0BCF1110F17D07A
:10092000BCF1120F2AD119E0B8F5881F19D006DCE6
:10093000B8F5803F15D0B8F5801F1FD111E0B8F58C
:10094000001F0ED0B8F5041F18D10AE0CB6815E0DF
:10095000CB681B1D12E0CB6808330FE0CB680C336B
:100960000CE08B682BB1012B4FF0080303D04561DD
:1009700004E0042302E0056100E00023FF2A01D81F
:10098000064601E000F104064FEA840501D9A5F10D
:100990002005D6F8008007FA05FC28EA0C0803FABF
:1009A00005F548EA0508C6F800804D68ED0062D5F7
:1009B000374DAE6946F00106AE61AD6924F003061D
:1009C00005F001050095334D06EB050CDCF80850E9
:1009D000A607360F07FA06F825EA0805DFF8B880FB
:1009E000404503D14FF0000817E044E0DFF8AC8049
:1009F000404502D14FF001080FE0DFF8A4804045E8
:100A000002D14FF0020808E0DFF89880404502D19B
:100A10004FF0030801E04FF0040808FA06F848EA2E
:100A20000508CCF808804D68D9F80060ED024D4605
:100A300001D5164300E096432E604D68DAF8006059
:100A4000AD02554601D5164300E096432E604D6831
:100A5000DBF80060AD035D4601D5164300E0964328
:100A60002E604D68DEF80060ED03754601D5164333
:100A700000E096432E60641C0D682A46E5407FF432
:100A800031AFBDE8F88F00000804014000001110EC
:100A9000001002400000014000080140000C01402D
:100AA00000100140001401400AB1016170470904BF
:100AB000FBE7000001488068704700000800002044
:100AC00070B5040025D094F83D00002520B984F8C5
:100AD0003C50204600F0B8F8242084F83D002068FF
:100AE000016821F0010101602068016841F40041C2
:100AF00001602068016821F40041016000F0F8F90C
:100B00004D4A6168914201D84C4900E04C49884205
:100B100001D2012070BD4B492368B0FBF1F15E6842
:100B200026F03F060E435E606368934206D94FF499
:100B3000967359434FF47A73B1FBF3F12368491C60
:100B40001E6A26F03F06314319626168914210D84F
:100B50004900401EB0FBF1F2521CC2F30B02042A02
:100B600001D2042022E0B0FBF1F0401CC0F30B00E6
:100B70001CE0A268F2B301EBC10303EB0116431EB4
:100B8000B3FBF6F35B1C43F480431B0549D092B3DF
:100B900001EBC10202EB0111401EB0FBF1F0401C61
:100BA000C0F30B0040F4804040F400402168CA6963
:100BB0004CF6FF739A431043C861D4E90710014310
:100BC0002068026822F0C00211430160D4E90301E9
:100BD00001432068826848F2FF339A4311438160E1
:100BE000D4E9050108432168CA6822F0FF021043D6
:100BF000C86001E00EE016E02068016841F00101E4
:100C000001602564202084F83D00256384F83E506F
:100C1000002070BD01EB4106431EB3FBF6F35B1CE5
:100C2000B3E70120C2E701EB4101401EB0FBF1F048
:100C3000401CC0F30B00B7E7A086010080841E00B3
:100C400000093D0040420F0010B586B00021009120
:100C500001910291039100680F4988421AD10F4C0B
:100C6000A06940F00800A061A069694600F0080092
:100C70000490C020009012200190032003900848A7
:100C8000FFF722FEE06940F40010E061E06900F443
:100C90000010049006B010BD005400400010024047
:100CA000000C01400248816802781144816070475D
:100CB00008000020074810B5016841F010010160EC
:100CC000032000F067F80F2000F006F800F024F889
:100CD000002010BD0020024070B50D4D04464FF4B9
:100CE0007A712878B1FBF0F00A490968B1FBF0F09D
:100CF00000F05AFB48B9102C07D200222146501EA2
:100D000000F028F800206C6070BD012070BD00006C
:100D100008000020140000200C4808B5816941F04B
:100D200001018161816901F001010091C16941F016
:100D30008051C161C06900F0805000900448416852
:100D400021F0E06141F00071416008BD00100240F7
:100D500000000140F0B40E4B1B680C46C3F30223A5
:100D6000C3F10705042D00D90425191D072901D257
:100D7000002300E0DB1E012606FA05F1491E214092
:100D800099409E40761E16403143F0BC00F0D9BC1D
:100D90000CED00E0064900F0070208684FF6FF037B
:100DA000184040EA0220034A1043086070470000E0
:100DB0000CED00E00000FA052DE9F0470F460500B4
:100DC00061D0434E306800F00700B84209D2306865
:100DD00020F0070038433060306800F00700B84268
:100DE00051D128683B4C810712D5400703D5606874
:100DF00040F4E06060602878000703D5606840F444
:100E0000605060606068A96820F0F000084360608E
:100E10002878C00728D06868012810D021680228E7
:100E200010D0890700292EDA616821F003010143FF
:100E30006160FFF73FFE804641F288390DE021688E
:100E40008903EFE78901EDE7FFF734FEA0EB080126
:100E5000494502D90320BDE8F0876068696800F061
:100E60000C00B0EB810FEFD1306800F00700B84202
:100E70000BD9306820F0070038433060306800F04C
:100E80000700B84201D00120E5E72878400705D5E2
:100E90006068E96820F4E060084360602878000733
:100EA00006D56068296920F4605040EAC10060609E
:100EB00000F03EF86168084AC1F30311515CC84074
:100EC0000649086006480068FFF706FF0020C2E7F1
:100ED00000200240001002401618000814000020F4
:100EE0000C0000200148006870470000140000203A
:100EF0000448054900684968044AC1F30221515C6D
:100F0000C840704714000020001002402618000856
:100F10000448054900684968044AC1F3C221515C8C
:100F2000C840704714000020001002402618000836
:100F30002DE9F0411E48416801F00C02042A04D05A
:100F4000082A04D01B48BDE8F0811B48FBE71B4A78
:100F5000C1F38343C903D45C26D5C16A0E3201F0C4
:100F60000F01515CC26AD20316D5C26AC06AC2F3CD
:100F70000312521CA2FB0123C0F30320801CA0FB20
:100F800004150D4F0026A1FB070C05FB07C501FB4F
:100F90000651FFF74BF903E007486043B0FBF1F05F
:100FA0000D2CD0D14008CEE705486043CBE70000C8
:100FB0000010024000127A0040787D01F817000806
:100FC00000093D002DE9F84F040070D02078F14D64
:100FD000C00749D06868C0F38100012807D068685D
:100FE000C0F38100022809D16868C00306D52868CB
:100FF000800339D5A0680028E7D035E0A068B0F5B7
:10100000803F0BD010B1B0F5A02F11D0286820F48C
:1010100080302860286820F4802002E0286840F4AE
:1010200080302860A06890B1FFF744FD06460AE0D2
:10103000286840F480202860F0E700BFFFF73AFD01
:10104000801B642876D828688003F7D50CE0FFF76A
:1010500031FD064605E000BFFFF72CFD801B64282C
:10106000F0D828688003F7D42078CB4E80074FF063
:1010700001094FF000073AD5686810F00C0F07D04F
:101080006868C0F38100022809D16868C00306D4EB
:101090002868800715D56069012808D111E06069CA
:1010A000B8B1C6F80090FFF705FD804606E042E1C2
:1010B000FFF700FDA0EB08000228C3D828688007CE
:1010C000F6D52868A16920F0F80040EAC100286040
:1010D0000DE03760FFF7EEFC804605E0FFF7EAFC25
:1010E000A0EB08000228ADD828688007F6D4207845
:1010F00000072ED5A948E169E9B1C0F80090FFF7D3
:10110000D9FC804606E000BFFFF7D4FCA0EB080046
:10111000022897D8686A8007F6D5A1484FF4FA519B
:101120000068B0FBF1F0009000BF0098411E0091F4
:10113000FAD20EE0B0E00760FFF7BCFC804605E0A5
:10114000FFF7B8FCA0EB0800022889D8686A80077E
:10115000F6D42078400763D5E8694FF00008C00056
:1011600009D4E86940F08050E861E8694FF001086F
:1011700000F0805000908B480168C90512D40168C6
:10118000834641F480710160FFF794FC824605E0DC
:10119000FFF790FCA0EB0A0064287DD8DBF8000084
:1011A000C005F5D5206901280AD008B1052813D05B
:1011B000286A20F001002862286A20F0040002E07A
:1011C000286A40F001002862206941F2883B98B10A
:1011D000FFF770FC82460BE0286A40F004002862AA
:1011E000EEE700BFFFF766FCA0EB0A01594553D8B4
:1011F000286A8007F6D50CE0FFF75CFC824605E024
:10120000FFF758FCA0EB0A01594545D8286A80072A
:10121000F6D4B8F1000F03D0E86920F08050E861FF
:10122000E06AD0B36968C90307D56968C1F3810171
:10123000022902D1E96AC9037DD4022808D0E86AEC
:1012400020F48030E862B766FFF734FC80463BE06C
:101250002868C00005D5E86A616B00F0F00088429C
:1012600069D1B766FFF726FC804605E0FFF722FC50
:10127000A0EB0800642874D828680001F6D4E86A56
:10128000616B20F0F0000843E862E86A216B20F40B
:1012900070600843E86201E063E018E0C6F8689017
:1012A000FFF708FC804605E0FFF704FCA0EB080010
:1012B000642856D828680001F6D508E0FFF7FAFB45
:1012C000A0EB080064284CD828680001F6D4206AF6
:1012D00090B36968C1F38101022949D002283766B9
:1012E00003D0FFF7E7FB04463EE0FFF7E3FB0746CA
:1012F00005E000BFFFF7DEFBC01B022831D82868DD
:101300008001F7D4606AB0F5803F09D1E86A61686E
:101310000843E862E86AE16820F00F000843E862E9
:10132000D4E909010843696821F47411084368602D
:10133000C6F8609001E028E029E0FFF7BBFB044617
:1013400005E000BFFFF7B6FB001B022809D828689C
:101350008001F7D51BE000BFFFF7ACFB001B0228A4
:1013600002D90320BDE8F88F28688001F4D40EE08C
:101370000128F7D06868626A00F48031914204D194
:10138000A16A00F47010884201D00120EAE7002031
:10139000E8E70000001002400000424280044242A0
:1013A000140000200070004010B5401EB0F1807F96
:1013B00001D3012010BD4FF0E02460610F216017C0
:1013C00000F0BFF90020A06107202061002010BDBF
:1013D00070B5040004D094F84100002510B106E077
:1013E000012070BD84F84050204600F023F82420EE
:1013F00084F841002068C16821F40051C160204692
:1014000000F042F92068016921F4904101612068EF
:10141000416921F02A0141612068C16841F400510D
:10142000C1606564202084F8410084F8420065634F
:10143000002070BD30B585B0002400940194029462
:1014400003942B4D03682B4802210322AB4222D187
:10145000836943F480438361836903F48043049385
:10146000836943F0040383618069234D00F0040025
:1014700004900802CDE90001039269462846FFF76F
:1014800023FA2815CDE90004694628460294FFF79F
:101490001BFA05B030BD194DAB42FAD1C36943F414
:1014A0000033C361C36903F400330493836943F0D9
:1014B000200383618069124D00F0200004902020F9
:1014C000CDE90001039269462846FFF7FDF9402067
:1014D000CDE90004694628460294FFF7F5F909486A
:1014E000416841F0E06141F008014160D1E700004E
:1014F0000038014000100240000801400044004054
:101500000014014000000140FEE70000114810B542
:101510000F49016001218A03C0E90112CA02C260B9
:1015200001820D49002280230A704B70E1238B70E9
:10153000CA700A714A71C0E905124FF40001C0E98E
:101540000721FEF7F9FF002801D072B6FEE710BDB3
:101550000080024018000020000000202DE9F04328
:1015600085B0002424480094019402940394816976
:1015700041F010018161816901F0100104918169DC
:1015800041F004018161816901F0040104918169E4
:1015900041F008018161816901F0080104918169CC
:1015A00041F0200181618069DFF8508000F0200067
:1015B0000490002201214046FFF776FADFF84090C0
:1015C0004FF47047002239464846FFF76DFA01256F
:1015D000022603960095CDE9015469464046FFF77F
:1015E00073F900970396CDE9015469464846FFF721
:1015F0006BF905B0BDE8F08300100240000C01401B
:1016000000140140FEE7FEE770477047FFF74ABB52
:1016100030B593B038216846FEF77FFE14210EA83E
:10162000FEF77BFE012528040421CDE902010224F6
:10163000CDE908400095019005954FF4E010CDE903
:101640000A044FF4C0600C9040200D906846FFF7EC
:10165000B9FC08B172B6FEE70F20CDE90E040020F8
:101660004FF48061CDE91001129002210EA8FFF71E
:10167000A3FB08B172B6FEE70148056713B030BDA1
:10168000000042427047000070B5044600680169DE
:10169000E26821F44051114301612169A0680843C7
:1016A000616908432168CA6841F20C639A430243A6
:1016B000CA6020684169A26921F440711143416107
:1016C0001E492068884202D1FFF722FC01E0FFF7A3
:1016D0000FFC00EBC00101EB001260686421800088
:1016E000B2FBF0F3B3FBF1F36FF018067343B2FBF8
:1016F000F0F5B2FBF0F605EB8305322303EB05159D
:10170000B5FBF1F5B6FBF1F605F0F00505EB0615B6
:10171000B2FBF0F6B2FBF0F0B0FBF1F06FF01802A4
:10172000504306EB800003EB0010B0FBF1F02168A2
:1017300000F00F002844886070BD000000380140B0
:10174000FEE70907090E002804DB00F1E02080F81D
:101750000014704700F00F0000F1E02080F8141D25
:1017600070470000FFF7A6FAFFF752FFFFF7F6FEFB
:10177000FFF7CCFE1C481B49002401601B49C0E94F
:1017800001144FF48041C0E9034144618461C461A4
:101790000462FFF795F908B172B6FEE712481449E2
:1017A00054304FF4E1350160C0E901540C26C460A7
:1017B000C0E904468461C461FFF70AFE08B172B64D
:1017C000FEE709480B499C300160C0E90154C46040
:1017D000C0E904468461C461FFF7FAFD08B172B63E
:1017E000FEE7FEE70054004060000020A0860100F4
:1017F00000380140004400400000040506070809C5
:1018000000000000000D0102030405060708090A94
:101810000B0C0D0E0F100000000000000000010274
:101820000304060708090000000001020304000089
:101830005018000800000020180000008C0100086B
:10184000681800081800002090070000A801000890
:101850000000000000000000010000001000000077
:081860000000000000127A00F4
:04000005080001519D
:00000001FF
