:020000040800F2
:10000000D875002069010008471D0008351C00084C
:10001000451D0008ED040008D31F00080000000083
:10002000000000000000000000000000711D00083A
:10003000EF04000800000000491D0008751D0008BD
:100040008301000883010008830100088301000880
:100050008301000883010008830100088301000870
:100060008301000883010008830100088301000860
:100070008301000883010008830100088301000850
:100080008301000883010008830100088301000840
:100090008301000883010008830100088301000830
:1000A0008301000883010008830100088301000820
:1000B0008301000883010008830100088301000810
:1000C0008301000883010008830100088301000800
:1000D00083010008CF1F0008830100088301000886
:1000E000830100088301000883010008000000006C
:1000F0000000000000000000000000000000000000
:1001000000000000000000008301000883010008D7
:1001100083010008830100088301000883010008AF
:10012000830100088301000883010008830100089F
:10013000830100088301000883010008830100088F
:10014000830100088301000883010008830100087F
:10015000DFF810D000F0B8F9004800473946000831
:10016000AFF30080D8750020064880470648004756
:10017000FEE7FEE7FEE7FEE7FEE7FEE7FEE7FEE757
:10018000FEE7FEE7291E0008510100082DE9F05F97
:100190000546002092469B468846064681464024F6
:1001A0001BE0284641464746224600F020F85346C9
:1001B0005A46C01A914110D311461846224600F003
:1001C0003DF92D1A67EB01084F4622460120002118
:1001D00000F034F917EB00094E41201EA4F1010490
:1001E000DFDC484631462A464346BDE8F09F202AD8
:1001F00004DB203A21FA02F00021704721FA02F3D1
:10020000D040C2F12002914008431946704710B512
:10021000431A934209D28318881803E010F8011D8D
:1002200003F8011D521EF9D210BD40EA01039B07DD
:1002300003D009E008C9121F08C0042AFAD203E05B
:1002400011F8013B00F8013B521EF9D210BDD2B2A9
:1002500001E000F8012B491EFBD270470022F6E7AF
:1002600010B513460A4604461946FFF7F0FF20462C
:1002700010BD30B504460020034600E05B1C9342ED
:1002800003D2E05CCD5C401BF8D030BDF0B480EA16
:100290000102D40F4200B2EB410F02D202460846DF
:1002A00011464A0042D0C30DDDB2C1F3C752AD1AA8
:1002B000202D35DAC1F3160141F4000204B1524297
:1002C000C5F1200602FA06F12A411044B3EBD05FD3
:1002D00023D0C4B1012DA0EBC35009DCF0BC4FF01A
:1002E000004202EAC352DBB200F5000000F0BEB8E3
:1002F000400000F1807000EBC350A0F1807040EA34
:10030000D170490009E0490841EAC071A0EBC3502F
:1003100000F50000400800EBC350F0BC00F09DB8B1
:100320006142012202EB4101001BF6E7F0BC70477D
:1003300081F00041AAE780F00040A7E780EA0102CF
:1003400010B502F00043400022D04A001FD0010E39
:1003500001EB1261C0F35600C2F3560240F40000F4
:1003600042F40002A0FB022000047F39140400D0F4
:10037000401C50EA124001D44000491EC2B20C0693
:1003800004EBD010401C4008802A02D003E000207B
:1003900010BD20F00100002900DA0020184310BD34
:1003A00030B480EA010202F0004530F0004221F052
:1003B000004013D090B1C30DD40DC2F31601C0F3A9
:1003C0001600E41A41F4000140F400027D34914229
:1003D00001D3641C00E04900002C02DA30BC00208C
:1003E00070474FF400000023914201D3891A034360
:1003F00040084FEA4101F7D151B1914202D14FF08B
:10040000004105E002D24FF0010101E06FF001016F
:1004100003EBC450284430BC00F01FB896230022E0
:10042000114600F023B80000002801DBC0F10040B5
:10043000002901DBC1F1004181427047202A04DB21
:10044000203A00FA02F1002070479140C2F12003E7
:1004500020FA03F31943904070470029A8BF704762
:10046000401C490008BF20F00100704710B4B0FAEA
:1004700080FC00FA0CF050EA010404BF10BC704785
:1004800049B1CCF1200421FA04F411FA0CF118BF9F
:10049000012121430843A3EB0C01CB1D4FEA00616E
:1004A0004FEA102042BF002010BC704700EBC35041
:1004B00010440029A4BF10BC7047401C490008BF6D
:1004C00020F0010010BC7047064C074D06E0E068C4
:1004D00040F0010394E8070098471034AC42F6D38B
:1004E000FFF73AFED4870008F4870008FEE770475C
:1004F00003484FF4E0014161002141607047000072
:10050000009002402DE9FF4F81B006463148DDE9F9
:100510000F58DDF8389001681F46144641F001017C
:1005200001600168C907FCD12B49824641614169DC
:100530002AA001F04FFD3B46CDF8009031463548EA
:10054000029A01F047FD0021C8F30D004FF0004B67
:1005500040F48043621E13E006EB4110C0F800B087
:100560004360DDF808C001FB08CCC0F808C0914228
:1005700004D200F1200CC0F80CC000E0C660491C99
:10058000A142E9D3002084464FF480186A1E11E08E
:1005900007EB4011C1F80080C1F804C0119C00FBBA
:1005A00004938B60904203D201F12003CB6000E002
:1005B000CF60401CA842EBD31749CAF80010CAF814
:1005C0000C60CAF810701549CAF8181005B0BDE8DB
:1005D000F08F000000900240048401005B444D4114
:1005E0005D20444D4153525F41465445525F434C58
:1005F0004541523D3078253038582028657870655F
:1006000063742030783030303030303030290D0A8B
:1006100000000000148600088020410206203004FB
:100620000168002905DB0168C90502D501680904D4
:1006300001D5002070470068C0F30D407047107965
:10064000537940EA032301F1804000F52030036430
:100650001178D37841EA0361937852781B0443EA16
:100660000222114341647047F0B5ADB00446002941
:1006700004D04FF40060E060C000A0600025109539
:1006800011951295139514951595E06900287CD065
:1006900016954FF400701790189519951A951B959B
:1006A0001C9540271D971E951F95209521952295F5
:1006B0002395249525958020269027952895299582
:1006C0002A952B952C9520680168464A1140E368CD
:1006D000A2681A43169B1A4342F400721143016048
:1006E00020680668012000F0DFF8206806602068B6
:1006F000476020684668012000F0D6F82068466010
:10070000206885602068C560206881694FF6417265
:10071000114041F08001816120688669012000F06C
:10072000C3F8206886612068C5612068C669012019
:1007300000F0BAF82068C6610195F80402900395AC
:1007400001110491059506950795089504210991D5
:100750000A9040120B9080010C9040120D900E9563
:100760000F95206800F5805081691F4A114041F0C3
:10077000040141F008718161206800F580508569AD
:10078000012000F091F8206800E016E000F58050AC
:1007900085612168154801F580510860206800F5E1
:1007A00080500568012000F07FF8206800F5805037
:1007B0000560A069012804D00CE04FF48060169019
:1007C00067E7206800F58050C16941F0400141F4BD
:1007D0008031C16162692DB02046BDE8F040002142
:1007E000FFF72DBF0F8120FF233FDEF80020C1025D
:1007F0004288018852BA03791204407942EA0322FE
:100800000243074849BA41F0004101644264054986
:100810000160054941604FF48151816170470000DA
:10082000008002400C4C01000004008030B5174AE3
:10083000154B14694FF6FF7524F01C0424F478441A
:1008400024F4F86444F0100405EAC02020434FF477
:10085000F86404EA8111014321F0020040F0010034
:10086000106101E05B1E05D01069C007FAD1506924
:1008700080B230BD0648016841F0010101600168A5
:10088000C907FCD1F3E70000A08601000080024008
:1008900000900240C3F30D0141F4804141604FF0EC
:1008A000004101607047000070B5044600F028FB6D
:1008B0000546B4F1FF3F02D004480078044400F03C
:1008C0001FFB401BA042FAD370BD00005C0000205B
:1008D0002DE9F843044600270097B846002C03D0C2
:1008E00094F8440018B107E00120BDE8F88384F8CB
:1008F0004570204600F0F6F87548416821F4000183
:1009000041604168226A11434160206800F58050CF
:10091000016841F00101016000F0F2FA054620682B
:1009200000F58050006810F0010F13D000F0E8FAD5
:10093000401BB0F5FA7F06D9032084F8440084F800
:100940004570BDE8F883206800F58050006810F01D
:10095000010FEBD12068006920F01C0500F03AFD82
:100960005C495D4A0144914202D245F0080506E027
:100970005A4908445A49884201D245F00C0520687A
:1009800005614FF400420021204600F069F94FF064
:10099000010940B101212046FFF766FE84F844902A
:1009A0000120BDE8F883FF20FFF77EFF6068002884
:1009B0006AD000F0A5FA064641F288356A46012160
:1009C000204600F007F900F09BFA801BA8420AD9E4
:1009D00001212046FFF748FE84F8449084F84570D2
:1009E0000320BDE8F883009810F0040FE6D04FF420
:1009F00080520021204600F033F940B10121204609
:100A0000FFF732FE84F844900120BDE8F88300F03F
:100A100077FA06466A460121204600F0DBF800F02E
:100A20006FFA801BA8420AD901212046FFF71CFE5D
:100A300084F8449084F845700320BDE8F88300985A
:100A400010F0200FE6D06A461021204600F0C2F8D0
:100A500040B101212046FFF707FE84F844900120B1
:100A6000BDE8F883009810F0040F03D04FF4006144
:100A7000E16000E0E76010F0020F01D0A7601DE028
:100A80004FF48040A06019E0E068A168C0F3CF0097
:100A9000C1F34F0140EA01020021204600F0E0F8D6
:100AA00040B101212046FFF7DFFD84F8449001208A
:100AB000BDE8F88340F6FF70FFF7F6FE414620469A
:100AC000FFF7D2FD84F844900020BDE8F8830000D1
:100AD0000000014000D3CEFEC0E1E40040F1E9FD9A
:100AE00040787D012DE9F04186B000240094019406
:100AF000029403940068324988425DD131484169CB
:100B000041F480414161416901F4804104914169AE
:100B100041F400414161416901F40041049141699E
:100B200041F480314161416901F48031049181696E
:100B300041F010018161816901F010010491816926
:100B400041F004018161816901F00401049181692E
:100B500041F0080181618069022500F008000095DC
:100B600003260195CDE90360DFF85C8069464046C5
:100B700000F0B8F88220CDE90004144F69463846E9
:100B8000029400F0AFF80420CDE900056946039611
:100B9000384600F0A7F83020CDE900046946404609
:100BA000029400F09FF84FF46050CDE900056946CB
:100BB0000396074800F096F806B0BDE8F081000003
:100BC0000080024000100240001001400008014077
:100BD000000C01402DE9F0410446174694F844000A
:100BE00082282CD0822084F844002068026902F018
:100BF0001C02238A4FF4784C0CEAC3231A434FF4A7
:100C0000F86303EA8111114321F0020141F001066A
:100C1000066100F075F9054616F0010F4FF0010668
:100C200015D000F06DF9401BB0F5803F0AD384F871
:100C30004460002084F845000320BDE8F0810220D4
:100C4000BDE8F0812068006910F0010FE9D120684B
:100C5000406980B2386084F844600020BDE8F081CB
:100C600070B5044694F84400422830D0422084F8FD
:100C700044002068036903F01C03B4F810C04FF46B
:100C8000784505EACC2C4CEA03034FF4F86C0CEAE7
:100C90008111194341F0020141F0010691B2416115
:100CA0002068066100F02CF9054616F0010F4FF0A0
:100CB000010613D000F024F9401BB0F5803F08D3A3
:100CC00084F84460002084F84500032070BD0220B1
:100CD00070BD2068006910F0010FEBD184F844600A
:100CE000002070BD2DE9F84F4FF0000C00230A687A
:100CF000002A7DD0DFF8DC810F27A8F1040A08F173
:100D00000409AAF1040B012202FA0CF60A68324027
:100D1000B2426ED1DFF8C0E14C68A4EB0E05744519
:100D20002BD00DDC032C34D005DC34B3012C19D0CE
:100D3000022C2FD11BE0112C16D0122C2AD119E035
:100D4000B5F5881F19D006DCB5F5803F15D0B5F58F
:100D5000801F1FD111E0B5F5001F0ED0B5F5041F9F
:100D600018D10AE0CB6815E0CB681B1D12E0CB68F8
:100D700008330FE0CB680C330CE08B6823B1012BF8
:100D800004D00823466105E0042303E0082306613C
:100D900000E00023B2F5807F01D2054601E000F1BA
:100DA000040502D24FEA8C0403E0ACF108044FEAD8
:100DB00084042E6807FA04FE26EA0E0603FA04F4F9
:100DC00046EA04042C604C6814F0805F79D0434CF0
:100DD000A56945F00105A561A46904F0010400942A
:100DE0002CF0030404F1804404F58034A66801E08B
:100DF0006EE066E04FEA8C754FEA157507FA05FE5E
:100E000026EA0E0EA0F18046B6F584361ED0A0F17B
:100E10008046B6F586361BD0A0F18046B6F58836FA
:100E200018D0A0F18046B6F58A3615D0042606FA09
:100E300005F545EA0E05A5604C6814F4801F0DD039
:100E4000D8F800401443C8F800400CE00026EEE754
:100E50000126ECE70226EAE70326E8E7D8F8004097
:100E60009443C8F800404C6814F4001F05D0D9F82A
:100E700000401443C9F8004004E0D9F8004094430E
:100E8000C9F800404C6814F4003F05D0DAF800407F
:100E90001443CAF8004004E0DAF800409443CAF86A
:100EA00000404C6814F4803F05D0DBF8004022433A
:100EB000CBF8002005E0DBF8004024EA0202CBF882
:100EC00000200CF1010C0A6832FA0CF27FF41BAF1F
:100ED000BDE8F88F08040140000011100010024026
:100EE000C26821EA0203114043EA014101617047EF
:100EF000002A01D0016170470904016170470000B8
:100F000001488068704700005C00002070B504460E
:100F1000002C04D094F83D00002510B106E001201B
:100F200070BD84F83C50204600F0C6F8242084F8B8
:100F30003D002068016821F001010160206801681E
:100F400041F4004101602068016821F40041016022
:100F500000F046FA544B6168994203D853498842DD
:100F600003D304E05249884201D2012070BD5149A7
:100F7000B0FBF1F12268D2F804C02CF03F0C4CEA2F
:100F8000010CC2F804C062689A4201D84A1C07E00A
:100F90004FF4967251434FF47A72B1FBF2F14A1C4E
:100FA0002168D1F820C02CF03F0C42EA0C020A6202
:100FB0006168994210D84900401EB0FBF1F2521C02
:100FC000C2F30B02042A01D2042026E0B0FBF1F0A8
:100FD000401CC0F30B0020E0A268002A50D001EBB7
:100FE000C10303EB0113A0F1010CBCFBF3F35B1C89
:100FF00043F480431B051B0D4AD0002A4AD001EB65
:10100000C10202EB0111401EB0FBF1F0401CC0F325
:101010000B0040F4804040F400402168CA6922F08F
:10102000FF0222F44F421043C861216AE069014384
:101030002068026822F0C00211430160E168206963
:1010400001432068826822F0FF0222F40342114328
:101050008160A169606901432068C26822F0FF02D3
:101060001143C1602068016841F0010101602564FD
:10107000202084F83D00256384F83E50002070BD98
:1010800001EB4103A0F1010CBCFBF3F35B1CB1E7E6
:101090000120C2E701EB4101401EB0FBF1F0401C12
:1010A000C0F30B00B7E70000A086010080841E009B
:1010B00000093D0040420F0010B586B000210091AC
:1010C00001910291039100680F4988421AD10F4C97
:1010D000A06940F00800A061A069694600F008001E
:1010E0000490C02000901220019003200390084833
:1010F000FFF7F8FDE06940F40010E061E06900F4FA
:101100000010049006B010BD0054004000100240D2
:10111000000C0140024881680278114481607047E8
:101120005C00002010B50748016841F01001016023
:10113000032000F07DF80F2000F006F800F026F8FC
:10114000002010BD0020024070B504460D4D4FF444
:101150007A712878B1FBF0F00B490968B1FBF0F027
:1011600000F05AFC08B1012070BD102C07D20022FB
:101170002146501E00F028F86C60002070BD012050
:1011800070BD00005C000020680000200C4808B51D
:10119000816941F001018161816901F001010091E2
:1011A000C16941F08051C161C06900F08050009078
:1011B0000448416821F0E06141F00071416008BDE0
:1011C000001002400000014010B4184B1B68C3F32C
:1011D0000223C3F1070CBCF1040F01D94FF0040C3A
:1011E0001C1D072C01D2002300E0DB1E012404FAA1
:1011F0000CFCACF1010C0CEA0101994004FA03F378
:101200005B1E1A401143002806DB00F1E0200901B3
:1012100080F8001410BC704700F00F0000F1E020CF
:10122000090180F8141D10BC704700000CED00E0AF
:1012300000F00700064A11684FF6FF03194041EA23
:10124000002040F0FD7040F08060106070470000AA
:101250000CED00E02DE9F04704460D46002C17D0B8
:10126000DFF85C81D8F8000000F00700A84212D235
:10127000D8F8000020F007002843C8F80000D8F88C
:10128000000000F00700A84205D00120BDE8F0876B
:101290000120BDE8F08720684A4E10F0020F14D0FC
:1012A00010F0040F03D0706840F4E06070602078A4
:1012B00010F0080F03D0706840F4605070607068E0
:1012C00020F0F001A06808437060207810F0010F52
:1012D0003AD06068012806D002280BD0316811F09E
:1012E000020F27D00AE0316811F4003F06D1012037
:1012F000BDE8F087316811F0007F18D0716821F0E7
:10130000030108437060FFF7FBFD074670686168E2
:1013100000F00C00B0EB810F16D041F28839FFF7D6
:10132000EFFDC01B484508D90320BDE8F087012028
:10133000BDE8F0870120BDE8F0877068616800F0C3
:101340000C00B0EB810FEAD1D8F8000000F00700E4
:10135000A8420FD9D8F8000020F007002843C8F8A9
:101360000000D8F8000000F00700A84202D00120D9
:10137000BDE8F087207810F0040F05D07068E168B0
:1013800020F4E06008437060207810F0080F06D069
:101390007068216920F4605040EAC100706000F07C
:1013A0003FF87168084AC1F30311515CC84007490E
:1013B000086007480068FFF7C7FE0020BDE8F08717
:1013C00000200240001002404E8400086800002007
:1013D000600000200148006870470000680000209D
:1013E00000B5FFF7F7FF04494968044AC1F3022139
:1013F000515CC84000BD0000001002405E8400083F
:1014000000B5FFF7E7FF04494968044AC1F3C22168
:10141000515CC84000BD0000001002405E8400081E
:101420002DE9F041214B586800F00C01042904D04B
:10143000082905D01E48BDE8F0811E48BDE8F081AE
:101440001D49C0F383428C5C10F4803F29D0D86AD8
:101450000E3100F00F00085CD96A11F4803F17D0FC
:10146000D96AC1F303114A1CD96AC1F30321891C4B
:10147000A2FB0023A1FB0415DFF838C00026A1FB66
:101480000C0705FB0C7C01FB06C1FEF77FFE03E0A9
:1014900008496143B1FBF0F00D2CCFD14008BDE805
:1014A000F08106486043BDE8F08100000010024072
:1014B00000127A0040787D013084000800093D0068
:1014C00030B587B00D460020049002200390032021
:1014D00005904FF480700290094CA06940F0040020
:1014E000A061A06900F00400019002A90548FFF77F
:1014F000F9FB606820F070602843606007B030BD81
:1015000000100240000801402DE9F84F0446002C6D
:101510000FD02078FE4D10F0010F6CD0686800F0FD
:101520000C0004280CD0686800F00C00082803D0D8
:1015300010E00120BDE8F88F686810F4803F09D002
:10154000286810F4003F56D0A068002853D101202D
:10155000BDE8F88FA068B0F5803F15D0C8B1B0F5F0
:10156000A02F1FD0286820F480302860286820F43D
:1015700080202860A06858B3FFF7C2FC06462868A0
:1015800010F4003F17D036E0286840F4803028601F
:10159000F0E7286820F480302860286820F4802054
:1015A0002860E7E7286840F480202860286840F435
:1015B00080302860DEE7FFF7A3FC801B642802D997
:1015C0000320BDE8F88F286810F4003FF3D012E044
:1015D000FFF796FC0646286810F4003F0BD0FFF793
:1015E0008FFC801B642802D90320BDE8F88F28688F
:1015F00010F4003FF3D12078C64F10F0020F4FF0E7
:1016000001094FF0000854D0686810F00C0F14D096
:10161000686800F00C00082803D1686810F4803F67
:101620000BD0606978B3C7F80090FFF769FC0646F5
:10163000286810F0020F12D01DE0286810F0020F89
:1016400005D06069012802D00120BDE8F88F286824
:10165000A16920F0F80040EAC100286029E0FFF706
:101660004FFC801B022802D90320BDE8F88F2868B0
:1016700010F0020FF3D02868A16920F0F80040EACA
:10168000C100286015E0FFE7C7F80080FFF738FCCD
:101690000646286810F0020F0BD0FFF731FC801BC4
:1016A000022802D90320BDE8F88F286810F0020F45
:1016B000F3D1207810F0080F30D09748E169C1B11C
:1016C000C0F80090FFF71CFC0646686A10F0020F95
:1016D0000BD1FFF715FC801B022802D90320BDE8BF
:1016E000F88F686A10F0020FF3D0012000F02EFB93
:1016F00014E0C0F80080FFF703FC0646686A10F0AB
:10170000020F0BD0FFF7FCFB801B022802D903203D
:10171000BDE8F88F686A10F0020FF3D1207810F05E
:10172000040F6FD00026E86910F0805F08D1E869E7
:1017300040F08050E861E86900F080500090012698
:10174000DFF8D8B1DBF8000010F4807F1BD1DBF8A4
:10175000000040F48070CBF80000FFF7D1FB824618
:10176000DBF8000010F4807F0DD1FFF7C9FBA0EB80
:101770000A00642802D90320BDE8F88FDBF80000D6
:1017800010F4807FF1D02069012816D0D0B105284F
:1017900021D0286A20F001002862286A20F0040085
:1017A0002862206941F2883B68B3FFF7A9FB8246B3
:1017B000286A10F0020F17D03AE0286A40F00100C2
:1017C0002862EEE7286A20F001002862286A20F0EB
:1017D00004002862E5E7286A40F004002862286ACD
:1017E00040F001002862DCE7FFF78AFBA0EB0A006B
:1017F000584502D90320BDE8F88F286A10F0020F7F
:10180000F2D015E01AE0FFE7FFF77AFB8246286A7C
:1018100010F0020F0CD0FFF773FBA0EB0A00584545
:1018200002D90320BDE8F88F286A10F0020FF2D128
:10183000012E03D1E86920F08050E861E06A98B396
:10184000696811F4803F0BD0696801F00C01082928
:1018500006D1E96A11F4803F02D00120BDE8F88F7B
:10186000022814D0E86A20F48030E862C7F8688063
:10187000FFF746FB0646286810F0006F59D0FFF7C7
:101880003FFB801B642850D90320BDE8F88F2868EF
:1018900010F0805F09D0E86A616B00F0F0008842C8
:1018A00003D00120BDE8F88F43E0C7F86880FFF758
:1018B00027FB0646286810F0006F0BD0FFF720FBCF
:1018C000801B642802D90320BDE8F88F286810F037
:1018D000006FF3D1E86A616B20F0F0000843E86222
:1018E000E86A216B20F470600843E862C7F86890EA
:1018F000FFF706FB0646286810F0006F19D1FFF7C6
:10190000FFFA801B64280BD90320BDE8F88F000084
:101910000010024000004242800442420070004039
:10192000286810F0006FEAD003E0286810F0006F1C
:10193000A5D1206AE8B3696801F00C01082957D0E5
:1019400002280FD0C7F86080FFF7DAFA044628684B
:1019500010F0007F5DD0FFF7D3FA001B022842D9B8
:101960000320D2E7C7F86080FFF7CAFA0646286866
:1019700010F0007F0AD0FFF7C3FA801B022801D9BC
:101980000320C2E7286810F0007FF4D1606AB0F548
:10199000803F09D1E86A61680843E862E86AE16863
:1019A00020F00F000843E862A16A606A0843696892
:1019B00000E02EE021F4741108436860C7F86090DD
:1019C000FFF79EFA0446286810F0007F21D1FFF748
:1019D00097FA001B022801D9032096E7286810F027
:1019E000007FF4D015E0286810F0007FB3D110E03C
:1019F00001280CD06868626A00F48031914204D1F9
:101A0000A16A00F47010884203D001207DE7012014
:101A10007BE7002079E70000401EB0F1807F01D312
:101A2000012070474FF0E0214861044AF020107017
:101A300000208861072008610020704723ED00E046
:101A400070B50446002C04D094F84100002510B174
:101A500006E0012070BD84F84050204600F024F8D4
:101A6000242084F841002068C16821F40051C1603D
:101A7000204600F001FA2068016921F490410161DB
:101A80002068416921F02A0141612068C16841F460
:101A90000051C1606564202084F8410084F8420050
:101AA0006563002070BD000030B585B0002400944F
:101AB0000194029403942B4D03682B4802210322C6
:101AC000AB4222D1836943F480438361836903F489
:101AD00080430493836943F0040383618069234D49
:101AE00000F0040004900802CDE900010392694669
:101AF0002846FFF7F7F82815CDE90004694628467F
:101B00000294FFF7EFF805B030BD194DAB42FAD1A2
:101B1000C36943F40033C361C36903F4003304931E
:101B2000836943F0200383618069124D00F0200037
:101B300004902020CDE90001039269462846FFF772
:101B4000D1F84020CDE90004694628460294FFF709
:101B5000C9F80948416841F0E06141F0080141607D
:101B6000D1E70000003801400010024000080140A9
:101B70000044004000140140000001402DE9F843FA
:101B800004460E4615461F4694F84100202802D010
:101B90000220BDE8F8837EB175B100206064212089
:101BA00084F84100FFF7ACF98146A584E584A0687C
:101BB000B0F5805F03D004E00120BDE8F883206920
:101BC00090B135460026E08C4FF02008C8B14B4656
:101BD000002280212046009700F0B2F930B184F84D
:101BE00041800320BDE8F8830025ECE7B5B121680A
:101BF000287848606D1CE08C401EE084E08C002852
:101C0000E5D14B46002240212046009700F098F98C
:101C100058B184F841800320BDE8F88330882168FA
:101C2000C0F308004860B61CE5E784F84180002056
:101C3000BDE8F883FEE70000114810B50F490160C8
:101C400001218A03C0E90112CA02C26001820D4962
:101C5000002280230A704B70E1238B70CA700A71D6
:101C60004A71C0E905124FF40001C0E90721FEF7EF
:101C70002FFE002801D072B6FEE710BD00800240A2
:101C800040120020540000202DE9F04385B00025CB
:101C900028480095019502950395816941F010014E
:101CA0008161816901F010010491816941F00401B1
:101CB0008161816901F004010491816941F00801A9
:101CC0008161816901F008010491816941F020017D
:101CD00081618069DFF8608000F0200004900022BC
:101CE00001214046FFF704F9DFF850904FF2040756
:101CF000002239464846FFF7FBF802240126CDE9C9
:101D000002540096694640460196FEF7EBFFCDE986
:101D10000254CDE9007669464846FEF7E3FFE0014C
:101D2000CDE90004694606480394FEF7DBFF05B0E1
:101D3000BDE8F08300100240000C01400014014097
:101D400000080140FEE7FEE77047000081B0074948
:101D50004FF4FA520968B1FBF2F14843009000BF1A
:101D60000098411E0091FAD201B07047680000202F
:101D70007047000010B5FFF7CDF9FFF7C1F8014932
:101D8000086010BD2C00002030B593B038216846A3
:101D9000FEF764FA14210EA8FEF760FA0125280464
:101DA0000421CDE902010224CDE90840009501900B
:101DB00005954FF4E010CDE90A044FF4C0600C9093
:101DC00040200D906846FFF79FFB08B172B6FEE712
:101DD0000F20CDE90E0400204FF48061CDE9100101
:101DE000129002210EA8FFF735FA08B172B6FEE78D
:101DF00000224FF030611046FFF762FB0848C16ACD
:101E000021F0F00141F04001C162C16A21F470414A
:101E100041F40041C1620348056713B030BD0000C2
:101E20000010024000004242704701680C3151E846
:101E3000002F22F4907241E80023002BF5D10168B5
:101E4000143151E8002F22F0010241E80023002B59
:101E5000F5D1016B012909D101680C3151E8002F3E
:101E600022F0100241E80023002BF5D1202180F858
:101E7000421000210163704770B504462068016973
:101E8000E26821F44051114301612169A0680843CF
:101E9000616901432068C26822F4037222F4A052EF
:101EA0001143C16020684169A26921F44071114366
:101EB00041612068A0F18041B1F59C313AD0FFF733
:101EC0008FFA00EBC00101EB001061681B4A89002A
:101ED000B0FBF1F3A2FB0353B0FBF1FC5B096FF025
:101EE00018056B430CEB83034FF0320C0CEB031320
:101EF000A2FB03535B0903F0F005B0FBF1F3A2FB77
:101F000003635B0905EB0313B0FBF1F5B0FBF1F0E4
:101F1000A2FB001040096FF01801484305EB800058
:101F20000CEB0010A2FB00102168C0F34310184412
:101F3000886070BDFFF764FAC3E700001F85EB51AE
:101F40002DE9F8430446089E0D461746984620683A
:101F5000006835EA000028D00020B84232D1B6F13E
:101F6000FF3F27D0FEF7CCFFA0EB0800B0421ED801
:101F7000EEB12068C16811F0040F1BD0802D19D07C
:101F8000402D17D0016811F0080F13D000252168EB
:101F90000968406800902046FFF747FF082060640A
:101FA00084F840500120BDE8F8830120D5E70320E4
:101FB000BDE8F8832068006835EA000005D00020FD
:101FC000B842CCD00020BDE8F8830120F8E700F04B
:101FD000E1BBFEE70FB4054B10B503A9044A029814
:101FE00000F018F810BC5DF814FB0000593D000823
:101FF000F800002002E008C8121F08C1002AFAD128
:1020000070477047002001E001C1121F002AFBD178
:10201000704700002DE9FF4F8DB00F4605460026A2
:1020200006E025280BD0DDE90F1290476D1C761CC9
:1020300028780028F5D111B03046BDE8F08F002493
:10204000A246A1460122E94900E0044315F8013FF8
:10205000203B02FA03F00842F7D128782A2810D052
:102060006FF02F022878A0F13001092914D80AEB6B
:102070008A0102EB410144F0020400EB010A6D1CED
:10208000F0E701CF5FEA000A03D544F40054CAF137
:10209000000A44F002046D1C28782E2817D115F888
:1020A000010F44F004042A280ED06FF02F02287884
:1020B000A0F1300109290AD809EB890102EB41019D
:1020C00000EB01096D1CF2E757F8049B6D1C2878A2
:1020D0006C280FD006DC4C2817D068280DD06A2851
:1020E00014D104E0742810D07A280FD10DE044F404
:1020F00000140AE044F4801401E044F440146978C8
:10210000814202D104F580146D1C6D1C28786E2864
:102110001ED00CDC632830D004DC00288BD058287B
:1021200011D19FE0642867D069280CD164E073283E
:102130002DD004DC6F2872D0702804D194E075286B
:102140006ED078286DD0DDE90F129047761C4BE1F8
:10215000C4F30250022806D0032809D0042801CF76
:1021600009D0066040E101CFF117C0E900613BE111
:1021700001CF068038E1067036E117F8040B8DF8C0
:10218000000000208DF80100EB46012003E057F825
:1021900004BB4FF0FF3061074FF0000102D40DE0A7
:1021A00008F10101884649450FDA8045F8DB1BF844
:1021B00008100029F4D108E008F1010188468142A5
:1021C000FADB1BF808100029F6D1DDE90F23AAEB92
:1021D00008008146214600F031F9304400EB080642
:1021E00004E0DDE90F121BF8010B9047B8F101087C
:1021F000F7D221464846F2E00A21C4F302524FF0DA
:10220000000B0891022A04D001CFC117032A09D07C
:102210000AE0FF1D27F00707F7E8020108E02CE0BD
:102220001EE01FE000B2C117042A01D140B2C1175D
:10223000021E71F1000206DA0023D0EB030063EB0B
:1022400001012D2202E0220504D52B228DF8242045
:10225000012203E0E20701D02022F7E7904653E095
:102260000A210BE0102109E010214FF0000B44F08F
:1022700004044FF00809089103E008214FF0000B17
:102280000891C4F30252022A04D001CF0021032A8C
:1022900006D006E0FF1D27F00707F7E8020103E07C
:1022A00080B2042A00D1C0B24FF0000822072BD51B
:1022B0002A78702A07D0DDF820C08CF0100C5CEA78
:1022C0000B0C05D00EE040228DF82420012208E0FE
:1022D00050EA010306D030238DF824308DF82520F4
:1022E00002229046089B83F0080353EA0B030BD1AC
:1022F00050EA010201D1620706D530228DF8242070
:102300004FF00108A9F101092A78582A04D038A20F
:102310000B9208AA0A920BE03AA2F9E75B46089AE8
:10232000FDF734FF0B9B9B5C0A9A521E0A921370B6
:1023300050EA0102F2D10A98ADEB000000F1200B47
:10234000600702D524F4803401E04FF00109D9453B
:1023500002DDA9EB0B0000E0002000EB0B01414483
:102360000890AAEB010AE00306D4DDE90F23214619
:10237000504600F063F806444FF0000908E009A950
:1023800011F80900DDE90F12904709F10109761CE7
:10239000C145F4DBE0030CD5DDE90F2321465046AF
:1023A00000F04CF8064404E0DDE90F1230209047BD
:1023B000761C0899481E08900029F5DC08E00A9868
:1023C0000A990078491C0A91DDE90F129047761CA2
:1023D000BBF10001ABF1010BF1DC21465046DDE918
:1023E0000F2300F019F806446D1C21E609280100AE
:1023F000303132333435363738396162636465667B
:10240000000000003031323334353637383941423C
:1024100043444546000000002DE9F04104460025F4
:102420001E461746880404D405E039462020B047EC
:102430006D1C641EF9D52846BDE8F0812DE9F041F8
:10244000044600251E469046C80301D5302700E00B
:102450002027880404D505E041463846B0476D1C66
:10246000641EF9D52846BDE8F081F0B51E1EC1B046
:1024700014460B4602D004F1060101E004F1050107
:10248000CFB24FF055018DF800104FF0AA018DF832
:1024900001108DF8020001D0201D00E0E01C8DF835
:1024A0000300224619466D4601A8FDF7B0FE300034
:1024B0000DEB040607D0A11CA81C00F010F8010ABF
:1024C0003171707105E0A41CE1B2A81C00F026F87F
:1024D00030713946684600F07DF941B0F0BDF0B585
:1024E00005464FF6FF742046002241F2210611E016
:1024F000AB5C80EA03200023070403D586EA400092
:1025000080B201E004EA40005B1CDBB2082BF3D38D
:10251000521C92B28A42EBD3F0BD000030B50346A4
:102520001F200022044C04E09D5C4540521C605D6D
:10253000D2B28A42F8D330BD048300081CB50146EC
:10254000EB239022684600F007F80000014800786D
:1025500070470000000000202DE9FF4F4FF00008F9
:1025600081B040468346039C32E001260BF1010016
:10257000FDF754FF1A49FDF7E1FE04F1010A00904E
:1025800001250AFB06F400BF04FB05F0FDF746FF3A
:1025900001460098FDF704FF814640460299FDF789
:1025A000C7FE20F0004748460299FDF7C1FE20F023
:1025B00000403946FDF738FF00D2C8466D1CEDB229
:1025C000072DE1D9761CF6B2072ED9D90AF0FF04FF
:1025D00004988442C9D90BF10100C0B2C2E70000DF
:1025E0000000C8412DE9F84388460746FEF788FCFD
:1025F000234C244D0646684605F054FE0028A0787A
:1026000020D040B301282CD09DF800102954401C44
:10261000C0B2A0700B28EED10821A81CFFF77EFFE6
:10262000A97A002201F01F01A2708842E3D1286834
:1026300038606868786028893881A87AB872012083
:10264000BDE8F8830028FBD0FEF75AFC811B41450A
:10265000D1D30020F4E79DF80000AA28CBD1287040
:102660000CE09DF80000552804D02870AA2805D059
:10267000002001E068700220A070BCE70120FBE7A9
:1026800000000020040100202DE9F0414778B6B099
:102690000446042F00D9042700208DF8000020787C
:1026A0008DF801008DF80270D4F8D0002022000EC1
:1026B0008DF80300D4F8D00004F1A801000C8DF8C7
:1026C0000400B4F8D000000A8DF8050094F8D0009A
:1026D0008DF80600D4F8CC00000E8DF80700D4F871
:1026E000CC00000C8DF80800B4F8CC00000A8DF87E
:1026F000090094F8CC008DF80A00D4F8C800000E48
:102700008DF80B00D4F8C800000C8DF80C00B4F85C
:10271000C800000A8DF80D0094F8C8008DF80E006E
:102720000DF10F00FDF773FD202204F188010DF17A
:102730002F00FDF76CFDD4F884005326000E8DF8B1
:102740004F00D4F88400E846000C8DF85000B4F82F
:102750008400000A8DF8510094F884008DF852002E
:1027600000250BE004EB451108EB06002022891C34
:10277000FDF74DFD20366D1CB6B2EDB2BD42F1D372
:10278000F2B2012369462120FFF76FFE36B0BDE8A3
:10279000F08100000B4810B500680B4982060DD58A
:1027A00008680A49C0B28A88CB88521CD2B29A42C1
:1027B00003D0074B8C8818558A8010BD0007FCD5C4
:1027C000086810BD003801400438014000000020B6
:1027D0000F01002030B5084B00221C1D06E01D68CB
:1027E0002D06FCD5855C2560521C92B28A42F6D338
:1027F00018684006FCD530BD003801402DE9F04195
:102800000F46064614461D46511C184605F060FD4D
:102810002E7124B122463946681DFDF7F8FC641D6F
:10282000A0B2BDE8F081000000B51C4899B0406836
:10283000002830D0002115A8FFF7D4FE00282ADD9B
:1028400000200190DDF8561002919DF85B10BDF854
:102850005C2001F07F018DF804108DF805009DF8D3
:102860005E009DF85A3000098DF8063012048DF88C
:102870000700039200900AA0029AFFF7ABFB04A89E
:1028800000900122022301A802F078FD010002D08D
:1028900004A800F0C1FE19B000BD00002C0000200B
:1028A0005B4E4F4E43455D206A6F625F69643D2514
:1028B00064206E6F6E63653D307825303858206334
:1028C0006F72653D256420736D616C6C3D25640DF0
:1028D0000A00000070B505460C4602F0A5FEA96886
:1028E00009682160A9680C60BDE8704002F09EBED6
:1028F00010B5044602F098FEA1680C682CB122685D
:102900000A6002F093FE204610BD02F08FFE002008
:1029100010BD00002DE9FC41294D04460E46A86873
:1029200010B10120BDE8FC81E868002846D120886C
:1029300041BA0A04A17847BA42EA0123E2783F0487
:10294000134347EA01271B06BFB243EA072347BAEE
:1029500040BA000440EA01201949FFB243EA0723C4
:1029600010431C3143EA106008602E8003F03DFEE6
:10297000E86048B10022134902F0C8FF002738B1CF
:10298000E86802F02DFF14E00FA0FFF723FB15E02D
:10299000E078CDE90006A378627821780EA0FFF7F1
:1029A00019FB0749154B32461C31E86803F06EF9F4
:1029B00008B1EF6002E0FEF7A3FA28610020B1E75A
:1029C0000C0000202C8500085B5443505D204E6FA6
:1029D000205043420D0A00005B5443505D20436F7A
:1029E0006E6E6563742025642E25642E25642E2565
:1029F000643A25642E2E2E0D0A000000A15900080D
:102A0000F0B589B001265BA0FFF7E4FA002401AD20
:102A100004F1110081B23046FDF708FF25F81400DB
:102A2000641C0F2CF4DB5EA0FFF7D4FA5FF0000407
:102A300063A035F81410FFF7CDFA641C0F2CF7DBF8
:102A400061A0FFF7C7FA18213046FDF7EFFE0446F4
:102A500019213046FDF7EAFE024621465BA0FFF74A
:102A6000B9FABDF8041066A0FFF7B4FA03213046A6
:102A7000FDF7DCFE044603213046FDF7D7FE054690
:102A800003213046FDF7D2FE0746AC4203D1BD42DA
:102A900001D163A000E064A000903B462A46214695
:102AA00064A0FFF797FAAC4212D1BD4210D1A4F551
:102AB0002040B0382BD0A4F5B840903825D0022162
:102AC0003046FDF7B3FE0146224667A0FFF782FAC3
:102AD00071A0FFF77FFA40F6B830FDF7E5FE01215F
:102AE0003046FDF7A3FE044605213046FDF79EFE65
:102AF000074600213046FDF799FE054672A0FFF714
:102B000069FAE80508D577A007E078A100E078A188
:102B100078A0FFF75FFADBE780A00090A80401D55A
:102B200080A300E081A3E80401D581A200E081A296
:102B3000294681A0FFF74EFAA00601D58CA300E03C
:102B40008DA3600701D58EA200E08FA2214690A040
:102B5000FFF740FA0FB19BA200E09CA239469DA06E
:102B6000FFF738FA600702D5A4A0FFF733FA09B0DF
:102B7000F0BD00005B5048594442475D203D3D3D5B
:102B8000204450383338343844534B2032354D4884
:102B90007A20524D4949203F3F203D3D3D0D0A00DE
:102BA0005B5048594442475D204578742072656700
:102BB0007320307831312D307831463A00000000F2
:102BC00020253034580000000D0A00005B504859A1
:102BD0004442475D205354524150283078313829BF
:102BE0003D307825303458202053545241502830FD
:102BF000783139293D3078253034580D0A000000ED
:102C00005B5048594442475D205048594352283050
:102C1000783131293D3078253034580D0A000000D4
:102C2000737461626C650000554E535441424C45CB
:102C3000210000005B5048594442475D20504859EC
:102C4000494452322072656164733A2030782530ED
:102C50003458203078253034582030782530345896
:102C6000202025730D0A00005B5048594442475DFF
:102C700020556E7265636F676E697A65642050488F
:102C8000592049443D3078253034583A3078253041
:102C900034580D0A000000005B5048594442475D1B
:102CA0002057616974696E6720337320666F7220E4
:102CB0006175746F6E656720746F20736574746CD2
:102CC000652E2E2E0D0A00005B5048594442475D88
:102CD000203D3D3D203F3F3F3F3F3F203D3D3D0D9F
:102CE0000A00000046554C4C000000004B535100B8
:102CF000432F49005B5048594442475D2050485992
:102D0000203D204450383338343820257320286340
:102D10006F6E6669726D6564290D0A0048414C4604
:102D2000000000003130304D0000000031304D0017
:102D3000454E0000444953005B5048594442475DAA
:102D4000204243523D30782530345820206175743C
:102D50006F6E65673D2573202073706565643D2542
:102D60007320206475706C65783D25730D0A000032
:102D7000444F4E450000000050454E44494E470028
:102D80005550212121000000444F574E0000000003
:102D90005B5048594442475D20424D53523D307884
:102DA0002530345820206C696E6B3D2573202061DE
:102DB00075746F6E65675F646F6E653D25730D0A90
:102DC0000000000050524553454E540041425345C7
:102DD0004E5400005B5048594442475D20414E4CE0
:102DE0005041523D30782530345820207061727443
:102DF0006E65723D25730D0A000000005B50485956
:102E00004442475D202A2A2A203F3F3F3F3F3F3F21
:102E10003F3F3F3F3F3F202A2A2A0D0A0000000083
:102E200030B5544D044687B0002204212846FEF7F1
:102E30005FF83220FDF738FD012204212846FEF715
:102E400057F84FF49670FDF72FFD00F043FF204632
:102E5000FDF7CEFC484883690268416947A0FFF747
:102E6000B9F853484268016852A0FFF7B3F85A48CE
:102E700041685AA0FFF7AEF801F0A4FBE08841BA20
:102E80000A04217A45BA42EA0123627A2D041343E7
:102E900045EA01251B06ADB243EA052345BA40BA0F
:102EA0000004EDB240EA012043EA0523104343EA5F
:102EB00010600390608941BA0A04217B45BA42EA56
:102EC0000123627B2D04134345EA01251B06ADB2A5
:102ED00043EA052345BA40BA0004EDB240EA0120B6
:102EE00043EA0523104343EA10600490E08941BAA5
:102EF0000A04217C45BA42EA0123627C2D04134373
:102F000045EA01251B06ADB243EA052345BA40BA9E
:102F1000000440EA0120EDB2104343EA052343EAEE
:102F200010600590384A394900208DE8070004AB4D
:102F300005AA03A9364801F08FFE354801F06CFF61
:102F4000334801F088FF0121314800F000FF30488C
:102F5000216840F8221FA188818006218171607A52
:102F60000090237AE279A1792AA0FFF733F807B01D
:102F7000012030BD00140140009002405B444D41EF
:102F80005D20444D4153523D307825303858202043
:102F9000444D41424D523D30782530385820204430
:102FA0004D414F4D523D3078253038580D0A0000C4
:102FB000008002405B444D415D204D414343523D02
:102FC00030782530385820204D41434646523D3018
:102FD00078253038580D0A00000001405B444D410F
:102FE0005D204146494F5F4D4150523D307825307C
:102FF000385820202862697432343D4554485F5265
:103000004D4949290D0A0000E53B0008013D000833
:10301000100200205B4C5749505D20537461636B74
:1030200020696E6974204F4B2C2049503D25642E39
:1030300025642E25642E25640D0A00000148806851
:10304000704700000C00002010B501210846FDF774
:10305000EDFBC0F3800010BD014800687047000020
:10306000E80000200148406870470000E8000020A8
:10307000024800210160416070470000E800002024
:1030800070B51C4800F054FEFDF73AFF1A4C054697
:103090006069281AFA2802D9656102F0C9FAA069A4
:1030A0000026281AB0F5FA6F0FD9A561FFF7CCFFFB
:1030B00008B1012106E0A06818B110A0FEF78AFF50
:1030C000A66000210B4800F042FEA06800280FD146
:1030D000E06800280CD0206941F28831281A884223
:1030E00006D90BA0FEF776FFE06802F079FBE660F8
:1030F00070BD0000100200200C0000205B45544809
:103100005D204C696E6B206C6F7374210D0A00009A
:103110005B5443505D2054696D656F75742C20724B
:10312000657472790D0A00002DE9FF41FFF768FC14
:103130007C4E002531467CA0FEF74CFF346980A010
:103140002146FEF747FFC4F30043C4F3C422C4F38F
:103150008411C4F380008DE80F0004F00101C4F372
:10316000C003C4F3001284A0FEF734FF34690221C7
:103170000120FDF75BFB3269034621468CA0FEF778
:1031800029FF9BA0FEF726FF00244FF6FF77A0B291
:103190000221FDF74BFB0646A0B20321FDF746FBDB
:1031A00003463EB1BE4205D0324621469AA0FEF704
:1031B00011FF0125641C202CE9DBC5B1012402218B
:1031C0002046FDF733FB074603212046FDF72EFB83
:1031D000064601212046FDF729FB054632463946C1
:1031E00097A0FEF7F7FEA80615D5A2A014E0A3A0AD
:1031F000FEF7F0FE02210120FDF718FB0446012135
:103200000846FDF713FB04B02146BDE8F041024635
:10321000A5A0FEF7DFBEAFA00090E80401D5AFA3E4
:1032200000E0AFA3680701D5AEA200E0AFA2294637
:10323000B0A0FEF7CFFE10212046FDF7F7FA0146B9
:10324000800601D5BAA000E0BAA00090480701D5D9
:10325000BAA300E0BBA3880701D5BCA200E0BCA2D2
:10326000BDA0FEF7B7FE00212046FDF7DFFA0146BC
:10327000000501D5C6A000E0C6A04A0501D5C6A23A
:1032800000E0C6A2CB0501D5ACA300E0ADA38D0440
:1032900001D5AFA500E0ADA5CDE90220CDE90053F1
:1032A000C80401D5BEA300E0BEA3080401D58BA2CB
:1032B00000E0BDA2BE48FEF78DFE04212046FDF7CA
:1032C000B5FA054605212046FDF7B0FA0446C5F3D8
:1032D0008022C5F34011C5F380108DE80700C5F3C7
:1032E000C013C5F300222946B248FEF773FEC4F3AB
:1032F0008022C4F34011C4F380108DE80700C4F3AA
:10330000C013C4F300222146AB48FEF763FE0CB1A4
:10331000AAA100E0ABA104B0ACA0BDE8F041FEF76B
:1033200059BE0000008002405B5048595D20455462
:10333000485F424153453D3078253038580D0A00EA
:103340005B5048595D204D41434D494941523D3004
:103350007825303858202028657870656374204DB2
:10336000423D626974303D302C2043523D626974A5
:1033700073343A32290D0A005B5048595D202020F1
:103380004D423D25642043523D25642E25642E2563
:1033900064204D523D3078253032582050413D3028
:1033A0007825303258204D573D25640D0A00000025
:1033B0005B5048595D20534D4920746573743A2021
:1033C0006265666F72653D3078253038582020611F
:1033D000667465723D3078253038582020726573E8
:1033E000756C743D3078253034580D0A00000000AB
:1033F0005B5048595D205363616E6E696E67206152
:10340000646472657373657320307830302D307862
:1034100031462E2E2E0D0A005B5048595D2020416A
:10342000646472203078253032583A2049443D3067
:1034300078253034583A253034580D0A0000000001
:103440005B5048595D204450383338343820494463
:103450003D3078253034583A253034582028657866
:1034600070656374203078323030303A4130423009
:10347000290D0A00444F4E45000000005B5048599A
:103480005D20204E6F2050485920726573706F6E1A
:1034900064656420617420616E7920616464726582
:1034A0007373210D0A0000005B5048595D202052C3
:1034B000656164203078303120726567323D307844
:1034C0002530345820726567313D307825303458C6
:1034D0000D0A000050454E44494E47004F4E000033
:1034E0004F4646005550212000000000444F574EE3
:1034F000000000005B5048595D20424D53523D3062
:10350000782530345820206C696E6B3D257320205F
:103510006175746F6E65673D257320206175746FEA
:103520006E65675F646F6E653D25730D0A00000070
:103530004F4B000049444C450000000046554C4CA0
:103540000000000048414C460000000031304D00B2
:103550003130304D000000005B5048595D2050482C
:10356000595354533D3078253034582020737065BA
:1035700065643D257320206475706C65783D257306
:103580002020706167655F72783D25730D0A000029
:10359000504400007570000049534F006E6F0000EA
:1035A000454E000044495300646F6E650000000002
:1035B000C48500083C8500088085000850524553AA
:1035C000454E5400414253454E5400005B5048590B
:1035D0005D206C696E6B5F706172746E65723D2503
:1035E000730D0A00F0B50A4A054600205488094EBA
:1035F00007E0F75C2F54401C5B1CC3F30B0380B245
:103600009380884202D29388A342F2D1F0BD000099
:103610000C0000204002002070B50A4C0E46014606
:10362000A0684FF0FF3530B1E06820B10123324689
:1036300004F024FC08B1284670BDE06803F04AF8A5
:10364000304670BD0C0000202DE9F74F04220546DE
:1036500082B000208B46DFF8DC90114614461646F7
:1036600001908646CDF8000000EB400A09EBCA0342
:10367000042C1F7D29D0C7B175B1D5F800C0D3F88F
:103680000480C44508D1DDF810C0BCF1000F4ED055
:10369000D3F80880E0454AD0012F1AD0022F04D376
:1036A0005B8A734501D301469E46401C00B2042844
:1036B000DADB5FEA8B734FF0FF3038D4042C18D07C
:1036C00025DB042919DA0C461EE0002FD4D104466C
:1036D000EBE759F83A705B8A2FB1019FBB42E4D304
:1036E00006460193E1E7009FBB42DED3024600930A
:1036F000DBE75FEACB731AD0E3E7042A01DA14466A
:1037000002E0042E13DA3446204600F015F82DB1FD
:1037100004EB440209EBC2002968416004EB440158
:1037200009EBC1000022428204998160204605B065
:10373000BDE8F08F2451002070B5074C00EB400528
:10374000002654F8350018B101F0F8FC44F8356053
:1037500004EBC500067570BD245100202DE9F0472B
:1037600086B00D00804643D0D8F804404FF48079ED
:103770002088484539D12079062836D16079042837
:1037800033D16088082830D1D4F80E100491A26992
:10379000686818B1824204D1012603E0002637464A
:1037A00008E00026814201D1012700E000270EB188
:1037B000012300E0022304F10802924604A92846EE
:1037C00000F0CEF9E08848450FD176B16FB90222FA
:1037D00004ABCDE90232291DCDE9001A05F122031F
:1037E00019465246284600F02FF9404601F0A6FC43
:1037F00006B0BDE8F0870000FEB504460E4615464B
:103800002146106800F02FFC08B1354B3FE02868D6
:10381000C0F303110E2925D0A168636800EA0102F4
:103820000B409A4208D080B2A0F57E41A93903D05E
:10383000E068B0B304F10C052A4B2B481A7802EB70
:10384000420100EBC1010F7D022F2ED38F68A742EA
:103850002BD12F6849688F4227D13146204600F08E
:1038600045F8FEBD01208DF8040000208DF805000C
:103870005E208DF80600687801AB00F07F008DF8BF
:103880000700A8788DF80800E8788DF809004FF453
:103890000060009004F122023146204600F0F4F965
:1038A000FEBDFFE76FF00300FAE7002202EB4201E2
:1038B00000EBC1010F7D022F08D38F68A74205D10D
:1038C0002F6849688F4201D11A70C6E7521CD2B2E4
:1038D000042AEBD332462946204600F037F8DFE7CA
:1038E00030850008E6000020245100202DE9F8432F
:1038F00006468846144802EB420100EBC10404F17D
:103900000C05207D022813D1608A0327B0F58E7F35
:1039100004D9211D304600F0DDF807E0B0F5877FBF
:1039200006D32A46211D304600F0DAF800B9277583
:103930004FF4006000902B4606F1220241463046CB
:1039400000F0A2F9BDE8F883245100202DE9FC5FC6
:103950008346223001900F46086814464FF0FF3628
:103960004FF0000A594600F07EFB80B93868C0F37A
:1039700003110E290BD057B148B15A4601213846E0
:10398000FFF762FE002805DA40B2BDE8FC9F6FF049
:103990000F00FAE700F0FF09294909EB490801EB9C
:1039A000C805287D08B134B114E04FF0010A85F84C
:1039B00014A0C5F808B03946584600F08BF8060048
:1039C00007D1287D012804D1BAF1000F01D10020D0
:1039D00068827CB3287D1A4F02280ED319494FF410
:1039E000006005F10C0381F80090009021465846D4
:1039F000019A00F049F906461FE001281DD1204632
:103A0000017B490607D522464FF42071102001F0B2
:103A1000F3FA044605E000680028F1D1204601F0E1
:103A200012FC44B157F8380008B101F087FB47F8A1
:103A30003840002601E04FF0FF363046A5E7000091
:103A400024510020E60000202DE9FF4F81B093466D
:103A5000DDE90F981F4600264FF420721C2110202C
:103A6000DDF838A001F02CFA05002FD06C68119811
:103A700000F0A6FDE0803868A060B888A081D9F881
:103A80000010C4F81210B9F80400E082DAF800005F
:103A9000C4F80E00D8F80000A0614FF480702080B8
:103AA00008206080062020710420607140F6060026
:103AB0000090DDE901025B46294600F0E5F8284662
:103AC00001F03CFB304605B0BDE8F08F4FF0FF3011
:103AD000F9E70000014A00F003B800003085000853
:103AE0007FB5064D031D0124CDE90035CDE9021453
:103AF0001E331946FFF7A8FF04B070BD36850008D5
:103B000070B5164D002400BF04EB440005EBC00265
:103B1000117DF1B1508A401C80B25082B0F5967F81
:103B20000AD2012906D003290AD004290AD0012982
:103B30000BD00EE0052808D32046FFF7FDFD08E076
:103B4000042000E00220107503E0111D9068FFF7CB
:103B5000C1FF641C042CD7DB70BD00002451002081
:103B6000F8B51F4616460D00044613D0286888B1E4
:103B7000214600F078FA68B92878C0F303100E28BF
:103B800008D0224639462846FFF75EFD002804DAB1
:103B900040B2F8BD6FF00F00F8BD114900EB4002D4
:103BA00001EBC2000223037584603368C360B388ED
:103BB00003820023438251F8325075B141F832300C
:103BC0004FF400600090334604F12202294620465B
:103BD00000F05AF8284601F0B1FA0020F8BD0000C4
:103BE000245100202DE9F041044640890E270D465E
:103BF0000E283CD96068E17B868919B995F82C10AC
:103C0000491CE1730178CA0714D0012905D00622A6
:103C10001C49FCF72EFB48B10CE0417851B9807883
:103C20005E2807D1607B40F0100002E0607B40F02E
:103C300008006073082E03D0B6F5C16F17D10DE0F0
:103C400095F82900000712D53946204601F008FBF7
:103C500068B92946204600F01DFA10E095F82900C1
:103C6000000704D53946204601F0FAFA18B120467B
:103C700001F064FA03E029462046FFF76FFD0020BB
:103C8000BDE8F081308500082DE9F04180461E46F0
:103C900017460D46069800F093FC04460E21284670
:103CA00001F0E7F818B16FF00100BDE8F081686835
:103CB000848131680160B18881803968C0F806105C
:103CC000B988418140462946D8F81820BDE8F0411E
:103CD000104700001FB5094A00924FF4BE60012151
:103CE000CDE90110A2F5BF5303F120010390042296
:103CF000A1F1A000FCF706FC1FBD0000E469002054
:103D0000652180F82A10302180F82B10064940F8F0
:103D1000141F0649416040F2DC5181811A2141752E
:103D20000621017500207047F93700086944000832
:103D300070B5044606E022692146904710B1284636
:103D400001F0FCF900F01EFB0500F4D170BD09B1D3
:103D500001F073B801F066B813B54FF0FF330122DC
:103D600069460248FDF70AFF00981CBD2413002095
:103D700010B5002821D0114B0022001F196803E064
:103D8000814203D80A4649680029F9D152B1136823
:103D9000841A9C4204D1006818441060104602E066
:103DA000506000E0186039B102680B1A934203D1E9
:103DB0000B681A4402604968416010BDFC00002095
:103DC0000A46032100F096B82DE9FE4F8B4648497C
:103DD00004468E6830780007850E142D47D360891D
:103DE00004287FD36068007800287BD0082879D128
:103DF000486901F11409C0F303120E2A72D08A46F1
:103E0000096800F030F900286CD12089082869D3AE
:103E1000204600F0B9F8002864D105F110010F46E2
:103E2000204601F026F840B32089411989B2884222
:103E300058D84FF42072102001F042F8070051D0FA
:103E4000798905F1080081420ED32A463146786807
:103E5000FCF7DDF92946384601F002FA20B921467F
:103E6000384601F0D8F818B1384601F067F939E062
:103E7000204601F063F93C4604E03946204601F053
:103E8000EFF978BB29462046D4F8048000F0F1FF12
:103E900040BB6668D9F800000027F060DAF810002F
:103EA000306188F80070E773B8F802004FF6F771D8
:103EB000884201D9093000E00830A8F80200FF204C
:103EC000307277812946304600F058F87081012120
:103ED000CDE90071FF230022CDF808B04946204605
:103EE00000F0A2F92046BDE8FE4F01F027B900001E
:103EF0000C5100202DE9FF47074600891C259246FA
:103F000089461C2800D2054605F1080081B24FF40D
:103F10002072242000F0D4FF06002DD07468D7F85A
:103F20000480082384F8009084F801A04FF0000971
:103F3000C4F804902A463946304601F0A7F8D8F86C
:103F40000C00039003A800F0E7F9050011D0A4F8D5
:103F500002904F467189204600F010F860800120E1
:103F60000097CDE90105FF2303AA0021304600F0A8
:103F70005BF9304601F0E2F8BDE8FF8700B500F0DC
:103F80002FFBC04380B200BD70B500263446054605
:103F900012E06989686800F023FB204481B201EBDC
:103FA0001044A87AC00706D08EB10026E0B2C4F350
:103FB000072141EA00242D68002DEAD126B1E0B2A4
:103FC000C4F3072141EA0024E04380B270BD01261A
:103FD000ECE730B41B68029D9CB204EB13442B68E1
:103FE0009DB22C4404EB13439CB204EB13439CB2EC
:103FF00004EB134330BCAFF300802DE9F0411C46C5
:1040000090460F460026054612E06989686800F070
:10401000E7FA204481B201EB1044A87AC00706D029
:10402000FEB10026E0B2C4F3072141EA00242D6866
:10403000002DEAD126B1E0B2C4F3072141EA002401
:10404000384600F0BDFA0444404600F0B9FA204476
:1040500081B201EB104000EB1040C04380B2BDE8DC
:10406000F0810126DEE7421C12D088B191F82920A8
:1040700092070BD54B68834208D0896800EA010299
:104080000B409A4202D10143491C01D000207047E5
:10409000012070472DE9F047456807460E4628780D
:1040A0000421B1EB101F03D0384601F047F89DE022
:1040B00000074FEA9068688800F082FA0446388961
:1040C000A04203D92146384601F096F87989414546
:1040D000EAD33889A042E7D34046B8F1140FE3D3BE
:1040E00001462846FFF74AFF0028DDD12969DFF89D
:1040F0000491C1F303100E28C9F81410EA68C9F836
:10410000102005D0304600F079F850B1344619E05F
:1041100096F82900C00702D070680028F6D1002464
:1041200010E099F8140000247F280BD0324804686E
:1041300006E0B44203D0204600F060F810B92468CD
:10414000002CF6D13146D9F81000FFF78CFF00287B
:10415000AAD199F810104846C1F303110E29A3D033
:10416000002CA1D0E98831F0C0019DD18560C0E963
:104170000046297838460907890EA9F80C104146EF
:1041800001F06EF8687A01280ED0062807D04D4657
:104190002146D9F81400FFF766FF50B116E031460A
:1041A000384601F02BFF14E031463846FFF70CFE8D
:1041B0000FE0287DC0F303100E2807D04146384693
:1041C00001F002F802213846FFF7FAFD384600F008
:1041D000B5FF0021C9F80010C9F80410C9F808108B
:1041E000A9F80C10C9F81010C9F814100020BDE887
:1041F000F08700000C5100208800002010B590F8D6
:104200002910C9070CD0416851B1064A52698A4247
:1042100004D001461046FFF726FF08B1012010BD6B
:10422000002010BD0C510020FEB5DDE90954089EA8
:104230001AB109B10F6807B9211D0096CDE90154E3
:1042400000F002F8FEBD00002DE9F84F9946DDE9C7
:104250000A87DDF830B016008A4605466FF0010483
:1042600044D0142100F005FEE0BB6C68390247EA37
:10427000092084F80890677241EA102130682061B3
:1042800082B2114401EB1040452121704FEA08220F
:1042900048F48A4142EA112184F801800F182889E4
:1042A00000F08EF900EB07086080194F0020E080D5
:1042B000388800F085F9A08039884044491C39804D
:1042C000BAF1000F0FD0DAF80010E1608AB21044A2
:1042D00000EB114081B201EB104000EB1040C043F5
:1042E00060810DE005E00B490968EEE76889142854
:1042F00002D22046BDE8F88F68686E4600690090DB
:10430000DBF814305846324629469847F2E7000059
:10431000E40000202C85000870B50146144813E025
:1043200090F82920D3070FD053070DD543685BB110
:1043300084680D68234005EA04069E4216D0920761
:1043400002D4C268954211D000680028E8D109481B
:10435000006850B190F82920D30706D0520704D541
:10436000426812B109787F2900D1002070BD000099
:10437000880000208C00002038B5049C0094FFF7D2
:1043800028FE38BD2DE9F84F2D4D4FF4BE604FF09B
:10439000040A002405F1A008CDF8000005EB441044
:1043A00081460068002813DB4846FCF739F907040A
:1043B0003F0C02D00098874210D9C4EB441000EBA8
:1043C000841108EB011152464846009BFCF762FA43
:1043D000641C5445E2DB0020BDE8F88F4FF4C17245
:1043E0003946002000F06CFD5FEA000B22D0054644
:1043F000C4EB441000EB8411002608EB01186C8913
:10440000A019B84200D9BC1B08EB06012246686817
:10441000FBF7FDFE2D682644002DF0D141465246A3
:104420004846009BFCF736FA06480168491C0160C3
:104430005846D1E7394604A0FDF7CCFDBDE70000A2
:1044400084510020E80000205B4554485D204E6FF9
:10445000207062756620666F722052582025642095
:1044600062797465730D0A002DE9FE4F2F4FDFF856
:10447000B8802F48BA6808EB421501E0401E09D009
:104480002B68002BFADBD5F8089000260C464FF479
:10449000BE6A19E0114627A0FDF79CFD6FF00200EF
:1044A000BDE8FE8F62899019504505D929A0FDF716
:1044B00091FD6FF00100F3E709EB06006168FBF77F
:1044C000A6FE608924680644002CEBD1C6F30C00DC
:1044D0006860274828600020B860FCF709F8786811
:1044E000401C7860F86800281CDD401EF8602148F8
:1044F00000232968002902DA5B1C8342F9D31E4895
:1045000040692968CA0F454501D0012100E000211A
:10451000C0F30255CDE90005C0F3800402941748AA
:10452000FDF758FD0020BBE704520020E800002002
:1045300040420F005B4554485D2054582064657329
:104540006320256C7520737475636B20284F574E5C
:10455000290D0A005B4554485D2054582062756659
:10456000666572206F766572666C6F770D0A000063
:10457000000010F0A0860100009002408087000833
:1045800010B504464068804701F07CF8094A21686C
:1045900052688B181A1AB2F1004F03D3084422460E
:1045A000054902E0044922461846BDE8104001F0E2
:1045B00079B80000940000208145000800BA7047D7
:1045C00040BA704710B500F0FFFA00F017FB00F09A
:1045D000DDFB01F007FDBDE8104001F08BB80000E5
:1045E00018B50022ADF8002010F001030CD000290E
:1045F0000ADD10F8014B8DF80140491E04E000BFB0
:1046000030F8024B891E22440129F9DC002902DD21
:1046100000788DF80000BDF80000104481B201EB75
:10462000104081B201EB104023B1C1B2C0F30720AA
:1046300040EA012080B218BD8AB0FCF773FDFDF797
:10464000A3FBFDF721FBFDF7F7FAA748A549A74F04
:1046500001600025C0E901750914C0E903514561F5
:104660008561C5610562FCF751FC08B172B6FEE7D1
:104670009D489F4954304FF4E1360160C0E901651F
:104680000C24C560C0E904548561C561FDF7D8F903
:1046900008B172B6FEE7944896499C300160C0E9C3
:1046A0000165C560C0E904548561C561FDF7C8F9BD
:1046B00008B172B6FEE7904E4FF400540022214636
:1046C0003046FCF715FC6420FCF7EEF80122214689
:1046D0003046FCF70DFC6420FCF7E6F8EF22CD2114
:1046E000AB208DE80700DC230822002183A0FDF722
:1046F00071FCFF2005900690CDE9070501200822F6
:10470000CDE9022004901A211420CDE900010123F3
:1047100085A0FDF75FFC40F6BC704FF00B0BCDE9B8
:1047200000B0012308221A218EA0FDF753FCFCF7EC
:10473000E7FB944C206094A0FDF74CFC9EA0FDF795
:1047400049FC00220221A5A0FDF744FCA7A0FDF72B
:1047500041FCB1A0FDF73EFCB448FEF761FB002828
:1047600027D0B3A0FDF736FCFEF7DEFC002060602A
:10477000B3A0FDF72FFCBCA0FDF72CFC42F2107992
:104780004FF47A764FF4FA7A4FEA0708FCF7B8FB51
:104790000546A069281AB04204D92946B9A0A561E6
:1047A000FDF718FCFEF74AFC0028A06812D048B1BB
:1047B0002CE0B9A0FDF70EFC4FF496742046FCF7F0
:1047C00073F8FBE70120A060BAA0FDF703FC00F03E
:1047D000E9FE05E030B10020A060BAA0FDF7FAFBC9
:1047E000A06898B92069281AB0420FD940F6BC7762
:1047F0002561CDE900B7012308221A21B9A0FDF7F0
:10480000E9FB604839460C30FEF784F8FEF738FCC7
:1048100000F0FEFDFEF708F8A06840B160694EF6B2
:104820006021281A884202D9656100F0BBFE206A27
:10483000281A484532D92562FEF714FC0190FEF78C
:104840000BFC0090FEF700FC08B1B0A700E0B0A799
:10485000606808B1FDF77AFEB5FBF6F1AE4A526921
:10486000DDE9003CCDE900070293CDE903C26068B1
:1048700008B1AAA300E0AAA3A06808B1A9A200E019
:10488000AAA2AC48FDF7A6FB47F23050B5FBF0F109
:1048900000FB1150B04201D2FEF7EAFBE069281A92
:1048A00050450ED9E561A06830B100224FF40051A7
:1048B0001148FCF71DFB04E04FF400510E48FCF7D3
:1048C0000FFB616A491CB1FBF8F208FB1210616230
:1048D00018B92A4698A0FDF77DFB0A20FBF7E4FFF4
:1048E00054E700000054004088120020A086010018
:1048F0000038014000440040001001405B4E455428
:104900005D204D41433A20253032583A2530325807
:104910003A253032583A253032583A253032583A12
:10492000253032580D0A00005B4E45545D20495039
:104930003A2025642E25642E25642E2564202047E8
:10494000573A2025642E25642E25642E25642020C8
:10495000534E3A2025642E25642E25642E25640DA1
:104960000A0000005B4E45545D2053657276657207
:104970003A2025642E25642E25642E25643A25646C
:104980000D0A00002C0000200D0A3D3D3D3D3D3D3F
:104990003D3D3D3D3D3D3D3D3D3D3D3D3D3D3D3D47
:1049A0003D3D3D3D3D3D3D3D3D3D3D3D3D3D3D3D37
:1049B0003D3D0D0A0000000020204254434D696E29
:1049C00065724D53204631303756435436202B20E4
:1049D000445038333834380D0A0000002020465740
:1049E000207625642E25640D0A0000003D3D3D3DE6
:1049F0003D3D3D3D3D3D3D3D3D3D3D3D3D3D3D3DE7
:104A00003D3D3D3D3D3D3D3D3D3D3D3D3D3D3D3DD6
:104A10003D3D3D3D0D0A00005B5359535D2045541B
:104A20004820696E69742E2E2E0D0A000884000835
:104A30005B5359535D20455448204F4B0D0A0000ED
:104A40005B5359535D20424D3133363620646973D0
:104A500061626C6564202845544820746573742035
:104A60006D6F6465290D0A005B4C4F4F505D20450A
:104A70006E7465726564206D61696E206C6F6F7015
:104A80000D0A00005B4C4F4F505D202E207469636F
:104A90006B3D256C750D0A005B4552525D204554F7
:104AA0004820696E6974204641494C4544210D0AED
:104AB000000000005B4E45545D20544350204F4B96
:104AC0000D0A00005B4E45545D2054435020646F36
:104AD000776E2C2077696C6C2072657472790D0A80
:104AE000000000005B4E45545D20436F6E6E6563B1
:104AF00074696E672025642E25642E25642E256436
:104B00003A25642E2E2E0D0A00000000555000009C
:104B1000444F574E00000000009002404F4B0000F1
:104B20004F464600434F4E4E000000005741495447
:104B300000000000B08600085B414C4956455D20EE
:104B40006C6F6F7020636E743D256C7520746963A3
:104B50006B3D256C750D0A00F0B50B30154D20F03E
:104B600007010024144A0FE003688B420BD38B42E9
:104B700005D95E1A43184768C3E9006700E0436837
:104B8000136002C004E0021D10680028ECD120462A
:104B9000002802D1286808B10020F0BD064A074865
:104BA0001060074A121A22F00702C0E9002401200F
:104BB0002860D7E700010020FC000020DC6F002007
:104BC000D8710020FFF7D4B8704710B5FFF7C4FFC5
:104BD000040003D100F028FD00F028FD204610BDA0
:104BE00070470000062806D2002904D0024A52F875
:104BF0002000FDF76FBE7047B084000830B5064D49
:104C0000002400BF55F8240000F008F8641CA4B28A
:104C1000062CF7D330BD0000B08400088268002164
:104C200011600022416807E08368521C1B680B601A
:104C3000836819600388194443889342F4DC704701
:104C4000062801D300207047024951F82000FDF7E3
:104C50004FBE0000B08400082DE9F0410400DDE9FA
:104C60000770069E1ED0EFB101B9214902B9204A52
:104C700003B91F4B00256560A560DFF878C0C4F854
:104C800014C0E560258484F82950E6611A4E96F830
:104C900000C084F82CC02061204600F08DF820462A
:104CA000B84710B10020BDE8F081716894F82C007D
:104CB000FF2801D184F82C50084694F82C200AE0F3
:104CC00090F82C30934205D1521C84F82C200028F7
:104CD000ECD102E000680028F2D1D0B2FE2805D065
:104CE000401C3070216020467460DCE73570F9E7C5
:104CF0002C850008B34D00088400002001F03EBC64
:104D00000A68C3689A4204D001B90022C260012037
:104D100070470020704738B505460C46086869683A
:104D2000884212D02068009068681060694610467A
:104D3000FFF7E4FF3CB1206868600121284600F0DD
:104D400026F8012038BD0020F6E7002038BD0A68AB
:104D500083689A4204D001B9002282600120704722
:104D60000020704701000CD00748406807E000BFF2
:104D700090F82C20521CD2B28A4203D0006800283E
:104D8000F6D10020704700008400002070470A46DA
:104D900090F829104B070BD5CB0709D0D20707D0C5
:104DA0004268002A04D0090702D5011DFEF792BE11
:104DB00070476FF00B0070472DE9F84F4FF0000976
:104DC0001D4616460C008246C84600D1114C06B955
:104DD000104E05B90F4DACB1206898B100274A4676
:104DE00031465046FFF7B3FF424629465046FFF78B
:104DF00087FF002F04D16A4621465046FFF78BFFFC
:104E0000BDE8F88F01276A4621465046FFF783FF29
:104E1000E5E700002C850008014988607047000024
:104E200084000020002807D090F829104A0703D5F5
:104E300001F0FB0180F82910704700280AD090F893
:104E400029104A0706D441F0040180F829100321F3
:104E5000FFF79DBF704700280AD090F82910CA07B5
:104E600006D141F0010180F829100321FFF78FBF1F
:104E700070470022AFF3008030B5F0B1B1F5803F4C
:104E80001BD279B104898BB21C44A4B29C4214D3C6
:104E9000057B2D0608D54268511A00F11002914297
:104EA0000BD304E0002030BD3AB14268511A416092
:104EB0004189194441810481F4E7012030BD00009B
:104EC0002DE9FC5F064690460C461046012A0AD0A2
:104ED000412808D04FF0000BB0F5C17F09D0B2F5E2
:104EE000207F50D138E00246002000F051F80546FE
:104EF00046E00025A9460F460520FFF7A1FE040065
:104F00001CD0A6F2F450404280B2B84200D93846D4
:104F10008246CDE9008BA11953463A46204610310E
:104F200000F05CF9B5B1C9F80040A7EB0A0007042E
:104F3000A1463F0C4FF00006DED121E000F074FBEB
:104F4000124A0121117000F071FBE5B1284600F012
:104F5000F5F818E02546E8E7311901F11000A14203
:104F600011D3A0420FD3FFF730FE05000BD0CDE9DF
:104F7000008BA91923461A462846103100F02EF955
:104F80002846BDE8FC9F0020FBE7000090000020C1
:104F90002DE9FC41074615460E460420FFF750FE5A
:104FA00004004FF0000008D0CDE9005033461A4607
:104FB0003946204600F012F92046BDE8FC8110B5C4
:104FC00000280FD000290DD004E003890C89234468
:104FD000038110460268002AF7D102890B891A441E
:104FE0000281016010BD002102E0491C006889B205
:104FF0000028FAD10846704770B514460A46218940
:10500000FFF75EFF050004D0214600F004F82846B3
:1050100070BD002070BD19B10A89002300F036B8B8
:105020006FF00F0070472DE9F047002716468946BC
:10503000B846002805D0B9F1000F01D0044620E0A1
:105040000020BDE8F0872BB16089984202D8181A79
:1050500083B215E06089C01A85B2B54200D93546E1
:1050600060682A46C11809EB0700FBF7D0F808EB87
:1050700005001FFA80F8781987B2701B86B20023EA
:1050800024680EB1002CDED14046DAE72DE9F05F4E
:1050900090460C0005461E464FF000076FF00F0AC1
:1050A00035D02189414532D38DB3298906EB0800DB
:1050B00081422CD36FF0050B6889811B6089C01B6E
:1050C000814200D208464146804500D208468146CA
:1050D00060684A46C11968683044FBF798F8A8EB45
:1050E00009001FFA80F860894F444E44B84205D841
:1050F0002468002714B9B8F1000F08D16889B042BC
:1051000008D12D6800262DB9B8F1000F02D0504605
:10511000BDE8F09F2CB160892189884201D12068C7
:1051200030B93DB168892989884203D1286808B11E
:105130005846EDE75FEA0800BED1E9E770B5040024
:105140000AD0002500F070FAA17B491ECEB2A673EA
:1051500000F06CFA16B11AE0002070BD207B2668C2
:1051600000F00F00022803D0012804D040B10AE06B
:105170002146052001E021460420FFF733FD02E02F
:105180002046FFF71FFD6D1CEDB23400DAD1284632
:1051900070BD000010B500F047FA094A00211170F7
:1051A00000F044FA0748006806E0416F19B1BDE815
:1051B000104000F0F9BEC0680028F6D110BD000014
:1051C00090000020B80000200122AFF300800029E9
:1051D00002DA494200F044B8FFF74EBE70B5002431
:1051E000DDE90456C0E9004102814381057346733D
:1051F00001218173C47370BD70B502898A4221D9BF
:10520000521A92B20D46044605E0281A85B220894A
:10521000801A208124686089A842F6D3207B000789
:1052200008D16089A84205D06068001B411920465A
:10523000FFF7D6FC65812581206808B1FFF77EFF66
:105240000020206070BD10B5040008D000F0ECF91B
:10525000A17B491CA173BDE8104000F0E7B910BD67
:1052600010B538B1B1F5803F04D229B143898AB273
:10527000934203D2012010BD002010BD4468214498
:105280004160991A41810189891A0181F4E72DE968
:10529000F04114460546722902D20020BDE8F08193
:1052A000D4211046FAF7DAFF2878207068780226B1
:1052B0006070042801D90420607000270AE004EB24
:1052C0004710A9192022801CFAF7A1FF20367F1C65
:1052D000B6B2FFB26078B842F1D8A81900F08EF8E3
:1052E000361DB6B2C4F88400A919202204F1880042
:1052F000FAF78DFF2036B6B2A919202204F1A800D2
:10530000FAF785FF2036B6B2A81900F077F8361DF7
:1053100044F8C80FB6B2A81900F070F8361D6060E6
:10532000B0B2284400F06AF8A0600120B6E7042972
:1053300001D200207047018849BA1180408840BAE4
:105340005080012070473EB504460D46D4E9002345
:10535000684602F0C5FF207A8DF8080060892B4668
:10536000010A8DF809108DF80A00207B8DF80B00DA
:105370000C2269460420FDF741FA3EBD70B586B0A7
:10538000044600780A9D8DF8000060788DF80100D1
:105390006E46B01C616802F09BFFB01DA16802F070
:1053A00097FF094800684FF47A71A0FB01230DF1C3
:1053B0000A0002F095FF2B46122269460220FDF7F3
:1053C0001DFA06B070BD00002C0000202DE9F04150
:1053D0001D4616460C460746052908D300F00EF870
:1053E000411EB1F5006F02D2001D844202D200209E
:1053F000BDE8F081308029803879F9E7018882782A
:1054000049BA0904C07841EA022108437047000004
:105410002DE9F047BAB04FF400614148FEF7E2F8D9
:10542000061E79DD0024DFF8F890DFF8F8A0B7B2A7
:105430006FE0301B81B209EB0400804638AB39AA1B
:10544000FFF7C4FF050067D0BDF8E420002A63D051
:10545000A018B04260D808F10508BDF8E030294630
:1054600031A0FCF7B7FD012D07D0052D22D029462C
:1054700037A0FCF7AFFD00253DE003AABDF8E01022
:105480004046FFF704FF00283FDD35AB93E80700F7
:10549000CDE9001002929DF80D209DF80C103448C3
:1054A000249BFCF797FDDAF8040070B303A8FDF71E
:1054B000EBF82AE06A46BDF8E0104046FFF737FFF8
:1054C000002822DDBDF80220BDF8001029A0FCF75D
:1054D00081FDDAF80400C0B1BDF80000FAF79EFFC4
:1054E0006421FDF72BF810E018F805102AA0FCF74E
:1054F00071FD6D1CADB2BDF8E000102800D9102080
:10550000A842F1D826A0FCF765FDBDF8E4002044D0
:1055100084B2601D87428CD23AB0BDE8F0870000AB
:105520006C1300202C0000205B5443505D207479E4
:1055300070653D307825303258206672616D653D6A
:105540002564207061796C6F61643D25640D0A00EB
:105550005B5443505D20556E6B6E6F776E2074798F
:105560007065203078253032582C206865783A00F4
:10557000588600085B504152414D5D20667265714E
:105580003D2564204D487A20766F6C746167653DD7
:105590002564206D560D0A00202530325800000089
:1055A0000D0A000010B5104B98B004AC0FCB84E886
:1055B0000F000E4808A900798DF8180004A8FFF71D
:1055C000C2FE04000ED000200221CDE9001002949A
:1055D0009DF81830012206A0FCF7FCFC214608A823
:1055E000FEF71AF818B010BD208400082C00002027
:1055F0005B48454C4C4F5D20626F6172645F69642B
:105600003D3078253038582530385820617369632B
:105610003D25642066773D25642E2564206C656EEB
:105620003D25640D0A00000000207047704700000F
:105630002DE9F04700F026F8104E114C05464FF0CA
:105640000047307808B1FFF7A5FD2168002912D086
:1056500048682A1ABA420ED20A682260D1E9028941
:1056600060600320FFF7BEFAB8F10002E9D04846B7
:1056700011468847E5E7BDE8F0870000900000206C
:1056800094000020FBF73CBC70B515460E4604465E
:10569000FFF7F8FF20442A463146BDE8704000F08D
:1056A00001B8000070B5044615460E460320FFF70A
:1056B000C7FA00280ED00021C5600D4A80E85200CC
:1056C000116831B14B68E51A4FF000439D420AD38F
:1056D0000160106070BD5568651B9D4202D3026079
:1056E000086070BD11460A68002AF8D0F3E7000090
:1056F00094000020034A0449A2F108008068FFF7E3
:10570000C3BF0000D0840008814500082DE9FE4F8A
:10571000040060D0207D0A283CD00025DFF8BC8042
:10572000D4F850B0D4F824A0D4F81090D4F89060F5
:105730002F4670B30D46E78A214608F1180001F0A4
:1057400036FA012188F80010206F08B102F0DAF86B
:10575000E06E08B102F0D6F8606F08B102F0D2F83E
:1057600055B1208B211DCDE90017234602905246EA
:105770005946184602F05CF8204600F0E1FB002E86
:1057800029D003B04846B446BDE8F04F6FF00C0195
:10579000604709E0114821461C3001F008FA204614
:1057A000BDE8FE4F00F0CCBBE08A0028CCD0D8F892
:1057B0001000A0420AD1C068C8F8100008E0C16813
:1057C000A14202D1E168C16002E008460028F6D19A
:1057D0000020E060B8E7BDE8FE8F0000A0000020D8
:1057E0000121FFF793BF00002DE9F041064600209C
:1057F000FFF726FA424D04005BD1A86909E0418B0E
:10580000C4680A0704D521F00801418300F016FAA4
:1058100020460028F3D100221146EC68E86906E032
:10582000036AE31A934201D31A460146C06800286E
:10583000F6D111B10846FFF7D3FF0020FFF700FAB9
:10584000040036D1092000F0F7FD0020FFF7F8F939
:1058500004002ED1082000F0EFFD0020FFF7F0F942
:10586000040026D17F2E01D97F2001E030001BD01B
:10587000401EC2B200231946EC68A8690EE0477DBD
:10588000974206D309D1D0F820C0A4EB0C0C9C455C
:1058900003D3016A3A46631A0146C0680028EED174
:1058A00011B10846FFF79CFF0020FFF7C9F904007B
:1058B00023D09C21FAF7D2FC667541F2D060A4F89F
:1058C0006400608520854021E1724FF40671618695
:1058D0000621A4F84010E187C91F21860121A4F800
:1058E0004810E9682162A978A177A4F84A00054820
:1058F000C4F884000448C4F894002046BDE8F08150
:10590000A00000206376000800DD6D002DE9F04165
:105910000D0004464FF0040300D11E4D2CB1207D34
:1059200030B16FF00500BDE8F0816FF00F00FAE7CD
:1059300032B1194E002100BF56F82100006817E06F
:1059400000F056FE020018D1801EECE7C78A97428D
:105950000DD148B107683FB135B1D5F800C0BCF1F1
:10596000000F01D0674502D16FF00700DBE7C06888
:105970000028EBD1491C9942DEDB15B1286800B143
:1059800020600648E2820169E160046102F0F8F9F2
:105990000020C8E72C8500081C850008A000002016
:1059A0007CB5144C15000E4608D0114612A0FCF729
:1059B00011FB0020A060E06028467CBD0120A060B3
:1059C0000C4822881C30C178CDE9001283784278D7
:1059D000017810A0FCF7FEFA1749304601F03CFEB2
:1059E0001649304600F071FA02221549304601F09E
:1059F00006F9E1E70C0000205B5443505D20436F43
:105A00006E6E656374206661696C65643A20256416
:105A10000D0A00005B5443505D20436F6E6E65635A
:105A200074656420746F2025642E25642E25642EF1
:105A300025643A25640D0A00895A0008455A000871
:105A4000855A000870B506A0FCF7C4FA0C4C002576
:105A5000A560E068002802D0FFF7C2FEE56070BDD7
:105A60005B5443505D204552522063616C6C62610F
:105A7000636B3A206572723D25640D0A00000000D8
:105A80000C000020002070472DE9F047184C164606
:105A90008A464BB946B1B6F80890A788DFF854C0DB
:105AA000154600206B6813E013A0FCF793FA002062
:105AB000A0601AE061880A46491CC1F30B01B94293
:105AC00009D013F800800CF80280401C618080B27D
:105AD00069898142EED82D68002DE2D149465046B1
