:020000040800F2
:10000000007900206901000833210008AD1F0008B5
:100010003121000849080008BF2300080000000043
:100020000000000000000000000000005D2100084A
:100030004B0800080000000035210008612100087D
:100040008301000883010008830100088301000880
:100050008301000883010008830100088301000870
:100060008301000883010008830100088301000860
:100070008301000883010008830100088301000850
:100080008301000883010008830100088301000840
:100090008301000883010008830100088301000830
:1000A0008301000883010008830100088301000820
:1000B0008301000883010008830100088301000810
:1000C0008301000883010008830100088301000800
:1000D00083010008BB230008830100088301000896
:1000E000830100088301000883010008000000006C
:1000F0000000000000000000000000000000000000
:1001000000000000000000008301000883010008D7
:1001100083010008830100088301000883010008AF
:10012000830100088301000883010008830100089F
:10013000830100088301000883010008830100088F
:10014000830100088301000883010008830100087F
:10015000DFF810D000F066FB00480047ED4F0008C4
:10016000AFF300800079002006488047064800472A
:10017000FEE7FEE7FEE7FEE7FEE7FEE7FEE7FEE757
:10018000FEE7FEE715220008510100082DE9F05FA7
:100190000546002092469B468846064681464024F6
:1001A0001BE0284641464746224600F020F85346C9
:1001B0005A46C01A914110D311461846224600F003
:1001C0008DFA2D1A67EB01084F46224601200021C7
:1001D00000F084FA17EB00094E41201EA4F101043F
:1001E000DFDC484631462A464346BDE8F09F202AD8
:1001F00004DB203A21FA02F00021704721FA02F3D1
:10020000D040C2F12002914008431946704710B512
:10021000431A934209D28318881803E010F8011D8D
:1002200003F8011D521EF9D210BD40EA01039B07DD
:1002300003D009E008C9121F08C0042AFAD203E05B
:1002400011F8013B00F8013B521EF9D210BDD2B2A9
:1002500001E000F8012B491EFBD270470022F6E7AF
:1002600010B513460A4604461946FFF7F0FF20462C
:1002700010BD30B504460020034600E05B1C9342ED
:1002800003D2E05CCD5C401BF8D030BDF0B480EA16
:100290000102D40F4200B2EB410F02D202460846DF
:1002A00011464A0042D0C30DDDB2C1F3C752AD1AA8
:1002B000202D35DAC1F3160141F4000204B1524297
:1002C000C5F1200602FA06F12A411044B3EBD05FD3
:1002D00023D0C4B1012DA0EBC35009DCF0BC4FF01A
:1002E000004202EAC352DBB200F5000000F00EBA91
:1002F000400000F1807000EBC350A0F1807040EA34
:10030000D170490009E0490841EAC071A0EBC3502F
:1003100000F50000400800EBC350F0BC00F0EDB960
:100320006142012202EB4101001BF6E7F0BC70477D
:1003300081F00041AAE780F00040A7E780EA0102CF
:1003400010B502F00043400022D04A001FD0010E39
:1003500001EB1261C0F35600C2F3560240F40000F4
:1003600042F40002A0FB022000047F39140400D0F4
:10037000401C50EA124001D44000491EC2B20C0693
:1003800004EBD010401C4008802A02D003E000207B
:1003900010BD20F00100002900DA0020184310BD34
:1003A00030B480EA010202F0004530F0004221F052
:1003B000004013D090B1C30DD40DC2F31601C0F3A9
:1003C0001600E41A41F4000140F400027D34914229
:1003D00001D3641C00E04900002C02DA30BC00208C
:1003E00070474FF400000023914201D3891A034360
:1003F00040084FEA4101F7D151B1914202D14FF08B
:10040000004105E002D24FF0010101E06FF001016F
:1004100003EBC450284430BC00F06FB92DE9FE4F07
:1004200081EA030404F0004421F0004100944FF0FD
:10043000000B23F0004350EA01045ED052EA0304AB
:100440005BD0C3F30A54C1F30A552C44A4F2F3342D
:100450000194A0FB0254C1F3130141F48011C3F3D2
:10046000130343F4801301FB024400FB034E840A90
:10047000970A44EA815447EA8357A4FB0768029528
:100480008D0A05FB07854FEA932C04FB0C542705C6
:10049000029D4FEA065847EA1637B5EB08056EEBA2
:1004A000070C870E920E47EA811742EA8312A7FBD8
:1004B0000201B6EB0B0164EB00042B0D43EA0C3395
:1004C0005E1844EB1C50DA465146E7FB0201C5F3C7
:1004D00013044FEA0B3343EA14534FEA0432019CEE
:1004E00043EA0603A4F10C040294009CCDE900B495
:1004F00000F049F903B0BDE8F08F00200146F9E7AC
:100500002DE9F04D81EA030404F0004B21F0004591
:1005100014464FF0000A23F0004150EA050220D0B3
:1005200054EA01021DD0C5F30A570246C5F313036E
:10053000C1F31300C1F30A5640F4801543F480134D
:10054000A7EB0608101BD64608F2FD3873EB050032
:1005500002D308F1010801E092185B41B8F1000FE5
:1005600003DA00200146BDE8F08D00204FF4801131
:10057000064684460EE0171B73EB050705D3121BD6
:1005800063EB050306434CEA010C49084FEA3000CF
:1005900092185B4150EA0107EDD152EA030012D0F4
:1005A00082EA040083EA0501084305D0101BAB4131
:1005B00006D20122002306E000224FF0004302E0B1
:1005C0006FF0010253101AEB06004CEB085110EBD0
:1005D0000A0041EB0B01BDE8F04D00F0C5B870B565
:1005E00021F0004303430CD0C1F30A550024D5EB9E
:1005F000040564EB0403D617AD1AB34102DB0020F7
:10060000014670BD201841EB025170BDC10F80EA58
:10061000E0700844CA079623002100F077B89623BB
:100620000022114600F072B800F0004220F00040B5
:10063000C10DC0F3160040F400007F2901DA00204C
:100640007047962903DCC1F19601C84001E0963954
:100650008840002AF4D040427047C1F30A5210B5D6
:10066000C1F3130140F2FF3341F480119A4201DAE1
:10067000002010BD40F233439A42A2F2334203DC21
:100680005242FFF7B4FD10BD904010BD00F0004293
:1006900030F000400AD0C10D01F56071C0F31600C2
:1006A00042EA0151C2084007114370470020014649
:1006B00070470000002801DBC0F10040002901DB89
:1006C000C1F1004181427047002801DBC0F10040C8
:1006D000002901DBC1F1004188427047202A04DB78
:1006E000203A00FA02F1002070479140C2F1200345
:1006F00020FA03F31943904070470029A8BF7047C0
:10070000401C490008BF20F00100704710B4B0FA47
:1007100080FC00FA0CF050EA010404BF10BC7047E2
:1007200049B1CCF1200421FA04F411FA0CF118BFFC
:10073000012121430843A3EB0C01CB1D4FEA0061CB
:100740004FEA102042BF002010BC704700EBC3509E
:1007500010440029A4BF10BC7047401C490008BFCA
:1007600020F0010010BC704710B5141E73F1000496
:1007700008DA401C41F1000192185B411A4301D193
:1007800020F0010010BD2DE9F04D92469B4611B1BD
:10079000B1FA81F202E0B0FA80F220329046FFF71F
:1007A0009DFF04460F4640EA0A0041EA0B0153460A
:1007B0005A46084313D0114653EA010019D0C8F134
:1007C00040025046FFF713FD05460E465046594677
:1007D0004246FFF783FF084305D0012004E020468E
:1007E0003946BDE8F08D0020054346EAE0762C430B
:1007F00037430A986305E40AA0EB08000022FD0ACB
:1008000044EA47540A3002D500200146E9E70105D1
:1008100010196941DDE9084500196941BDE8F04D4D
:10082000A2E70000064C074D06E0E06840F0010337
:1008300094E8070098471034AC42F6D3FFF78CFCDD
:100840006C9700088C970008FEE7704703484FF448
:10085000E0014161002141607047000000900240CA
:100860002DE9FF4F81B006463148DDE90F58DDF82C
:10087000389001681F46144641F00101016001688B
:10088000C907FCD12B498246416141692AA001F088
:1008900097FD3B46CDF8009031463548029A01F06D
:1008A0008FFD0021C8F30D004FF0004B40F4804352
:1008B000621E13E006EB4110C0F800B04360DDF8A3
:1008C00008C001FB08CCC0F808C0914204D200F176
:1008D000200CC0F80CC000E0C660491CA142E9D35E
:1008E000002084464FF480186A1E11E007EB401187
:1008F000C1F80080C1F804C0119C00FB04938B6018
:10090000904203D201F12003CB6000E0CF60401C95
:10091000A842EBD31749CAF80010CAF80C60CAF80D
:1009200010701549CAF8181005B0BDE8F08F000026
:1009300000900240048401005B444D415D20444D21
:100940004153525F41465445525F434C4541523DED
:1009500030782530385820286578706563742030E9
:10096000783030303030303030290D0A000000004F
:10097000FC94000880204102062030040168002910
:1009800005DB0168C90502D50168090401D500200D
:1009900070470068C0F30D4070471079537940EA02
:1009A000032301F1804000F5203003641178D378EF
:1009B00041EA0361937852781B0443EA022211430F
:1009C00041647047F0B5ADB00446002904D04FF43F
:1009D0000060E060C000A0600025109511951295A0
:1009E000139514951595E06900287CD016954FF461
:1009F00000701790189519951A951B951C9540270E
:100A00001D971E951F952095219522952395249538
:100A10002595802026902795289529952A952B9510
:100A20002C9520680168464A1140E368A2681A4381
:100A3000169B1A4342F40072114301602068066855
:100A4000012000F0D3F82068066020684760206825
:100A50004668012000F0CAF820684660206885607A
:100A60002068C560206881694FF64172114041F0ED
:100A70008001816120688669012000F0B7F8206854
:100A800086612068C5612068C669012000F0AEF863
:100A90002068C6610195F804029003950111049144
:100AA0000595069507950895042109910A9040122D
:100AB0000B9080010C9040120D900E950F952068C0
:100AC00000F5805081691F4A114041F0040141F056
:100AD00008718161206800F580508569012000F06F
:100AE00085F8206800E016E000F5805085612168F7
:100AF000154801F580510860206800F580500568B0
:100B0000012000F073F8206800F580500560A069AE
:100B1000012804D00CE04FF48060169067E720684D
:100B200000F58050C16941F0400141F48031C1615C
:100B300062692DB02046BDE8F0400021FFF72DBFCF
:100B40000F8120FF233FDEF80020C1024288018888
:100B500052BA03791204407942EA03220243074859
:100B600049BA41F000410164426405490160054908
:100B700041604FF481518161704700000080024064
:100B80000C4C01000004008030B5124A104B14696F
:100B90004FF6FF7524F01C0424F4784424F4F86420
:100BA00044F0100405EAC02020434FF4F86404EA3E
:100BB0008111014321F0020040F00100106101E0C9
:100BC0005B1E02D01069C007FAD1506980B230BDF7
:100BD000A086010000800240C3F30D0141F4804172
:100BE00041604FF0004101607047000070B504465D
:100BF00000F034FB0546B4F1FF3F02D00448007812
:100C0000044400F02BFB401BA042FAD370BD00004F
:100C1000680000202DE9F843044600270097B846F5
:100C2000002C03D094F8440018B107E00120BDE87F
:100C3000F88384F84570204600F0F6F8754841685E
:100C400021F4000141604168226A1143416020683B
:100C500000F58050016841F00101016000F0FEFAEA
:100C60000546206800F58050006810F0010F13D091
:100C700000F0F4FA401BB0F5FA7F06D9032084F89F
:100C8000440084F84570BDE8F883206800F5805082
:100C9000006810F0010FEBD12068006920F01C05FE
:100CA00000F054FD5C495D4A0144914202D245F096
:100CB000080506E05A4908445A49884201D245F0DD
:100CC0000C05206805614FF400420021204600F029
:100CD00075F94FF0010940B101212046FFF772FE7E
:100CE00084F844900120BDE8F883FF20FFF77EFFE1
:100CF000606800286AD000F0B1FA064641F28835F3
:100D00006A460121204600F013F900F0A7FA801B83
:100D1000A8420AD901212046FFF754FE84F84490E6
:100D200084F845700320BDE8F883009810F0040FA4
:100D3000E6D04FF480520021204600F03FF940B148
:100D400001212046FFF73EFE84F844900120BDE8D3
:100D5000F88300F083FA06466A460121204600F037
:100D6000E7F800F07BFA801BA8420AD9012120464F
:100D7000FFF728FE84F8449084F845700320BDE80E
:100D8000F883009810F0200FE6D06A461021204624
:100D900000F0CEF840B101212046FFF713FE84F8A1
:100DA00044900120BDE8F883009810F0040F03D0B0
:100DB0004FF40061E16000E0E76010F0020F01D045
:100DC000A7601DE04FF48040A06019E0E068A168D2
:100DD000C0F3CF00C1F34F0140EA010200212046D9
:100DE00000F0ECF840B101212046FFF7EBFD84F85C
:100DF00044900120BDE8F88340F6FF70FFF7F6FE4F
:100E000041462046FFF7DEFD84F844900020BDE80F
:100E1000F88300000000014000D3CEFEC0E1E400F2
:100E200040F1E9FD40787D01F0B585B000240094E3
:100E300001940294039400683649884268D1364888
:100E4000416941F480414161416901F4804104916B
:100E5000416941F400414161416901F4004104915B
:100E6000416941F480314161416901F4803104916B
:100E7000816941F010018161816901F010010491E3
:100E8000816941F004018161816901F004010491EB
:100E9000816941F008018161816901F008010491D3
:100EA000816941F0200181618069022500F0200004
:100EB000009503260195CDE903606946174800F0C7
:100EC000BFF8CDE90054164F69463846029400F049
:100ED000B7F80420CDE9000569460396384600F0CE
:100EE000AFF84FF46050CDE90005694603960D4810
:100EF00000F0A6F84FF4E060CDE9000469460A4826
:100F0000029400F09DF80948416841F0E4614160B5
:100F100005B0F0BD0080024000100240001001400A
:100F200000080140000C0140001401400000014095
:100F30002DE9F0410446174694F8440082282CD04D
:100F4000822084F844002068026902F01C02238A8F
:100F50004FF4784C0CEAC3231A434FF4F86303EAC6
:100F60008111114321F0020141F00106066100F0F8
:100F700075F9054616F0010F4FF0010615D000F087
:100F80006DF9401BB0F5803F0AD384F8446000201F
:100F900084F845000320BDE8F0810220BDE8F0811F
:100FA0002068006910F0010FE9D12068406980B223
:100FB000386084F844600020BDE8F08170B50446D4
:100FC00094F84400422830D0422084F8440020683D
:100FD000036903F01C03B4F810C04FF4784505EA28
:100FE000CC2C4CEA03034FF4F86C0CEA8111194342
:100FF00041F0020141F0010691B2416120680661B1
:1010000000F02CF9054616F0010F4FF0010613D041
:1010100000F024F9401BB0F5803F08D384F8446009
:10102000002084F84500032070BD022070BD2068B8
:10103000006910F0010FEBD184F84460002070BD0E
:101040002DE9F84F4FF0000C00230A68002A7DD0EC
:10105000DFF8DC810F27A8F1040A08F10409AAF1DE
:10106000040B012202FA0CF60A683240B2426ED139
:10107000DFF8C0E14C68A4EB0E0574452BD00DDC05
:10108000032C34D005DC34B3012C19D0022C2FD121
:101090001BE0112C16D0122C2AD119E0B5F5881FAF
:1010A00019D006DCB5F5803F15D0B5F5801F1FD1EE
:1010B00011E0B5F5001F0ED0B5F5041F18D10AE0F8
:1010C000CB6815E0CB681B1D12E0CB6808330FE03E
:1010D000CB680C330CE08B6823B1012B04D00823C0
:1010E000466105E0042303E00823066100E00023D5
:1010F000B2F5807F01D2054601E000F1040502D27D
:101100004FEA8C0403E0ACF108044FEA84042E6833
:1011100007FA04FE26EA0E0603FA04F446EA04047B
:101120002C604C6814F0805F79D0434CA56945F081
:101130000105A561A46904F0010400942CF00304E6
:1011400004F1804404F58034A66801E06EE066E0B6
:101150004FEA8C754FEA157507FA05FE26EA0E0E62
:10116000A0F18046B6F584361ED0A0F18046B6F5D3
:1011700086361BD0A0F18046B6F5883618D0A0F18F
:101180008046B6F58A3615D0042606FA05F545EAF6
:101190000E05A5604C6814F4801F0DD0D8F80040EF
:1011A0001443C8F800400CE00026EEE70126ECE707
:1011B0000226EAE70326E8E7D8F800409443C8F897
:1011C00000404C6814F4001F05D0D9F800401443C7
:1011D000C9F8004004E0D9F800409443C9F8004041
:1011E0004C6814F4003F05D0DAF800401443CAF804
:1011F000004004E0DAF800409443CAF800404C682C
:1012000014F4803F05D0DBF800402243CBF80020E7
:1012100005E0DBF8004024EA0202CBF800200CF1E4
:10122000010C0A6832FA0CF27FF41BAFBDE8F88FAC
:10123000080401400000111000100240C26821EAB9
:101240000203114043EA014101617047002A01D0C5
:10125000016170470904016170470000014880681E
:10126000704700006800002070B50446002C04D0D0
:1012700094F83D00002510B106E0012070BD84F80F
:101280003C50204600F0C6F8242084F83D00206839
:10129000016821F0010101602068016841F400410A
:1012A00001602068016821F40041016000F054FAF7
:1012B000544B6168994203D85349884203D304E0F0
:1012C0005249884201D2012070BD5149B0FBF1F171
:1012D0002268D2F804C02CF03F0C4CEA010CC2F892
:1012E00004C062689A4201D84A1C07E04FF4967223
:1012F00051434FF47A72B1FBF2F14A1C2168D1F8E4
:1013000020C02CF03F0C42EA0C020A62616899424C
:1013100010D84900401EB0FBF1F2521CC2F30B0280
:10132000042A01D2042026E0B0FBF1F0401CC0F3F7
:101330000B0020E0A268002A50D001EBC10303EBB0
:101340000113A0F1010CBCFBF3F35B1C43F48043DD
:101350001B051B0D4AD0002A4AD001EBC10202EB4B
:101360000111401EB0FBF1F0401CC0F30B0040F433
:10137000804040F400402168CA6922F0FF0222F454
:101380004F421043C861216AE06901432068026846
:1013900022F0C00211430160E16820690143206826
:1013A000826822F0FF0222F4034211438160A169A6
:1013B000606901432068C26822F0FF021143C160E6
:1013C0002068016841F0010101602564202084F853
:1013D0003D00256384F83E50002070BD01EB4103C1
:1013E000A0F1010CBCFBF3F35B1CB1E70120C2E7E9
:1013F00001EB4101401EB0FBF1F0401CC0F30B00BB
:10140000B7E70000A086010080841E0000093D00AF
:1014100040420F0010B586B0002100910191029169
:10142000039100680F4988421AD10F4CA06940F01F
:101430000800A061A069694600F008000490C0207F
:10144000009012200190032003900848FFF7F8FD58
:10145000E06940F40010E061E06900F400100490DD
:1014600006B010BD0054004000100240000C0140C6
:10147000024881680278114481607047680000204A
:1014800010B50748016841F010010160032000F029
:101490008BF80F2000F006F800F026F8002010BDB1
:1014A0000020024070B504460D4D4FF47A71287843
:1014B000B1FBF0F00B490968B1FBF0F000F068FCFB
:1014C00008B1012070BD102C07D200222146501E09
:1014D00000F036F86C60002070BD012070BD000087
:1014E00068000020740000200C4808B5816941F0B4
:1014F00001018161816901F001010091C16941F03F
:101500008051C161C06900F080500090044841687A
:1015100021F0E06141F00071416008BD001002401F
:101520000000014000280ADB00F01F01012202FA3E
:1015300001F14009800000F1E020C0F8001170477F
:1015400010B4184B1B68C3F30223C3F1070CBCF1A2
:10155000040F01D94FF0040C1C1D072C01D20023ED
:1015600000E0DB1E012404FA0CFCACF1010C0CEAD7
:101570000101994004FA03F35B1E1A40114300284D
:1015800006DB00F1E020090180F8001410BC704770
:1015900000F00F0000F1E020090180F8141D10BCDC
:1015A000704700000CED00E000F00700064A1168EB
:1015B0004FF6FF03194041EA002040F0FD7040F073
:1015C00080601060704700000CED00E02DE9F047EE
:1015D00004460D46002C17D0DFF85C81D8F80000D7
:1015E00000F00700A84212D2D8F8000020F007004F
:1015F0002843C8F80000D8F8000000F00700A8420F
:1016000005D00120BDE8F0870120BDE8F087206803
:101610004A4E10F0020F14D010F0040F03D070687F
:1016200040F4E0607060207810F0080F03D070681C
:1016300040F460507060706820F0F001A0680843CA
:101640007060207810F0010F3AD06068012806D051
:1016500002280BD0316811F0020F27D00AE0316860
:1016600011F4003F06D10120BDE8F087316811F088
:10167000007F18D0716821F0030108437060FFF704
:10168000EDFD07467068616800F00C00B0EB810F5B
:1016900016D041F28839FFF7E1FDC01B484508D953
:1016A0000320BDE8F0870120BDE8F0870120BDE8F8
:1016B000F0877068616800F00C00B0EB810FEAD130
:1016C000D8F8000000F00700A8420FD9D8F80000B1
:1016D00020F007002843C8F80000D8F8000000F008
:1016E0000700A84202D00120BDE8F087207810F062
:1016F000040F05D07068E16820F4E0600843706072
:10170000207810F0080F06D07068216920F460502E
:1017100040EAC100706000F03FF87168084AC1F308
:101720000311515CC8400749086007480068FFF78B
:10173000B9FE0020BDE8F087002002400010024002
:1017400036930008740000206C00002001480068F7
:10175000704700007400002000B5FFF7F7FF044950
:101760004968044AC1F30221515CC84000BD000031
:10177000001002404693000800B5FFF7E7FF044958
:101780004968044AC1F3C221515CC84000BD000051
:1017900000100240469300082DE9F041214B5868A3
:1017A00000F00C01042904D0082905D01E48BDE82A
:1017B000F0811E48BDE8F0811D49C0F383428C5C76
:1017C00010F4803F29D0D86A0E3100F00F00085C79
:1017D000D96A11F4803F17D0D96AC1F303114A1CAA
:1017E000D96AC1F30321891CA2FB0023A1FB0415C4
:1017F000DFF838C00026A1FB0C0705FB0C7C01FBC1
:1018000006C1FEF7C3FC03E008496143B1FBF0F0F9
:101810000D2CCFD14008BDE8F08106486043BDE8FB
:10182000F08100000010024000127A0040787D0133
:101830001893000800093D0030B587B00D46002020
:10184000049002200390032005904FF480700290D2
:10185000094CA06940F00400A061A06900F00400F8
:10186000019002A90548FFF7EBFB606820F070606B
:101870002843606007B030BD0010024000080140FE
:101880002DE9F84F0446002C0FD02078FE4D10F0C3
:10189000010F6CD0686800F00C0004280CD0686858
:1018A00000F00C00082803D010E00120BDE8F88FFC
:1018B000686810F4803F09D0286810F4003F56D0C3
:1018C000A068002853D10120BDE8F88FA068B0F5CA
:1018D000803F15D0C8B1B0F5A02F1FD0286820F4E4
:1018E00080302860286820F480202860A06858B3E1
:1018F000FFF7B4FC0646286810F4003F17D036E026
:10190000286840F480302860F0E7286820F48030B0
:101910002860286820F480202860E7E7286840F4E1
:1019200080202860286840F480302860DEE7FFF7D8
:1019300095FC801B642802D90320BDE8F88F286835
:1019400010F4003FF3D012E0FFF788FC0646286849
:1019500010F4003F0BD0FFF781FC801B642802D9F4
:101960000320BDE8F88F286810F4003FF3D12078F9
:10197000C64F10F0020F4FF001094FF0000854D08D
:10198000686810F00C0F14D0686800F00C0008288C
:1019900003D1686810F4803F0BD0606978B3C7F852
:1019A0000090FFF75BFC0646286810F0020F12D08B
:1019B0001DE0286810F0020F05D06069012802D0F0
:1019C0000120BDE8F88F2868A16920F0F80040EAFE
:1019D000C100286029E0FFF741FC801B022802D9E2
:1019E0000320BDE8F88F286810F0020FF3D02868B4
:1019F000A16920F0F80040EAC100286015E0FFE787
:101A0000C7F80080FFF72AFC0646286810F0020F8E
:101A10000BD0FFF723FC801B022802D90320BDE86E
:101A2000F88F286810F0020FF3D1207810F0080F1B
:101A300030D09748E169C1B1C0F80090FFF70EFCC3
:101A40000646686A10F0020F0BD1FFF707FC801BF7
:101A5000022802D90320BDE8F88F686A10F0020F4F
:101A6000F3D0012000F068FB14E0C0F80080FFF71D
:101A7000F5FB0646686A10F0020F0BD0FFF7EEFB8D
:101A8000801B022802D90320BDE8F88F686A10F095
:101A9000020FF3D1207810F0040F6FD00026E86910
:101AA00010F0805F08D1E86940F08050E861E86993
:101AB00000F0805000900126DFF8D8B1DBF800007C
:101AC00010F4807F1BD1DBF8000040F48070CBF86D
:101AD0000000FFF7C3FB8246DBF8000010F4807FB4
:101AE0000DD1FFF7BBFBA0EB0A00642802D903204D
:101AF000BDE8F88FDBF8000010F4807FF1D020699A
:101B0000012816D0D0B1052821D0286A20F0010084
:101B10002862286A20F004002862206941F2883B8C
:101B200068B3FFF79BFB8246286A10F0020F17D0BC
:101B30003AE0286A40F001002862EEE7286A20F0C7
:101B400001002862286A20F004002862E5E7286A7C
:101B500040F004002862286A40F001002862DCE7B7
:101B6000FFF77CFBA0EB0A00584502D90320BDE833
:101B7000F88F286A10F0020FF2D015E01AE0FFE7A4
:101B8000FFF76CFB8246286A10F0020F0CD0FFF7BB
:101B900065FBA0EB0A00584502D90320BDE8F88F89
:101BA000286A10F0020FF2D1012E03D1E86920F06B
:101BB0008050E861E06A98B3696811F4803F0BD007
:101BC000696801F00C01082906D1E96A11F4803F27
:101BD00002D00120BDE8F88F022814D0E86A20F472
:101BE0008030E862C7F86880FFF738FB064628684F
:101BF00010F0006F59D0FFF731FB801B642850D9DB
:101C00000320BDE8F88F286810F0805F09D0E86AEB
:101C1000616B00F0F000884203D00120BDE8F88F2E
:101C200043E0C7F86880FFF719FB0646286810F004
:101C3000006F0BD0FFF712FB801B642802D9032032
:101C4000BDE8F88F286810F0006FF3D1E86A616B87
:101C500020F0F0000843E862E86A216B20F470602D
:101C60000843E862C7F86890FFF7F8FA0646286864
:101C700010F0006F19D1FFF7F1FA801B64280BD91F
:101C80000320BDE8F88F000000100240000042422F
:101C90008004424200700040286810F0006FEAD0D3
:101CA00003E0286810F0006FA5D1206AE8B36968E6
:101CB00001F00C01082957D002280FD0C7F8608026
:101CC000FFF7CCFA0446286810F0007F5DD0FFF7DC
:101CD000C5FA001B022842D90320D2E7C7F860806A
:101CE000FFF7BCFA0646286810F0007F0AD0FFF71D
:101CF000B5FA801B022801D90320C2E7286810F03A
:101D0000007FF4D1606AB0F5803F09D1E86A61686C
:101D10000843E862E86AE16820F00F000843E862DF
:101D2000A16A606A0843696800E02EE021F474113A
:101D300008436860C7F86090FFF790FA0446286887
:101D400010F0007F21D1FFF789FA001B022801D98A
:101D5000032096E7286810F0007FF4D015E028688B
:101D600010F0007FB3D110E001280CD06868626ADF
:101D700000F48031914204D1A16A00F470108842CD
:101D800003D001207DE701207BE7002079E70000F8
:101D9000401EB0F1807F01D3012070474FF0E02159
:101DA0004861044AF0201070002088610720086113
:101DB0000020704723ED00E070B50446002C04D0ED
:101DC00094F84100002510B106E0012070BD84F8B0
:101DD0004050204600F024F8242084F84100206878
:101DE000C16821F40051C160204600F03BFA206830
:101DF000016921F4904101612068416921F02A01C3
:101E000041612068C16841F40051C16065642020CF
:101E100084F8410084F842006563002070BD000032
:101E200030B585B0002400940194029403942B4DA6
:101E300003682B4802210322AB4222D1836943F479
:101E400080438361836903F480430493836943F08F
:101E5000040383618069234D00F0040004900802AC
:101E6000CDE90001039269462846FFF7E9F82815F5
:101E7000CDE90004694628460294FFF7E1F805B071
:101E800030BD194DAB42FAD1C36943F40033C3618D
:101E9000C36903F400330493836943F0200383612F
:101EA0008069124D00F0200004902020CDE900014F
:101EB000039269462846FFF7C3F84020CDE90004A5
:101EC000694628460294FFF7BBF80948416841F08B
:101ED000E06141F008014160D1E7000000380140B5
:101EE000001002400008014000440040001401407E
:101EF000000001402DE9F84304460E4615461F46F2
:101F000094F84100202802D00220BDE8F8837EB179
:101F100075B100206064212084F84100FFF79EF92C
:101F20008146A584E584A068B0F5805F03D004E015
:101F30000120BDE8F883206990B135460026E08C89
:101F40004FF02008C8B14B46002280212046009760
:101F500000F0ECF930B184F841800320BDE8F8834B
:101F60000025ECE7B5B12168287848606D1CE08C4D
:101F7000401EE084E08C0028E5D14B460022402141
:101F80002046009700F0D2F958B184F84180032030
:101F9000BDE8F88330882168C0F308004860B61CAB
:101FA000E5E784F841800020BDE8F883FEE7000003
:101FB000114810B50F49016001218A03C0E90112DF
:101FC000CA02C26001820D49002280230A704B7050
:101FD000E1238B70CA700A714A71C0E905124FF48F
:101FE0000001C0E90721FEF715FE002801D072B6F6
:101FF000FEE710BD008002404C1500205800002074
:102000002DE9F04385B000252848009501950295FB
:102010000395816941F010018161816901F010012E
:102020000491816941F004018161816901F0040139
:102030000491816941F008018161816901F0080121
:102040000491816941F0200181618069DFF860803D
:1020500000F020000490002201214046FFF7F6F82E
:10206000DFF850904FF20407002239464846FFF748
:10207000EDF802240126CDE9025400966946404657
:102080000196FEF7DDFFCDE90254CDE90076694601
:102090004846FEF7D5FFE001CDE900046946064851
:1020A0000394FEF7CDFF05B0BDE8F08300100240B9
:1020B000000C014000140140000801402DE9FF41DF
:1020C00000254FF4005701260224DFF85C80CDE99B
:1020D0000254CDE9007669464046FEF7B1FF012281
:1020E00039464046FFF7B2F8CDE90046DFF83C80BC
:1020F000CDE9025469464046FEF7A2FF00220221C4
:102100004046FFF7A3F86703CDE90254CDE9007616
:1021100069464046FEF794FF002239464046FFF7E5
:1021200095F8BDE8FF81000000100140000C01405F
:10213000FEE7FEE77047000081B007494FF4FA520E
:102140000968B1FBF2F14843009000BF0098411EBE
:102150000091FAD201B0704774000020704700006F
:1021600010B5FFF785F9FFF779F80149086010BD50
:102170002C00002030B593B038216846FEF76EF889
:1021800014210EA8FEF76AF8012528040421CDE9E0
:1021900002010224CDE908400095019005954FF415
:1021A000E010CDE90A044FF4C0600C9040200D907F
:1021B0006846FFF765FB08B172B6FEE70F20CDE970
:1021C0000E0400204FF48061CDE91001129002212D
:1021D0000EA8FFF7FBF908B172B6FEE700224FF038
:1021E00030611046FFF728FB0848C16A21F0F00172
:1021F00041F04001C162C16A21F4704141F40041E3
:10220000C1620348056713B030BD000000100240F2
:1022100000004242704701680C3151E8002F22F45F
:10222000907241E80023002BF5D10168143151E888
:10223000002F22F0010241E80023002BF5D1016BB1
:10224000012909D101680C3151E8002F22F0100258
:1022500041E80023002BF5D1202180F84210002115
:102260000163704770B5044620680169E26821F493
:102270004051114301612169A0680843616901432C
:102280002068C26822F4037222F4A0521143C16094
:1022900020684169A26921F44071114341612068BD
:1022A000A0F18041B1F59C313AD0FFF755FA00EB2F
:1022B000C00101EB001061681B4A8900B0FBF1F31B
:1022C000A2FB0353B0FBF1FC5B096FF018056B43F5
:1022D0000CEB83034FF0320C0CEB0313A2FB035304
:1022E0005B0903F0F005B0FBF1F3A2FB03635B09AC
:1022F00005EB0313B0FBF1F5B0FBF1F0A2FB00100E
:1023000040096FF01801484305EB80000CEB00100A
:10231000A2FB00102168C0F343101844886070BD10
:10232000FFF72AFAC3E700001F85EB512DE9F843B8
:102330000446089E0D46174698462068006835EA10
:10234000000028D00020B84232D1B6F1FF3F27D09C
:10235000FEF784FFA0EB0800B0421ED8EEB1206863
:10236000C16811F0040F1BD0802D19D0402D17D05B
:10237000016811F0080F13D0002521680968406832
:1023800000902046FFF747FF0820606484F8405023
:102390000120BDE8F8830120D5E70320BDE8F883DC
:1023A0002068006835EA000005D00020B842CCD093
:1023B0000020BDE8F8830120F8E700F085BEFEE7C5
:1023C0000FB4054B10B503A9044A029800F018F8A1
:1023D00010BC5DF814FB00000D470008040100204C
:1023E00002E008C8121F08C1002AFAD170477047DE
:1023F000002001E001C1121F002AFBD1704700003C
:102400002DE9FF4F8DB00F460546002606E0252832
:102410000BD0DDE90F1290476D1C761C2878002840
:10242000F5D111B03046BDE8F08F0024A246A14698
:102430000122E94900E0044315F8013F203B02FA7C
:1024400003F00842F7D128782A2810D06FF02F0225
:102450002878A0F13001092914D80AEB8A0102EB8F
:10246000410144F0020400EB010A6D1CF0E701CFCA
:102470005FEA000A03D544F40054CAF1000A44F0AC
:1024800002046D1C28782E2817D115F8010F44F08E
:1024900004042A280ED06FF02F022878A0F1300112
:1024A00009290AD809EB890102EB410100EB010976
:1024B0006D1CF2E757F8049B6D1C28786C280FD030
:1024C00006DC4C2817D068280DD06A2814D104E007
:1024D000742810D07A280FD10DE044F400140AE0DB
:1024E00044F4801401E044F440146978814202D13C
:1024F00004F580146D1C6D1C28786E281ED00CDC31
:10250000632830D004DC00288BD0582811D19FE0FC
:10251000642867D069280CD164E073282DD004DCCE
:102520006F2872D0702804D194E075286ED0782876
:102530006DD0DDE90F129047761C4BE1C4F30250D9
:10254000022806D0032809D0042801CF09D006604C
:1025500040E101CFF117C0E900613BE101CF068006
:1025600038E1067036E117F8040B8DF80000002002
:102570008DF80100EB46012003E057F804BB4FF053
:10258000FF3061074FF0000102D40DE008F10101B6
:10259000884649450FDA8045F8DB1BF8081000290A
:1025A000F4D108E008F1010188468142FADB1BF80A
:1025B00008100029F6D1DDE90F23AAEB08008146B7
:1025C000214600F031F9304400EB080604E0DDE973
:1025D0000F121BF8010B9047B8F10108F7D2214602
:1025E0004846F2E00A21C4F302524FF0000B089172
:1025F000022A04D001CFC117032A09D00AE0FF1D27
:1026000027F00707F7E8020108E02CE01EE01FE0D2
:1026100000B2C117042A01D140B2C117021E71F1E4
:10262000000206DA0023D0EB030063EB01012D2248
:1026300002E0220504D52B228DF82420012203E09C
:10264000E20701D02022F7E7904653E00A210BE091
:10265000102109E010214FF0000B44F004044FF06A
:102660000809089103E008214FF0000B0891C4F31A
:102670000252022A04D001CF0021032A06D006E02C
:10268000FF1D27F00707F7E8020103E080B2042AE4
:1026900000D1C0B24FF0000822072BD52A78702A4B
:1026A00007D0DDF820C08CF0100C5CEA0B0C05D0D4
:1026B0000EE040228DF82420012208E050EA0103B8
:1026C00006D030238DF824308DF825200222904644
:1026D000089B83F0080353EA0B030BD150EA010275
:1026E00001D1620706D530228DF824204FF0010871
:1026F000A9F101092A78582A04D038A20B9208AA15
:102700000A920BE03AA2F9E75B46089AFDF73EFD14
:102710000B9B9B5C0A9A521E0A92137050EA0102AC
:10272000F2D10A98ADEB000000F1200B600702D552
:1027300024F4803401E04FF00109D94502DDA9EB12
:102740000B0000E0002000EB0B0141440890AAEBD5
:10275000010AE00306D4DDE90F232146504600F0CC
:1027600063F806444FF0000908E009A911F80900D0
:10277000DDE90F12904709F10109761CC145F4DB30
:10278000E0030CD5DDE90F232146504600F04CF85C
:10279000064404E0DDE90F1230209047761C0899CA
:1027A000481E08900029F5DC08E00A980A9900788C
:1027B000491C0A91DDE90F129047761CBBF100011C
:1027C000ABF1010BF1DC21465046DDE90F2300F0AF
:1027D00019F806446D1C21E6092801003031323316
:1027E000343536373839616263646566000000004D
:1027F0003031323334353637383941424344454637
:10280000000000002DE9F041044600251E46174651
:10281000880404D405E039462020B0476D1C641EAE
:10282000F9D52846BDE8F0812DE9F04104460025A0
:102830001E469046C80301D5302700E020278804B3
:1028400004D505E041463846B0476D1C641EF9D5F5
:102850002846BDE8F081F0B51E1EC1B014460B46F7
:1028600002D004F1060101E004F10501CFB24FF0FE
:1028700055018DF800104FF0AA018DF801108DF868
:10288000020001D0201D00E0E01C8DF8030022466C
:1028900019466D4601A8FDF7BAFC30000DEB0406A1
:1028A00007D0A11CA81C00F058F8010A3171707102
:1028B00005E0A41CE1B2A81C00F06DF830713946A7
:1028C000684600F023FC41B0F0BD2DE9FF47824689
:1028D0004FF064080025FEF7C1FC0746E94631E0E9
:1028E00003A806F0D5FC68B39DF80C00AA2829D1EE
:1028F0008DF800000124FEF7B1FC064608E009EB64
:10290000040006F0C5FC08B1641CE4B20B2C06D22E
:10291000FEF7A4FC801B0A28F1D30B2C12D39DF8E0
:10292000010055280ED1BDF8020040BAA0F598511B
:10293000663907D1092109F1020000F02CF808B925
:102940006D1CADB2FEF78AFCC11B414501D2554555
:10295000C6D304B02846BDE8F087F0B505464FF66B
:10296000FF742046002241F2210611E0AB5C80EAB0
:1029700003200023070403D586EA400080B201E06B
:1029800004EA40005B1CDBB2082BF3D3521C92B26A
:102990008A42EBD3F0BD70B506461F20002212E03C
:1029A000B45C0023E50985EA1015640645EA400099
:1029B0005B1C240E80EA8500DBB200F01F00082BB0
:1029C000F0D3521CD2B28A42EAD370BD2DE9FC4743
:1029D0000E4682460146EB239022684600F0ACF991
:1029E000019D50462946FDF7A3FC10F1FF4F01D38E
:1029F00080F000401B49884232DB1B4CA0422CDB9C
:102A000029465046FDF760FE01D2012001E04FF05B
:102A1000FF30804621462846FDF7C2FCFDF704FE44
:102A2000054621465046FDF7BBFCFDF7FDFD074678
:102A3000A14610E045442846FDF7E8FD4946FDF76C
:102A40007DFC00F089FAFEF709FC0446FEF706FC5F
:102A5000001BB042FAD3BD42ECD1504600F07CFAE4
:102A6000BDE8FC8717B7D1380000C840014840785E
:102A70007047000000000020014800787047000007
:102A8000000000202DE9F04389467F49054691B0BA
:102A9000886940F0080088618869002700F0080014
:102AA00000900120CDE9040703900220774C0690A6
:102AB00003A92046FEF7C4FA012211462046FEF77C
:102AC000C5FB734E0024304600F0D4FA641C032C7E
:102AD000F9DB70A1D1E90001CDE9000107216846C9
:102AE00000F011FA2846FFF7F0FE040020D06B4EEC
:102AF0006BA207AB347007CA83E807000B2107A855
:102B000000F001FA69A207AB07CA83E807000B21AE
:102B100007A800F0F8F9022269465320009700F058
:102B2000BFF94FF4807898FBF4F07070002510E046
:102B3000002011B0BDE8F0837178029705FB01F029
:102B40008DF80800022202A9402000F0A9F96D1CAE
:102B5000EDB2A542F0DB58A007AB07C883E8070039
:102B60000B2107A800F0CFF956A007AB07C883E8F0
:102B700007000B2107A800F0C6F9404600F0C5F990
:102B800053A007AB07C883E807000B2107A800F094
:102B9000BAF952A007AB07C883E807000B2107A8C2
:102BA00000F0B1F950A207AB07CA83E807000B2178
:102BB00007A800F0A8F9002740E070784DA107FBB6
:102BC00000F5D1E90001CDE907018DF81C5006227E
:102BD00007A9412000F064F948A00622D0E90010BE
:102BE000CDE909108DF8245009A9412000F058F9C9
:102BF00044A00622D0E90010CDE90B108DF82C502E
:102C00000BA9412000F04CF940A10622D1E90001B6
:102C1000CDE90D018DF834500DA9412000F040F9A7
:102C20003CA10622D1E90001CDE90F018DF83C500D
:102C30000FA9412000F034F97F1CFFB2A742BCDB92
:102C4000484600F089F9024670200090A3B20020A7
:102C5000324900F0BBF932A207AB07CA83E807008C
:102C60000B2107A800F04FF930A00622D0E9001090
:102C7000CDE9071007A9512000F012F92D4800F006
:102C800059FA204655E7000000100240000C0140B0
:102C900000E0FF1F55AA520500000A0000000020B6
:102CA00055AA510900A800070000030055AA5109C0
:102CB0000018FF0FC100000055AA5109003C800018
:102CC00085400C0055AA5109003C80008020190065
:102CD00055AA51090054000000031D0055AA5109CE
:102CE000005802111111060055AA4109002C007C60
:102CF0000003030000A8000701F000000018F00026
:102D0000C1000000003C800085400000003C8000C5
:102D100080200000003C800082AA00000000F03FFC
:102D200055AA510900A49000FFFF1C000028113093
:102D30000200000040420F002DE9FF5F4FF0000A43
:102D40002D4E934650E000BF4FF0010801243CE0B7
:102D5000012538E02846FDF762FC81462046FDF754
:102D60005EFC07464046FDF75AFC3946FDF7E6FA99
:102D70004946FDF7E3FA07465846FDF750FC1F4960
:102D8000FDF7DCFA3946FDF70BFB81463046019929
:102D9000FDF7CEFA20F0004748460199FDF7C8FA42
:102DA00020F000403946FDF785FC0AD250466BF30F
:102DB000070068F30F2064F3174065F31F60824635
:102DC0004E466D1CEDB2A542C4D3641CE4B2072C80
:102DD000BED908F1010000F0FF08B8F1020FB5D923
:102DE0000BF1010000F0FF0B03998B45ACD9009863
:102DF000C0E900A6BDE8FF9F286B6E4E0000C841E9
:102E00002DE9F84388460746FEF728FA224C234D61
:102E10000646684606F03CFA0028A0781DD028B384
:102E2000012829D09DF800102954401CC0B2A07080
:102E30000B28EED10020A0700921A81CFFF7ABFDE4
:102E40000028E6D128683860686878602889388169
:102E5000A87AB8720120BDE8F8830028FBD0FEF7FD
:102E6000FDF9811B4145D4D30020F4E79DF8000013
:102E7000AA28CED128700CE09DF80000552804D077
:102E80002870AA2805D0002001E068700220A070F8
:102E9000BFE70120FBE70000000000201001002038
:102EA0000023FFF7D8BC30B5044695B000788DF804
:102EB000000001208DF80100D4F8D000CDF8020008
:102EC000D4F8CC00CDF80600D4F8C800CDF80A003C
:102ED00004F18005202204F1A8010DF10E00FDF798
:102EE00096F9202204F188010DF12E00FDF78FF9EB
:102EF0006868CDF84E005222012369462120FFF771
:102F0000AAFC15B030BD00F001B97CB56C460021BB
:102F100001E04008491C0128FBD800200125207051
:102F20008D40142060706D1E280E03F0D9FAA07039
:102F3000C5F3074003F0D4FAE070C5F3072003F0AF
:102F4000CFFA2071E8B203F0CBFA6071062269462D
:102F50005120FFF7A5FF7CBD7FB50146EB239022F2
:102F600002A8FFF7E9FE9DF808209DF8091002EB82
:102F7000C20404EB0214B4FBF1F49DF80A309DF88E
:102F80000B00B4F5166F01D3502400E040245B1E03
:102F900003F00F03401E0BA563F31F10D5E90035A6
:102FA000CDE900358DF804108DF802408DF803202E
:102FB0008DF80500062269465120FFF771FF03983E
:102FC00004B070BD00080000000000002DE9FC41C5
:102FD00006461C4617468846089802F05EFE0546DF
:102FE000204602F05AFEFDF71AFB04462846FDF77C
:102FF00016FB01464FF09F40FDF7D2F92146FDF741
:10300000CFF905463846FDF741FB07460C462846F2
:10301000FDF73CFB0022144BFDF700FA3A4623462D
:10302000FDF76EFA4FF0FF32FDF7D9FA324643460C
:10303000FDF7F4F9FDF711FB0CA2D2E90012CDE97E
:103040000012010E8DF80210010C8DF80310010A18
:103050008DF804108DF80500062269465120FFF70F
:103060001FFFBDE8FC810000000039400010000097
:10307000000000001CB508A2400BD2E90012CDE907
:103080000012010A8DF804108DF805000622694629
:103090005120FFF705FF1CBD00A4900000000000B8
:1030A000084810B50068C16841F02001C1600022E5
:1030B00001212520FEF744FABDE810402520FEF747
:1030C00031BA0000E81500200C4810B500680C4922
:1030D00082060ED508680B49C0B28A88CB88521C7C
:1030E000C2F309029A4203D0074B8C8818558A8094
:1030F00010BD0007FCD5086810BD00000038014075
:1031000004380140000000201B01002030B5084BAE
:1031100000221C1D06E01D682D06FCD5855C25607F
:10312000521C92B28A42F6D318684006FCD530BDD4
:103130000038014070B505460A4801684906FCD5CB
:10314000084C0C34206820F400502060FEF714FB7B
:10315000B0FBF5F0211F0860206840F400502060AB
:1031600070BD0000003801402DE9F0410F460646D1
:1031700014461D46511C184606F0A0F82E7124B1C5
:1031800022463946681DFDF742F8641DA0B2BDE82D
:10319000F081000070B5244C98B0A068002840D0A1
:1031A000002105A8FFF72CFE00283ADD0020029040
:1031B0000490DDF8160005BABDF81C00039546BA68
:1031C0009DF81B0000F0F8018DF8081000F00700D2
:1031D0008DF80B00680E8DF80A00FFF747FCC5F369
:1031E0004741B1FBF0F08DF8090021699DF80A30E4
:1031F00041EA463104919DF80B10CDE900109DF88D
:1032000008100AA0039AFFF7DBF808A80090D4E999
:103210000E2302A802F0D8FF010002D008A800F097
:10322000D5FE18B070BD0000280000205B4E4F4E48
:1032300043455D206A6F625F69643D2564206E6F5F
:103240006E63653D30782530385820636F72653D78
:10325000256420736D616C6C3D2564206173696326
:103260003D25640D0A00000070B505460C4603F0CC
:103270008DF9A96809682160A9680C60BDE87040F3
:1032800003F086B910B5044603F080F9A1680C6814
:103290002CB122680A6003F07BF9204610BD03F0D0
:1032A00077F9002010BD00002DE9FC41294C0546AE
:1032B0000E46A06810B10120BDE8FC81E06800283E
:1032C00046D1288841BA0A04A97847BA42EA0123BC
:1032D000EA783F04134347EA01271B06BFB243EADB
:1032E000072347BA40BA000440EA01201949FFB257
:1032F00043EA072310431C3143EA1060086026802C
:1033000004F06BF9E06050B10022134903F0B8FA01
:10331000002740B1E06803F015FAE76018E00FA05D
:10332000FFF74EF814E0E878CDE90006AB786A784C
:1033300029780EA0FFF744F80649154B32461C3198
:10334000E06803F09BFC0028E4D1FDF787FF2061D3
:103350000020B1E708000020149400085B5443509B
:103360005D204E6F205043420D0A00005B544350D5
:103370005D20436F6E6E6563742025642E25642E78
:1033800025642E25643A25642E2E2E0D0A00000099
:1033900015690008F0B589B001265BA0FFF710F8A9
:1033A000002401AD04F1110081B23046FDF7ECFBC1
:1033B00025F81400641C0F2CF4DB5EA0FFF700F866
:1033C0005FF0000463A035F81410FEF7F9FF641CE9
:1033D0000F2CF7DB61A0FEF7F3FF18213046FDF755
:1033E000D3FB044619213046FDF7CEFB02462146A9
:1033F0005BA0FEF7E5FFBDF8041066A0FEF7E0FF56
:1034000003213046FDF7C0FB044603213046FDF79B
:10341000BBFB054603213046FDF7B6FB0746AC4231
:1034200003D1BD4201D163A000E064A000903B46FF
:103430002A46214664A0FEF7C3FFAC4212D1BD422A
:1034400010D1A4F52040B0382BD0A4F5B840903866
:1034500025D002213046FDF797FB0146224667A0A2
:10346000FEF7AEFF71A0FEF7ABFF40F6B830FDF7F8
:10347000BDFB01213046FDF787FB044605213046A0
:10348000FDF782FB074600213046FDF77DFB054630
:1034900072A0FEF795FFE80508D577A007E078A1B0
:1034A00000E078A178A0FEF78BFFDBE780A000901A
:1034B000A80401D580A300E081A3E80401D581A27E
:1034C00000E081A2294681A0FEF77AFFA00601D57F
:1034D0008CA300E08DA3600701D58EA200E08FA22F
:1034E000214690A0FEF76CFF0FB19BA200E09CA2CA
:1034F00039469DA0FEF764FF600702D5A4A0FEF741
:103500005FFF09B0F0BD00005B5048594442475D81
:10351000203D3D3D204450383338343844534B200F
:1035200032354D487A20524D4949203F3F203D3D9C
:103530003D0D0A005B5048594442475D2045787470
:10354000207265677320307831312D307831463AFA
:103550000000000020253034580000000D0A000053
:103560005B5048594442475D2053545241502830E3
:10357000783138293D307825303458202053545242
:1035800041502830783139293D3078253034580D74
:103590000A0000005B5048594442475D205048599A
:1035A00043522830783131293D3078253034580D58
:1035B0000A000000737461626C650000554E53543C
:1035C00041424C45210000005B5048594442475D50
:1035D00020504859494452322072656164733A2040
:1035E00030782530345820307825303458203078E1
:1035F00025303458202025730D0A00005B504859AF
:103600004442475D20556E7265636F676E697A65E7
:1036100064205048592049443D3078253034583A88
:103620003078253034580D0A000000005B504859AE
:103630004442475D2057616974696E672033732087
:10364000666F72206175746F6E656720746F20738A
:103650006574746C652E2E2E0D0A00005B5048595F
:103660004442475D203D3D3D203F3F3F3F3F3F209F
:103670003D3D3D0D0A00000046554C4C0000000049
:103680004B535100432F49005B5048594442475D1A
:1036900020504859203D20445038333834382025B4
:1036A000732028636F6E6669726D6564290D0A0068
:1036B00048414C46000000003130304D0000000011
:1036C00031304D00454E0000444953005B5048598D
:1036D0004442475D204243523D30782530345820E3
:1036E000206175746F6E65673D257320207370656A
:1036F00065643D257320206475706C65783D257385
:103700000D0A0000444F4E450000000050454E4455
:10371000494E47005550212121000000444F574E8B
:10372000000000005B5048594442475D20424D5321
:10373000523D30782530345820206C696E6B3D2521
:103740007320206175746F6E65675F646F6E653D91
:1037500025730D0A0000000050524553454E540099
:10376000414253454E5400005B5048594442475D26
:1037700020414E4C5041523D307825303458202065
:10378000706172746E65723D25730D0A0000000051
:103790005B5048594442475D202A2A2A203F3F3F38
:1037A0003F3F3F3F3F3F3F3F3F3F202A2A2A0D0AEE
:1037B0000000000030B5574D044687B000220421B8
:1037C0002846FDF743FD3220FDF710FA01220421BF
:1037D0002846FDF73BFD4FF49670FDF707FA00F021
:1037E00053FF2046FDF7B2F94B48836902684169EF
:1037F0004AA0FEF7E5FD56484268016855A0FEF76D
:10380000DFFD5D4841685DA0FEF7DAFD01F0B4FB25
:10381000E08841BA0A04217A45BA42EA0123627A71
:103820002D04134345EA01251B06ADB243EA0523E7
:1038300045BA40BA0004EDB240EA012043EA05234C
:10384000104343EA10600390608941BA0A04217B67
:1038500045BA42EA0123627B2D04134345EA012560
:103860001B06ADB243EA052345BA40BA0004EDB2E7
:1038700040EA012043EA0523104343EA1060049024
:10388000E08941BA0A04217C45BA42EA0123627CFC
:103890002D04134345EA01251B06ADB243EA052377
:1038A00045BA40BA000440EA0120EDB2104343EAB1
:1038B000052343EA106005903B4A3C4900208DE80F
:1038C000070004AB05AA03A9394802F0D9F8E0B112
:1038D000374802F0B5F9364802F0D1F901213448F1
:1038E00000F00FFF3248216840F8221FA188818034
:1038F00006218171607A0090237AE279A1792DA066
:10390000FEF75EFD012007B030BD32A0FEF758FD86
:103910000020F8E700140140009002405B444D4154
:103920005D20444D4153523D307825303858202099
:10393000444D41424D523D30782530385820204486
:103940004D414F4D523D3078253038580D0A00001A
:10395000008002405B444D415D204D414343523D58
:1039600030782530385820204D41434646523D306E
:1039700078253038580D0A00000001405B444D4165
:103980005D204146494F5F4D4150523D30782530D2
:10399000385820202862697432343D4554485F52BB
:1039A0004D4949290D0A000099450008B54600080F
:1039B0001C0500205B4C5749505D205374617469AD
:1039C000632049502025642E25642E25642E25640D
:1039D0000D0A00005B4C5749505D206E65746966A6
:1039E0005F616464206661696C65640D0A000000B3
:1039F00001488068704700000800002010B50121D0
:103A00000846FDF7C1F8C0F3800010BD014800680A
:103A100070470000F4000020014840687047000033
:103A2000F40000200248002101604160704700005E
:103A3000F400002070B51C4800F054FEFDF70EFCA9
:103A40001A4C05466069281AFA2802D9656102F005
:103A5000A1FDA0690026281AB0F5FA6F0FD9A5615B
:103A6000FFF7CCFF08B1012106E0A06818B110A053
:103A7000FEF7A6FCA66000210B4800F042FEA068FD
:103A800000280FD1E06800280CD0206941F288316D
:103A9000281A884206D90BA0FEF792FCE06802F0D3
:103AA00051FEE66070BD00001C05002008000020EB
:103AB0005B4554485D204C696E6B206C6F737421BC
:103AC0000D0A00005B5443505D2054696D656F75AD
:103AD000742C2072657472790D0A00002DE9FF4183
:103AE000FFF758FC7C4E002531467CA0FEF768FCB1
:103AF000346980A02146FEF763FCC4F30043C4F39D
:103B0000C422C4F38411C4F380008DE80F0004F0D4
:103B10000101C4F3C003C4F3001284A0FEF750FCFB
:103B2000346902210120FDF72FF83269034621464E
:103B30008CA0FEF745FC9BA0FEF742FC00244FF64C
:103B4000FF77A0B20221FDF71FF80646A0B20321BD
:103B5000FDF71AF803463EB1BE4205D03246214673
:103B60009AA0FEF72DFC0125641C202CE9DBC5B1D1
:103B7000012402212046FDF707F8074603212046CD
:103B8000FDF702F8064601212046FCF7FDFF054639
:103B90003246394697A0FEF713FCA80615D5A2A019
:103BA00014E0A3A0FEF70CFC02210120FCF7ECFFBF
:103BB000044601210846FCF7E7FF04B02146BDE8B2
:103BC000F0410246A5A0FEF7FBBBAFA00090E804C1
:103BD00001D5AFA300E0AFA3680701D5AEA200E016
:103BE000AFA22946B0A0FEF7EBFB10212046FCF760
:103BF000CBFF0146800601D5BAA000E0BAA0009034
:103C0000480701D5BAA300E0BBA3880701D5BCA231
:103C100000E0BCA2BDA0FEF7D3FB00212046FCF7CC
:103C2000B3FF0146000501D5C6A000E0C6A04A05C5
:103C300001D5C6A200E0C6A2CB0501D5ACA300E029
:103C4000ADA38D0401D5AFA500E0ADA5CDE902205F
:103C5000CDE90053C80401D5BEA300E0BEA308040B
:103C600001D58BA200E0BDA2BE48FEF7A9FB04214E
:103C70002046FCF789FF054605212046FCF784FF16
:103C80000446C5F38022C5F34011C5F380108DE8CA
:103C90000700C5F3C013C5F300222946B248FEF75A
:103CA0008FFBC4F38022C4F34011C4F380108DE86D
:103CB0000700C4F3C013C4F300222146AB48FEF74B
:103CC0007FFB0CB1AAA100E0ABA104B0ACA0BDE8A1
:103CD000F041FEF775BB0000008002405B50485980
:103CE0005D204554485F424153453D30782530388A
:103CF000580D0A005B5048595D204D41434D4949DC
:103D000041523D307825303858202028657870653C
:103D10006374204D423D626974303D302C20435223
:103D20003D62697473343A32290D0A005B50485978
:103D30005D2020204D423D25642043523D25642EC8
:103D400025642E2564204D523D3078253032582090
:103D500050413D307825303258204D573D25640D77
:103D60000A0000005B5048595D20534D492074659E
:103D700073743A206265666F72653D30782530381D
:103D800058202061667465723D307825303858209F
:103D900020726573756C743D3078253034580D0A87
:103DA000000000005B5048595D205363616E6E69EE
:103DB0006E67206164647265737365732030783058
:103DC000302D307831462E2E2E0D0A005B5048598A
:103DD0005D202041646472203078253032583A20CA
:103DE00049443D3078253034583A253034580D0A4E
:103DF000000000005B5048595D204450383338348F
:103E0000382049443D3078253034583A25303458EC
:103E10002028657870656374203078323030303A0D
:103E200041304230290D0A00444F4E450000000049
:103E30005B5048595D20204E6F20504859207265D4
:103E400073706F6E64656420617420616E792061A7
:103E5000646472657373210D0A0000005B50485959
:103E60005D202052656164203078303120726567B2
:103E7000323D30782530345820726567313D3078D6
:103E8000253034580D0A000050454E44494E470035
:103E90004F4E00004F4646005550212000000000C4
:103EA000444F574E000000005B5048595D20424D82
:103EB00053523D30782530345820206C696E6B3D6C
:103EC000257320206175746F6E65673D2573202012
:103ED0006175746F6E65675F646F6E653D25730D08
:103EE0000A0000004F4B000049444C450000000010
:103EF00046554C4C0000000048414C460000000074
:103F000031304D003130304D000000005B504859D9
:103F10005D205048595354533D3078253034582053
:103F20002073706565643D257320206475706C6531
:103F3000783D25732020706167655F72783D257339
:103F40000D0A0000504400007570000049534F00F6
:103F50006E6F0000454E000044495300646F6E656B
:103F600000000000AC940008249400086894000845
:103F700050524553454E5400414253454E54000063
:103F80005B5048595D206C696E6B5F706172746E36
:103F900065723D25730D0A00F0B50A4A05460020FA
:103FA0005488094E07E0F75C2F54401C5B1CC3F398
:103FB0000B0380B29380884202D29388A342F2D14D
:103FC000F0BD0000080000204C05002070B50A4C30
:103FD0000E460146A0684FF0FF3530B1E06820B1D1
:103FE0000123324604F040FF08B1284670BDE06866
:103FF00003F068FB304670BD080000202DE9F74F44
:104000000422054682B000208B46DFF8DC90114682
:104010001446164601908646CDF8000000EB400A93
:1040200009EBCA03042C1F7D29D0C7B175B1D5F89F
:1040300000C0D3F80480C44508D1DDF810C0BCF13D
:10404000000F4ED0D3F80880E0454AD0012F1AD097
:10405000022F04D35B8A734501D301469E46401C60
:1040600000B20428DADB5FEA8B734FF0FF3038D4FC
:10407000042C18D025DB042919DA0C461EE0002F89
:10408000D4D10446EBE759F83A705B8A2FB1019F0F
:10409000BB42E4D306460193E1E7009FBB42DED377
:1040A00002460093DBE75FEACB731AD0E3E7042A0A
:1040B00001DA144602E0042E13DA3446204600F0FA
:1040C00015F82DB104EB440209EBC20029684160E8
:1040D00004EB440109EBC100002242820499816093
:1040E000204605B0BDE8F08F5054002070B5074C55
:1040F00000EB4005002654F8350018B101F03EFFF2
:1041000044F8356004EBC500067570BD50540020BE
:104110002DE9F04786B00D00804643D0D8F8044022
:104120004FF480792088484539D12079062836D146
:104130006079042833D16088082830D1D4F80E1073
:104140000491A269686818B1824204D1012603E093
:104150000026374608E00026814201D1012700E011
:1041600000270EB1012300E0022304F10802924669
:1041700004A9284600F0CEF9E08848450FD176B171
:104180006FB9022204ABCDE90232291DCDE9001A34
:1041900005F1220319465246284600F02FF9404601
:1041A00001F0ECFE06B0BDE8F0870000FEB5044665
:1041B0000E4615462146106800F02FFC08B1354B1D
:1041C0003FE02868C0F303110E2925D0A168636879
:1041D00000EA01020B409A4208D080B2A0F57E416D
:1041E000A93903D0E068B0B304F10C052A4B2B4881
:1041F0001A7802EB420100EBC1010F7D022F2ED392
:104200008F68A7422BD12F6849688F4227D131464A
:10421000204600F045F8FEBD01208DF80400002086
:104220008DF805005E208DF80600687801AB00F07F
:104230007F008DF80700A8788DF80800E8788DF8E1
:1042400009004FF40060009004F12202314620463C
:1042500000F0F4F9FEBDFFE76FF00300FAE700227B
:1042600002EB420100EBC1010F7D022F08D38F68E2
:10427000A74205D12F6849688F4201D11A70C6E75D
:10428000521CD2B2042AEBD332462946204600F013
:1042900037F8DFE718940008F2000020505400209F
:1042A0002DE9F84306468846144802EB420100EB2C
:1042B000C10404F10C05207D022813D1608A032774
:1042C000B0F58E7F04D9211D304600F0DDF807E0FF
:1042D000B0F5877F06D32A46211D304600F0DAF874
:1042E00000B927754FF4006000902B4606F12202BA
:1042F0004146304600F0A2F9BDE8F8835054002052
:104300002DE9FC5F8346223001900F460868144671
:104310004FF0FF364FF0000A594600F07EFB80B99F
:104320003868C0F303110E290BD057B148B15A4673
:1043300001213846FFF762FE002805DA40B2BDE8E9
:10434000FC9F6FF00F00FAE700F0FF09294909EB25
:10435000490801EBC805287D08B134B114E04FF0DD
:10436000010A85F814A0C5F808B03946584600F08F
:104370008BF8060007D1287D012804D1BAF1000F7F
:1043800001D1002068827CB3287D1A4F02280ED309
:1043900019494FF4006005F10C0381F8009000907A
:1043A00021465846019A00F049F906461FE00128C7
:1043B0001DD12046017B490607D522464FF42071C6
:1043C000102001F039FD044605E000680028F1D115
:1043D000204601F058FE44B157F8380008B101F00A
:1043E000CDFD47F83840002601E04FF0FF3630465B
:1043F000A5E7000050540020F20000202DE9FF4FF7
:1044000081B09346DDE90F981F4600264FF42072D5
:104410001C211020DDF838A001F072FC05002FD01F
:104420006C68119800F0A6FDE0803868A060B8883C
:10443000A081D9F80010C4F81210B9F80400E08285
:10444000DAF80000C4F80E00D8F80000A0614FF4BC
:104450008070208008206080062020710420607118
:1044600040F606000090DDE901025B46294600F0B7
:10447000E5F8284601F082FD304605B0BDE8F08F32
:104480004FF0FF30F9E70000014A00F003B80000E8
:10449000189400087FB5064D031D0124CDE90035B1
:1044A000CDE902141E331946FFF7A8FF04B070BD12
:1044B0001E94000870B5164D002400BF04EB4400A4
:1044C00005EBC002117DF1B1508A401C80B25082D0
:1044D000B0F5967F0AD2012906D003290AD0042913
:1044E0000AD001290BD00EE0052808D32046FFF79B
:1044F000FDFD08E0042000E00220107503E0111D1E
:104500009068FFF7C1FF641C042CD7DB70BD00006E
:1045100050540020F8B51F4616460D00044613D02F
:10452000286888B1214600F078FA68B92878C0F385
:1045300003100E2808D0224639462846FFF75EFDB4
:10454000002804DA40B2F8BD6FF00F00F8BD114941
:1045500000EB400201EBC200022303758460336864
:10456000C360B38803820023438251F8325075B18F
:1045700041F832304FF400600090334604F12202DB
:104580002946204600F05AF8284601F0F7FC0020A2
:10459000F8BD0000505400202DE9F0410446408948
:1045A0000E270D460E283CD96068E17B868919B933
:1045B00095F82C10491CE1730178CA0714D0012921
:1045C00005D006221C49FBF754FE48B10CE04178A7
:1045D00051B980785E2807D1607B40F0100002E07E
:1045E000607B40F008006073082E03D0B6F5C16F01
:1045F00017D10DE095F82900000712D5394620465D
:1046000001F04EFD68B92946204600F01DFA10E081
:1046100095F82900000704D53946204601F040FDF1
:1046200018B1204601F0AAFC03E029462046FFF716
:104630006FFD0020BDE8F081189400082DE9F041DD
:1046400080461E4617460D46069800F093FC044629
:104650000E21284601F02EFB18B16FF00100BDE8D5
:10466000F0816868848131680160B188818039682F
:10467000C0F80610B988418140462946D8F818206C
:10468000BDE8F041104700001FB5094A00924FF401
:10469000BE600121CDE90110A2F5BF5303F1200155
:1046A00003900422A1F1A000FCF7DAF81FBD00007E
:1046B000106D0020652180F82A10302180F82B1021
:1046C000064940F8141F0649416040F2DC518181DF
:1046D0001A2141750621017500207047AD4100087F
:1046E0001D4E000870B5044606E022692146904739
:1046F00010B1284601F042FC00F01EFB0500F4D189
:1047000070BD09B101F0ADBA01F0A0BA13B54FF018
:10471000FF33012269460248FDF7ECFB00981CBDFF
:104720003016002010B5002821D0114B0022001FA8
:10473000196803E0814203D80A4649680029F9D183
:1047400052B11368841A9C4204D100681844106066
:10475000104602E0506000E0186039B102680B1AA0
:10476000934203D10B681A4402604968416010BD4E
:10477000080100200A46032100F096B82DE9FE4FFB
:104780008B46484904468E6830780007850E142D04
:1047900047D3608904287FD36068007800287BD0E5
:1047A000082879D1486901F11409C0F303120E2ACF
:1047B00072D08A46096800F030F900286CD120894F
:1047C000082869D3204600F0B9F8002864D105F123
:1047D00010010F46204601F06DFA40B320894119BF
:1047E00089B2884258D84FF42072102001F088FA1C
:1047F000070051D0798905F1080081420ED32A467D
:1048000031467868FBF703FD2946384601F048FC3D
:1048100020B92146384601F01EFB18B1384601F098
:10482000ADFB39E0204601F0A9FB3C4604E03946E7
:10483000204601F035FC78BB29462046D4F8048098
:1048400001F038FA40BB6668D9F800000027F06034
:10485000DAF81000306188F80070E773B8F80200E9
:104860004FF6F771884201D9093000E00830A8F806
:104870000200FF20307277812946304600F058F858
:1048800070810121CDE90071FF230022CDF808B02D
:104890004946204600F0A2F92046BDE8FE4F01F04F
:1048A0006DBB0000385400202DE9FF470746008902
:1048B0001C25924689461C2800D2054605F10800B1
:1048C00081B24FF42072242001F01AFA06002DD094
:1048D0007468D7F80480082384F8009084F801A055
:1048E0004FF00009C4F804902A463946304601F0DA
:1048F000EDFAD8F80C00039003A800F0E7F90500E2
:1049000011D0A4F802904F467189204600F010F8AB
:10491000608001200097CDE90105FF2303AA002153
:10492000304600F05BF9304601F028FBBDE8FF8718
:1049300000B500F02FFBC04380B200BD70B500266B
:104940003446054612E06989686800F023FB20447C
:1049500081B201EB1044A87AC00706D08EB10026C0
:10496000E0B2C4F3072141EA00242D68002DEAD10A
:1049700026B1E0B2C4F3072141EA0024E04380B24B
:1049800070BD0126ECE730B41B68029D9CB204EBBD
:1049900013442B689DB22C4404EB13439CB204EBEC
:1049A00013439CB204EB134330BCAFF300802DE9FA
:1049B000F0411C4690460F460026054612E06989E4
:1049C000686800F0E7FA204481B201EB1044A87A4D
:1049D000C00706D0FEB10026E0B2C4F3072141EAC9
:1049E00000242D68002DEAD126B1E0B2C4F30721DE
:1049F00041EA0024384600F0BDFA0444404600F085
:104A0000B9FA204481B201EB104000EB1040C043E2
:104A100080B2BDE8F0810126DEE7421C12D088B1E9
:104A200091F8292092070BD54B68834208D08968FA
:104A300000EA01020B409A4202D10143491C01D015
:104A400000207047012070472DE9F0474568074670
:104A50000E4628780421B1EB101F03D0384601F030
:104A60008DFA9DE000074FEA9068688800F082FAAE
:104A700004463889A04203D92146384601F0DCFAC1
:104A800079894145EAD33889A042E7D34046B8F155
:104A9000140FE3D301462846FFF74AFF0028DDD173
:104AA0002969DFF80491C1F303100E28C9F8141026
:104AB000EA68C9F8102005D0304600F079F850B106
:104AC000344619E096F82900C00702D07068002823
:104AD000F6D1002410E099F8140000247F280BD0B0
:104AE0003248046806E0B44203D0204600F060F883
:104AF00010B92468002CF6D13146D9F81000FFF720
:104B00008CFF0028AAD199F810104846C1F3031170
:104B10000E29A3D0002CA1D0E98831F0C0019DD18D
:104B20008560C0E90046297838460907890EA9F84A
:104B30000C10414601F0B4FA687A01280ED006281C
:104B400007D04D462146D9F81400FFF766FF50B153
:104B500016E03146384602F049FA14E0314638464C
:104B6000FFF70CFE0FE0287DC0F303100E2807D0DE
:104B70004146384601F048FA02213846FFF7FAFD6F
:104B8000384601F0FBF90021C9F80010C9F80410FB
:104B9000C9F80810A9F80C10C9F81010C9F81410B9
:104BA0000020BDE8F0870000385400209400002069
:104BB00010B590F82910C9070CD0416851B1064AC8
:104BC00052698A4204D001461046FFF726FF08B119
:104BD000012010BD002010BD38540020FEB5DDE9D5
:104BE0000954089E1AB109B10F6807B9211D009632
:104BF000CDE9015400F002F8FEBD00002DE9F84FA8
:104C00009946DDE90A87DDF830B016008A46054688
:104C10006FF0010444D0142101F04CF8E0BB6C6843
:104C2000390247EA092084F80890677241EA1021A6
:104C30003068206182B2114401EB1040452121709F
:104C40004FEA082248F48A4142EA112184F801809F
:104C50000F18288900F08EF900EB07086080194FC3
:104C60000020E080388800F085F9A0803988404431
:104C7000491C3980BAF1000F0FD0DAF80010E1605A
:104C80008AB2104400EB114081B201EB104000EBFE
:104C90001040C04360810DE005E00B490968EEE774
:104CA0006889142802D22046BDE8F88F68686E46ED
:104CB00000690090DBF81430584632462946984780
:104CC000F2E70000F00000201494000870B50146DF
:104CD000144813E090F82920D3070FD053070DD5BF
:104CE00043685BB184680D68234005EA04069E4270
:104CF00016D0920702D4C268954211D000680028ED
:104D0000E8D10948006850B190F82920D30706D0AF
:104D1000520704D5426812B109787F2900D10020DA
:104D200070BD0000940000209800002038B5049C5D
:104D30000094FFF728FE38BD2DE9F84F2D4D4FF4B4
:104D4000BE604FF0040A002405F1A008CDF8000071
:104D500005EB441081460068002813DB4846FBF74A
:104D60000DFE07043F0C02D00098874210D9C4EB17
:104D7000441000EB841108EB011152464846009B99
:104D8000FBF72AFF641C5445E2DB0020BDE8F88FE6
:104D90004FF4C1723946002000F0B2FF5FEA000B09
:104DA00022D00546C4EB441000EB8411002608EB2A
:104DB00001186C89A019B84200D9BC1B08EB060188
:104DC00022466868FBF723FA2D682644002DF0D1AF
:104DD000414652464846009BFBF7FEFE06480168E6
:104DE000491C01605846D1E7394604A0FDF7E8FAAE
:104DF000BDE70000B0540020F40000205B4554489B
:104E00005D204E6F207062756620666F722052586A
:104E10002025642062797465730D0A002DE9FE4F28
:104E20002F4FDFF8B8802F48BA6808EB421501E031
:104E3000401E09D02B68002BFADBD5F8089000261D
:104E40000C464FF4BE6A19E0114627A0FDF7B8FAE8
:104E50006FF00200BDE8FE8F62899019504505D9B8
:104E600029A0FDF7ADFA6FF00100F3E709EB0600AA
:104E70006168FBF7CCF9608924680644002CEBD10B
:104E8000C6F30C006860274828600020B860FBF774
:104E9000DDFC7868401C7860F86800281CDD401E46
:104EA000F860214800232968002902DA5B1C83424C
:104EB000F9D31E4840692968CA0F454501D0012130
:104EC00000E00021C0F30255CDE90005C0F38004E5
:104ED00002941748FDF774FA0020BBE73055002014
:104EE000F400002040420F005B4554485D205458B8
:104EF000206465736320256C7520737475636B2063
:104F0000284F574E290D0A005B4554485D205458E0
:104F100020627566666572206F766572666C6F7763
:104F20000D0A0000000010F0A08601000090024071
:104F30001897000810B504464068804701F054FBFC
:104F4000094A216852688B181A1AB2F1004F03D32C
:104F500008442246054902E0044922461846BDE8B5
:104F6000104001F051BB0000A0000020354F0008A8
:104F700000BA704740BA704710B500F039FD00F034
:104F800051FD00F017FE02F025F8BDE8104001F0D9
:104F900063BB000018B50022ADF8002010F001033B
:104FA0000CD000290ADD10F8014B8DF80140491E94
:104FB00004E000BF30F8024B891E22440129F9DCCD
:104FC000002902DD00788DF80000BDF800001044D3
:104FD00081B201EB104081B201EB104023B1C1B2AC
:104FE000C0F3072040EA012080B218BD8CB0FCF766
:104FF00047FAFDF7BFF8DB4DA86940F01000A86143
:10500000A8694FF4005700F010004FF00208009715
:10501000CDE9038000244FF00109D34ECDE901947E
:1050200069463046FCF70CF8002239463046FCF75A
:105030000DF9C820FBF7DAFD012239463046FCF7AE
:1050400005F9C820FBF7D2FD002239463046FCF7AF
:10505000FDF8C820FBF7CAFD012239463046FCF7AF
:10506000F5F8FCF7CDFFFDF729F8C148BF494FF42B
:10507000E13A0160C0E901A44FF00C0BC460C0E943
:10508000044B8461C461FCF797FE08B172B6FEE779
:10509000B748B84F4830C0E9007A8460C460C0E9BE
:1050A000044B8461A246C461FCF786FE08B172B667
:1050B000FEE7B0485521001D016039684906FCD55E
:1050C0000D21016039684906FCD50A210160386864
:1050D0004006FCD5A8A0FDF773F9B149B1A0FDF7D2
:1050E0006FF9B7480168B7A0FDF76AF9FCF734FB20
:1050F0000146BCA0FDF764F9FCF73EFB0146C2A0E7
:10510000FDF75EF99A48483090F84110C7A0FDF7C6
:1051100057F9D248DFF848B30168001F0268CBE9AD
:105120000E21D0A0FDF74CF9D8482968890001D498
:10513000401EFAD129686B68C1F340712A68D4A077
:10514000FDF73EF900244FF400570022394630465F
:10515000FCF77CF85020FBF749FD01223946304628
:10516000FCF774F85020FBF741FD641C032CECDBCA
:10517000D7A0FDF725F9696941F480416961696942
:1051800001F480410091696941F4004169616969F4
:1051900001F400410091696941F4803169616869F5
:1051A00003210A9100F48030CDE9088A009054462A
:1051B00007A96D48CDF81C80FBF742FF042007903B
:1051C00007A9CC48FBF73CFF00210120FBF7DCFCE2
:1051D000012106900846FBF7D7FC05460221012075
:1051E000FBF7D2FC059003210120FBF7CDFC8246A2
:1051F00010210120FBF7C8FC804618210120FBF795
:10520000C3FC064619210120FBF7BEFC0290CDF835
:1052100000A0DDE905312A46B748FDF7D1F832464E
:105220004146B6A0029BFDF7CBF8680701D5C3A1A4
:1052300000E0C3A1C448FDF7C3F84FF496763046AA
:10524000FBF7D4FCC1A0FDF7BBF8FCF7B1FEC7A08B
:10525000FDF7B6F8CCA0FDF7B3F84548D24954386D
:10526000D24D0160C0E901540914C0E90341446111
:105270008461C4610462FBF7F7FF08B172B6FEE710
:10528000CBA0FDF79DF8EF22CD21AB208DE80700E4
:10529000DC2308220021CCA0FDF792F8FF2000219A
:1052A00005900690CDE9070101200821CDE9021003
:1052B00004901A221420CDE900020A4601231A2183
:1052C000CCA0FDF77DF840F6BC710B20CDE90001C4
:1052D000012308221A21D6A0FDF772F8FBF7BEFFC2
:1052E0005C46CBF80400DAA0FDF76AF8E4A0FDF70D
:1052F00067F800220221EBA0FDF762F8EDA0FDF7B0
:105300005FF8F7A0FDF75CF8FA48FEF753FA0028BB
:1053100026D0F9A0FDF754F8FEF7E0FBFAA0FDF760
:105320004FF8FDF7BDFE4FF4FA7B5846FBF75EFCE5
:10533000FB490120FDF7A6FB011E00DC0020A06058
:10534000F8A0FDF73DF8FEA0FDF73AF842F2107A1A
:105350004FF47A764FEA0509FBF780FF0546FDE139
:105360000CE2000000100240001001400038014033
:10537000E8150020004400400D0A3D3D3D3D3D2024
:10538000555341525432204F4B202D204449414720
:10539000205354415254203D3D3D3D3D0D0A0000F7
:1053A00040787D015B444941475D204853455F5645
:1053B000414C55453D256C7520487A0D0A0000008A
:1053C000740000205B444941475D20537973746544
:1053D0006D436F7265436C6F636B3D256C75204840
:1053E0007A0D0A005B444941475D2050434C4B31E4
:1053F0003D256C7520487A2028555341525432205F
:10540000636C6B290D0A00005B444941475D2050E5
:10541000434C4B323D256C7520487A20285553412A
:1054200052543120636C6B290D0A00005B444941E2
:10543000475D206875617274322E675374617465BC
:105440003D2564202865787065637420307832309B
:105450003D5245414459290D0A000000ECF7FF1F59
:10546000280000205B444941475D20426F6172641F
:105470002049442028554944293A2030782530389D
:105480006C582530386C580D0A000000400D0300A0
:105490005B434C4B5D20504C4C3328504C4C4932B4
:1054A000532972656164793D256420205243435F2E
:1054B00043523D30782530386C5820205243435FAA
:1054C000434647523D30782530386C580D0A00006D
:1054D0005B444941475D204D44494F2070726F62E3
:1054E00065206F66205048592040307830312E2E8C
:1054F0002E0D0A0000080140409500085B504859F5
:1055000050524F42455D20504859535453283078EB
:105510003130293D30782530345820535452415091
:1055200031383D3078253034582053545241503171
:10553000393D3078253034580D0A000055500000B0
:10554000444F574E00000000889500085B444941D5
:10555000475D2041626F757420746F20696E6974B5
:10556000204554482E2E2E0D0A0000005B44494170
:10557000475D204554482048414C20696E6974209D
:10558000646F6E650D0A00005B444941475D204130
:10559000626F757420746F20696E6974204932439C
:1055A0002E2E2E0D0A00000000540040A08601009F
:1055B0005B444941475D2049324320696E6974204C
:1055C000646F6E650D0A00005B4E45545D204D41D1
:1055D000433A20253032583A253032583A25303275
:1055E000583A253032583A253032583A2530325818
:1055F0000D0A00005B4E45545D2049503A20256459
:105600002E25642E25642E2564202047573A202518
:10561000642E25642E25642E25642020534E3A20C6
:1056200025642E25642E25642E25640D0A000000B5
:105630005B4E45545D205365727665723A20256451
:105640002E25642E25642E25643A25640D0A00005B
:105650000D0A3D3D3D3D3D3D3D3D3D3D3D3D3D3DDD
:105660003D3D3D3D3D3D3D3D3D3D3D3D3D3D3D3D6A
:105670003D3D3D3D3D3D3D3D3D3D0D0A00000000B1
:1056800020204254434D696E65724D53204631309F
:105690003756435436202B20445038333834380D95
:1056A0000A00000020204657207625642E25640D30
:1056B0000A0000003D3D3D3D3D3D3D3D3D3D3D3D04
:1056C0003D3D3D3D3D3D3D3D3D3D3D3D3D3D3D3D0A
:1056D0003D3D3D3D3D3D3D3D3D3D3D3D0D0A0000D7
:1056E0005B5359535D2045544820696E69742E2ED2
:1056F0002E0D0A00F09200085B5359535D2045546B
:1057000048204F4B0D0A00005B5359535D20424D1A
:105710003133363620696E69742E2E2E0D0A000044
:105720000080F2435B5359535D20424D313336368E
:105730003A20256420636869702873290D0A0000E7
:105740005B4C4F4F505D20456E7465726564206DF3
:1057500061696E206C6F6F700D0A0000206A281A54
:10576000B04204D9294652A02562FCF729FEFEF773
:105770003FF90028E06812D038B12DE051A0FCF7C5
:105780001FFE3046FBF732FAFBE70120E060002005
:10579000208053A0FCF714FE00F0B0FE06E038B104
:1057A0000020E060208052A0FCF70AFEE06898B973
:1057B000A069281AB0420FD940F6BC780B21A56128
:1057C000CDE90018012308221A2151A0FCF7F8FDA9
:1057D00041465948FDF768FDFEF72CF900F048FDF9
:1057E000FDF7D8FCE06840B1E06944F62061281A72
:1057F000884202D9E56100F081FEA06A291A51456C
:1058000035D9A562FEF708F90290FEF7FFF801907E
:10581000FEF7F4F810B1AFF2DC2001E0AFF2E020C7
:105820008046A06808B1FDF727F9B5FBF6F1434AB9
:105830005269DDE9013CCDE900080293CDE903C2DC
:10584000A06808B13EA300E03EA3E06808B13EA214
:1058500000E03FA24048FCF7B3FD47F23050B5FBF3
:10586000F0F100FB1150B04201D2FEF7DBF8606AA4
:10587000281A58450CD96562E06828B100223946DB
:105880003648FBF7E3FC03E039463448FBF7D6FC27
:10589000E16A491CB1FBF9F209FB1210E16218B987
:1058A0002A462FA0FCF78CFD0120FBF79FF953E55A
:1058B0005B4C4F4F505D202E207469636B3D256C0F
:1058C000750D0A005B4552525D2045544820696EB3
:1058D0006974204641494C4544210D0A00000000EE
:1058E0005B4E45545D20544350204F4B0D0A000041
:1058F0005B4E45545D2054435020646F776E2C20DE
:1059000077696C6C2072657472790D0A0000000072
:105910005B4E45545D20436F6E6E656374696E67C0
:105920002025642E25642E25642E25643A25642EB8
:105930002E2E0D0A000000003C00002000900240C6
:105940004F4B00004F464600434F4E4E00000000B4
:1059500057414954000000004896000800100140DB
:105960005B414C4956455D206C6F6F7020636E74CF
:105970003D256C75207469636B3D256C750D0A00BF
:10598000F0B50B30154D20F007010024144A0FE04C
:1059900003688B420BD38B4205D95E1A43184768C4
:1059A000C3E9006700E04368136002C004E0021D21
:1059B00010680028ECD12046002802D1286808B1E0
:1059C0000020F0BD064A07481060074A121A22F06C
:1059D0000702C0E9002401202860D7E70C0100205D
:1059E000080100200473002000750020FEF79ABE15
:1059F000704710B5FFF7C4FF040003D100F0C6FDE7
:105A000000F0C6FD204610BD70470000062806D2F3
:105A1000002904D0024A52F82000FDF725BC704747
:105A20009893000830B5064D002400BF55F82400B7
:105A300000F008F8641CA4B2062CF7D330BD0000B7
:105A4000989300088268002111600022416807E0F5
:105A50008368521C1B680B608368196003881944B3
:105A600043889342F4DC7047062801D30020704736
:105A7000024951F82000FDF705BC0000989300088A
:105A80002DE9F0410400DDE90770069E1ED0EFB15C
:105A900001B9214902B9204A03B91F4B00256560AD
:105AA000A560DFF878C0C4F814C0E560258484F8E8
:105AB0002950E6611A4E96F800C084F82CC0206187
:105AC000204600F08DF82046B84710B10020BDE810
:105AD000F081716894F82C00FF2801D184F82C50D3
