:020000040800F2
:1000000090410120A1010008A7060008A3060008EE
:10001000A506000807030008E90900080000000021
:100020000000000000000000000000008907000838
:100030000903000800000000A906000845080008A0
:10004000BB010008BB010008BB010008BB010008A0
:10005000BB010008BB010008BB010008BB01000890
:10006000BB010008BB010008BB010008BB01000880
:10007000BB010008BB010008BB010008BB01000870
:10008000BB010008BB010008BB010008BB01000860
:10009000BB010008BB010008BB010008BB01000850
:1000A000BB010008BB010008BB010008BB01000840
:1000B000BB010008BB010008BB010008BB01000830
:1000C000BB010008BB010008BB010008BB01000820
:1000D000BB010008B1080008BB010008BB01000813
:1000E000BB010008BB010008BB010008BB01000800
:1000F000BB010008BB010008BB010008BB010008F0
:10010000BB010008BB010008BB010008BB010008DF
:10011000BB010008BB010008BB010008BB010008CF
:10012000BB010008BB010008BB010008BB010008BF
:10013000BB010008BB010008BB010008BB010008AF
:10014000BB010008BB010008BB010008BB0100089F
:10015000BB010008BB010008BB010008BB0100088F
:10016000BB010008BB010008BB010008BB0100087F
:10017000BB010008BB010008BB010008BB0100086F
:10018000BB010008BB010008DFF810D000F09AF8AE
:1001900000480047D5230008AFF3008090410120BC
:1001A0000648804706480047FEE7FEE7FEE7FEE711
:1001B000FEE7FEE7FEE7FEE7FEE7FEE7550800087C
:1001C00089010008202A04DB203A21FA02F00021EC
:1001D000704721FA02F3D040C2F120029140084357
:1001E0001946704710B5431A934209D283188818EC
:1001F00003E010F8011D03F8011D521EF9D210BDD5
:1002000040EA01039B0703D009E008C9121F08C098
:10021000042AFAD203E011F8013B00F8013B521E18
:10022000F9D210BDD2B201E000F8012B491EFBD279
:1002300070470022F6E710B513460A4604461946F1
:10024000FFF7F0FF204610BD30B5044600200346FE
:1002500000E05B1C934203D2E05CCD5C401BF8D015
:1002600030BD2DE9F05F0546002092469B4688464A
:100270000646814640241BE0284641464746224622
:10028000FFF7A0FF53465A46C01A914110D31146BA
:100290001846224600F028F82D1A67EB01084F4651
:1002A00022460120002100F01FF817EB00094E4103
:1002B000201EA4F10104DFDC484631462A464346AD
:1002C000BDE8F09F064C074D06E0E06840F00103F2
:1002D00094E8070098471034AC42F6D3FFF758FF74
:1002E000D86B0008F86B0008202A04DB203A00FADB
:1002F00002F1002070479140C2F1200320FA03F37D
:10030000194390407047FEE770470000F0B587B092
:100310000121102000F0D8F90121084600F0C6F9AB
:100320004FF40070059002258DF8185000248DF8C8
:100330001A4001268DF81B608DF81950194F05A938
:10034000384600F055F9690205918DF818508DF87E
:100350001B608DF8195005A9384600F049F90722AD
:100360000921384600F082F907220A21384600F0B8
:100370007DF94FF4E1300190ADF80840ADF80A4046
:10038000ADF80C400C20ADF80E00ADF81040064C56
:1003900001A9204600F0C2FA0121204600F08AFAA5
:1003A00007B0F0BD000002400010014000B5024659
:1003B0004FF47A7302E0184600F004F8521E501C05
:1003C000F9D100BDA82148434FF0E0214861002049
:1003D0008861052008610869C003FCD50420086114
:1003E0007047000003484FF4E00141610021416083
:1003F00070470000009002402DE9F04FDDE90B6AE4
:10040000DDE9099700244FF0004BC6F30D08A2F177
:10041000010C14E000EB4415C5F800B0C5F80480E9
:1004200004FB061EC5F808E0644506D204F1010E7F
:1004300000EB4E1EC5F80CE000E0E860641C94423E
:10044000E8D3002100254FF080767C1E12E003EBFC
:1004500041121660556001FB0A9CC2F808C0A14217
:1004600006D201F1010C03EB4C1CC2F80CC000E0F9
:10047000D360491CB942EAD30549044A0A60C860FE
:100480000B6104488861BDE8F08F00000020410244
:1004900000900240062030040168002901DA0020A3
:1004A00070470168C90001D4002070470168090441
:1004B00001D5002070470068C0F30B407047000072
:1004C0000248006800F00100704700000090024000
:1004D0004178027841EA02214279837842EA036254
:1004E000C37800791B0443EA00200243064841F028
:1004F00000410164426405490160054941604FF4CF
:100500008151816170470000008002400C4C010065
:100510000004008030B5144A144B1C6924F01C04FC
:1005200044F010044FF6FF7505EAC02020434FF455
:10053000F86404EA8111014321F0020040F0010057
:10054000186101E0521E05D01869C007FAD1586938
:1005500080B230BD0648016841F0010101600168C8
:10056000C907FCD1F3E70000A0860100008002402B
:1005700000900240C3F30D0141604FF00041016063
:10058000704700000248016841F0010101607047B6
:100590000090024030B5134B134C6261226922F087
:1005A0001C0242F010024FF6FF7505EAC02010430E
:1005B0004FF4F86202EA8111014341F0020040F079
:1005C0000100206101E05B1E03D02069C007FAD161
:1005D00030BD0648016841F0010101600168C907AA
:1005E000FCD130BDA0860100008002400090024096
:1005F0002DE9F041002201274FF0030C07FA02F524
:100600000B682B40AB422CD1066853000CFA03F464
:10061000A64306600E79D0F800809E4046EA0806A0
:1006200006600E79012E01D0022E12D18668A643F3
:1006300086604E79D0F808809E4046EA08068660BB
:100640004668AE43466045688E799640B6B23543FB
:100650004560C568A543C560CC799C40C3681C4310
:10066000C460521C102AC9D3BDE8F08110B54B07F5
:10067000DB0E9A40C90800EB8100016A0F249C4000
:10068000A1430162016A1143016210BD02460020CC
:1006900052690A4200D001207047418370470183AC
:1006A0007047FEE7FEE7704770470000054A0029E3
:1006B00003D01168014311607047116881431160D4
:1006C0007047000030380240054A002903D0116805
:1006D0000143116070471168814311607047000049
:1006E0004438024070B5244B196801F00C01234CCA
:1006F00000291ED0224E04291DD008291DD00460D7
:10070000196801F0F00109091E4A545C0168E140D2
:1007100041601C6804F4E054A40A145D21FA04F456
:1007200084601B6803F460435B0BD25CD140C16002
:1007300070BD0460E4E70660E2E70F4A121F11682B
:10074000C1F38055116801F03F0135B1B6FBF1F1FD
:100750001468C4F38814614305E0B4FBF1F1146834
:10076000C4F3881461431268C2F30142521C520060
:10077000B1FBF2F10160C3E7083802400024F40045
:1007800040787D0100000020704700000CB5002279
:10079000019200922749086840F4803008604FF4C5
:1007A000A043086800F4003000900198401C0190BC
:1007B000009810B901989842F3D10868800302D5D7
:1007C0000120009000E000920098012831D11948E2
:1007D0004030026842F0805202601748026842F4DA
:1007E000404202601348083002680260026842F426
:1007F00000420260026842F4A0520260021F0F4BE6
:1008000013600A6842F080720A600A689201FCD59F
:100810000B4A40F205711160016821F0030101608B
:10082000016841F0020101600168C1F38101022900
:10083000FAD10CBD00380240007000401954400746
:10084000003C024002484168491C4160704700007A
:100850001000002010B51248016841F470010160D9
:100860001048016841F0010101600E4A0021083280
:10087000116002680C4B1A400260031D0B4A1A609B
:10088000026822F48022026006480C300160FFF703
:100890007DFF03494FF000608039086010BD000003
:1008A00088ED00E000380240FFFFF6FE1030002423
:1008B00000F00EBC002904D0818941F400518181EF
:1008C0007047818921F400518181704702460020E0
:1008D00012880A4200D00120704770B5002440F60B
:1008E0006A12C1F3421301F01F05012606FA05F250
:1008F000012B0CD0022B0DD0838A1340090A8E40A5
:10090000008830400BB100B10124204670BD8389BE
:100910001340F3E7038A1340F0E700007FB5044675
:100920000D46208A20F44051E88808432082A0899F
:1009300041F20C618843A9882A8911436A890243DC
:100940001143A181A08A20F44071A8890843A082A4
:100950006846FFF7C7FE1E48844202D01D48844205
:1009600001D1039800E00298A189090408D500EBA1
:10097000C00101EB001029684900B0FBF1F007E06D
:1009800000EBC00101EB001029688900B0FBF1F019
:100990006422B0FBF2F109010B096FF018056B43FB
:1009A00000EB8300A3891D044FF0320307D503EB4E
:1009B000C000B0FBF2F000F00700084306E003EBD4
:1009C0000010B0FBF2F000F00F00084320817FBD63
:1009D00000100140001401408088C0F308007047F7
:1009E000C1F3080181807047FEE700000FB4054B9A
:1009F00010B503A9044A029800F018F810BC5DF87D
:100A000014FB0000451D0008E800002002E008C8B3
:100A1000121F08C1002AFAD170477047002001E078
:100A200001C1121F002AFBD1704700002DE9FF4FC2
:100A30008DB00F460546002606E025280BD0DDE9DF
:100A40000F1290476D1C761C28780028F5D111B044
:100A50003046BDE8F08F0024A246A1460122E949B4
:100A600000E0044315F8013F203B02FA03F008427E
:100A7000F7D128782A2810D06FF02F022878A0F11B
:100A80003001092914D80AEB8A0102EB410144F034
:100A9000020400EB010A6D1CF0E701CF5FEA000AD7
:100AA00003D544F40054CAF1000A44F002046D1C5A
:100AB00028782E2817D115F8010F44F004042A28AD
:100AC0000ED06FF02F022878A0F1300109290AD842
:100AD00009EB890102EB410100EB01096D1CF2E712
:100AE00057F8049B6D1C28786C280FD006DC4C2826
:100AF00017D068280DD06A2814D104E0742810D0CB
:100B00007A280FD10DE044F400140AE044F4801474
:100B100001E044F440146978814202D104F5801464
:100B20006D1C6D1C28786E281ED00CDC632830D01C
:100B300004DC00288BD0582811D19FE0642867D0AE
:100B400069280CD164E073282DD004DC6F2872D0A2
:100B5000702804D194E075286ED078286DD0DDE936
:100B60000F129047761C4BE1C4F30250022806D0C6
:100B7000032809D0042801CF09D0066040E101CF45
:100B8000F117C0E900613BE101CF068038E1067052
:100B900036E117F8040B8DF8000000208DF80100F5
:100BA000EB46012003E057F804BB4FF0FF3061072C
:100BB0004FF0000102D40DE008F1010188464945DB
:100BC0000FDA8045F8DB1BF808100029F4D108E0A3
:100BD00008F1010188468142FADB1BF80810002960
:100BE000F6D1DDE90F23AAEB08008146214600F08B
:100BF00031F9304400EB080604E0DDE90F121BF880
:100C0000010B9047B8F10108F7D221464846F2E0BF
:100C10000A21C4F302524FF0000B0891022A04D0BB
:100C200001CFC117032A09D00AE0FF1D27F00707EB
:100C3000F7E8020108E02CE01EE01FE000B2C11757
:100C4000042A01D140B2C117021E71F1000206DA76
:100C50000023D0EB030063EB01012D2202E022050B
:100C600004D52B228DF82420012203E0E20701D0D5
:100C70002022F7E7904653E00A210BE0102109E01B
:100C800010214FF0000B44F004044FF008090891C4
:100C900003E008214FF0000B0891C4F30252022A2E
:100CA00004D001CF0021032A06D006E0FF1D27F063
:100CB0000707F7E8020103E080B2042A00D1C0B2BE
:100CC0004FF0000822072BD52A78702A07D0DDF8CC
:100CD00020C08CF0100C5CEA0B0C05D00EE040221A
:100CE0008DF82420012208E050EA010306D03023C9
:100CF0008DF824308DF8252002229046089B83F041
:100D0000080353EA0B030BD150EA010201D1620739
:100D100006D530228DF824204FF00108A9F10109F1
:100D20002A78582A04D038A20B9208AA0A920BE01B
:100D30003AA2F9E75B46089AFFF793FA0B9B9B5C94
:100D40000A9A521E0A92137050EA0102F2D10A98CE
:100D5000ADEB000000F1200B600702D524F48034D5
:100D600001E04FF00109D94502DDA9EB0B0000E0DD
:100D7000002000EB0B0141440890AAEB010AE003BC
:100D800006D4DDE90F232146504600F063F80644FF
:100D90004FF0000908E009A911F80900DDE90F1278
:100DA000904709F10109761CC145F4DBE0030CD53D
:100DB000DDE90F232146504600F04CF8064404E0DC
:100DC000DDE90F1230209047761C0899481E0890E4
:100DD0000029F5DC08E00A980A990078491C0A9174
:100DE000DDE90F129047761CBBF10001ABF1010B5E
:100DF000F1DC21465046DDE90F2300F019F80644E6
:100E00006D1C21E609280100303132333435363784
:100E10003839616263646566000000003031323346
:100E200034353637383941424344454600000000E6
:100E30002DE9F041044600251E461746880404D4D7
:100E400005E039462020B0476D1C641EF9D52846C0
:100E5000BDE8F0812DE9F041044600251E4690468C
:100E6000C80301D5302700E02027880404D505E019
:100E700041463846B0476D1C641EF9D52846BDE88A
:100E8000F0812DE9F041C0B00D4614461F46002FF9
:100E900002D004F1060101E004F1050101F0FF08B0
:100EA0004FF055018DF800104FF0AA018DF8011098
:100EB0008DF8020002D004F1040001E004F1030007
:100EC0008DF80300224629466E4601A8FFF78AF9ED
:100ED0000DEB04053FB1A11CB01C00F011F8010A94
:100EE0002971687105E0A41CE1B2B01C00F026F87D
:100EF00028714146684600F0FFF840B0BDE8F08137
:100F0000F0B506464FF6FF70002341F22105044676
:100F100011E0F25C80EA02200022070403D585EA92
:100F2000400080B201E004EA4000521CD2B2082A1C
:100F3000F3D35B1C9BB28B42EBD3F0BD30B50346C1
:100F40001F200022044C04E09D5C4540605D521C63
:100F5000D2B28A42F8D330BD6A6900080CB5EB22E0
:100F60009021684600F00CF8014840787047000076
:100F70002000002001480078704700002000002079
:100F80000CB5002000900190DFED210ACDED010AA3
:100F900000250C466D1C36E00123B3EE091A641CD3
:100FA000012004FB03F700EE905A07FB00F6F8EE71
:100FB000600A60EE811A00EE906AB8EE602AC1EE17
:100FC000820A9DED012A32EE402AB0EEC22A70EE6E
:100FD000C01AF0EEE11AF4EEC21AF1EE10FA09D2DC
:100FE0008DF800508DF801408DF802308DF8030027
:100FF000CDED010A401CC0B20728D4D95B1CDBB27E
:10100000072BCDD9E4B29442C6D9EDB2C1E70000B6
:10101000000000002DE9FF47814688460024254F47
:101020003D6801AE14E03868401B404503D3002002
:1010300004B0BDE8F087684605F044FC40B1ACB1AF
:10104000012C1BD020469DF80010641CE4B23154E2
:101050000C2CE8D30821B01CFFF770FF9DF80E1090
:1010600001F01F01884219D00020E1E79DF800201F
:10107000AA2AEDD101248DF80420E9E79DF800208B
:10108000552A05D08DF80420AA2A05D00024DFE7D0
:1010900002248DF80520DBE70124D9E70198C9F87F
:1010A00000000298C9F804000398C9F8080001205C
:1010B000BEE7000014000020012352220146212037
:1010C000FFF7DFBE0CB5EB2290216846FFF758FF13
:1010D00010B5084C40F225512046FFF7FEFB0028D2
:1010E00007D02046FFF778FCC0B2BDE8104005F0FD
:1010F000FFBB10BD001001402DE9F04105460F4631
:1011000000240C4E0BE080213046FFF7DFFB002867
:10111000F9D0295D3046FFF763FC641CA4B2BC42E1
:10112000F1D340213046FFF7D1FB0028F9D0BDE8CC
:10113000F0810000001001402DE9F04106460F4605
:1011400014461D46611C284605F0E8FB2E7124B1AB
:1011500022463946681DFFF745F8641DA0B2BDE878
:10116000F081000010B588B02848C06800284BD036
:101170000A2105A8FFF74EFF002845D09DF81E0064
:10118000000641D59DF81B0000F0F8008DF808001E
:10119000DDF8160003909DF81600BDF81610000645
:1011A000C1F3072140EA0140DDF81610C1F3074101
:1011B00040EA0120DDF8161040EA1164FFF7D4FE82
:1011C000C4F34741B1FBF0F08DF80900600E8DF8D3
:1011D0000A009DF81B0000F007008DF80B000020AE
:1011E00004900B4800900122022302A802F074F937
:1011F0000146074800F0E8F99DF80A209DF809101B
:1012000004A0039BFFF7F2FB08B010BD1000002004
:10121000EC0800205B4E4F4E43455D20415349434F
:1012200023256420436F7265232564206E6F6E63EF
:10123000653D3078253038580D0A000070B50546F8
:101240000C4602F091FBA96809682160A9680C604E
:10125000BDE8704002F08BBB10B5044602F084FB81
:10126000A1680C682CB122680A6002F080FB20465D
:1012700010BD02F07CFB002010BD00002DE9F04104
:1012800004460F462B4D0026A868002802D002F025
:1012900069FCAE600120E8606E802E80E0782378E3
:1012A000617840EA03600E04A2781B0646EA022435
:1012B00043EA014141EA02222043040692B244EA91
:1012C000022201F47F0142EA112141EA106019492A
:1012D00010310860AF8003F01AFB044694B1EA882D
:1012E0001549204602F0A6FC1249144B3A4610312B
:1012F000204602F0A7FD38B1204602F033FC002062
:10130000BDE8F0810020FBE7AC600D4E376840F689
:10131000B83401E000F0FCF8E868012803D1306837
:10132000C01BA042F6D3E868022801D00020E7E7FE
:101330000120E5E72C000020506B00084D3F00081D
:101340001400002002F008BA30B587B004464C48BB
:1013500021680162A1888184D4F806104161D4F823
:101360000A108161D4F80E10C161618AC18001F058
:1013700001FF00287ED0FFF705F9FFF7A1F800284C
:10138000FBD13F482030FFF7A3F84FF4BE600221A5
:10139000CDE901103B4A0092A2F5C053039003F13E
:1013A00040010422A1F1C000FFF726F800F0D9FFA8
:1013B000E37A607BA17A227B1D0440EA016045EA62
:1013C000022528430506090641EA034141EA0222B3
:1013D00092B245EA022201F47F0142EA112141EA78
:1013E00010600590E379607AA179227A1D0440EAC1
:1013F000016045EA022528430506090641EA034142
:1014000041EA022292B245EA022201F47F0142EA55
:10141000112141EA10600690E27B607CA17B237C75
:10142000150440EA016045EA032420430406090646
:1014300041EA024141EA032292B244EA022201F463
:101440007F0142EA112141EA106004900F49002215
:10145000CDE900210C48029005AB04AA06A90C486E
:1014600001F0FCFA0A4801F00DFC094801F010FCFB
:10147000012000E001E007B030BD0020F9E70000E6
:101480002C0000206C230020511C0008BD2B0008FC
:101490004C2F002010B500F03BF80448C06800282D
:1014A00001DC012010BD002010BD00002C00002038
:1014B0002DE9F0410C46144E3068002803DA6FF035
:1014C0000100BDE8F081B768002507E0628978195E
:1014D0006168FEF787FE608905442468002CF5D119
:1014E0007560306840F0E2403060FEF77BFF0748EF
:1014F0003168002901DA401EFAD108B10020E0E786
:101500006FF00200DDE700006C0B0020FFFF0F0012
:1015100010B500F02BF8BDE8104002F02BBA000027
:1015200070B504460D46FFF7F3FF0E4AD068022857
:1015300002D04FF0FF3070BD00200B4B0AE0518805
:101540005E5C0146401C80B266545188491CC1F360
:101550000B015180A842EED211885688B142EED1DB
:1015600070BD00002C0000207C2F002070B51348B7
:10157000FEF792FF0446002C1FD04FF4BE66B44223
:101580001BD8A1B24FF42072002001F0BCFB05462D
:1015900055B10A48A2B28168284601F0C0FD08484A
:1015A00001460269284690473346BDE8704003492A
:1015B0000422C0310148FEF7DDBF70BDEC0A0020F7
:1015C0004C2F00207047000070B506460D460D4CAC
:1015D000A068002802D0E168022902D04FF0FF3055
:1015E00070BD01232A46314604F031FF10B16FF07F
:1015F000010070BDA06803F0FFF9FFF789FF2846DE
:1016000070BD00002C0000202DE9F74F82B0054688
:1016100017460822944608240020904681468246B8
:10162000834600EB4001344B019103EBC1010B7D7C
:10163000082C00D103B39BB14DB12E68D1F804E062
:10164000764504D1002F35D08E68BE4232D0012BB2
:1016500014D0022B04D3498A594501D384468B46C2
:10166000401C00B20828DCDB03984FF0FF318007F4
:101670001FD4082C13D015E00446F1E71E4B019E41
:1016800053F836302BB14E8A4E45E9D38046B146E9
:10169000E6E7498A5145E3D302468A46E0E70398E4
:1016A000C00706D0082C13DBBCF1080F05DA64462E
:1016B0000BE0084605B0BDE8F08F082A01DA1446B1
:1016C00003E0B8F1080F15DA4446204600F016F89A
:1016D00035B1094804EB440200EBC20029684160BF
:1016E000054804EB440200EBC20000214182876000
:1016F0002046DFE70846DDE7D03C012070B5084D05
:1017000000EB4004002655F83400002803D000F018
:101710002BFB45F8346005EBC400067570BD000076
:10172000D03C01202DE9F04786B080460D46002DC3
:1017300012D0D8F804404FF480792088484508D169
:101740002079062805D16079042802D1608808280C
:1017500005D0404601F02CFC06B0BDE8F087D4F877
:101760000E100591A2690492686818B1824204D1F2
:10177000012603E00026002705E00026814201D172
:10178000012700E000270EB1012300E0022304F14D
:101790000802924605A9284600F00AFAE088484562
:1017A0000FD176B16FB905AACDE901A20221281D9A
:1017B00005F122030391009019465246284600F095
:1017C0006BF9404601F0F4FBC6E70000FEB50446A5
:1017D0000E4615462146286800F0A6FB08B1374B97
:1017E0003FE02868C0F303110E2925D0A168636883
:1017F00000EA01020B409A4208D080B2A0F57E4177
:10180000A93903D0E068B0B304F10C052C4B2D4985
:101810001A7802EB420001EBC000077D022F2ED3A5
:101820008768A7422BD12F684068874227D131466D
:10183000204600F049F8FEBD01208DF8040000208C
:101840008DF805005E208DF80600687800F07F00B6
:101850008DF80700A8788DF80800E8788DF8090061
:1018600001AB4FF40060009004F1220231462046A3
:1018700000F042FAFEBDFFE76FF00300FAE7002236
:1018800002EB420001EBC000077D022F0CD38768FA
:10189000A74209D12F684068874205D11A703146A6
:1018A000204600F011F8E5E7521CD2B2082AE7D32F
:1018B00032462946204600F03DF8DBE7546B00082D
:1018C000E4000020D03C01202DE9F84306460F46F5
:1018D000174802EB420100EBC10404F10C05207D26
:1018E000022818D1618A4FF00308B1F58E7F07D91D
:1018F000211D304600F016F968B984F814800AE01A
:10190000B1F5877F07D32A46211D304600F010F934
:1019100008B984F814804FF4006000902B4606F15B
:1019200022023946304600F0E7F9BDE8F8830000AE
:10193000D03C01202DE9F74F82B0884691460298AD
:10194000223001904FF0FF3A56460024D8F80000AC
:10195000029900F0E9FAA0B9D8F80000C0F3031129
:101960000E290ED0B8F1000F0BD050B10121404626
:10197000029AFFF749FE002806DA40B205B0BDE83A
:10198000F08F6FF00F00F9E700F0FF0B40480BEB12
:101990004B0700EBC705287D20B9012401202875DD
:1019A0000298A86014B9B9F1000F0FD1414602980E
:1019B00000F0B8F80646300005D1287D012802D194
:1019C0000CB900206882B9F1000F13D0287DDFF830
:1019D000C080022810D32F4880F800B04FF4006078
:1019E0000090DDE9012005F10C03494600F084F97F
:1019F00006464AE03046C1E7012846D100214C4660
:101A000005E0207B400601D5012102E02468002C7E
:101A1000F7D139B14A464FF42071102001F01DFA78
:101A2000814602E0484601F051FBB9F1000F2BD08E
:101A3000042001F007F810B3002100220260C0F872
:101A4000049058F8372042B1012101E01A46491CA0
:101A50001368002BFAD1106001E048F83700032921
:101A60000BD358F83740206848F83700606801F019
:101A70009FFA2146042000F0B5FF002605E0484605
:101A800001F096FA564600E05646304676E70000EA
:101A9000D03C0120E40000202DE9FF4F81B08B46AF
:101AA000DDE90F9ADDF838801E4600274FF42072DA
:101AB0001C21102001F027F9054628002FD06C6862
:101AC000119800F049FCE0803068A060B088A081E7
:101AD000D9F80000C4F81200B9F80400E082D8F880
:101AE0000000C4F80E00DAF80000A0614FF4807026
:101AF000208008206080062020710420607140F65C
:101B0000060000905A462946039B019800F0F4F81D
:101B1000284601F04DFA384605B0BDE8F08F4FF089
:101B2000FF30F9E7014A00F003B80000546B0008E9
:101B30007FB5064D031D0124CDE90035CDE9021422
:101B40001E331946FFF7A8FF04B070BD5A6B00089A
:101B500070B50024154D04EB440005EBC002117D67
:101B6000F9B1508A401C80B25082B0F5967F03D202
:101B7000012905D1052803D32046FFF7BFFD10E05A
:101B8000032904D0042905D0012906D009E0042046
:101B9000107506E00220107503E0111D9068FFF734
:101BA000C1FF641C082CD6DB70BD0000D03C0120B6
:101BB0002DE9F84F05460C4691461E46002C14D0E0
:101BC000206890B1294600F0AFF970B92078C0F3D1
:101BD00003100E2809D02A4631462046FFF714FD8F
:101BE000002805DA40B2BDE8F88F6FF00F00FAE781
:101BF000164E00EB400406EBC4000221017585601F
:101C0000D9F80010C160B9F80410018200214182A6
:101C10004FF4006705F1220811E0086846F8340027
:101C2000D1F804A0042000F0DDFE4B4642465146A8
:101C30002846009700F060F8504601F0B9F956F8D0
:101C400034100029E9D10020CDE70000D03C01206C
:101C50002DE9F04104460D460E2760890E283DD936
:101C600060688689E17B19B995F82C10491CE173ED
:101C70000178CA0715D0012905D006221D49FEF7B3
:101C8000E3FA50B10DE0417859B980785E2808D167
:101C9000607B40F01000607303E0607B40F0080060
:101CA0006073082E03D0B6F5C16F17D10DE095F81B
:101CB0002900000712D53946204601F015FA68B907
:101CC0002946204600F050F912E095F82900000757
:101CD00004D53946204601F007FA28B1204601F024
:101CE00067F90020BDE8F08129462046FFF71AFD7C
:101CF0000020F7E7546B00082DE9F04780460F46B7
:101D000016461D46089800F027FB81460E213846EE
:101D100000F0CCFF18B16FF00100BDE8F0877C68DF
:101D2000A4F80C9028682060A888A0803068C4F8C7
:101D30000600B088608139464046D8F81820BDE8D2
:101D4000F047104770B50446064DE1B22846FEF74D
:101D500047FE80212846FEF7B9FD0028F9D020462D
:101D600070BD00000010014070B5044608E0254633
:101D70002468686801F01CF92946042000F032FE4E
:101D8000002CF4D170BD000000B5CBB01A4AD26867
:101D9000002A2ED016AA01F025FB002829D09DF894
:101DA00058008DF804009DF859008DF805004A98F8
:101DB000CDF806004998CDF80A004898CDF80E00F5
:101DC0003798CDF85200202240A90DF11200FEF7FD
:101DD00009FA202238A90DF13200FEF703FA01A812
:101DE000FFF76AF99DF8581004A0FEF7FFFD00F018
:101DF0006FFA4BB000BD0000100000205B4A4F425C
:101E00005D204A6F622025642073656E7420746FB4
:101E1000204153494320636861696E0D0A00000048
:101E200008B56A4601F02EFB002817D0BDF8022045
:101E3000BDF800100AA0FEF7D9FDBDF8000000EEC5
:101E4000100A6420B8EE400AFFF788F8BDF80000D9
:101E500000EE100AB8EE400AFFF734F908BD0000A2
:101E60005B504152414D5D2053657420667265712F
:101E70003D2564204D487A2C20766F6C743D256496
:101E8000206D560D0A00000000B500F077FAC0433F
:101E900080B200BD30B4029D1B689CB204EB1344B9
:101EA0002B689DB22C4404EB13439CB204EB134308
:101EB0009CB204EB134330BCAFF300802DE9F0413A
:101EC00005460F4690461C46002612E06989686860
:101ED00000F054FA204481B201EB1044A87AC00704
:101EE00006D0FEB10026E0B2C4F3072141EA002487
:101EF0002D68002DEAD126B1E0B2C4F3072141EAF2
:101F00000024384600F028FA0444404600F024FA41
:101F1000204481B201EB104000EB1040C04380B27E
:101F2000BDE8F0810126DEE708B50090421C07D02D
:101F3000020005D091F82920920703D4002008BDA3
:101F4000012008BD4A68824201D1002008BD89688D
:101F500000EA01030A40934202D10143491C01D027
:101F6000002008BD012008BD2DE9F04707460E46B8
:101F70007D6804212878B1EB101F05D0384601F0A8
:101F800017F80020BDE8F08700074FEA90686888DE
:101F900000F0E2F904463889A04203D921463846C8
:101FA00001F06CF87889404505D33889A04202D306
:101FB000B8F1140F04D2384600F0FAFF0020E1E730
:101FC00041462846FFF760FF20B1384600F0F0FF99
:101FD0000020D7E7DFF8F4902869C9F81400E96811
:101FE000C9F81010C0F303100E2805D0304600F0D9
:101FF00071F858B134461AE096F82900C00703D0AA
:10200000706808B1344612E0002410E0002499F80A
:1020100014007F280BD02E48046806E0B44203D099
:10202000204600F057F810B92468002CF6D131464C
:10203000D9F81000FFF778FF78B999F81000C0F3CD
:1020400003100E2809D06CB1E88830F0C0000ED023
:10205000384600F0ADFF002094E7384600F0A8FFB6
:1020600000208FE7384600F0A3FF00208AE7C9F878
:102070000040C9F80460C9F8085028780007800EAD
:10208000A9F80C003146384601F072FA012809D04F
:102090004146384601F028F8687A062810D03846BC
:1020A00000F086FF0020C9F80000C9F80400C9F854
:1020B0000800A9F80C00C9F81000C9F8140061E77D
:1020C0003146384602F0C0F8ECE700007C3F0020C3
:1020D0008400002010B590F82910C9070CD0416881
:1020E00051B1064A52698A4204D001461046FFF7B0
:1020F0001BFF08B1012010BD002010BD7C3F002057
:10210000FEB5DDE908670A9C002A04D00D0001D065
:102110000D6805B9211DCDE90067029400F002F8B1
:10212000FEBD00002DE9F84F0546DDE90B890A9F49
:102130008A4616469B466FF00104002E4AD01421B1
:10214000284600F0B3FD10B12046BDE8F88F6C685A
:1021500084F808B084F809804FEA082048EA0B2187
:1021600040EA11213068206182B2114401EB104035
:10217000452121706770390247F48A4241EA1221F1
:102180000F18288900F0E8F8608000EB07080020AD
:10219000E080184F388800F0DFF8A08000EB0801DD
:1021A0003888401C3880BAF1000F0FD0DAF80000F0
:1021B000E060E06882B2114401EB104081B201EBB3
:1021C000104000EB1040C04360810CE00A480068FA
:1021D000E060EEE76889142801D22046B5E7686818
:1021E000006900906E46D9F81430324629464846B8
:1021F0009847AAE7E6000020506B000870B5064635
:102200001448006814E090F82910CA070FD04A0754
:102210000DD543685BB184683268234002EA040547
:102220009D4216D0890702D4C1688A4211D0006845
:102230000028E8D10848006850B190F82910CA0772
:1022400006D0490704D5416811B131787F2900D102
:10225000002070BD840000208800002038B5049C58
:102260000094FFF717FE38BD1CB501212020FEF7B2
:102270001DFA4FF4C060009001208DF8040000208A
:102280008DF806008DF8070002208DF805006946DC
:102290000248FEF7ADF900F003F81CBD001402403F
:1022A00010B5064C4FF400712046FEF7F6F92115E3
:1022B0002046BDE81040FEF7F0B9000000140240CF
:1022C0004FF400710148FEF7EAB900000014024023
:1022D00070B50A4D4FF4007421462846FEF7D6F932
:1022E00028B121462846BDE87040FEF7D6B9214600
:1022F0002846BDE87040FEF7D2B900000014024045
:1023000010B504466068804701F05CFB0A4A21680A
:1023100052688B181A1AB2F1004F06D322460844AD
:10232000BDE81040054901F061BB2246BDE8104000
:102330000249184601F05ABBD800002001230008CA
:10234000010600F47F4241EA022100F47F0241EAE3
:10235000122141EA106070470106090C41EA102081
:10236000704710B500F014FA00F048FB00F024FCB0
:1023700001F068FFBDE8104001F064BB18B5002211
:10238000009200F00103002B0BD0002909DD10F8AA
:10239000014B8DF80140491E03E030F8024B224406
:1023A000891E0129F9DC002902DD00788DF8000082
:1023B000BDF80000104481B201EB104081B201EB86
:1023C000104023B1C1B2C0F3072040EA012080B21F
:1023D00018BD00001CB501F047FBFFF745FFFDF7F6
:1023E00095FF52A0FEF702FB5CA0FEF7FFFA002269
:1023F000022165A0FEF7FAFA69A0FEF7F7FA73A0CA
:10240000FEF7F4FAFEF79EFFFFF7DCF86420FDF715
:10241000CDFF75A0FEF7EAFA7A48FEF795FF00288F
:102420002DD014200090012308221A2176A0FEF757
:10243000DDFADFF8FC814FF00009C8F80C907DA0B0
:10244000FEF7D4FAFFF73CFFC820FDF7AFFFFFF718
:1024500027FFC820FDF7AAFFFFF732FFC820FDF7CE
:10246000A5FFFFF71DFFC820FDF7A0FF00250026F0
:102470000027D8F80440D8F8080070B129E07CA003
:10248000FEF7B4FAFFF71CFFC820FDF78FFFFFF738
:1024900007FFC820FDF78AFFF4E7601B40F6B8315C
:1024A000884216D9254640F6BC7A0B20CDE9000AB1
:1024B000012308221A2175A0FEF798FA51485146C7
:1024C000001FFEF7DBFE014601291DD079A0FEF7B3
:1024D0008DFA01F0DBF8FEF745FED8F8080038B1B8
:1024E000E01B4EF66021884202D9274601F0FAF936
:1024F000D8F808000028BCD0A01BB0F57A7FB8D966
:102500002646FFF7E5FEB4E70120C8F80800FFF70C
:10251000D7FE4FF480617348FEF7C1F8A8F8009029
:1025200071A0FEF763FA01F0DDF9D2E70D0A3D3D37
:102530003D3D3D3D3D3D3D3D3D3D3D3D3D3D3D3DCB
:102540003D3D3D3D3D3D3D3D3D3D3D3D3D3D3D3DBB
:102550003D3D3D3D3D3D0D0A000000002020425420
:10256000434D696E6572436F6E74726F6C204634B2
:10257000303720E99CB8E5A4A9E8998E563220E5C9
:1025800090AFE58AA80D0A002020465720762564E2
:102590002E25642C203136384D487A0D0A00000073
:1025A0003D3D3D3D3D3D3D3D3D3D3D3D3D3D3D3D5B
:1025B0003D3D3D3D3D3D3D3D3D3D3D3D3D3D3D3D4B
:1025C0003D3D3D3D3D3D3D3D0D0A00005B535953B2
:1025D0005D20455448204750494F20696E69742E4C
:1025E0002E2E0D0A000000005B5359535D20455408
:1025F00048204D41432B50485920696E69742E2E56
:102600002E0D0A00566900085B5359535D2045544E
:102610004820696E6974204F4B202849503A202584
:10262000642E25642E25642E2564290D0A000000E1
:10263000100000205B5359535D20424D3133363634
:102640002064697361626C65642028455850454375
:102650005445445F434F554E543D30292C2045543A
:10266000482074657374206D6F64650D0A00000066
:102670005B4552525D2045544820696E697420467E
:1026800041494C4544210D0A000000005B4E455471
:102690005D20436F6E6E656374696E6720746F2092
:1026A00025642E25642E25642E25643A25642E2E5D
:1026B0002E0D0A005B4E45545D20436F6E6E6563C0
:1026C00074206661696C656420287265743D2564B8
:1026D000292C20726574727920696E2033730D0A7B
:1026E00000000000001402405B4E45545D2054433E
:1026F0005020636F6E6E65637465642C2073656E25
:1027000064696E6720426F61726448656C6C6F2EFD
:102710002E2E0D0A0000000070B5002834D081076D
:1027200005D001F021F9BDE8704001F020B9A0F119
:102730000804164D29688C4203D369680C3088421E
:1027400005D901F011F9BDE8704001F010B9207908
:1027500070B1204600F038F880B100202071A868E0
:10276000844200D2AC602046BDE8704000F094BDC9
:1027700001F0FAF8BDE8704001F0F9B801F0F4F8A2
:10278000BDE8704001F0F3B870BD000054000020B7
:1027900070B50B480B4C20F0030020604FF4F0455F
:1027A0000580002141800171284600F0DBFE606059
:1027B00001210171058045802068A06070BD000086
:1027C000973F00205400002070B50446204600F0DA
:1027D00087F80546208800F0C5FE0646608800F0B0
:1027E000C1FE014620884FF4F04290420ED8608826
:1027F00090420BD8A84202D00888A84206D10548CA
:102800004068864204D07088A84201D0002070BD84
:10281000012070BD540000202DE9F04700280FD0A2
:10282000C51C4FF6FC710D400C2D00D20C254FF449
:10283000F048454501D8854204D20020BDE8F08724
:102840000020FBE7254FB86800F04AF80646C5F5BA
:10285000F0493FE0304600F085FE04462079A0BBF9
:102860002088801B0838A84230D3208805F1140145
:10287000801B08384FF00109884214D370190830C2
:1028800085B2284600F06EFE00210171218801808A
:102890004680258084F804900088404505D000F0EB
:1028A00061FE458001E084F80490B868844203D05A
:1028B00008E0008800F056FE017911B1796888427D
:1028C000F7D1B86004F10800B8E7FFE7304600F040
:1028D00049FE0688B145BDD80020AFE7540000206E
:1028E00002490988401A80B2704700005400002055
:1028F0002DE9F05F0746CC1C4FF6FC7004400C2C11
:1029000000D20C244FF4F0494C4501D88C4202D23D
:102910000020BDE8F09FDFF8C880D8F800008742AB
:1029200003D3D8F80400874205D301F01DF801F065
:102930001EF83846EDE7A7F108063046FFF7D0FF4E
:1029400005463088411B08391FFA81FB5C4502D9D6
:102950004FF00000DDE701D13846DAE700F002FE73
:1029600001794FF0000AE9B104F11400584517D875
:102970002819083084B2204600F0F4FDD8F8081079
:10298000884201D2C8F8080080F804A0318801808C
:10299000458034800088484502D000F0E3FD448043
:1029A0003846B6E7B0F800B0291908318CB2D8F82B
:1029B0000810814204D1204600F0D4FDC8F8080078
:1029C000204600F0CFFD80F804A0A0F800B04580BC
:1029D000348000884845E3D000F0C4FD4480DFE740
:1029E00054000020082806D2002904D0024A52F8D8
:1029F0002000FEF723BC7047CC6A000830B50024E5
:102A0000044D55F8240000F007F8641CA4B2082C0B
:102A1000F7D330BDCC6A000882680021116041689C
:102A2000C91C21F00301002207E083681B680B60CA
:102A30008368196003881944521C43889342F4DC6C
:102A400070470000082801D300207047024951F860
:102A50002000FEF701BC0000CC6A00082DE9F0411F
:102A60000446DDE906570898002C02D027B129B1A9
:102A700005E00020BDE8F0810020FBE7214902B914
:102A8000204A03B91F4B00266660A660E660DFF8A7
:102A900078C0C4F814C0268484F82960E5611B4D11
:102AA00095F800C084F82CC02061204600F0B8F8EA
:102AB0002046B84708B10020DCE76B6894F82C008A
:102AC000FF2801D184F82C60184694F82C1008E0F7
:102AD00090F82C208A4203D1491C84F82C1002E083
:102AE00000680028F4D10028E8D194F82C00FE28D2
:102AF00005D0401C287023606C602046BAE72E7019
:102B0000F9E70000506B00081B2C00088000002033
:102B100070B504460D462946204601F0C1FE2946FF
:102B20002046BDE8704000F08BBD0A68C3689A4239
:102B300004D001B90022C260012070470020704714
:102B400038B505460C46104621686A68914211D096
:102B500021680091696801606946FFF7D9FF3CB1BF
:102B6000206868600121284600F046F8012038BD41
:102B70000020F6E7002038BD0A6883689A4204D036
:102B800001B90022826001207047002070470000D8
:102B9000014600290BD00748406806E090F82C2039
:102BA000521CD2B28A4203D000680028F6D100201D
:102BB000704700008000002070470000652114303D
:102BC00081757421C175094901600949416040F26C
:102BD000DC5181810E2141750621017505490A6A82
:102BE000C0F80E20898C418200207047CD17000864
:102BF000B11400082C00002090F8292053070BD5B1
:102C0000D30709D0C90707D04168002904D01107AC
:102C100002D5011DFEF786BF70476FF00B007047AD
:102C20002DE9F84F82460C4616461F464FF0000825
:102C3000C146002C00D1124C06B9114E07B9104FF5
:102C4000DCB12068C8B1002525B16A46214650464E
:102C5000FFF776FF424631465046FFF78DFF4A4662
:102C600039465046FFF761FF002D04D16A462146E0
:102C70005046FFF765FFBDE8F88F0125E4E7000047
:102C8000506B0008014988607047000080000020F8
:102C900000280AD090F82910CA0706D141F0010196
:102CA00080F829100321FFF7A7BF70470022AFF378
:102CB000008030B5002802D0B1F5803F01D301205B
:102CC00030BD39B18BB204891C44A4B29C4203D2FA
:102CD000012030BD002030BD057B2D0607D54268A0
:102CE000511A00F11002914204D2012030BD42B1CC
:102CF0004268511A41604189194441810481002090
:102D000030BD012030BD2DE9FC5F07460D469146E0
:102D1000B9F1010F0DD0B9F1410F0AD04FF0000BFE
:102D2000B9F5C17F0CD0B9F5207F3BD00020BDE8BC
:102D3000FC9F4A462946002000F05AF8064653E018
:102D40000026B2460720FFF77DFE044620001FD074
:102D5000F81C20F00300C0F5BE601FFA80F8A845FB
:102D600000D9A846E0191330CDE9009B20F00301FB
:102D700043462A46204600F067F98EB1CAF8004063
:102D8000A246A5EB080085B20027002DDAD12BE082
:102D900000F068F916B1304600F00AF90020C6E7E5
:102DA0002646EDE7F81C20F00302E81C20F00301A2
:102DB000501880B200F1100292B2814201D89142C3
:102DC00001D90020B3E71046FFF726FD0646300084
:102DD0000CD0F0191330CDE9009B20F003012B46F5
:102DE0002A46304600F030F93046A0E700209EE742
:102DF0002DE9FC4107460E4615460620FFF722FE48
:102E000004465CB10020CDE90050334632463946D5
:102E1000204600F019F92046BDE8FC810020FBE7C0
:102E200010B500280FD000290DD004E003890C89CB
:102E30002344038110460268002AF7D102890B89D6
:102E40001A440281016010BD002102E0491C89B2D0
:102E500000680028FAD10846704770B50B46154641
:102E60001A462989FFF74FFF04462CB12946204610
:102E700000F004F8204670BD002070BD002903D08A
:102E80000A89002300F038B86FF00F0070472DE971
:102E9000F047894616460027B846002804D0B9F105
:102EA000000F04D0044622E00020BDE8F087002097
:102EB000FBE72BB16089984202D8181A83B215E05B
:102EC0006089C01A85B2B54200D9354660682A4685
:102ED000C11809EB0700FDF785F908EB05001FFA9B
:102EE00080F8781987B2701B86B2002324680EB16F
:102EF000002CDED14046D8E72DE9F05F04460D46B0
:102F000016461F464FF000086FF00F0A002D02D042
:102F10002889B04202D25046BDE8F09F1CB12089FA
:102F20009919884201D25046F6E76FF0050B608987
:102F30006989C01BA1EB0809484500D281464E456E
:102F400000D2B14668684A4600EB08016068384420
:102F5000FDF748F94F44C844A6EB090086B26889DA
:102F6000404506D84FF000082D6815B90EB15046FF
:102F7000D2E76089B84205D10027246814B90EB1A0
:102F80005046C9E73DB168892989884203D128683C
:102F900008B15846C0E73CB160892189884203D115
:102FA000206808B15846B7E7002EC0D10020B3E72B
:102FB00070B50446002C01D000260BE0002070BD47
:102FC00000F0D2FCA17B491ECDB2A57300F0CFFC6E
:102FD00025B10024002CF3D1304670BD2568207B3C
:102FE00000F00F00022803D0012806D050B10CE0F9
:102FF00021460720FFF7F6FC07E021460620FFF7F1
:10300000F1FC02E02046FFF787FB761CF6B22C4667
:10301000E0E7000010B500F0A7FC094A002111709C
:1030200000F0A5FC0748006806E0416F19B1BDE853
:10303000104001F0D5B8C0680028F6D110BD0000DE
:103040008C000020AC00002070B5DDE9045600249F
:1030500004604160028143810573467301218173DD
:10306000C47370BD10B500F07FFC034A01211170DC
:10307000BDE8104000F07BBC8C00002070B50289D8
:103080008A4222D9521A92B20D46044605E0281A05
:1030900085B22089801A208124686089A842F6D3ED
:1030A000207B000709D16089A84206D0A088001BB8
:1030B000284481B22046FFF71BFC658125812068EA
:1030C00008B1FFF775FF0020206070BD10B5044601
:1030D000002C08D000F048FCA17B491CA173BDE87E
:1030E000104000F044BC10BD10B5002802D0B1F56E
:1030F000803F01D3012010BD29B18AB24389934298
:1031000003D2012010BD002010BD4468214441605D
:10311000991A41810189891A0181002010BD2DE988
:10312000F0418846154600276FF00F01002808D0AF
:10313000B8F1000F07D00189914206D2781EBDE890
:10314000F0810846FBE70846F9E706460DE02C4605
:103150007089A04200D2044608EB0701224670683D
:10316000FDF740F82D1B27443668002DEFD10020D5
:10317000E5E7000070B53220FDF718F902210020C4
:10318000FDF7C8F9054603210020FDF7C3F9044601
:103190002246294619A0FDF729FC4FF6FF718D4202
:1031A0000FD075B18C4211D084B11CA0FDF71EFC6C
:1031B00000214FF490520846FDF7ECF96FF07F4480
:1031C0000BE01DA0FDF712FC002070BD24A0FDF750
:1031D0000DFC002070BD641E0AD001210020FDF707
:1031E00099F98006F7D523A0FDF700FC012070BDFA
:1031F00024A0FDF7FBFB002070BD00005B50485988
:103200005D204944313D30782530345820494432DE
:103210003D3078253034580D0A0000005B50485985
:103220005D204175746F2D6E65676F74696174659B
:103230002E2E2E0D0A0000005B5048595D20494497
:103240003120696E76616C69642C20504859206E7B
:103250006F7420726573706F6E64696E670D0A001B
:103260005B5048595D2049443220696E76616C6933
:10327000640D0A005B5048595D20496E6974204F07
:103280004B0D0A005B5048595D20414E2074696D1A
:10329000656F75740D0A00002DE9F0410446208821
:1032A00000F060F905461B4E4FF4F047AC4216D0D3
:1032B0002879A0B97068854211D0B068A84200D1C1
:1032C000B460288820802888B84208D02046FFF7BC
:1032D00007FB8046288800F045F9A0F80280608846
:1032E00000F040F9A04212D0017900290FD1B16855
:1032F000A14200D1B060218801802188B94206D066
:10330000FFF7EEFA0546208800F02CF94580BDE86D
:10331000F0810000540000207CB51C4D1C4C18E0CE
:103320006E1D01291FD0052926D0062902D019A01B
:10333000FDF75CFBBDF804002188884204D20A1A1C
:1033400029181248FCF74EFF2088BDF80410401AD7
:1033500020806B4601AA21880C4800F0E5F8014660
:10336000002912D0DCE713A0FDF740FBBDF80010E8
:103370003046FEF709FDDDE713A0FDF737FBBDF88A
:1033800000103046FEF74CFDD4E77CBDEC00002079
:10339000100000205B4E45545D2052583A20756E57
:1033A0006B6E6F776E2074797065203078253032BF
:1033B000580D0A005B4E45545D2052583A204D533B
:1033C000475F4A4F420D0A005B4E45545D205258FC
:1033D0003A204D53475F5345545F504152414D533E
:1033E0000D0A00002DE9F04105461446722902D26B
:1033F0000020BDE8F081D4212046FCF71AFF287890
:103400002070687860700226042801D9042060705A
:1034100000270AE004EB4710A919801C2022FCF7C2
:10342000E1FE2036B6B27F1CFFB26078B842F1D818
:10343000A81900F01FF9C4F88400361DB6B2A91906
:10344000202204F18800FCF7CDFE2036B6B2A9197F
:10345000202204F1A800FCF7C5FE2036B6B2A81958
:1034600000F008F944F8C80F361DB6B2A81900F0EC
:1034700001F96060361DB0B2284400F0FBF8A0608E
:103480000120B6E7042901D2002070474178037873
:1034900041EA03211180C178807841EA0020508000
:1034A000012070473EB504460D46D4E90023684626
:1034B00003F03CFA207A8DF8080061890DF10900CB
:1034C00003F028FA207B8DF80B002B460C2269466E
:1034D0000420FDF731FE3EBD70B586B004460A9D5E
:1034E00020788DF8040060788DF8050001AEB01CDE
:1034F000616803F013FAB01DA16803F00FFA0948E0
:1035000000684FF47A71A0FB01230DF10E0003F067
:103510000DFA2B46122201A90220FDF70DFE06B07E
:1035200070BD0000140000202DE9F04106460D4654
:1035300017469846052D02D20020BDE8F08130469E
:1035400000F098F8441EB4F5006F01D30020F4E7B2
:10355000001D854201D20020EFE73880A8F8004026
:103560003079EAE7014909680844704754000020AF
:103570002DE9F05F82460026DFF87C80D8F8001045
:10358000D8F81400FEF7D0FC8346DAF80400477A36
:103590000025DFF86890D9F8004029E0207CB84287
:1035A00024D15946204600F02BF8F8B1607CC007C2
:1035B00004D06068D8F81010884217D1D4F814C02D
:1035C000BCF1000F12D002260B4B5246103321469D
:1035D000A069E04750B135B1E068E860D9F8000073
:1035E000E060C9F800400120BDE8F09F2546E4688E
:1035F000002CD3D13046F7E77C3F0020900000201C
:1036000010B5027A0D4B002A08D05C6894F82C4063
:10361000641CE4B2A24201D0002010BD21B108B167
:10362000006848B9012010BD20B1006810B1596987
:10363000884201D1012010BD002010BD7C3F002038
:1036400010B5002813D00268002A10D000290ED02F
:103650000A68002A0BD0064A126806E0136804685C
:10366000A34201D10B681360D268002AF6D110BDC5
:1036700090000020C178027841EA026142788078A7
:10368000120442EA002008437047000070B5224C43
:10369000A06800283FD0FDF7FDFE002538B11FA02F
:1036A000FDF7A4F9A560BDE87040FEF7F9BD2088DC
:1036B000C0F5006080B2FF2800D8258020881E4A0F
:1036C000A0F2FF71494289B21044FDF729FF00289A
:1036D00018DD218808442080FFF71EFE174D4FF4A7
:1036E000806421462846FCF7D1FF28B121462846B0
:1036F000BDE87040FCF7D1BF21462846BDE87040C8
:10370000FCF7CDBF07DA0EA0FDF770F9A560BDE8A4
:103710007040FEF7C5BD70BD100000205B4E4554E3
:103720005D2054435020646973636F6E6E656374EB
:1037300065640D0A00000000EC0000200014024047
:103740005B4E45545D20544350207265637620657E
:1037500072726F720D0A00002DE9FC4101214FF0D9
:103760006060FCF7A3FF01210F20FCF79FFF012100
:103770008803FCF7A9FF574F0B2201213846FCF7BD
:1037800075FF022500958DF8045000248DF8074040
:1037900003268DF8056069463846FCF729FF0B22A1
:1037A00002213846FCF762FF042000908DF8045097
:1037B0008DF806408DF807408DF80560694638465B
:1037C000FCF716FF0B2207213846FCF74FFF80203D
:1037D00000908DF804508DF807408DF8056069461B
:1037E0003846FCF705FF3C4F0B2211463846FCF7E4
:1037F0003DFFA80200908DF804508DF806408DF82A
:1038000007408DF8056069463846FCF7F1FE0B224B
:103810000C213846FCF72AFFE80200908DF804508E
:103820008DF806408DF807408DF8056069463846EA
:10383000FCF7DEFE0B220D213846FCF717FF2803AC
:1038400000908DF804508DF806408DF807408DF8F3
:10385000056069463846FCF7CBFE204F0B2201215C
:103860003846FCF703FF00958DF804508DF80640AC
:103870008DF807408DF8056069463846FCF7B8FEBC
:103880000B2204213846FCF7F1FE102000908DF841
:1038900004508DF807408DF8056069463846FCF7FE
:1038A000A7FE0B2205213846FCF7E0FE2020009001
:1038B0008DF804508DF807408DF80560694638464C
:1038C000FCF796FE0648016841F080010160BDE802
:1038D000FC81000000000240000402400008024099
:1038E000043801401FB501210220CDE90010FDF789
:1038F00041FB8DF808004FF40070ADF80A000C4849
:10390000C06808B1002000E002208DF80C000949D1
:103910006846FFF7C7FD01460648FDF755FE9DF8CE
:103920000C209DF8081004A0FDF760F81FBD0000F2
:1039300010000020EC0800205B50524F544F5D20D7
:10394000426F61726448656C6C6F2073656E7420A1
:1039500028415349433D25642C2073746174757369
:103960003D2564290D0A000072B60020704762B63A
:10397000704700002DE9F04100F024F806460F4F93
:103980000F4D387808B1FFF745FB2968002912D0A0
:103990004A68B01AB0F1004F0DD2086828608C68F0
:1039A000D1F80C806A600520FFF71CF8002CE8D0E5
:1039B0004046A047E5E7BDE8F08100008C0000200C
:1039C000D800002001480068704700001400002063
:1039D00070B504460D461646FFF7F4FF2044324604
:1039E0002946BDE8704000F001B8000070B50446FB
:1039F0000D4616460520FFF725F800280FD00022B7
:103A000002608560C66044600D4A116841B14B6830
:103A10004FF00045E31AAB420DD30160106070BD5A
:103A2000106070BD5368E31AAB4203D30A680260AA
:103A3000086070BD11460A68002AF7D0F2E700005E
:103A4000D800002070B50124054D064905EBC402DD
:103A500055F83400FFF7BCFF641C022CF5D370BD91
:103A6000406B00080123000805494FF0E020416148
:103A7000044AF02111700021816107210161704722
:103A80003F90020023ED00E02DE9FE4F0446002C9C
:103A900063D0207D0A283FD000250027D4F850901D
:103AA000D4F824A0D4F89060D4F810B0DFF8B08037
:103AB00088B30D46E78A214608F1180001F027FA7D
:103AC000012088F80000206F08B102F0CFF9E06E05
:103AD00008B102F0CBF9606F08B102F0C7F92046D7
:103AE00000F09AF855B1208B211DCDE90017029006
:103AF000234652464946204602F03FF9204600F050
:103B000035FB002E29D003B05846B446BDE8F04F2F
:103B10006FF00C01604709E0114821461C3001F0AC
:103B2000F6F92046BDE8FE4F00F020BBE08A0028F1
:103B3000C9D0D8F81000A0420AD1C068C8F8100057
:103B400008E0C168A14202D1E168C16002E0084614
:103B50000028F6D10020E060B5E7BDE8FE8F000048
:103B6000940000200121FFF78FBF000070B50546CB
:103B70000120FEF767FF0446FCB900F04FFB00F0A0
:103B8000D5FD0120FEF75EFF0446B4B9092000F020
:103B9000AFFD0120FEF756FF044674B9082000F07F
:103BA000A7FD0120FEF74EFF044634B9284600F079
:103BB00077FD0120FEF746FF044624B39C212046F2
:103BC000FCF737FB0C34657241F2D060A4F8580062
:103BD000E083A083FF2104F8011C4FF40671E18407
:103BE0000621A1866186C91FA1840121A1870749F9
:103BF000CA6862618978A174E0870548A0670548B2
:103C0000C4F888000C3C204670BD000094000020E1
:103C10007D5B000800DD6D00418B890509D5C16F12
:103C2000002906D04A7F521E4A77418B21F4007149
:103C3000418370472DE9F04107460C460420002CD3
:103C400000D11E4C2FB1397D31B16FF00500BDE8B8
:103C5000F0816FF00F00FAE71AB10021DFF860C0C1
:103C60001CE000F057FE0246100019D1801EEEE75E
:103C70005CF821301B680EE0DD8A95420AD133B131
:103C80001D6825B11CB126680EB1B54202D16FF096
:103C90000700DCE7DB68002BEED1491C8142E7DB43
:103CA00014B1206800B13860FA8206480169F960F1
:103CB000076102F04DFB0020C9E70000506B0008CF
:103CC000306B000894000020002809D0017D0129F4
:103CD00003D0418B41F010014183012100F004B871
:103CE0006FF00F0070470000FEB504460025012765
:103CF000207D384E002936D0042801D0072832D143
:103D0000A16F21B9218DA1F5B052D03A2BD0E18A13
:103D1000208B221DCDE90021029023462046626AB5
:103D2000216D02F02AF8204601F0CAF8B069A042DD
:103D300009D1C068B06108E0C168A14202D1E16860
:103D4000C16002E008460028F6D1E56037702248DD
:103D50000068A04202D102F059FB02E0204600F0C8
:103D600005FA0020FEBD40B101281CD0022826D053
:103D70002046BDE8FE4000F031B8E08A78B13069F5
:103D8000A04209D1C068306108E0C168A14202D1F7
:103D9000E168C16002E008460028F6D1E5602046EF
:103DA00000F0E4F914E0204600F0DAFC094821466E
:103DB000143001F0ACF8204600F00EFA08E0054897
:103DC0002146183001F0A3F83770204600F0CEF9F4
:103DD0000020FEBD94000020D400002070B50546F0
:103DE0000526287D032805D004280DD0072812D0E9
:103DF000002070BD284602F072F8044694B92846A7
:103E0000FFF70AFF2E750DE0284602F068F8044619
:103E100044B92E7506E0284602F061F804460CB954
:103E20000920287514B1601C05D002E0284600F076
:103E3000E3FD204670BD688B40F0080068830020D9
:103E400070BD00002DE9F04704461E466FF00F00DC
:103E5000002C05D0002903D0207D18B16FF0090097
:103E6000BDE8F087086860602283207A18B1FEF709
:103E70008FFE054603E0201DFEF7C0F905466FF0F2
:103E8000030115B1206810B105E00846E8E7281DD8
:103E900038B100682060B4F81690B9F1000F02D074
:103EA00005E00846DCE700F035FDE08230B320464F
:103EB00000F05CFD002767622065401E6064A0651D
:103EC000E06541F2D06060852085E762A4F860007B
:103ED0004FF406706086221D294600F0A6F8608621
:103EE0004FF00108A4F84880C4F8886002212046F9
:103EF00000F0AAF80546280003D022E06FF0010088
:103F0000AEE702202075104EB9F1000F0FD03069D6
:103F1000A04209D1C068306108E0C168A14202D165
:103F2000E168C16002E008460028F6D1E760B069A8
:103F3000E060B46102F00CFA86F80080204600F0E0
:103F40005BFD28468CE700009400002010B50C466D
:103F50000A4B002A05D04FF0FF30D8606FF00C00FC
:103F600010BD0222DA600649204601F0CDFD054968
:103F7000204600F0B7F8002010BD00002C00002003
:103F8000155B0008F14000082DE9F0470746DDF811
:103F900020800E4691469A465FEAC87001D00425FB
:103FA00000E000250320FEF74DFD041E14D084F828
:103FB0000A804FF00008C4F8008066603089401B1A
:103FC000208114213046FEF771FE50B1204601F0E9
:103FD0003EFF0020BDE8F0873046FEF7E9FF0020F5
:103FE000F8E760684068E060F88AFEF7B5F9E168D4
:103FF0000880388BFEF7B0F9E16848805046FEF73C
:104000009FF9E1684860052000EB95004FF6FF71CD
:1040100001EA003040EA0900FEF79EF9E168888174
:10402000E068A0F812802046D4E700290BD0098C64
:10403000002908D0282902D9283989B200E00021B6
:10404000884200D308467047F8B504460D4600265E
:10405000A80700D50126F00701D0042100E00021C7
:104060004FF420723820FEF74EFE4FF0FF3758B164
:10407000009601462A462046E36DFFF785FF021EA3
:1040800008D0E06E60B10EE0608B40F0800060838D
:104090003846F8BD608B40F0800060833846F8BD3C
:1040A000E26604E0084601680029FBD102600020B6
:1040B000A4F8680005F0020005F00101084302D0F1
:1040C000E06D401CE065E80703D0608B40F0200005
:1040D00060835068FEF7B8FE34F8661F08442080FD
:1040E0000020F8BD002801D0C0F8901070470000F3
:1040F00002480021C1608160704700002C00002050
:1041000070B5194EB078401CB070B46928E0A17F3A
:10411000B078814223D0A077608BC10709D040F0EE
:1041200002006083204600F067FC608B20F00300F3
:104130006083608B010705D520F00800608320466E
:10414000FFF74CFEE568A06F38B1002030702046C4
:1041500001F036F930780028D7D12C4600E0E46829
:10416000002CD4D170BD0000940000200146012035
:10417000FEF738BC2DE9F04106460C46154F10E01D
:10418000254624686868FEF75FFE36F8661F081A41
:1041900030802889398908443881284601F057FE43
:1041A000663E9CB1E0684068FEF7CAF80546E068E4
:1041B0008089FEF7D1F8800701D0012000E00020BF
:1041C000218928440844B969081AD9D52046BDE890
:1041D000F0810000B400002001460220FEF702BC7E
:1041E00010B50446606F002803D001F03FFE0020A8
:1041F000606710BD084BD888411CD9801969002917
:1042000002D09A88904203D2D9681431085C704772
:10421000801AC0B2085C7047B400002010B508488E
:10422000806909E0C468418B0A0704D521F00801C0
:104230004183FFF7D3FD20460028F3D110BD0000D5
:1042400094000020704700002DE9F04F85B005462E
:10425000ED4E6868F060688914287DD3EB4F3968AB
:104260007869FDF761FE002876D1387DC0F3031030
:104270000E2871D007F1140004900090031F2A89C2
:10428000062128460393FDF7E9FF0028ECD1F068EA
:104290008089FEF761F8000B81001429DDD328899D
:1042A0008842DAD3A1F1140080B27080002232611A
:1042B0006A898A4204D3B0802846FEF715FF17E0CA
:1042C00014212846FEF710FF6989B1807088401AD2
:1042D00084B22846FEF708FF28684189A142BCD372
:1042E000416831612146FEF7FFFE2889001B2881C5
:1042F000F0680088FEF730F80146F06801804088D9
:10430000FEF72AF80146F06841804068FEF718F889
:104310000146F068416071618068FEF711F8F1684C
:104320008860B061C889FEF717F80146F068C1815E
:104330008089FEF711F800F03F0C86F800C028894C
:1043400070815FEA8C7104D0411C89B2718188420E
:1043500002D80020AE4B00E050E11A6814462BE072
:10436000217A59B1D7F8048098F82C8008F1010817
:1043700008F0FF08414501D020461CE0F168B4F880
:104380001880B1F80090C84514D1B4F81680498857
:1043900088450FD16168D7F8108041450AD121685E
:1043A000D7F81480414505D140B1E168C160E260B1
:1043B0001C6003E02046E468002CD1D18CBB9548FA
:1043C0000468D7F804803B69F268D7F814901FE0BE
:1043D000207A28B198F82C10491CC9B2884216D10D
:1043E000208B1188884212D1E08A518888420ED1F0
:1043F000606898420BD12068484508D1204601F0FA
:10440000C1FF05B02846BDE8F04FFEF7D1BDE46816
:10441000002CDDD10021DFF800B2DBF8000082467D
:1044200018E029E0037A4BB198F82CE00EF1010E68
:104430000EF0FF0E734501D001460AE0C38AB2F8C0
:1044400002E0734504D103684B4505D020B11BB190
:104450000146C0680028E5D170B129B1C268CA60C0
:10446000C0F80CA0CBF8000000F08AF905B028468F
:10447000BDE8F04FFEF79CBD002C7BD0DFF89C819F
:104480000027C8F800702889A8F80800C8F8045068
:10449000F068C8F80C00F761777037815FEA0C703C
:1044A00003D5687B40F001006873A06F70B12046AF
:1044B00000F086FF0D3003D0A06F38B1708928B1AD
:1044C000608DA8BB204601F0DAFC6FE03462204624
:1044D00000F046FD0D3069D0707800070ED5D4F895
:1044E00090201AB16FF00D0120699047214648488D
:1044F00000F00DFD2046FFF739FE57E0002032891D
:1045000042B1D4F8803013B12146206998470D306C
:104510004CD03781204600F083F848B9F069F8B1F3
:10452000A17EC90605D5FEF743FD2046FFF71AFB1D
:104530003CE0D4F884503DB1D4F810C002460023CA
:1045400021466046A84705E000230246214618465A
:1045500001F014FB10F10D0F28D008B1F069A0672D
:10456000707880061AD5A06F28B1417B41F02001F8
:10457000417313E027E0208DA0F5B051D03901D070
:10458000401C2085D4F884502DB100231A462146C2
:104590002069A84700E000200D3007D03762204690
:1045A00000F03EF810B9204600F026FA3762F761B5
:1045B000D8F80400002803D0FEF7FAFCC8F804700D
:1045C00005B0BDE8F08FF0688089FDF7C5FE4007B3
:1045D0000ED4F068039A049B018840880291CDE9CB
:1045E00000207189706942187868B16901F003FC94
:1045F00005B02846BDE8F04FFEF7DABC05B0284606
:10460000BDE8F04FFEF7D4BCB40000207C3F002092
:10461000AC000020B0000020A8000020C03C012019
:1046200010B504460C484078C00612D5A07EC006DE
:1046300006D4D4F890201AB16FF00E01206990478B
:104640002146064800F063FC2046FFF78FFD01205D
:1046500010BD002010BD0000B4000020AC00002000
:1046600070B505460024286D401EFDF769FE03461F
:1046700000222146284600F0C7FA04466CB1002308
:104680001A462146284600F04DFB2B1D2A4621469E
:104690002846BDE8704000F006BB4FF0FF3070BD0B
:1046A000F0B47F2800D97F2000281DD0401EC4B25E
:1046B000002500200D4989690C4AD3680DE04A7D28
:1046C000A24205D308D10E6AA3EB0606AE4203D37D
:1046D000086A1D1A08461446C9680029EFD1002847
:1046E00002D0F0BCFFF73EBAF0BC70479400002047
:1046F00030B40446002300200B498A69CD6809E0E4
:10470000117DA14205D1116A691A994201D30B4664
:104710001046D268002AF3D1002803D030BC002113
:10472000FFF7B2B930BC70479400002030B40023CA
:1047300000200A49C969094AD46806E00A6AA21A2F
:104740009A4201D313460846C9680029F6D10028C9
:1047500002D030BCFFF706BA30BC7047940000208E
:1047600070B506460124054D314655F82400006811
:1047700001F03CFA641C042CF6D370BD306B0008C9
:10478000FEB50546424E3078410713D4414FC1066D
:1047900011D5F06807F1100207F114030188408871
:1047A0000291CDE900207189706942187868B16979
:1047B00001F021FBFEBD8007FCD5687F297F884280
:1047C000F8D2687DFFF7D2F9044620004FD0687F09
:1047D000401C6877608B40F40070608378692060CB
:1047E00038696060E88AE082F068008820830320EE
:1047F00020757069401C6062E062204600F0B6F8E7
:10480000A06520656064E0657069401E6065286988
:104810002061E567687A00F00C006072287A2072E7
:104820001D480168E160046001F092FD1B49012010
:104830000870204600F0E0FAF068C089A4F8600033
:10484000A4F86200201DFDF7D9FC0146608E221DF0
:10485000FFF7EBFB608612212046FFF7F5FB88B1DE
:1048600003B02046BDE8F0400021FFF70DB9AB6969
:10487000002B9FD0286903B04FF0FF32BDE8F04015
:10488000002118472046BDE8FE4000F0B5B8000002
:10489000B40000207C3F0020AC00002094000020E9
:1048A00070B504460D46002C1DD0206800281AD093
:1048B0000D4E2046B16900F019F82046316900F02C
:1048C00015F8002D0FD0286800280CD006F1140030
:1048D000026806E010682168884201D128681060EB
:1048E000D268002AF6D170BD9400002070B505464C
:1048F000084609E001682A68914204D1C468FFF7BC
:1049000031F9204600E0C0680028F3D170BD402096
:10491000FFF72CB9F0B50024124E134D4FF6FF7778
:10492000A888401C80B2A880B84202D14FF4404011
:10493000A8800021AA8856F8210000680AE0C38AEE
:10494000934206D1641CA4B2B4F5804FE8D3002092
:10495000F0BDC0680028F2D1491CC9B20429EAD3CD
:10496000A888F0BD306B0008940000200249D1E90E
:1049700002021044886070479400002070B505461C
:104980000C46E8688089FDF7E7FCC00704D02046A4
:1049900001F06CFA00242AE0164E10E08089FDF741
:1049A000DBFCC00707D00120FDF7D6FC0146E86814
:1049B0008289114381812046246801F048FA44B17C
:1049C000E06822897369416811442A891A44511A9E
:1049D000E4D564B1E0682A894168706902448A1AA2
:1049E00005D5081A81B229816868FEF747FB2C605B
:1049F00070BD0000B40000202DE9F05F044681483E
:104A00000068A04202D10020BDE8F09FB4F86080A9
:104A1000B4F84800804500D38046E56E75B1221D8C
:104A20002146204601F0A0F981465FEA09006FF0B7
:104A300003010BD064B1206850B10EE0A07E800766
:104A40007ED52046BDE8F05F01F019BA0846DBE7E5
:104A500009F10400A0B100682060E8684068FDF733
:104A60006FFC616C4FF0000A401A298908444045E8
:104A70001AD9B4F8600040450ED1206F10B10BE098
:104A80000846C1E794F8990030B984F898A001204D
:104A900084F8990084F89AA0A07E800750D520461B
:104AA000BDE8F05F01F0EBB984F899A0276F0FB96A
:104AB00091E0074638680028FBD18CE0E8688089DF
:104AC000FDF74AFC206FA8B1618B11F0440F11D1A2
:104AD000E06E28B102686AB90089628E904209D2FC
:104AE000B4F8640030B1B4F86600102802D211F0B6
:104AF000A00F7CD0207D022807D01020FDF72CFCD1
:104B00000146E8688289114381814A462146284648
:104B100000F00AF920B1618B41F08001618373E7F5
:104B20002868E066207D022803D0608B20F0030017
:104B30006083E8684068FDF703FC0646E86800E02B
:104B400059E08089FDF708FC800701D0012000E0D2
:104B50000020298930440844216D091A00D52065B8
:104B6000E8688089FDF7F8FB800701D0012000E0AC
:104B700000202989C8422AD0C5F800A0206F68B15A
:104B8000E8684068FDF7DCFB0646F8684068FDF71A
:104B9000D7FB301A18D504F1700603E025672F46BD
:104BA00018E03668306858B1C0684068FDF7C8FB47
:104BB0008346E8684068FDF7C3FBBBEB0000F0D418
:104BC00030682860356005E03D602F4602E02846E9
:104BD00001F03DF9E56E55B1E8684068FDF7B0FBBE
:104BE000616C401A2989084440457FF667AFE06E42
:104BF00008B9A4F868A0608B20F0800060830020D2
:104C000002E70000D40000202DE9FF4104461027F0
:104C1000608D258BE68ACDE9015700960390606A86
:104C200000F009F8002803D0628D616A1144E16246
:104C300004B0BDE8F0812DE9F05F8146DDE90AAB03
:104C4000DDF830800E461F46B018143081B24FF4A4
:104C500020722420FEF757F80546280020D06C6803
:104C60005046FDF779FB20805846FDF775FB6080C4
:104C700067604846FDF764FBA060052000EB9600E6
:104C80004FF6FF7101EA003040EA0800FDF764FBCF
:104C9000A0810D98FDF760FBE081002020826082FA
:104CA0002846BDE8F09FF8B507460C4615461E4657
:104CB00032462946384601F057F838B1009033465D
:104CC0002A462146384600F007F8F8BD2046FEF790
:104CD0006FF96FF00300F8BD2DE9FE430446DDF8DF
:104CE00028800D4691461F466E6800972A894B46DC
:104CF00006212846FDF7B2FA308214B1E37AA07A91
:104D000001E0FF23002006218DE803013A464946D1
:104D10002846FDF7F5F904462846FEF749F92046EE
:104D2000BDE8FE8370470000FEB505460C461646FA
:104D3000284600F059F808B10020FEBD606AFDF772
:104D4000FFFAE9688860608DFDF706FBE968C881B5
:104D5000618D606A0844E062EF681437A87AC00782
:104D60000AD0221D314640F2B450FFF75EF940F000
:104D70000170FDF7E5FA3860B4F93000002700282B
:104D800000DA2786606B38B9164800686063E86807
:104D90004068FDF7D5FAA0636968A8898A88801AF7
:104DA0004A89121A4A8169680A89101A0881696851
:104DB000E8684860E8680782201D0090686823461C
:104DC00006210289FDF74AFAE9680882A07A0621DD
:104DD0008DE84300E37A221D21466868FDF790F9CB
:104DE000FEBD0000A00000204068807B012801D0AB
:104DF00001207047002070472DE9F04105461A4C0C
:104E00006088002818D00020E08040F2B4560FE0FF
:104E1000FFF7F0F900280FD0012809D002280DD0A3
:104E2000FFF7E8F9022807D3E1880844801EE080F4
:104E3000E08861888842EBD3BDE8F081FFF7DAF9BA
:104E40000428F9D1E0886188801C8842F4D8FFF7F3
:104E5000D1F90702FFF7CEF93843B04200D800B9C4
:104E600030466886E4E70000B40000202DE9F041F8
:104E70001E46DDE90737069D0C462146944211D2B5
:104E80009B0707D4AB7E5B060CD41FB1EB6E0BB94E
:104E90002B6F3BB104F2B75121F00301914200D8CE
:104EA0000A4691B24FF42072FDF72DFF30B14189CF
:104EB000091B318004814481BDE8F0810020FBE7BB
:104EC00070B50446002C21D0207D00281ED00A2871
:104ED0001CD001281AD02046FEF79EFEA06F0025A8
:104EE00010B1FEF765F8A567606F10B12046FFF7B7
:104EF00077F94FF0FF302086E06E00F0B7FF206FAB
:104F000000F0B4FFE5662567A4F8685070BD70B581
:104F100002460C461068A04209D1C068106008E043
:104F2000C168A14202D1E168C16002E008460028E0
:104F3000F6D10025E5602046FFF7C2FF207D0A2854
:104F40000AD0012808D0608BC10705D040F00200CC
:104F500060832046FFF750FD2575E58270BD000097
:104F60002DE9FF5F0446002000210391DFF838B4EB
:104F70009BF800104A072CD5217D022906D0616AD2
:104F8000DBF81420914208D1012010E0226DDBF8FB
:104F900018108A420BD1012009E0531A07D4238D3F
:104FA0001944891A03D4618B41F00201618370B105
:104FB0009BF8010040F008008BF80100608B20F0A6
:104FC000010060836FF00D0004B0BDE8F09F002089
:104FD000FAE788070AD5207D022807D0032805D0E4
:104FE000608B40F0020060830020EDE7A07EC006E9
:104FF00002D4EE48006820624FF0000A84F89BA0BB
:1050000084F89AA02046FFF7F7FE9BF8000081077E
:1050100006D5217D022903D0032901D00020D3E742
:10502000E34B94F814C003F11001ACF1020C01271A
:1050300004221433DFF87C83DF4EE04D4FF00A0981
:10504000BCF1080F5BD2DFE80CF00483F3F1F0F35E
:10505000EFEEC5065FD585075DD5666CDBF81850A9
:10506000761CAE4257D1DBF814000146401C60624A
:10507000E0626564DBF80C00C089A4F86000A4F865
:105080006200491E61652275201DFDF7B7F80146D3
:10509000608E221DFEF7C9FF608641F21C11B1EB44
:1050A000400F01D2420000E00A46B2EB800F01D966
:1050B000810003E0B1EB400F00D2410024F8481F0B
:1050C000E08B401EE083A06A483CC8B101682167BC
:1050D00000F0BDFE206FB8B1A4F830A084F842A063
:1050E000D4F8883023B100222146206998470390E4
:1050F00003980D300CD0608B40F00200608351E1CA
:10510000E06E0168E166E3E74FF0FF302086E7E7F5
:105110006FF00C0058E7C006F1D5DBF80C000288F0
:105120004088CDE901020091BBF80A10DBF81400B9
:1051300042182046DBF8181000F01FFE94F84200D9
:105140000628DCD2A4F830A0204600F0BDFD29E1FD
:10515000850709D5606ADBF81410401E8842CED15D
:10516000204600F04DFD1DE1C006C8D5656CDBF89A
:105170001800451B012D46D4256D2D1A43D42275E8
:10518000E06F50B12046FEF747FDE06F83693BB109
:10519000002221462069984704E06FF0050001E0F5
:1051A0006FF00F0038B10D3002D02046FEF7DAFC68
:1051B0006FF00C0008E7204600F040F9BBF808004B
:1051C00010B1401EABF80800608E41F21C11B1EB2B
:1051D000400F01D2420000E00A46B2EB800F01D935
:1051E000810003E0B1EB400F00D24100A4F8481069
:1051F0009BF80100800605D5608B40F002006083BB
:1052000007202075CEE0DBF80C20158852888DE849
:105210002600BBF80A20DBF814100A440146204699
:1052200000F0ABFDBEE0A9E07EE056E00EE0FFE757
:10523000204600F003F99BF80100800605D5608B3D
:1052400040F00200608307202075ABE0204600F0AC
:10525000F5F89BF80100800631D59BF80000C006E8
:1052600006D5206DDBF81810884201D1E06E30B110
:10527000608B40F0020060830820207592E0608B14
:1052800040F0020060832046FFF71AFE2868A04223
:1052900009D1C068286008E0C168A14202D1E16874
:1052A000C16002E008460028F6D188F8007084F852
:1052B00014903068E060346001F04AF872E09BF8C6
:1052C0000000C0066ED5206DDBF81810884269D149
:1052D000E06E40BB0620207564E0204600F0AEF88A
:1052E0009BF8010080065DD5608B40F00200608372
:1052F0002046FFF7E5FD2868A04209D1C068286074
:1053000008E0C168A14202D1E168C16002E008463C
:105310000028F6D188F8007084F814903068E060B6
:10532000346001F015F83DE0204600F087F89BF866
:105330000000C00636D5206DDBF81810884231D148
:10534000E06E78BB2046FFF7BBFD2868A04209D17C
:10535000C068286008E0C168A14202D1E168C1606C
:1053600002E008460028F6D188F8007084F814900E
:105370003068E060346000F0EBFF13E0204600F09E
:105380005DF89BF80000C0060CD5206DDBF8181006
:10539000884207D1E06E28B99BF8010040F0100068
:1053A0008BF8010000200FE6B4000020A0000020D0
:1053B0007C3F002094000020B0000020AC000020C2
:1053C0002DE9F0410446002C0CD0A56F6F7B002026
:1053D000A067D4F884604EB100232A462146206994
:1053E000B04709E06FF00F00BDE8F08100232A46C6
:1053F0002146184600F0C2FB6FF00C0628B10D30B4
:105400001AD0A5676FF00400EEE7B90610D5218D1C
:10541000A1F5B052D03A01D0491C2185D4F884506E
:1054200025B100231A4621462069A8470D3001D036
:105430000020D9E73046D7E73046D5E72DE9F047D9
:105440000446FE4F4FF000063878C0067ED5B4F80B
:1054500060C0A16D0CEB01083846656D7A69C368C0
:105460008069B5EB020908D4954201D10D1A04D424
:1054700081420DD1D98961450AD9D989A4F8601032
:10548000B4F862308B4201D2A4F862106265A06564
:10549000616C4FF6FF730A1A2CD47A89002A28D13E
:1054A000B4F86050A26D2A444245F8D1B4F93020D6
:1054B000002A1EDB81421CD194F84300411CC9B272
:1054C000814201D984F8431094F8431003290BD981
:1054D000B4F84820608E104480B2904202D3A4F801
:1054E000480001E0A4F84830032902D3204600F028
:1054F000BDFB9CE0411A012970D4226D121A6DD4B3
:10550000628B550708D522F004026283B4F84A2062
:10551000A4F84820A4F86A6084F84260E28FB4F9E5
:105520003C5002EBE502A4F8402089B284F84360C5
:105530006064207D042839D3B4F84800B4F84A20C8
:10554000904217D2628B120503D500E08FE0012252
:1055500000E00222658E5543AAB28A4200D8114665
:10556000014489B2814202D3A4F848101EE0A4F895
:1055700048301BE0B4F86A20114489B2914202D34A
:10558000A4F86A1001E0A4F86A30B4F86A10814205
:105590000CD3091AA4F86A10618E014489B28142C1
:1055A00002D3A4F8481001E0A4F84830D4E91B3134
:1055B000A3A22046FEF7DEFD20670346A2A22046F6
:1055C000E16EFEF7D7FDE066216F19B126862677DA
:1055D00028B106E04FF0FF322286F8E724E0A4F875
:1055E0006860B4F864203B891A44A4F86420628B94
:1055F00012051CD559B1C8684068FCF7A1FEE16CE2
:10560000401A14D4608B20F4006060830FE030B146
:10561000C0684068FCF794FEE16C401A07D4608BC8
:1056200020F40060608302E0204600F028FC606BFC
:10563000E8B1A16BBA69891A19D585490988081A90
:10564000B4F93C10A0EBE10000B2014409B2A1871B
:10565000002801DA404200B2B4F93E20A0EBA200DB
:105660001044E08700EBE100A4F8400066637B890A
:10567000002B7DD0207D07287AD2606A7969DFF817
:10568000D481421A012A1FD40B441B1A012B1BD4AC
:10569000D8F8040091B2B8F80820521AA8F80820E7
:1056A0000289521A93B204E0891A89B203814681B1
:1056B000006842898A42F7D3FDF716FD606A786177
:1056C000D8F80C10486005E0081A03D5608B40F04C
:1056D00002006083616A7869421A7DD4228D0A448F
:1056E000121A012AF9D4814277D1D8F80C008089A6
:1056F000FCF732FE800701D0012000E00020B8F85E
:105700000810084480B27881218D81423DD2D8F8BA
:105710000C008089FCF720FEC00711D0D8F80C00DF
:105720008089FCF719FEC0F344004000FCF714FE2A
:105730000146D8F80C00828922F47C521143818101
:10574000208DA8F80800D8F80C008089FCF704FE2A
:10575000800704D5B8F80800401EA8F80800B8F87B
:105760000810D8F80400FDF789FCD8F80C0000E018
:10577000B8E18089FCF7F0FD800701D0012000E04E
:105780000020B8F8081008447881606F30B3D8F86A
:105790000C008089FCF7E0FDC00704D107E0016838
:1057A000616700F054FB606F0028F8D16EE0656F10
:1057B00026E08089FCF7D0FDC0071DD0D8F80C008A
:1057C0008089FCF7C9FD800716D40120FCF7C4FDD1
:1057D000D8F80C108A8902E07FE1CAE056E0104355
:1057E0008881FCF7B9FD800701D0012000E000208E
:1057F000B8F808100844788128462D6800F027FB87
:1058000045B1E8682A897B89416811447A691A445C
:10581000511ACED58DB1E8687A89796940680A4411
:10582000821A32D5401AA8F80800D8F80C008089EE
:10583000FCF792FD800714D50EE026E0B4000020AE
:10584000756E61636B656400756E73656E740000E0
:10585000A0000020C03C0120B8F80800401EA8F8B5
:105860000800B8F80810D8F80400FDF707FCD8F8CD
:105870000C008089FCF770FD800701D0012000E05A
:105880000020B8F80810084478816567788979693C
:1058900001446162218D081A2085204600F0BEFD7A
:1058A000D8F80400018911B1F861C8F80460D8F88B
:1058B0000C008089FCF750FDC00745D0787840F097
:1058C0002000787040E078618889FCF745FD80070A
:1058D00001D0012000E000202A89616A11440844B7
:1058E0006062E8688089FCF737FDE8688089FCF72A
:1058F00033FD800701D0012000E000202989084401
:10590000218D081A2085204600F088FD69680889E5
:1059100030B1F86910B1FDF783FA00E0F9616E600B
:10592000E8688089FCF718FDC00708D0787840F057
:1059300020007870207D042801D107202075286878
:105940006067284600F083FA656F25B1E968626AEE
:1059500048689042B7D0608BC10706D020F00100A4
:1059600040F002006083BDE8F08740F001006083F2
:10597000F9E7656F0DB10026A7E0624800F054FA20
:105980006067A5E0E9684968814212D1B8F808006B
:105990002989884230D9286870B35A4800F044FAFF
:1059A00050B30EB1306000E060672946FEF7E6FFB5
:1059B0008EE016B3F2685268821A012A28D40A1AB5
:1059C000012A25D44F4800F02FFA80465FEA0800EC
:1059D0007ED0F06831894068421879698A1A05D505
:1059E000081A81B231817068FDF748FBC6F8008063
:1059F00029464046FEF7C2FF6AE0421A08D54148F0
:105A000000F012FAF0B360672946FEF7B7FF5FE0D7
:105A10002E462A68BABB091A56D5E8688089FCF771
:105A20009BFCC00754D1374800F0FEF9286048B30A
:105A3000E868416828890A187869821A05D5401AE9
:105A400081B229816868FDF719FB218D606A7A6946
:105A5000084479891144401A3AD52868C068808979
:105A6000FCF77AFCC00714D02868C0688089FCF76E
:105A700073FCC0F344004000FCF76EFC014628684C
:105A8000C06801E024E01FE0828922F47C521143C7
:105A90008181A08C218D0844B98A401A81B228687E
:105AA000018128684068FDF7E9FA2868C0688089A4
:105AB000FCF752FC800701D0012000E0002029689B
:105AC00009890844788103E01546002D7FF45AAF18
:105AD0002046BDE8F04700F0D2B92046BDE8F047C7
