:020000040800F2
:10000000807B002069010008EB310008092A000804
:10001000E9310008CB0A0008CB34000800000000DA
:100020000000000000000000000000001532000881
:10003000CD0A000800000000ED3100081932000868
:100040008301000883010008830100088301000880
:100050008301000883010008830100088301000870
:100060008301000883010008830100088301000860
:100070008301000883010008830100088301000850
:100080008301000883010008830100088301000840
:100090008301000883010008830100088301000830
:1000A0008301000883010008830100088301000820
:1000B0008301000883010008830100088301000810
:1000C0008301000883010008830100088301000800
:1000D00083010008C7340008830100088301000879
:1000E000830100088301000883010008000000006C
:1000F0000000000000000000000000000000000000
:1001000000000000000000008301000883010008D7
:1001100083010008830100088301000883010008AF
:10012000830100088301000883010008830100089F
:10013000830100088301000883010008830100088F
:10014000830100088301000883010008830100087F
:10015000DFF810D000F078FC00480047817C0008F0
:10016000AFF30080807B00200648804706480047A8
:10017000FEE7FEE7FEE7FEE7FEE7FEE7FEE7FEE757
:10018000FEE7FEE721330008510100082DE9F05F8A
:100190000546002092469B468846064681464024F6
:1001A0001BE0284641464746224600F020F85346C9
:1001B0005A46C01A914110D311461846224600F003
:1001C000C9FA2D1A67EB01084F462246012000218B
:1001D00000F0C0FA17EB00094E41201EA4F1010403
:1001E000DFDC484631462A464346BDE8F09F202AD8
:1001F00004DB203A21FA02F00021704721FA02F3D1
:10020000D040C2F12002914008431946704710B512
:10021000431A934209D28318881803E010F8011D8D
:1002200003F8011D521EF9D210BD40EA01039B07DD
:1002300003D009E008C9121F08C0042AFAD203E05B
:1002400011F8013B00F8013B521EF9D210BDD2B2A9
:1002500001E000F8012B491EFBD270470022F6E7AF
:1002600010B513460A4604461946FFF7F0FF20462C
:1002700010BD421C10F8011B0029FBD1801A7047E9
:1002800030B504460020034600E05B1C934203D2D5
:10029000E05CCD5C401BF8D030BDF0B480EA0102D8
:1002A000D40F4200B2EB410F02D20246084611467B
:1002B0004A0042D0C30DDDB2C1F3C752AD1A202DA2
:1002C00035DAC1F3160141F4000204B15242C5F11E
:1002D000200602FA06F12A411044B3EBD05F23D086
:1002E000C4B1012DA0EBC35009DCF0BC4FF00042BB
:1002F00002EAC352DBB200F5000000F043BA40004E
:1003000000F1807000EBC350A0F1807040EAD17022
:10031000490009E0490841EAC071A0EBC35000F56B
:100320000000400800EBC350F0BC00F022BA61426C
:10033000012202EB4101001BF6E7F0BC704781F09F
:100340000041AAE780F00040A7E780EA010210B56B
:1003500002F00043400022D04A001FD0010E01EB02
:100360001261C0F35600C2F3560240F4000042F49A
:100370000002A0FB022000047F39140400D0401CBE
:1003800050EA124001D44000491EC2B20C0604EBF0
:10039000D010401C4008802A02D003E0002010BD8D
:1003A00020F00100002900DA0020184310BD30B40D
:1003B00080EA010202F0004530F0004221F00040E6
:1003C00013D090B1C30DD40DC2F31601C0F31600C3
:1003D000E41A41F4000140F400027D34914201D35B
:1003E000641C00E04900002C02DA30BC0020704799
:1003F0004FF400000023914201D3891A03434008BF
:100400004FEA4101F7D151B1914202D14FF0004181
:1004100005E002D24FF0010101E06FF0010103EBB2
:10042000C450284430BC00F0A4B9420005D0C0F349
:10043000C7525242914201DC0020704700EBC1508C
:1004400070472DE9FE4F81EA030404F0004421F0D7
:10045000004100944FF0000B23F0004350EA0104E8
:100460005ED052EA03045BD0C3F30A54C1F30A55C9
:100470002C44A4F2F3340194A0FB0254C1F3130101
:1004800041F48011C3F3130343F4801301FB0244CE
:1004900000FB034E840A970A44EA815447EA8357D3
:1004A000A4FB076802958D0A05FB07854FEA932C8C
:1004B00004FB0C542705029D4FEA065847EA1637FD
:1004C000B5EB08056EEB070C870E920E47EA811715
:1004D00042EA8312A7FB0201B6EB0B0164EB0004B6
:1004E0002B0D43EA0C335E1844EB1C50DA465146A0
:1004F000E7FB0201C5F313044FEA0B3343EA14533D
:100500004FEA0432019C43EA0603A4F10C0402946E
:10051000009CCDE900B400F072F903B0BDE8F08FA3
:1005200000200146F9E72DE9F04D81EA030404F0CB
:10053000004B21F0004514464FF0000A23F0004123
:1005400050EA050220D054EA01021DD0C5F30A5733
:100550000246C5F31303C1F31300C1F30A5640F476
:10056000801543F48013A7EB0608101BD64608F24B
:10057000FD3873EB050002D308F1010801E0921881
:100580005B41B8F1000F03DA00200146BDE8F08DB1
:1005900000204FF48011064684460EE0171B73EBD3
:1005A000050705D3121B63EB050306434CEA010C58
:1005B00049084FEA300092185B4150EA0107EDD13B
:1005C00052EA030012D082EA040083EA05010843DC
:1005D00005D0101BAB4106D20122002306E0002209
:1005E0004FF0004302E06FF0010253101AEB0600D7
:1005F0004CEB085110EB0A0041EB0B01BDE8F04D4C
:1006000000F0EEB870B521F0004303430CD0C1F305
:100610000A550024D5EB040564EB0403D617AD1A84
:10062000B34102DB0020014670BD201841EB0251AE
:1006300070BDC10F80EAE0700844CA07962300210C
:1006400000F0A0B896230022114600F09BB800F0FD
:10065000004220F00040C10DC0F3160040F400003D
:100660007F2901DA00207047962903DCC1F1960149
:10067000C84001E096398840002AF4D040427047D3
:1006800020F00040C10DC0F3160040F400007F29A7
:1006900001DA00207047962903DCC1F19601C840B9
:1006A0007047963988407047C1F30A5210B5C1F3BC
:1006B000130140F2FF3341F480119A4201DA002025
:1006C00010BD40F233439A42A2F2334203DC52425D
:1006D000FFF78DFD10BD904010BD00F0004230F0DE
:1006E00000400AD0C10D01F56071C0F3160042EA66
:1006F0000151C2084007114370470020014670476E
:10070000002801DBC0F10040002901DBC1F10041FC
:1007100081427047002801DBC0F10040002901DB65
:10072000C1F100418842704730B50B4601460020B8
:100730002022012409E021FA02F59D4205D303FAA3
:1007400002F5491B04FA02F52844151EA2F1010224
:10075000F1DC30BD202A04DB203A00FA02F100204F
:1007600070479140C2F1200320FA03F319439040EF
:1007700070470029A8BF7047401C490008BF20F0FF
:100780000100704710B4B0FA80FC00FA0CF050EA97
:10079000010404BF10BC704749B1CCF1200421FA18
:1007A00004F411FA0CF118BF012121430843A3EB13
:1007B0000C01CB1D4FEA00614FEA102042BF002020
:1007C00010BC704700EBC35010440029A4BF10BCFC
:1007D0007047401C490008BF20F0010010BC704762
:1007E00010B5141E73F1000408DA401C41F1000139
:1007F00092185B411A4301D120F0010010BD2DE990
:10080000F04D92469B4611B1B1FA81F202E0B0FA86
:1008100080F220329046FFF79DFF04460F4640EAE3
:100820000A0041EA0B0153465A46084313D01146C9
:1008300053EA010019D0C8F140025046FFF7D7FC37
:1008400005460E46504659464246FFF783FF084389
:1008500005D0012004E020463946BDE8F08D002097
:10086000054346EAE0762C4337430A986305E40AD9
:10087000A0EB08000022FD0A44EA47540A3002D5E2
:1008800000200146E9E7010510196941DDE9084545
:1008900000196941BDE8F04DA2E72DE9FE4F804601
:1008A00081EA0300C00F0C46009021F0004123F0C4
:1008B0000045B8EB0200A94105D2404621469046CA
:1008C0001C460B46024623F00040104347D0270D3C
:1008D000C7F30A00C3F30A510290401A019040285E
:1008E0006BDAC3F3130040F4801B0098924620B1EA
:1008F0000023D2EB030A63EB0B0B01985946C0F1BE
:1009000040025046FFF726FF06460D465046594620
:10091000019A00F0ABF810EB08006141002487EA6F
:10092000115284EAE7731A4340D0009A62B3019AE5
:10093000012A4FEA075215DC001B61EB02014FF060
:10094000004202EA0752CDE90042001C41F5801145
:1009500032462B46FFF753FF03B0BDE8F08F404609
:100960002146F9E7001B61EB0201001C41F58013F1
:1009700000185B412018A2F5001747EB030140EA7D
:10098000D570B6196D4111E06D084FEA360645EA9B
:10099000C0754FEA0752001B61EB0201001C41F5D4
:1009A000801149084FEA30000019514132462B4668
:1009B00003B0BDE8F04FFFF713BF009801224000DD
:1009C0000023D0EB020263EBE073009821464FEA6C
:1009D000E074B8EB000061EB0401E9E783F0004349
:1009E0005BE781F0004158E7C1F30A52C1F31301FC
:1009F00040F2FF3341F480119A4202DA00200146AE
:100A0000704740F233439A42A2F2334202DC524230
:100A1000FFF7EDBBFFF79EBE30B5041E71F1000479
:100A200004DB4FF00044404264EB0101141E73F1FB
:100A3000000405DB1C464FF00043524263EB040305
:100A4000994208BF904230BD064C074D06E0E06871
:100A500040F0010394E8070098471034AC42F6D305
:100A6000FFF77AFB18D5000838D50008202A06DBE6
:100A7000CB17203A41FA02F043EAE07306E041FA6C
:100A800002F3D040C2F1200291400843194670475A
:100A900030B58C1810F8012B12F00F0301D110F8AB
:100AA000013B120906D110F8012B03E010F8015B9D
:100AB00001F8015B5B1EF9D101E001F8013B521E18
:100AC000FBD1A142E6D3002030BDFEE77047000015
:100AD00003484FF4E001416100214160704700008C
:100AE000009002402DE9FF4F81B006463148DDE914
:100AF0000F58DDF8389001681F46144641F0010197
:100B000001600168C907FCD12B49824641614169F6
:100B10002AA002F0DBFC3B46CDF800903146354878
:100B2000029A02F0D3FC0021C8F30D004FF0004BF5
:100B300040F48043621E13E006EB4110C0F800B0A1
:100B40004360DDF808C001FB08CCC0F808C0914242
:100B500004D200F1200CC0F80CC000E0C660491CB3
:100B6000A142E9D3002084464FF480186A1E11E0A8
:100B700007EB4011C1F80080C1F804C0119C00FBD4
:100B800004938B60904203D201F12003CB6000E01C
:100B9000CF60401CA842EBD31749CAF80010CAF82E
:100BA0000C60CAF810701549CAF8181005B0BDE8F5
:100BB000F08F000000900240048401005B444D412E
:100BC0005D20444D4153525F41465445525F434C72
:100BD0004541523D30782530385820286578706579
:100BE00063742030783030303030303030290D0AA6
:100BF00000000000DCD00008802041020620300404
:100C00000168002905DB0168C90502D501680904EE
:100C100001D5002070470068C0F30D40704710797F
:100C2000537940EA032301F1804000F5203003644A
:100C30001178D37841EA0361937852781B0443EA30
:100C40000222114341647047F0B5ADB0044600295B
:100C500004D04FF40060E060C000A0600025109553
:100C600011951295139514951595E06900287CD07F
:100C700016954FF400701790189519951A951B95B5
:100C80001C9540271D971E951F952095219522950F
:100C9000239524952595802026902795289529959C
:100CA0002A952B952C9520680168464A1140E368E7
:100CB000A2681A43169B1A4342F400721143016062
:100CC00020680668012000F0F9F8206806602068B6
:100CD000476020684668012000F0F0F82068466010
:100CE000206885602068C560206881694FF6417280
:100CF000114041F08001816120688669012000F087
:100D0000DDF8206886612068C5612068C669012019
:100D100000F0D4F82068C6610195F80402900395AC
:100D200001110491059506950795089504210991EF
:100D30000A9040120B9080010C9040120D900E957D
:100D40000F95206800F5805081691F4A114041F0DD
:100D5000040141F008718161206800F580508569C7
:100D6000012000F0ABF8206800E016E000F58050AC
:100D700085612168154801F580510860206800F5FB
:100D800080500568012000F099F8206800F5805037
:100D90000560A069012804D00CE04FF48060169033
:100DA00067E7206800F58050C16941F0400141F4D7
:100DB0008031C16162692DB02046BDE8F04000215C
:100DC000FFF72DBF0F8120FF233FDEF80020C10277
:100DD0004288018852BA03791204407942EA032218
:100DE0000243074849BA41F00041016442640549A1
:100DF0000160054941604FF48151816170470000F5
:100E0000008002400C0C01000004008030B5124A42
:100E1000104B14694FF6FF7524F01C0424F4784439
:100E200024F4F86444F0100405EAC02020434FF491
:100E3000F86404EA8111014321F0020040F001004E
:100E4000106101E05B1E02D01069C007FAD1506941
:100E500080B230BDA086010000800240C3F30D01C6
:100E600041F4804141604FF0004101607047000053
:100E700030B5114B0F4C5A611A694FF6FF7522F0CD
:100E80001C0222F4784222F4F86242F0100205EAD1
:100E9000C02010434FF4F86202EA8111014341F08F
:100EA0000300186101E0641E02D01869C007FAD17E
:100EB00030BD0000A08601000080024070B50446ED
:100EC00000F036FB0546B4F1FF3F02D0044800783D
:100ED000044400F02DFB401BA042FAD370BD00007B
:100EE000B80000202DE9F843044600270097B846D3
:100EF000002C03D094F8440018B107E00120BDE8AD
:100F0000F88384F84570204600F0F6F8754841688B
:100F100021F4000141604168226A11434160206868
:100F200000F58050016841F00101016000F000FB14
:100F30000546206800F58050006810F0010F13D0BE
:100F400000F0F6FA401BB0F5FA7F06D9032084F8CA
:100F5000440084F84570BDE8F883206800F58050AF
:100F6000006810F0010FEBD12068006920F01C052B
:100F700001F01AF95C495D4A0144914202D245F000
:100F8000080506E05A4908445A49884201D245F00A
:100F90000C05206805614FF400420021204600F056
:100FA00077F94FF0010940B101212046FFF74CFECF
:100FB00084F844900120BDE8F883FF20FFF77EFF0E
:100FC000606800286AD000F0B3FA064641F288351E
:100FD0006A460121204600F015F900F0A9FA801BAD
:100FE000A8420AD901212046FFF72EFE84F844903A
:100FF00084F845700320BDE8F883009810F0040FD2
:10100000E6D04FF480520021204600F041F940B173
:1010100001212046FFF718FE84F844900120BDE826
:10102000F88300F085FA06466A460121204600F062
:10103000E9F800F07DFA801BA8420AD90121204678
:10104000FFF702FE84F8449084F845700320BDE861
:10105000F883009810F0200FE6D06A461021204651
:1010600000F0D0F840B101212046FFF7EDFD84F8F3
:1010700044900120BDE8F883009810F0040F03D0DD
:101080004FF40061E16000E0E76010F0020F01D072
:10109000A7601DE04FF48040A06019E0E068A168FF
:1010A000C0F3CF00C1F34F0140EA01020021204606
:1010B00000F0EEF840B101212046FFF7C5FD84F8AD
:1010C00044900120BDE8F88340F6FF70FFF7F6FE7C
:1010D00041462046FFF7B8FD84F844900020BDE863
:1010E000F88300000000014000D3CEFEC0E1E40020
:1010F00040F1E9FD40787D012DE9F04186B0002402
:1011000000940194029403940068394988426CD198
:101110003848416941F480414161416901F48041AD
:101120000491416941F400414161416901F4004188
:101130000491416941F480314161416901F4803198
:101140000491816941F010018161816901F0100110
:101150000491816941F004018161816901F0040118
:101160000491816941F008018161816901F0080100
:101170000491816941F0200181618069022500F0BC
:101180002000009503260195CDE90360DFF8688013
:101190006946404600F0BEF8CDE90054174F694655
:1011A0003846029400F0B6F80420CDE900056946FF
:1011B0000396384600F0AEF84FF46050CDE90005D4
:1011C000694603960E4800F0A5F88020CDE900049A
:1011D00069463846029400F09DF83020CDE90004BD
:1011E00069464046029400F095F806B0BDE8F081EB
:1011F0000080024000100240001001400008014041
:10120000000C01402DE9F0410446174694F84400D3
:1012100082282CD0822084F844002068026902F0E1
:101220001C02238A4FF4784C0CEAC3231A434FF470
:10123000F86303EA8111114321F0020141F0010634
:10124000066100F075F9054616F0010F4FF0010632
:1012500015D000F06DF9401BB0F5803F0AD384F83B
:101260004460002084F845000320BDE8F08102209E
:10127000BDE8F0812068006910F0010FE9D1206815
:10128000406980B2386084F844600020BDE8F08195
:1012900070B5044694F84400422830D0422084F8C7
:1012A00044002068036903F01C03B4F810C04FF435
:1012B000784505EACC2C4CEA03034FF4F86C0CEAB1
:1012C0008111194341F0020141F0010691B24161DF
:1012D0002068066100F02CF9054616F0010F4FF06A
:1012E000010613D000F024F9401BB0F5803F08D36D
:1012F00084F84460002084F84500032070BD02207B
:1013000070BD2068006910F0010FEBD184F84460D3
:10131000002070BD2DE9F84F4FF0000C00230A6843
:10132000002A7DD0DFF8DC810F27A8F1040A08F13C
:101330000409AAF1040B012202FA0CF60A683240F1
:10134000B2426ED1DFF8C0E14C68A4EB0E057445E3
:101350002BD00DDC032C34D005DC34B3012C19D098
:10136000022C2FD11BE0112C16D0122C2AD119E0FF
:10137000B5F5881F19D006DCB5F5803F15D0B5F559
:10138000801F1FD111E0B5F5001F0ED0B5F5041F69
:1013900018D10AE0CB6815E0CB681B1D12E0CB68C2
:1013A00008330FE0CB680C330CE08B6823B1012BC2
:1013B00004D00823466105E0042303E00823066106
:1013C00000E00023B2F5807F01D2054601E000F184
:1013D000040502D24FEA8C0403E0ACF108044FEAA2
:1013E00084042E6807FA04FE26EA0E0603FA04F4C3
:1013F00046EA04042C604C6814F0805F79D0434CBA
:10140000A56945F00105A561A46904F001040094F3
:101410002CF0030404F1804404F58034A66801E054
:101420006EE066E04FEA8C754FEA157507FA05FE27
:1014300026EA0E0EA0F18046B6F584361ED0A0F145
:101440008046B6F586361BD0A0F18046B6F58836C4
:1014500018D0A0F18046B6F58A3615D0042606FAD3
:1014600005F545EA0E05A5604C6814F4801F0DD003
:10147000D8F800401443C8F800400CE00026EEE71E
:101480000126ECE70226EAE70326E8E7D8F8004061
:101490009443C8F800404C6814F4001F05D0D9F8F4
:1014A00000401443C9F8004004E0D9F800409443D8
:1014B000C9F800404C6814F4003F05D0DAF8004049
:1014C0001443CAF8004004E0DAF800409443CAF834
:1014D00000404C6814F4803F05D0DBF80040224304
:1014E000CBF8002005E0DBF8004024EA0202CBF84C
:1014F00000200CF1010C0A6832FA0CF27FF41BAFE9
:10150000BDE8F88F080401400000111000100240EF
:10151000C26821EA0203114043EA014101617047B8
:10152000002A01D001617047090401617047000081
:101530000148806870470000B800002070B504467C
:10154000002C04D094F83D00002510B106E00120E5
:1015500070BD84F83C50204600F08AFC242084F8BA
:101560003D002068016821F00101016020680168E8
:1015700041F4004101602068016821F400410160EC
:1015800000F018FE544B6168994203D853498842D1
:1015900003D304E05249884201D2012070BD514971
:1015A000B0FBF1F12268D2F804C02CF03F0C4CEAF9
:1015B000010CC2F804C062689A4201D84A1C07E0D4
:1015C0004FF4967251434FF47A72B1FBF2F14A1C18
:1015D0002168D1F820C02CF03F0C42EA0C020A62CC
:1015E0006168994210D84900401EB0FBF1F2521CCC
:1015F000C2F30B02042A01D2042026E0B0FBF1F072
:10160000401CC0F30B0020E0A268002A50D001EB80
:10161000C10303EB0113A0F1010CBCFBF3F35B1C52
:1016200043F480431B051B0D4AD0002A4AD001EB2E
:10163000C10202EB0111401EB0FBF1F0401CC0F3EF
:101640000B0040F4804040F400402168CA6922F059
:10165000FF0222F44F421043C861216AE06901434E
:101660002068026822F0C00211430160E16820692D
:1016700001432068826822F0FF0222F403421143F2
:101680008160A169606901432068C26822F0FF029D
:101690001143C1602068016841F0010101602564C7
:1016A000202084F83D00256384F83E50002070BD62
:1016B00001EB4103A0F1010CBCFBF3F35B1CB1E7B0
:1016C0000120C2E701EB4101401EB0FBF1F0401CDC
:1016D000C0F30B00B7E70000A086010080841E0065
:1016E00000093D0040420F002DE9F84F04468846AE
:1016F00092461E46FFF71CFF0546002794F83D0062
:10170000202802D00220BDE8F88F19230122564973
:101710002046009501F031FB10B10220BDE8F88FA2
:1017200094F83C00012808D0012084F83C0020688F
:10173000016811F0010F03D006E00220BDE8F88F28
:10174000016841F0010101602068016821F4006135
:101750000160242084F83D00002020644348E062BA
:1017600008F0FE094FF0A0084FF0200B2068016838
:1017700041F480710160334600224FF00111204690
:10178000009501F0FAFA50B12068006810F4807FEB
:1017900002D04FF4007020640320BDE8F88F206869
:1017A000C0F81090FFF7C4FE054620684169C1F3F8
:1017B00040014069C0F380200EE0FFF7B9FE401BF6
:1017C000B04200D80EB984F83D8020684169C1F369
:1017D00040014069C0F3802094F83D20A02A02D047
:1017E00009B90028E9D084F83DB02068416911F0BA
:1017F000020F1BD02168096841F4007101600026C6
:101800002068416980690090192301221649204609
:10181000009501F0B2FA10B10120BDE8F88F84F80C
:101820003DB084F83C600020BDE8F88F016841F4C9
:101830000071016021686FF4806048611923012202
:1018400009492046009501F098FA10B10120BDE841
:10185000F88F7F1C574589D384F83DB0002084F869
:101860003C000120BDE8F88F020010000000FFFFDF
:101870002DE9F84F04468A46904699460A9FFFF79D
:1018800057FE064694F83D00202802D00220BDE80D
:10189000F88F192301224C492046009601F06DFA79
:1018A00010B10220BDE8F88F94F83C00012808D060
:1018B000012084F83C002068016811F0010F03D07A
:1018C00006E00220BDE8F88F016841F001010160E7
:1018D0002068016821F400610160212084F83D0046
:1018E000102084F83E0000252564C4F82480A4F864
:1018F0002A90608D20853548E06233463A4651464D
:10190000204601F09BF810B10120BDE8F88F206857
:10191000416980690090208D002846D032463946C2
:10192000204601F058FB50B1206C042804D12068F7
:10193000016841F4007101600120BDE8F88F606A20
:10194000216800780861606A00F1010CC4F824C0C5
:10195000608D401E6085208D401E80B220852268EB
:10196000516911F0040F0CD058B19CF800001061BF
:10197000606A401C6062608D401E6085208D401E44
:10198000208532463946204601F0C4F950B1206C1A
:10199000042804D12068016841F40071016001202D
:1019A000BDE8F88F208D0028B8D12068016841F487
:1019B00000710160202084F83D0084F83E5084F8D6
:1019C0003C500020BDE8F88F020010000000FFFF2F
:1019D0002DE9FF4F83B00446DDF84490DDF84080E8
:1019E000129E8A46934600270297FFF7A1FD0546FF
:1019F00094F83D00202803D007B00220BDE8F08F06
:101A000019230122B9492046009501F0B6F918B111
:101A100007B00220BDE8F08F94F83C00012808D000
:101A2000012084F83C002068016811F0010F04D007
:101A300007E007B00220BDE8F08F016841F0010126
:101A400001602068016821F400610160222084F8AF
:101A50003D00402084F83E002764C4F82480A4F8A8
:101A60002A90608D2085A248E062019500965A4632
:101A700051462046069B01F03BF818B107B0012003
:101A8000BDE8F08F208D68B3012834D0022842D001
:101A90002068016841F480610160206841698069C3
:101AA0000190208D4FF02008002800F01481DFF80D
:101AB00044B2DFF8449246F2A81A208D032800F2BF
:101AC000D680012837D002284DD03346002259460F
:101AD0002046009501F051F9002872D007B001208E
:101AE000BDE8F08F2068416981690191016841F486
:101AF00000710160D5E72068016821F48061016010
:101B000072B62068416981690191016841F40071F0
:101B1000016062B6C5E72068016841F400610160B8
:101B200072B62068416981690191016821F4806180
:101B3000016062B6B5E72A463146204601F008FA50
:101B400018B107B00120BDE8F08F20680069616A14
:101B50000870606A401C6062208D401E2085608D88
:101B6000401E6085B3E0334600225946204600956A
:101B700001F003F918B107B00120BDE8F08F72B68B
:101B80002068016841F40071016020680069616AA1
:101B90000870606A401C6062218D491E2185618D3C
:101BA000491E618562B6216809690170606A401C3E
:101BB0006062208D401E2085608D401E608586E01D
:101BC000FFE72068016821F48061016072B6206837
:101BD0000069616A0870606A401C6062208D401E66
:101BE0002085608D401E6085D9F80000B0FBFAF0BA
:101BF000C0EBC00000EB800002900298401E0290F3
:101C0000029820B32068406910F0040FF5D02068D6
:101C1000016841F40071016020680069616A087020
:101C2000606A401C6062218D491E2185618D491EBC
:101C3000618562B6216809690170606A401C606252
:101C4000208D401E2085608D401E60853FE027630B
:101C500084F83D8084F83E70206C40F020002064C1
:101C600062B684F83C7007B00120BDE8F08F2A46C8
:101C70003146204601F06CF918B107B00120BDE8EB
:101C8000F08F20680069616A0870606A401C6062B9
:101C9000208D401E81B22185608D401E60852068A8
:101CA000426912F0040F12D0032903D1016821F414
:101CB0008061016020680069616A0870606A401C88
:101CC0006062208D401E2085608D401E6085208DC5
:101CD00000287FF4F2AE84F83D8084F83E7084F8EA
:101CE0003C7007B00020BDE8F08F0000020010003B
:101CF0000000FFFF04000100C40000202DE9FF4F99
:101D000083B004468A469346DDF84490DDF840806F
:101D1000129EFFF70DFC054694F83D00202803D0E5
:101D200007B00220BDE8F08F192301224E4920465A
:101D3000009501F022F818B107B00220BDE8F08F3D
:101D400094F83C00012808D0012084F83C00206869
:101D5000016811F0010F04D007E007B00220BDE8D0
:101D6000F08F016841F0010101602068016821F4F1
:101D700000610160212084F83D00402084F83E008D
:101D800000272764C4F82480A4F82A90608D208559
:101D90003648E062019500965A4651462046069B19
:101DA00000F050FF18B107B00120BDE8F08F208D82
:101DB000002836D02A463146204601F00CF958B1A9
:101DC000206C042804D12068016841F4007101608E
:101DD00007B00120BDE8F08F606A216800780861D3
:101DE000606A00F1010CC4F824C0208D401E80B24E
:101DF0002085618D491E61852368596911F0040FA2
:101E00000CD058B19CF800001861606A401C6062F8
:101E1000208D401E2085608D401E6085208D00280D
:101E2000C8D12A463146204600F074FF58B1206CD4
:101E3000042804D12068016841F40071016007B0F2
:101E40000120BDE8F08F2068016841F40071016055
:101E5000202084F83D0084F83E7084F83C7007B080
:101E60000020BDE8F08F0000020010000000FFFF1E
:101E700010B586B000210091019102910391006894
:101E80000F4988421AD10F4CA06940F00800A061A8
:101E9000A069694600F008000490C020009012205C
:101EA0000190032003900848FFF734FAE06940F4FA
:101EB0000010E061E06900F40010049006B010BD6D
:101EC0000054004000100240000C014002488168AC
:101ED0000278114481607047B800002010B50748AF
:101EE000016841F010010160032000F08BF80F2021
:101EF00000F006F800F026F8002010BD0020024097
:101F000070B504460D4D4FF47A712878B1FBF0F0AE
:101F10000B490968B1FBF0F000F068FC08B1012042
:101F200070BD102C07D200222146501E00F036F85A
:101F30006C60002070BD012070BD0000B800002062
:101F4000C40000200C4808B5816941F0010181619D
:101F5000816901F001010091C16941F08051C161C5
:101F6000C06900F0805000900448416821F0E061B1
:101F700041F00071416008BD0010024000000140C6
:101F800000280ADB00F01F01012202FA01F14009DA
:101F9000800000F1E020C0F80011704710B4184B29
:101FA0001B68C3F30223C3F1070CBCF1040F01D972
:101FB0004FF0040C1C1D072C01D2002300E0DB1E97
:101FC000012404FA0CFCACF1010C0CEA010199406B
:101FD00004FA03F35B1E1A401143002806DB00F1EC
:101FE000E020090180F8001410BC704700F00F00D9
:101FF00000F1E020090180F8141D10BC70470000BA
:102000000CED00E000F00700064A11684FF6FF03F0
:10201000194041EA002040F0FD7040F080601060FF
:10202000704700000CED00E02DE9F04704460D4636
:10203000002C17D0DFF85C81D8F8000000F0070012
:10204000A84212D2D8F8000020F007002843C8F8B0
:102050000000D8F8000000F00700A84205D00120D9
:10206000BDE8F0870120BDE8F08720684A4E10F0F7
:10207000020F14D010F0040F03D0706840F4E06039
:102080007060207810F0080F03D0706840F4605042
:102090007060706820F0F001A068084370602078DC
:1020A00010F0010F3AD06068012806D002280BD04A
:1020B000316811F0020F27D00AE0316811F4003FB7
:1020C00006D10120BDE8F087316811F0007F18D0FB
:1020D000716821F0030108437060FFF729FA074691
:1020E0007068616800F00C00B0EB810F16D041F20F
:1020F0008839FFF71DFAC01B484508D90320BDE801
:10210000F0870120BDE8F0870120BDE8F087706806
:10211000616800F00C00B0EB810FEAD1D8F8000044
:1021200000F00700A8420FD9D8F8000020F00700FF
:102130002843C8F80000D8F8000000F00700A842C3
:1021400002D00120BDE8F087207810F0040F05D000
:102150007068E16820F4E06008437060207810F057
:10216000080F06D07068216920F4605040EAC10071
:10217000706000F03FF87168084AC1F30311515CC8
:10218000C8400749086007480068FFF7B9FE00200B
:10219000BDE8F0870020024000100240A6CD0008F4
:1021A000C4000020BC000020014800687047000007
:1021B000C400002000B5FFF7F7FF04494968044A4E
:1021C000C1F30221515CC84000BD00000010024074
:1021D000B6CD000800B5FFF7E7FF04494968044A97
:1021E000C1F3C221515CC84000BD00000010024094
:1021F000B6CD00082DE9F041214B586800F00C01E4
:10220000042904D0082905D01E48BDE8F0811E48E5
:10221000BDE8F0811D49C0F383428C5C10F4803F1F
:1022200029D0D86A0E3100F00F00085CD96A11F489
:10223000803F17D0D96AC1F303114A1CD96AC1F390
:102240000321891CA2FB0023A1FB0415DFF838C081
:102250000026A1FB0C0705FB0C7C01FB06C1FDF76A
:1022600095FF03E008496143B1FBF0F00D2CCFD19D
:102270004008BDE8F08106486043BDE8F0810000F9
:102280000010024000127A0040787D0188CD0008DD
:1022900000093D0030B587B00D46002004900220B3
:1022A0000390032005904FF480700290094CA069C0
:1022B00040F00400A061A06900F00400019002A9B0
:1022C0000548FFF727F8606820F0706028436060D9
:1022D00007B030BD00100240000801402DE9F84F62
:1022E0000446002C0FD02078FE4D10F0010F6CD06A
:1022F000686800F00C0004280CD0686800F00C003E
:10230000082803D010E00120BDE8F88F686810F4B9
:10231000803F09D0286810F4003F56D0A0680028FC
:1023200053D10120BDE8F88FA068B0F5803F15D0EB
:10233000C8B1B0F5A02F1FD0286820F480302860E5
:10234000286820F480202860A06858B3FFF7F0F8D0
:102350000646286810F4003F17D036E0286840F49D
:1023600080302860F0E7286820F4803028602868F2
:1023700020F480202860E7E7286840F48020286067
:10238000286840F480302860DEE7FFF7D1F8801B32
:10239000642802D90320BDE8F88F286810F4003FB4
:1023A000F3D012E0FFF7C4F80646286810F4003FA7
:1023B0000BD0FFF7BDF8801B642802D90320BDE8CD
:1023C000F88F286810F4003FF3D12078C64F10F042
:1023D000020F4FF001094FF0000854D0686810F068
:1023E0000C0F14D0686800F00C00082803D168684E
:1023F00010F4803F0BD0606978B3C7F80090FFF706
:1024000097F80646286810F0020F12D01DE02868E1
:1024100010F0020F05D06069012802D00120BDE84C
:10242000F88F2868A16920F0F80040EAC100286010
:1024300029E0FFF77DF8801B022802D90320BDE8C0
:10244000F88F286810F0020FF3D02868A16920F0F7
:10245000F80040EAC100286015E0FFE7C7F80080F7
:10246000FFF766F80646286810F0020F0BD0FFF75A
:102470005FF8801B022802D90320BDE8F88F286886
:1024800010F0020FF3D1207810F0080F30D09748E9
:10249000E169C1B1C0F80090FFF74AF80646686AE2
:1024A00010F0020F0BD1FFF743F8801B022802D96E
:1024B0000320BDE8F88F686A10F0020FF3D0012006
:1024C00000F096FE14E0C0F80080FFF731F80646F1
:1024D000686A10F0020F0BD0FFF72AF8801B022861
:1024E00002D90320BDE8F88F686A10F0020FF3D11B
:1024F000207810F0040F6FD00026E86910F0805F9C
:1025000008D1E86940F08050E861E86900F0805047
:1025100000900126DFF8D8B1DBF8000010F4807FCE
:102520001BD1DBF8000040F48070CBF80000FEF710
:10253000FFFF8246DBF8000010F4807F0DD1FEF72C
:10254000F7FFA0EB0A00642802D90320BDE8F88F4A
:10255000DBF8000010F4807FF1D02069012816D04C
:10256000D0B1052821D0286A20F001002862286A0D
:1025700020F004002862206941F2883B68B3FEF72E
:10258000D7FF8246286A10F0020F17D03AE0286A77
:1025900040F001002862EEE7286A20F0010028627E
:1025A000286A20F004002862E5E7286A40F0040069
:1025B0002862286A40F001002862DCE7FEF7B8FFD5
:1025C000A0EB0A00584502D90320BDE8F88F286A1D
:1025D00010F0020FF2D015E01AE0FFE7FEF7A8FFB7
:1025E0008246286A10F0020F0CD0FEF7A1FFA0EB84
:1025F0000A00584502D90320BDE8F88F286A10F078
:10260000020FF2D1012E03D1E86920F08050E86179
:10261000E06A98B3696811F4803F0BD0696801F0F3
:102620000C01082906D1E96A11F4803F02D001208B
:10263000BDE8F88F022814D0E86A20F48030E86200
:10264000C7F86880FEF774FF0646286810F0006F30
:1026500059D0FEF76DFF801B642850D90320BDE8D8
:10266000F88F286810F0805F09D0E86A616B00F08D
:10267000F000884203D00120BDE8F88F43E0C7F89E
:102680006880FEF755FF0646286810F0006F0BD0F3
:10269000FEF74EFF801B642802D90320BDE8F88FA7
:1026A000286810F0006FF3D1E86A616B20F0F00049
:1026B0000843E862E86A216B20F470600843E8622E
:1026C000C7F86890FEF734FF0646286810F0006FE0
:1026D00019D1FEF72DFF801B64280BD90320BDE81C
:1026E000F88F000000100240000042428004424285
:1026F00000700040286810F0006FEAD003E02868FE
:1027000010F0006FA5D1206AE8B3696801F00C01F0
:10271000082957D002280FD0C7F86080FEF708FFBD
:102720000446286810F0007F5DD0FEF701FF001B13
:10273000022842D90320D2E7C7F86080FEF7F8FEEE
:102740000646286810F0007F0AD0FEF7F1FE801BD5
:10275000022801D90320C2E7286810F0007FF4D1D5
:10276000606AB0F5803F09D1E86A61680843E862B1
:10277000E86AE16820F00F000843E862A16A606A35
:102780000843696800E02EE021F474110843686092
:10279000C7F86090FEF7CCFE0446286810F0007F72
:1027A00021D1FEF7C5FE001B022801D9032096E7C0
:1027B000286810F0007FF4D015E0286810F0007F42
:1027C000B3D110E001280CD06868626A00F480314F
:1027D000914204D1A16A00F47010884203D0012014
:1027E0007DE701207BE7002079E70000401EB0F183
:1027F000807F01D3012070474FF0E0214861044AF7
:10280000F0201070002088610720086100207047C8
:1028100023ED00E070B50446002C04D094F841008C
:10282000002510B106E0012070BD84F8405020461C
:1028300000F024F8242084F841002068C16821F4C5
:102840000051C160204600F093FD2068016921F429
:10285000904101612068416921F02A0141612068AD
:10286000C16841F40051C1606564202084F84100D2
:1028700084F842006563002070BD000030B585B06B
:10288000002400940194029403942B4D03682B4878
:1028900002210322AB4223D1836943F48043836145
:1028A000836903F480430493836943F004038361E1
:1028B0008069234D00F0040004900802CDE9000176
:1028C000039269462846FEF725FD2815CDE9000448
:1028D0000120029069462846FEF71CFD05B030BD78
:1028E000184DAB42FAD1C36943F40033C361C369E5
:1028F00003F400330493836943F020038361806908
:10290000114D00F0200004902020CDE90001039239
:1029100069462846FEF7FEFC4020CDE900046946E2
:1029200028460294FEF7F6FC0848416841F0E06151
:1029300041F008014160D1E7003801400010024039
:102940000008014000440040001401400000014024
:102950002DE9F84304460E4615461F4694F84100FB
:10296000202802D00220BDE8F8837EB175B1002096
:102970006064212084F84100FEF7DAFD8146A584D9
:10298000E584A068B0F5805F03D004E00120BDE8D5
:10299000F883206990B135460026E08C4FF020087E
:1029A000C8B14B46002280212046009700F044FD2C
:1029B00030B184F841800320BDE8F8830025ECE7BE
:1029C000B5B12168287848606D1CE08C401EE08419
:1029D000E08C0028E5D14B4600224021204600979C
:1029E00000F02AFD58B184F841800320BDE8F88347
:1029F00030882168C0F308004860B61CE5E784F819
:102A000041800020BDE8F883FEE701684A6912F4BE
:102A1000806F11D06FF480624A610021016320222F
:102A200080F83D2080F83E10026C42F004020264FF
:102A300080F83C100120704700207047F8B504462C
:102A40000D4617461E46E06A082808D0012806D021
:102A500010F5803F03D0206B122806D00AE02068D2
:102A6000016841F48071016004E02068016841F46C
:102A7000807101603B4600224FF001112046009614
:102A800000F07BF948B12068006810F4807F02D024
:102A90004FF4007020640320F8BD2069B0F5804F2A
:102AA0000FD005F44070F02141EAD0102168086190
:102AB00033463A460C49204600F0D4F930B10120A3
:102AC000F8BD216805F0FE00086102E02168E8B267
:102AD000086133463A460549204600F0C3F908B17B
:102AE0000120F8BD0020F8BD08000100020001002F
:102AF0002DE9F84F0446DDF828A00B9D0F469046BF
:102B00001E462068016841F4806101602068016808
:102B100041F480710160534600224FF001112046BC
:102B2000009500F02AF94FF4007948B12068006858
:102B300010F4807F01D0C4F840900320BDE8F88FE6
:102B4000216807F0FE000861DFF8F4B02B4652461A
:102B50005946204600F086F910B10120BDE8F88FF3
:102B600020684169806900902A465146204600F05D
:102B700032FA50B1206C042804D12068016841F475
:102B8000007101600120BDE8F88F304608F0FF06B3
:102B900001280DD021684FEA182008612A465146C5
:102BA000204600F018FA70B1206C042803D007E02A
:102BB0002068066109E02068016841F40071016045
:102BC0000120BDE8F88F206806612A46514620465C
:102BD00000F001FA50B1206C042804D1206801688B
:102BE00041F4007101600120BDE8F88F20680168A0
:102BF00041F480710160534600224FF001112046DC
:102C0000009500F0BAF848B12068006810F4807FA1
:102C100001D0C4F840900320BDE8F88F2168F8B2D5
:102C200040F0010008612B4652465946204600F00C
:102C300019F910B10120BDE8F88F0020BDE8F88F28
:102C4000020001002DE9F8430446DDF82090099FB9
:102C50000D46164698462068016841F4807101606F
:102C60004B4600224FF001112046009700F085F8F6
:102C700050B12068006810F4807F02D04FF40070DB
:102C800020640320BDE8F883216805F0FE00086198
:102C90003B464A461E49204600F0E4F810B10120A8
:102CA000BDE8F88320684169806900903A4649464A
:102CB000204600F090F950B1206C042804D120681F
:102CC000016841F4007101600120BDE8F883F5B2AC
:102CD000B8F1010F0CD02168300A08613A46494624
:102CE000204600F078F970B1206C042803D007E08A
:102CF0002068056109E02068016841F40071016005
:102D00000120BDE8F883206805610020BDE8F88354
:102D10000200010070B504460D4616462068406961
:102D200010F0040F18D12046FFF76FFE08B1012004
:102D300070BDB5F1FF3F0AD0FEF7FAFB801BA84239
:102D400000D825B92068406910F0040F06D020682B
:102D5000406910F0040FE6D0002070BD0020206311
:102D6000202184F83D1084F83E00216C41F02001C0
:102D7000216484F83C00012070BD2DE9F047044631
:102D8000DDF820900D4617461E46C5F3074820681B
:102D9000B8F1010F13D0806925EA00000004000C8F
:102DA00017D00020B8424DD1B6F1FF3F3DD0FEF71D
:102DB000BFFBA0EB0900B0420DD866B135E0406919
:102DC00025EA00000004000C01D00020EAE7012001
:102DD000E8E70120E6E7B8F1010F19D02068806923
:102DE00025EA00000004000C1DD00020B8421CD1D0
:102DF00000202063202184F83D1084F83E00216CDF
:102E000041F02001216484F83C000120BDE8F087F6
:102E10002068406925EA00000004000C01D0002071
:102E2000E4E70120E2E70120E0E7B8F1010F0CD070
:102E30002068806925EA00000004000C10D0002002
:102E4000B842B1D00020BDE8F0872068406925EA8B
:102E500000000004000C01D00020F1E70120EFE7A2
:102E60000120EDE72DE9F04704460D461646984649
:102E7000C5F307472068012F26D0806925EA0000A6
:102E80000004000C59D04FF000094FF0200A2068D0
:102E9000406910F4806F1ED02068016841F4007111
:102EA000016021686FF480604861C4F8309084F854
:102EB0003DA084F83E90206C40F00400206484F82B
:102EC0003C900120BDE8F087406925EA000000043D
:102ED000000C32D0D7E7B6F1FF3F25D0FEF728FB34
:102EE000A0EB0800B04200D8F6B9012F15D0206839
:102EF000806925EA00000004000C15D0C4F8309069
:102F000084F83DA084F83E90206C40F020002064BE
:102F100084F83C900120BDE8F0872068406925EAEC
:102F200000000004000CE9D1012F09D0206880695D
:102F300025EA00000004000CA9D10020BDE8F087BC
:102F40002068406925EA00000004000C9FD1F4E7E6
:102F50002DE9F04104460D4616462068406910F000
:102F6000400F27D100274FF020082068406910F05B
:102F7000100F0FD020686FF010014161276384F8B3
:102F80003D8084F83E70206C206484F83C70012001
:102F9000BDE8F081FEF7CCFA801BA84200D825B925
:102FA0002068406910F0400F07D02068406910F099
:102FB000400FDAD00020BDE8F081276384F83D801F
:102FC00084F83E70206C40F02000206484F83C704F
:102FD0000120BDE8F08170B504460D461646206814
:102FE000406910F0800F18D12046FFF70EFD08B1A0
:102FF000012070BDB5F1FF3F0AD0FEF799FA801BA2
:10300000A84200D825B92068406910F0800F06D08A
:103010002068406910F0800FE6D0002070BD0020CD
:103020002063202184F83D1084F83E00216C41F09B
:103030002001216484F83C00012070BD114810B5C6
:103040000F49016001218A03C0E90112CA02C2606E
:1030500001820D49002280230A704B70E1238B709E
:10306000CA700A714A71C0E905124FF40001C0E943
:103070000721FDF737FF002801D072B6FEE710BD2B
:1030800000800240201600208C0000202DE9F04333
:1030900085B0002429480094019402940394816926
:1030A00041F010018161816901F010010491816991
:1030B00041F004018161816901F004010491816999
:1030C00041F008018161816901F008010491816981
:1030D00041F0200181618069DFF8648000F0200008
:1030E0000490002201214046FEF71AFADFF85490BE
:1030F0004FF20407002239464846FEF711FA01252F
:10310000022603960095CDE9015469464046FEF734
:1031100001F900970396CDE9015469464846FEF748
:10312000F9F82802CDE90006032003906946064815
:10313000FEF7F0F805B0BDE8F08300000010024093
:10314000000C014000140140000801402DE9FF413E
:103150004FF480700225CDE9000500240320CDE95D
:1031600002401E4F69463846FEF7D4F80126CDE9E5
:103170000064694638460294FEF7CCF82F03DFF866
:103180006080CDE9007669464046CDE90245FEF70C
:10319000C1F8012239464046FEF7C2F9CDE9005692
:1031A000DFF8408069464046CDE90245FEF7B2F8B7
:1031B000002202214046FEF7B3F96F03CDE9007605
:1031C00069464046CDE90245FEF7A4F8002239469B
:1031D0004046FEF7A5F9BDE8FF8100000008014068
:1031E00000100140000C0140FEE7FEE770470000C0
:1031F00081B007494FF4FA520968B1FBF2F1484334
:10320000009000BF0098411E0091FAD201B07047B3
:10321000C40000207047000010B5FEF757FEFEF70F
:1032200087F90149086010BD5400002030B593B003
:1032300038216846FDF712F814210EA8FDF70EF8A4
:10324000012528040421CDE902010224CDE908402A
:103250000095019005954FF4E010CDE90A044FF474
:10326000C0600C9040200D906846FFF737F808B119
:1032700072B6FEE70F20CDE90E0400204FF4806106
:10328000CDE91001129002210EA8FEF7CDFE08B183
:1032900072B6FEE700224FF030611046FEF7FAFFEB
:1032A0000E48C16A21F0F00141F04001C162C16ADB
:1032B00021F4704141F40041C16209490D674FF6A4
:1032C000FF710268920002D4491EFAD101E0002980
:1032D00002D104A000F0FAF813B030BD0010024093
:1032E000000042425B434C4B5D204552524F523AE4
:1032F00020504C4C3320646964206E6F74206C6FD6
:10330000636B3B204D434F2077696C6C206E6F746C
:10331000206F75747075742035304D487A0D0A0031
:10332000704701680C3151E8002F22F4907241E897
:103330000023002BF5D10168143151E8002F22F051
:10334000010241E80023002BF5D1016B012909D1CD
:1033500001680C3151E8002F22F0100241E80023EF
:10336000002BF5D1202180F8421000210163704725
:1033700070B5044620680169E26821F440511143A8
:1033800001612169A0680843616901432068C2683E
:1033900022F4037222F4A0521143C16020684169F3
:1033A000A26921F44071114341612068A0F180417C
:1033B000B1F59C313AD0FEF7FDFE00EBC00101EB08
:1033C000001061681B4A8900B0FBF1F3A2FB0353B4
:1033D000B0FBF1FC5B096FF018056B430CEB83034A
:1033E0004FF0320C0CEB0313A2FB03535B0903F009
:1033F000F005B0FBF1F3A2FB03635B0905EB0313DC
:10340000B0FBF1F5B0FBF1F0A2FB001040096FF04A
:103410001801484305EB80000CEB0010A2FB0010E4
:103420002168C0F343101844886070BDFEF7D2FED7
:10343000C3E700001F85EB512DE9F8430446089EC1
:103440000D46174698462068006835EA000028D0E7
:103450000020B84232D1B6F1FF3F27D0FEF768F81E
:10346000A0EB0800B0421ED8EEB12068C16811F090
:10347000040F1BD0802D19D0402D17D0016811F0FA
:10348000080F13D000252168096840680090204685
:10349000FFF747FF0820606484F840500120BDE832
:1034A000F8830120D5E70320BDE8F8832068006891
:1034B00035EA000005D00020B842CCD00020BDE89D
:1034C000F8830120F8E701F0EFBBFEE70FB4054BEE
:1034D00010B503A9044A029800F0F4F810BC5DF896
:1034E00014FB000001730008780100200FB47CB5C4
:1034F0000C0009AD01D0611E00E00021CDE9000102
:10350000064B6A462946089800F0DCF8002C02D0E9
:10351000009A002111707CBC5DF814FB3F3E00084E
:1035200002E008C8121F08C1002AFAD1704770478C
:10353000002001E001C1121F002AFBD170470000EA
:103540002DE9FF5F82B00021DDE90430020DDDF8D6
:1035500040B0034318D044F61050A2F2FF32424369
:103560001514119801281FD0A5EB0B00401C5FEA31
:10357000000A4FF000064E4FDFF83891B046504633
:1035800015D5CAF1000413E0119801244AA30128BB
:1035900001D16FEA0B010298119AC0E90031C0E92C
:1035A000024206B0BDE8F09FCBF10000DFE7044621
:1035B0000021404A491842EB0450CDE9001012E0C6
:1035C000E00707D032463B4640464946FCF739FF04
:1035D0008046894632463B4610461946FCF731FF85
:1035E00006460F466410002CEAD1DDE90401DDE94E
:1035F0000023BAF1000F06DAFCF723FF42464B46E0
:10360000FCF71FFF05E0FCF78EFF42464B46FCF738
:103610008AFF04460E460022284BFDF7FDF903D829
:103620004FF0FF30014607E00022254B204631468F
:10363000FDF733F9FDF7D8F9102409E0002C0ADB77
:103640000A220023FCF7A2FD039B30321A55641EA8
:1036500050EA0102F2D1641C039AC4F1110314442C
:10366000119A012A03D0012208430DD10AE0084330
:1036700004D000204FF0110B119072E7A3EB0B0563
:103680006D1E0DE05B4504DD4FF0000205F1010504
:1036900004E003DA4FF00002A5F10105002AECD0A6
:1036A00002981199C0E90231C0E9004579E70000AC
:1036B000000014400000F03F300000000000F04324
:1036C0000000E03F2DE9FF4F95B09A468846064638
:1036D0000025EEE1252877D100242746F94A01216B
:1036E000039400E0044316F8013F203B01FA03F085
:1036F0001042F7D130782A2811D06FF02F0330789C
:10370000A0F13002092A16D8039A44F0020402EB11
:10371000820203EB42021044761C0390EFE758F854
:10372000042B0392002A03DA504244F4005403901D
:1037300044F00204761C30782E2816D116F8010FBA
:1037400044F004042A280DD06FF02F023078A0F145
:103750003003092B09D807EB870302EB4303C71893
:10376000761CF3E758F8047B761C30786C280FD071
:1037700006DC4C2817D068280DD06A2814D104E044
:10378000742810D07A280FD10DE044F400140AE018
:1037900044F4801401E044F440147278824202D16F
:1037A00004F58014761C761C307866280BD013DC68
:1037B000582877D009DC002875D04528F6D046284F
:1037C000F4D047281AD193E118E0632835D0642853
:1037D00079D0652812D18BE1702873D008DC672876
:1037E000F1D069286FD06E280DD06F2806D1ACE0DB
:1037F00073282CD0752874D0782853D05246179946
:1038000090476D1C54E1C4F30250022809D00328EC
:103810000DD0D8F8001004280DD00D6008F1040870
:1038200046E1D8F80010EA17C1E90052F6E7D8F8E7
:1038300000100D80F2E70D70F0E718F8041B8DF80A
:10384000001000208DF80100EB46012003E058F83D
:1038500004BB4FF0FF3061074FF0000102D40DE0D0
:1038600009F101018946B9420FDA8145F8DB1BF8FD
:1038700009100029F4D108E009F1010189468142CB
:10388000FADB1BF809100029F6D103985346A0EB88
:10389000090721463846179A00F080FA284400EBC1
:1038A000090507E044E008E10DE01BF8010B524672
:1038B00017999047B9F10109F7D253462146384686
:1038C000179AF2E039E00A21C4F302524FF0000BDC
:1038D0000091022A06D058F8040BC117032A09D018
:1038E0000AE023E008F1070020F00702F2E80201F5
:1038F000904605E000B2C117042A01D140B2C117B9
:10390000002906DA0A460021404261EB02012D221D
:1039100002E0220504D52B228DF80420012203E0C9
:10392000E20701D02022F7E7914657E00A2100E0A4
:1039300010214FF0000B00910BE010214FF0000B15
:1039400044F004040827009103E008204FF0000B26
:103950000090C4F30252022A05D058F8040B00214B
:10396000032A08D008E008F1070020F00702F2E877
:103970000201904603E080B2042A00D1C0B24FF0A9
:10398000000922072AD53278702A07D0DDF800C056
:103990008CF0100C5CEA0B0C05D00EE040228DF888
:1039A0000420012208E050EA010306D030238DF8FC
:1039B00004308DF8052002229146009B83F0080315
:1039C00053EA0B030AD150EA010201D1620705D57F
:1039D00030228DF804204FF001097F1E3278582ADA
:1039E00004D039A20C920CAA02920BE03BA2F9E798
:1039F0005B46009AFCF7CAFB0C9B9B5C029A521E2A
:103A00000292137050EA0102F2D1029804A9081A36
:103A100000F1200B600702D524F4803400E0012778
:103A20005F4502DDA7EB0B0000E0002000EB0B017F
:103A3000009003984944401A0390E00306D453468B
:103A40002146179A039800F0A9F90544002706E0DB
:103A500001A85246C05D179990476D1C7F1C4F45C9
:103A6000F6DBE0030CD553462146179A039800F085
:103A700095F9054404E030205246179990476D1C93
:103A80000099481E00900029F5DC08E00298029990
:103A900052460078491C0291179990476D1CBBF162
:103AA0000001ABF1010BF1DC5BE100F065F90544CD
:103AB000761C307800287FF40DAE19B02846BDE89A
:103AC000F08F0000092801003031323334353637A9
:103AD000383961626364656600000000303132335A
:103AE00034353637383941424344454600000000FA
:103AF000600700D4062708F1070020F00700F0E86F
:103B00000223804603F0004C5FEA0C0001D097A02E
:103B100009E0200501D596A005E0E00701D095A0B9
:103B200001E0AFF24C001390307823F00043652899
:103B30000CD006DC452809D046281DD047287FD167
:103B40003BE0662818D067287AD136E00021112F93
:103B500001DB112000E0781CCDE9000104A90CA8CC
:103B6000FFF7EEFCDDE90D010C9A4FF0000B07F1B9
:103B70000109109200914EE04FF000400097CDE90E
:103B8000011004A90CA8FFF7DBFCDDE90D020C9B7A
:103B90000F994FF0000B91461093009211B9791CC8
:103BA00000EB0109B7EB090003D4C0F1FF3B07F1BB
:103BB0000109A9EB0700019042E0012F00DA01277B
:103BC0000021112F01DD112000E03846CDE9000170
:103BD00004A90CA8FFF7B4FCDDE90D010C9A0091D3
:103BE0004FF0000BB946109221070FD4009A4A45B6
:103BF00003DA914601E0A9F10109B9F1010F05DDF0
:103C0000109AA9F10101515C3029F4D0B84202DACE
:103C100010F1040F03DA0121CDE9011010E00028B2
:103C200003DC8344A9EB000102E0411C494500DDAF
:103C30008946A0EB0B00401C01904FF00040029021
:103C4000200705D40198484502DB4FF0FF30019072
:103C500000208DF84B0002980DF14B07B0F1004F9A
:103C600025D002200C902B200D90029800280CDA11
:103C7000404202902D200D9007E00A210298FCF7A7
:103C800053FD3031029007F8011D0C99481E0C902D
:103C90000029F2DC02980028EFD1791E0D980870F7
:103CA000307800F0200040F0450007F8020D11A820
:103CB000C01BC01D02901398007800B1012000EBDA
:103CC0000901019801EBE071029801440398401A40
:103CD000401E0390E00306D453462146179A0398EA
:103CE00000F05CF805441398007818B15246179913
:103CF00090476D1CE00323D553462146179A03983D
:103D000000F04CF805441BE0BBF1000F07DB009806
:103D1000584504DD1098179910F80B0001E0179929
:103D200030205246904701980BF1010B401E05F1DF
:103D30000105019004D12E205246179990476D1C21
:103D4000B9F10001A9F10109DEDC05E017F8010B6A
:103D50005246179990476D1C0299481E02900029FF
:103D6000F4DC53462146179A03989EE62D00000086
:103D70002B000000200000002DE9F0410446002542
:103D80001E461746880404D405E039462020B04773
:103D90006D1C641EF9D52846BDE8F0812DE9F0417F
:103DA000044600251E469046C80301D5302700E092
:103DB0002027880404D505E041463846B0476D1CED
:103DC000641EF9D52846BDE8F081F0B51E1EC1B0CD
:103DD00014460B4602D004F1060101E004F105018E
:103DE000CFB24FF055018DF800104FF0AA018DF8B9
:103DF00001108DF8020001D0201D00E0E01C8DF8BC
:103E00000300224619466D4601A8FCF700FA30006F
:103E10000DEB040607D0A11CA81C00F0E3F8010A72
:103E20003171707105E0A41CE1B2A81C00F0F8F833
:103E300030713946684600F069FF41B0F0BD4A680C
:103E4000002A06D00A68531C0B6010704868401E98
:103E50004860704710B586B0044600F005FA024687
:103E600021460B48FFF732FB00F02EFAADF81000A8
:103E700000F0FAF9ADF81200694604A805F0F2F86E
:103E8000010002D0684602F04BFE06B010BD0000F3
:103E9000A8D200082DE9F04FADF6140D83468846F0
:103EA0000026FDF745FB0024074625460DF6040ACB
:103EB0000DF104093FE0684608F0CAFCD8B3FF2CB6
:103EC0000BD89DF8001009F83410FDF731FBC11B29
:103ED00009EBC400641CA4B241600B2D08D29DF80C
:103EE00000100AF805106D1CEDB20B2D23D30AE06B
:103EF0000A220AF101010DF60400FCF788F99DF889
:103F000000008DF80E089DF80408AA2813D19DF82A
:103F1000050855280FD1BDF8060840BAA0F59851FC
:103F2000663908D109210AF1020000F079F810B9C8
:103F3000761CB6B20025FDF7FBFAC01B404501D246
:103F40005E45B8D3214610A0FFF7C0FA00254F46C2
:103F50000AE000BF07EBC50017F83510426810A053
:103F6000FFF7B4FA6D1CADB2A542F3D30F48C16997
:103F70000091C389828931460DA0FFF7A7FA0DF69B
:103F8000140D3046BDE8F08F5B434849505D207208
:103F90006563762025752062797465733A000000A8
:103FA000202530325840256C7500000000000020AC
:103FB0000D0A5B434849505D20666F756E643D2570
:103FC00075202046452F4E453D2575204F52453DD5
:103FD00025752072785F746F74616C3D256C750D6A
:103FE0000A000000F0B505464FF6FF742046002297
:103FF00041F2210611E0AB5C80EA032000230704B4
:1040000003D586EA400080B201E004EA40005B1C70
:10401000DBB2082BF3D3521C92B28A42EBD3F0BD31
:1040200070B506461F20002212E0B45C0023E509AB
:1040300085EA1015640645EA40005B1C240E80EA00
:104040008500DBB200F01F00082BF0D3521CD2B267
:104050008A42EAD370BD00002DE9FE4F33A1D1E9B9
:104060000001CDE901013348016841F08071016030
:10407000314800214160016841F0010101600026E2
:104080004FF000094FF0FF344D4600F0F1FDBFF353
:104090004F8F2949D1F804B0284B294A002001AF9D
:1040A00003F1040C8A4619680906FCD5395CCCF882
:1040B0000010002C07DA1189B2F80A80414502D0BD
:1040C000DAF804900446401C0728ECDBDAF80470A8
:1040D000D046DFF870A005E0684608F0B9FB08B1EB
:1040E0006D1CADB2D8F80400C11B5145F4D3002CAF
:1040F0000BDBA9EB0B004821B0FBF1F32246314664
:1041000011480095FFF7E2F90AE02DB12A46314641
:104110000EA0FFF7DBF903E031461AA0FFF7D6F94E
:10412000761C052EACDBBDE8FE8F000055AA5205BB
:1041300000000A00FCED00E0001000E00038014043
:104140000000002080F520007CCF00085B43484938
:10415000505D204543484F2D50524F424520256425
:104160003A2041465445522D6275727374206F6E29
:104170006C793A20257520627974652873290D0AB7
:10418000000000005B434849505D204543484F2DE7
:1041900050524F42452025643A206E6F2065636877
:1041A0006F0D0A002DE9F05F2B4C83468A46E088AC
:1041B000FCF748FA29490546884206DA08460D46C2
:1041C00000F0B2FC5046FCF779FE29465846FCF751
:1041D000B6F8234920F000404FF07C59884229DB93
:1041E000204FB84226DB29465846FCF793FA01D205
:1041F000012601E04FF0FF36B84641462846FCF75D
:10420000D6F8FCF724FA054639465846FCF7CFF8AD
:10421000FCF71DFA07460BE035442846FCF709FA7F
:104220004146FCF792F800F07FFC5046FCF746FE52
:10423000BD42F1D1584600F077FC05465846FCF7E0
:104240001FFAA08049462846FCF727F8FCF718FA21
:10425000E080BDE8F09F0000000000200000484220
:1042600017B7D1380000C8400148C0887047000027
:104270000000002001484078704700000000002046
:104280000148806970470000000000200148406933
:1042900070470000000000200148007870470000CF
:1042A00000000020014880897047000000000020C5
:1042B0000148C08970470000000000200148C06923
:1042C000704700000000002001488088704700000F
:1042D000000000202DE9F34FCC4891B0816941F0F6
:1042E0000801816180694FF0000A00F00800009029
:1042F0000120CDE9020A01900220C54C049001A9D9
:104300002046FDF707F8C3A0FFF7E0F800220121DF
:104310002046FDF705F96420FCF7D0FD0122114687
:104320002046FDF7FDF86420FCF7C8FD00F006FB11
:10433000C5A1C74FD1E90001DFF81893DFF8188352
:104340000025A346CDE90501042D05D0C04E0C3E45
:10435000705D98B1012212E044F202000790CDF89E
:1043600020A0CDF824A007A9CDF828A05846FCF736
:10437000D1FF0521B9A0FFF7A9F816E0002202211C
:104380005846FDF7CDF8B24CE41F605D08B101223C
:1043900000E000224FF480415846FDF7C1F8635D0C
:1043A000725D691CBCA0FFF791F8002201215C46F8
:1043B0005846FDF7B5F80A20FCF780FD01221146AA
:1043C0002046FDF7ADF83220FCF778FD5FF00006DF
:1043D00057F8260000F0AEFC00F04AFC57F8261013
:1043E000BAA0C8F81010FFF771F80024484600F092
:1043F00029FC641C032CF9DB072105A800F044FB11
:104400004FF4FA711198FFF745FD041E02DC761C8B
:10441000022EDDDB6D1C052D02DA002C94D000E0AD
:1044200044B388F800404646AFA0D8F81010FFF714
:104430004DF8B6A207AB07CA83E807000B2107A80F
:1044400000F022FBB4A207AB07CA83E807000B21E8
:1044500007A800F019FB5746022269465320CDF801
:1044600000A000F0ADFA4FF4807090FBF4F0707093
:1044700000252FE0FFF7F0FDAA208DF800004EF692
:1044800060264FF47A70B6FBF0F1A648FFF71EF8ED
:10449000FDF74EF8054607E000240121684600F0CC
:1044A00035FC641CC82CF8DBFDF742F8401BB04219
:1044B000F2D3002013B0BDE8F08F7178009705FBB0
:1044C00001F08DF8000002226946402000F078FAE1
:1044D0006D1CEDB2A542F0DB93A207AB07CA83E8DF
:1044E00007000B2107A800F0CFFA92A207AB07CA7A
:1044F00083E807000B2107A800F0C6FA012000F0AE
:10450000EBFA8FA207AB07CA83E807000B2107A8C5
:1045100000F0BAFA8DA207AB07CA83E807000B21A7
:1045200007A800F0B1FA8CA207AB07CA83E807001E
:104530000B2107A800F0A8FA002540E0707889A1B7
:1045400005FB00F7D1E90001CDE907018DF81C70EA
:10455000062207A9412000F033FA84A10622D1E9FE
:104560000001CDE909018DF8247009A9412000F06E
:1045700027FA80A10622D1E90001CDE90B018DF8CF
:104580002C700BA9412000F01BFA7CA10622D1E976
:104590000001CDE90D018DF834700DA9412000F026
:1045A0000FFA78A10622D1E90001CDE90F018DF8BB
:1045B0003C700FA9412000F003FA6D1CEDB2A5423A
:1045C000BCDB1E211298FFF7EDFDF088FCF73AF8EE
:1045D000054670200090A3B22A4600206B4900F0E7
:1045E000DDFA2846FCF779F802460B460094B188BC
:1045F0006748FEF76BFF67A207AB07CA83E80700AF
:104600000B2107A800F040FA204653E700100240B3
:10461000000C01405B434849505D2072657365742E
:104620002070756C73652028525354206C6F77206E
:104630003130306D73202D3E20686967682031303D
:10464000306D73290D0A000055AA520500000A00BA
:1046500064CD000800E0FF1F000000205B434849D4
:10466000505D207374726170207472792025642FFC
:10467000353A20424F4F5428504231293D666C6FE5
:104680006174204354524C2850423134293D666CA9
:104690006F61740D0A0000005B434849505D207350
:1046A00074726170207472792025642F353A20422B
:1046B0004F4F5428504231293D2575204354524CC8
:1046C0002850423134293D25750D0A005B43484985
:1046D000505D2070726F62696E67204020256C7596
:1046E00020626175640D0A005B434849505D206398
:1046F0006861696E206C6F636B6564204020256C77
:104700007520626175640D0A0000000055AA510908
:1047100000A800070000030055AA51090018FF0F68
:10472000C100000010CF000855AA5109003C8000CC
:1047300085400C0055AA5109003C800080201900DA
:1047400055AA51090054000000031D0055AA510943
:10475000005802111111060055AA4109002C007CD5
:104760000003030000A8000701F000000018F0009B
:10477000C1000000003C800085400000003C80003B
:1047800080200000003C800082AA00000000F03F72
:10479000B8CE000855AA510900A49000FFFF1C00E4
:1047A0002DE9FF5F0026B24693464FE04FF0010827
:1047B00001243CE0012538E02846FBF743FF814611
:1047C0002046FBF73FFF07464046FBF73BFF3946D5
:1047D000FBF7BBFD4946FBF7B8FD07465846FBF71C
:1047E00031FF1E49FBF7B1FD3946FBF7E0FD81467D
:1047F00030460199FBF7A3FD20F000474846019998
:10480000FBF79DFD20F000403946FBF779FF0AD207
:1048100050466BF3070068F30F2064F3174065F30D
:104820001F6082464E466D1CEDB2A542C4D3641C87
:10483000E4B2072CBED908F1010000F0FF08B8F17E
:10484000020FB5D90BF1010000F0FF0B03998B4566
:10485000ACD90098C0E900A6BDE8FF9F0000C841A0
:104860002DE9F84388460746FCF762FE254D264CA5
:104870000646684607F0ECFF0028A07815D0F0B196
:10488000012822D09DF800102954401CC0B2A0700D
:104890000B28EED10020A0700921A81CFFF7C0FB57
:1048A00028B3A069401CA061E3E7002805D0FCF70D
:1048B0003FFE811B4145DCD30020BDE8F8839DF815
:1048C0000000AA28D5D128700FE09DF800005528D7
:1048D00007D028706169491C6161AA2805D00020B1
:1048E00001E068700220A070C3E70120FBE72868A0
:1048F00038606868786028893881A87AB8720120A1
:10490000DBE70000840100200000002008B50A4B0E
:104910005A7832B91A7802B901224FF48073B3FB86
:10492000F2F250438DF800008DF801100222694622
:10493000422000F045F808BD0000002030B40022FD
:104940000B4944F6206310460C68640500D5521CE0
:10495000401C9842F8D39A4201D106A101E022B14D
:1049600006A130BC08A0FEF7B1BD14A1F9E7000014
:10497000080801404849474800000000464C4150A3
:1049800050494E47000000005B434849505D2052AB
:10499000582850413130292069646C653A202573CC
:1049A0002028256C752F256C752073616D706C65E2
:1049B000732068696768290D0A0000004C4F570092
:1049C0000023FFF702BA000030B5044697B0007824
:1049D0008DF8080001208DF80900D4F8D000CDF83A
:1049E0000A00D4F8CC00CDF80E00D4F8C800CDF8F9
:1049F000120004F180050DF11600202204F1A80137
:104A0000FBF705FC0DF13600202204F18801FBF7CD
:104A1000FEFB68680D4DCDF856005223296A022925
:104A20000CD2D4F8CC20D4F88400CDE9000222784E
:104A300007A0FEF74BFD286A401C28625222012382
:104A400002A92120FFF7C1F917B030BD00000020F6
:104A50005B4A4F422D54585D2023256C75206964B4
:104A60003D2575206C656E3D2575207665723D305F
:104A7000782530386C58206E626974733D30782523
:104A800030386C580D0A000070B506460D460BA074
:104A9000FEF71CFD002405E0315D0CA0FEF716FDBD
:104AA000641CE4B2AC42F7D30AA0FEF70FFD29461E
:104AB0003046BDE8704000F029B900005B4348492A
:104AC000505D2054582025753A00000020253032D2
:104AD000580000000D0A00007CB56C46002101E082
:104AE0004008491C0128FBD80020012520708D407A
:104AF000142060706D1E280E04F090FDA070C5F3A8
:104B0000074004F08BFDE070C5F3072004F086FD3C
:104B10002071E8B204F082FD6071062269465120DE
:104B2000FFF74EFF7CBD00007FB50146EB239022CE
:104B300002A8FFF735FE9DF808209DF8091002EB4A
:104B4000C20404EB0214B4FBF1F49DF80A309DF8A2
:104B50000B00B4F5166F01D3502400E040245B1E17
:104B600003F00F03401E0BA563F31F10D5E90035BA
:104B7000CDE900358DF804108DF802408DF8032042
:104B80008DF80500062269465120FFF719FF0398AA
:104B900004B070BD00080000000000002DE9FC41D9
:104BA00006461C4617468846089803F037FF054618
:104BB000204603F033FFFBF745FD04462846FBF78C
:104BC00041FD01464FF09F40FBF7F1FB2146FBF70B
:104BD000EEFB05463846FBF780FD07460C462846A7
:104BE000FBF77BFD0022144BFBF72BFC3A462346D8
:104BF000FBF799FC6FF00502FBF704FD32464346D4
:104C0000FBF71FFCFBF750FD0CA2D2E90012CDE927
:104C10000012010E8DF80210010C8DF80310010A2C
:104C20008DF804108DF80500062269465120FFF723
:104C3000C7FEBDE8FC810000000039400010000004
:104C4000000000001CB508A2400BD2E90012CDE91B
:104C50000012010A8DF804108DF80500062269463D
:104C60005120FFF7ADFE1CBD00A490000000000025
:104C700008B5684607F0ECFD0028FAD108BD000031
:104C8000084810B50068C16841F02001C1600022E9
:104C900001212520FDF782F9BDE810402520FDF710
:104CA0006FB90000BC160020154810B5016800F16E
:104CB000040214488B061BD5126811F0060FD2B2FD
:104CC00002D083895B1C8381090702D5C189491CF5
:104CD000C181C169491CC16101894389491CC1F372
:104CE0000901994203D0084B04891A55018110BD6E
:104CF0000907FCD51168C189491CC18110BD00009C
:104D000000380140000000208F01002030B5084B22
:104D100000221C1D06E01D682D06FCD5855C256063
:104D2000521C92B28A42F6D318684006FCD530BDB8
:104D30000038014070B505460A4801684906FCD5AF
:104D4000084C0C34206820F400502060FDF742FA33
:104D5000B0FBF5F0211F0860206840F4005020608F
:104D600070BD0000003801402DE9F0410F460646B5
:104D700014461D46511C184607F0AAFF2E7124B197
:104D800022463946681DFBF742FA641DA0B2BDE811
:104D9000F0810000F0B54C4D9DB0286900286FD01F
:104DA00088E000BF9DF82C209DF82E009DF82D1066
:104DB0000592CDE9061008909DF8280001AC9DF8F9
:104DC0002B309DF82A209DF8291084E80F009DF8CB
:104DD000270000909DF826309DF825209DF824108E
:104DE0003A48FEF773FB9DF82E0000064DD50020D3
:104DF00004900690BDF82C00DDF8264046BA0594D4
:104E00009DF82B0000F0F8018DF8101000F007005D
:104E10008DF81300600E8DF81200FFF72BFA20B109
:104E2000C4F34741B1FBF0F200E000228DF81120FD
:104E30009DF81010264BC1F3C30053F8200000B9B1
:104E4000A8699DF8133040EA463006909DF812603C
:104E5000CDE90220CDE9006322461E48059BFEF7FE
:104E600035FB0CA80090D5E9142304A804F040F900
:104E700004001FD001460CA801F052FE214600E0BC
:104E80001FE015A0FEF722FB14E0DDF826009DF8D8
:104E90002A609DF82B7004BAFFF7ECF910B1B6FB4D
:104EA000F0F100E0002100943B46324615A0019449
:104EB000FEF70CFB002109A8FFF7D2FC00283FF702
:104EC00071AF1DB0F0BD000048000020ECD100081B
:104ED000E0150020F4D200085B4E45542D4E4F4E95
:104EE00043455D20466F7277617264656420257565
:104EF00020627974657320746F20486F73740D0A93
:104F0000000000005B434849502D5245475D206139
:104F10007369633D25752028616464723D3078258E
:104F200030325829207265673D307825303258205C
:104F300076616C3D30782530386C582028256C75AA
:104F4000290D0A002DE9FC41050055D02C6A002CE2
:104F500052D000266682A16A4FF03C024B1C4FF4EF
:104F600080374FF6FF7009D01E31B1FBF2F1B94224
:104F700001D3014601E001B90121A182E16A4B1C84
:104F80000AD01E31B1FBF2F3BB4201D3034601E06C
:104F900003B901236381E381216B4B1C0AD01E31CD
:104FA000B1FBF2F2BA4201D3024601E002B901229A
:104FB000A28122826289A1898A4201D301B16681DC
:104FC000E179C90701D0206A08E0217F7F2901D853
:104FD000FF2003E0C02901D36FF07F400090606A9A
:104FE00001900A21204600F05BFE01AB6A4604F105
:104FF0001C01284603F0AEFCBDE8FC8170B52948D1
:1050000004684CE0206AA0B3417991B3818A69B108
:10501000418A491C89B24182828A914206D1204646
:1050200000F0C0FC204600F043FE37E0018A19B1D1
:105030004A1E0282012906D0C189D1B14A1EC2810D
:10504000012917D02AE0256A20466979012905D06F
:105050000A2903D0052901D004291FD100F028FB1B
:10506000A88A698A401A022818DB00EBD070400831
:10507000288213E0256A20466979012903D00A298C
:1050800001D005290AD100F0EFFCA889698A401AED
:10509000022803DB00EBD0704008E8812468002C74
:1050A000B0D170BDE80000202DE9F04799461646C2
:1050B0000D4607000ED06DB14FF49A7A4FF420726E
:1050C0005146382003F0DEFCB0F1000803D0032E77
:1050D00006D102E00020BDE8F087687903280BD1F3
:1050E000A879254C08B1606805E0FCF721FA23494E
:1050F0000968484060602860D8F80440514620465E
:10510000FBF7ACF801202070607097F83000A070B9
:10511000286802F075FD6060082E0AD0042E08D0C1
:10512000072E06D0032E06D16879052801D0042861
:1051300001D17868E060002039182218401C91F8ED
:105140002A1080B211770628F6D30D48C4F8EC0077
:1051500004F1F001012335220C46002000F04EF945
:105160003246214600F051F9B9F1000F01D0A9F8FB
:1051700000004046AFE7000050010020E8F7FF1FA5
:105180006382536310B5064C2078401E10F0FF0078
:10519000207004D1A06807F0EFFC0020A06010BDD3
:1051A000500100202DE9FE4F046A07464FF0000928
:1051B00006212046C4F81C9000F072FD02AB0122CB
:1051C00021463846FFF770FF060041D07168022380
:1051D000F0318A4639225546BDF8080000F00EF934
:1051E000ADF808003A8D294600F047F9ADF80800FF
:1051F0003A46294600F00DF9ADF80800032337229E
:10520000294600F0FBF8DFF88480ADF8080000259F
:10521000514618F80520BDF8080000F0F6F86D1C9E
:10522000EDB2ADF80800032DF2D33246514680B2FC
:1052300000F02BF916484323CDE900701348154AB6
:10524000401E3146806807F0CFFC304603F061FD18
:10525000A079FF2801D2401CA071C1B2062902D258
:105260000120884000E03C2000EB4001C1EBC01071
:105270004FF6FF7101EAC0004FF4FA7100F2F3102B
:10528000B0FBF1F020814846BDE8FE8F51010020BF
:10529000A4CE0008A8CE00081B4810B504682FE073
:1052A000206AF8B10189012903D9A1F10101018125
:1052B00025E024D14FF000010181216A48790C28B2
:1052C00006D0062804D0012806D0032811D016E005
:1052D0002046FFF767FF12E088790528204602D8AC
:1052E00000F032FC0BE000F05DFB204600F0E0FC3B
:1052F00005E088790228EBD2204600F04BFA2468BA
:10530000002CCDD110BD0000E800002070B5046A6B
:105310000020184D20626062E878174E08B1F068EE
:10532000A062287908B1306901E0A06A4008E06213
:10533000687908B1706903E0A06AC0EBC000C008DA
:1053400020630869E061A87938B1B06902F058FCBF
:105350002062E07940F0010002E0E07920F00100F5
:10536000E071E879002803D0F06902F049FC60623E
:1053700070BD00005C0100201057002010B5104CDB
:105380002078A8B907F0E6FBA060B0B1417A4422CA
:1053900041F0200141720B4907F070FA432209499C
:1053A000A06807F0C7FA00220749A06807F0DFFBF2
:1053B0002078401C2070002010BD4FF0FF3010BD41
:1053C00050010020A4CE0008A1580008016A00295D
:1053D00013D04B790022042B0CD004DC002B0CD012
:1053E000032B04D106E0052B04D00A2B02D08A71CE
:1053F000FFF7D8BE8A7100F0CDB970470A54401C3F
:1054000080B20B54401C80B270470A54401C80B2DA
:1054100070472DE9F0410546506A14460E46C8B162
:10542000FAF727FFB0B1646AC5F14101884200D3A1
:1054300008460746C3B20C2231462846FFF7DEFF76
:1054400005E014F8012B31462846FFF7DEFF05463C
:105450007F1EF6D22846BDE8F081130E0B54401C87
:1054600080B2130C0B54401C80B2130A0B54401C26
:1054700080B20A54401C80B27047130A0B54401C7F
:1054800080B20A54401C80B27047FF230B54401C6A
:1054900080B2002302E00B54401C80B24428FAD3AF
:1054A000F03081B2104603F091BC00002DE9F04FBE
:1054B00087B08246002004907B480021C1600161D2
:1054C000BAF80A002C2814D3774FF024BAF8080051
:1054D0006FF005090C375646059404E0621A401A2D
:1054E000366894B280B226B17189A142F6D9029091
:1054F000B1E06FF0010007B0BDE8F08FA01C80B2F2
:105500004FF0FF380190A042F3D37389621C93429D
:1055100003D903982044407803E0306808B140681C
:1055200000783429054624D007DC89B1012912D03E
:10553000032914D0332908D117E035292ED0362974
:1055400030D03A2932D03B2935D0002591B317E02D
:1055500000200546FAE704287ED1062303E004254F
:1055600004287DD307239846F0E7042878D1032345
:10557000F9E7012874D10599F02971D14FF000089D
:105580002044801CB0F5803FB3D284B2F5B3002034
:10559000CDF8000017F8080098B14FE001285FD15E
:1055A0000123E0E704285BD10223DCE7042857D17C
:1055B0000423D8E703E0042852D10523D3E794B2AB
:1055C0003CE0042D01D2284600E004208346024638
:1055D00069463046019B03F011FB584589D1042DE3
:1055E00019D9A8073CD1012007F80800009802F05B
:1055F00007FB2E4A2D1FEDB242F8280001980199B1
:10560000001D80B28842FFF474AF00E016E008F19C
:1056100001080190BEE7042D02D0012D20D103E046
:10562000009802F0EDFA01E09DF8000000900120E2
:105630001E4907F80800009A41F828207089A04206
:1056400010D8211A8CB20299081A80B202908442B2
:105650009AD2366806B100E002E07068039002E07A
:10566000484648E73EB10298844204D20398015D5F
:10567000FF297FF443AF387848B10C480021006817
:10568000397001280DD0022804D0032807D00498CF
:105690000028E6D000202C2404906C201BE7012079
:1056A00004906C24EC2016E75001002010570020D5
:1056B0002DE9FC47046A07460421204600F0F0FA71
:1056C00001AB032221463846FFF7EEFC060041D02D
:1056D00071680223F031894639224D46BDF8040035
:1056E000FFF78CFEADF804003A8D2946FFF7C5FEA2
:1056F000ADF80400032337222946FFF77FFEDFF8C9
:105700008C80ADF804000025494618F80520BDF846
:105710000400FFF77AFE6D1CEDB2ADF80400032D16
:10572000F2D33A46494680B2FFF773FEADF8040063
:1057300032464946FFF7A9FE14480097401E43230E
:10574000134A3146806807F031FA0546304603F0C7
:10575000E0FA01E04FF0FF35A079FF2801D2401CAC
:10576000A071C0B20A2803D24FF47A71484301E015
:1057700042F2107080B24FF4FA7100F2F310B0FBF5
:10578000F1F020812846BDE8FC870000510100208F
:10579000A8CE00082DE9FC47046A074603212046ED
:1057A00000F07EFA01AB032221463846FFF77CFC6D
:1057B000060055D071680223F031894639224D46E2
:1057C000BDF80400FFF71AFEADF804004FF41072A4
:1057D0002946FFF752FEADF8040004233222294681
:1057E000FFF70CFEADF80400E06902F009FA02468A
:1057F0002946BDF80400FFF730FEADF8040003238E
:1058000037222946FFF7FAFDDFF88C80ADF8040057
:10581000002500BF18F805204946BDF80400FFF731
:10582000F4FD6D1CEDB2ADF80400032DF2D33A4641
:10583000494680B2FFF7EDFDADF804003246494617
:10584000FFF723FE14480097401E4323134A3146B6
:10585000806807F0ABF90546304603F05AFA01E0DC
:105860004FF0FF35A079FF2801D2401CA071C0B2D3
:105870000A2803D24FF47A71484301E042F21070D3
:1058800080B24FF4FA7100F2F310B0FBF1F0208116
:105890002846BDE8FC87000051010020A8CE000882
:1058A0002DE9F0413B48516816464468256A002DB1
:1058B0006BD02879002868D070892C2865D30878A7
:1058C000022862D1002094F8302008E023180F1835
:1058D00093F82A303F7FBB4257D1401CC0B282426E
:1058E00001D90628F2D3486802F08AF9296888426B
:1058F0004BD129463046FFF7D9FD98BB2649487859
:1059000080B3264A77681079052804D0062813D07A
:10591000022828D039E06879012805D0032803D06F
:10592000042801D0052830D139462046FFF7EEFC87
:105930002046FFF707FB28E06879032805D00128F7
:1059400003D0042801D005281FD10C21206A00F0C3
:10595000A7F9134B20461A46114602F0FBFF2046DA
:10596000FFF720FC11E0687906280ED12546246A4D
:10597000887850B100202081906802F041F9A06140
:105980003869E061284600F0DFF83046BDE8F041B4
:1059900003F0BFB9985600205C010020105700208A
:1059A000A4CE00082DE9FE43046A0746002C55D01A
:1059B0006079002852D0A06902900025A561E561B8
:1059C000256265622563E562A562A58265822582FE
:1059D000E581384600F0A6F900282946204635D052
:1059E00000F05EF901AB072221463846FFF75CFB69
:1059F000060024D071680423F03136228846BDF8B1
:105A00000400FFF7FBFCADF80400029802F0F8F880
:105A100002464146BDF80400FFF71FFDADF8040043
:105A200032464146FFF731FD0D480097432302AA55
:105A30003146806807F0BAF8304603F06AF9094B3E
:105A400038461A46114602F085FF01E000F028F9B9
:105A50002079002802D0FFF795FB2571BDE8FE8371
:105A600050010020A4CE00082DE9FC47046A074637
:105A70000521204600F014F901AB032221463846E7
:105A8000FFF712FB060042D071680223F03189460D
:105A900039224D46BDF80400FFF7B0FCADF8040014
:105AA0003A8D2946FFF7E9FCADF8040003233722BD
:105AB0002946FFF7A3FCDFF88C80ADF80400002531
:105AC000494618F80520BDF80400FFF79EFC6D1C40
:105AD000EDB2ADF80400032DF2D33A46494680B248
