:020000040800F2
:1000000080100020FD010008850700087D0700081A
:1000100081070008F1040008D51100080000000065
:10002000000000000000000000000000850D000836
:10003000F50400080000000075080008E10D000844
:10004000170200081702000817020008170200082C
:10005000170200081702000817020008170200081C
:10006000170200081702000817020008170200080C
:1000700017020008170200081702000817020008FC
:1000800017020008170200081702000817020008EC
:1000900017020008170200081702000817020008DC
:1000A00017020008170200081702000817020008CC
:1000B00017020008170200081702000817020008BC
:1000C00017020008170200081702000817020008AC
:1000D000170200086D0E000817020008170200083A
:1000E000170200081702000817020008170200088C
:1000F000170200081702000817020008170200087C
:10010000170200081702000817020008170200086B
:10011000170200081702000817020008170200085B
:10012000170200081702000817020008170200084B
:100130001702000800F002F800F050F814A696E844
:10014000000CB244B344DA4501D100F047F8BAE8F4
:100150000F000FA696E83000A5EB040504EB060798
:10016000AAEB0704A7F101074FEA15154FEA34146B
:10017000A4F10104AC4201D300F030F813F0010FF8
:1001800018BFFB1A43F0010300F001F8DBE7184742
:100190004C3700006C370000103A24BF78C878C193
:1001A000FAD8520724BF30C830C144BF04680C607D
:1001B000704700007047000000230024002500263F
:1001C000103A28BF78C1FBD8520728BF30C148BFBA
:1001D0000B6070471FB51FBD10B510BD00F04EF984
:1001E0001146FFF7F7FF02F079F800F06CF903B45D
:1001F000FFF7F2FF03BC00F073F9000009488047E5
:1002000009480047FEE7FEE7FEE7FEE7FEE7FEE7F8
:10021000FEE7FEE7FEE7FEE704480549054A064B10
:1002200070470000F10D000835010008800A002029
:1002300080100020800C0020800C0020032A40F257
:10024000308010F0030C00F0158011F8013BBCF178
:10025000020F624498BF11F801CB00F8013B38BF90
:1002600011F8013BA2F1040298BF00F801CB38BF9E
:1002700000F8013B11F0030300F09180083AC0F050
:10028000088051F8043B083A51F804CBA0E8081064
:10029000F5E7121D5CBF51F8043B40F8043BAFF397
:1002A0000080D20724BF11F8013B11F801CB48BFF1
:1002B00011F8012B24BF00F8013B00F801CB48BF27
:1002C00000F8012B7047431A28BF9A427FF6B6AF59
:1002D00010441144032A40F2268010F0030F1EBF81
:1002E00011F8013D521E00F8013D10F0030F7FF49C
:1002F000F6AF11F0030300F09780083AC0F00B80CE
:1003000051F8043D083A51F804CD40F8043D40F856
:1003100004CDFFF7F3BF121D5CBF51F8043D40F858
:10032000043DAFF30080D20724BF11F8013D11F85E
:1003300001CD48BF11F8012C24BF00F8013D00F8A1
:1003400001CD48BF00F8012C70474FF0000200B506
:10035000134694469646203922BFA0E80C50A0E8E8
:100360000C50B1F12001BFF4F7AF090728BFA0E896
:100370000C5048BF0CC05DF804EB890028BF40F862
:10038000042B08BF704748BF20F8022B11F0804FA4
:1003900018BF00F8012B704770477047704710B5C1
:1003A000203AC0F00B80B1E81850A0E81850B1E82E
:1003B0001850A0E81850203ABFF4F5AF5FEA027C6D
:1003C00024BFB1E81850A0E8185044BF18C918C09D
:1003D000BDE810405FEA827C24BF51F8043B40F83E
:1003E000043B08BF7047D20728BF31F8023B48BF23
:1003F00011F8012B28BF20F8023B48BF00F8012B61
:100400007047431A28BF9A427FF6C9AF104411447F
:1004100010F0030F1EBF11F8013D521E00F8013D00
:1004200010F0030F7FF4F6AF103AC0F00A8010B559
:1004300031E9185020E91850103ABFF4F9AFBDE87F
:100440001040530724BF31E9081020E9081044BFC9
:1004500051F8043D40F8043D12F0030F08BF704707
:10046000D20728BF31F8023D48BF11F8012C28BF40
:1004700020F8023D48BF00F8012C7047754600F097
:100480002BF8AE4605006946534620F00700854626
:1004900018B020B5FFF7C0FEBDE820404FF00006C1
:1004A0004FF000074FF000084FF0000BAC46ACE8EF
:1004B000C009ACE8C009ACE8C009ACE8C00921F04B
:1004C00007018D46704710B50446AFF30080204603
:1004D000BDE81040FFF78BBE0048704708000020C1
:1004E00001491820ABBEFEE726000200704700005D
:1004F000FFE7FEE77047000080B582B00190FFE79C
:100500000198411E019128B1FFE74FF47A7000F085
:1005100003F8F5E702B080BD81B00090009800EBD1
:10052000C000C0004EF21401CEF2000108604EF28D
:100530001801CEF20001002008604EF21001CEF248
:10054000000105200860FFE74EF21000CEF2000027
:100550000068C003002801D4FFE7F5E74EF2100160
:10056000CEF200010420086001B0704782B0019013
:100570000020009042F20001C4F2020108680090DD
:10058000009800F038000090019A00981043009005
:100590000098086002B0704788B00790069100206C
:1005A0000590049003900290019000900698C07806
:1005B00000F00F0005900698C078C006002806D508
:1005C000FFE706988178059808430590FFE70698AD
:1005D000007800284BD0FFE70798006801900020C2
:1005E0000390FFE7039807283DD8FFE70399012010
:1005F0008840029006980088029908400490049868
:10060000029988422AD1FFE703988000029002995C
:100610000F20884000900099019888430190059828
:10062000029900FA01F10198084301900698C078F8
:10063000282806D1FFE703990120884007994861DF
:100640000BE00698C078482806D1FFE703990120FF
:10065000884007990861FFE7FFE7FFE7FFE7039896
:1006600001300390BEE7019807990860FFE70698FC
:100670000088B0F5807F50DBFFE707984068019065
:1006800000200390FFE70398072842D8FFE703986C
:1006900000F1080101208840029006980088029924
:1006A000084004900498029988422DD1FFE70398EE
:1006B0008000029002990F208840009000990198D4
:1006C000884301900598029900FA01F101980843C6
:1006D00001900698C078282808D1FFE7039800F118
:1006E00008010120884007994861FFE70698C07813
:1006F000482808D1FFE7039800F10801012088404D
:1007000007990861FFE7FFE7FFE7039801300390CF
:10071000B9E7019807994860FFE708B07047000003
:1007200082B00190ADF8021000208DF80100019810
:10073000C068BDF80210084204D0FFE701208DF820
:10074000010003E000208DF80100FFE79DF80100A3
:1007500002B0704782B00190ADF80210BDF80200FF
:100760000199486102B0704782B00190ADF8021063
:10077000BDF802000199086102B07047FFE7FEE78B
:10078000FFE7FEE77047000084B00390002002906E
:1007900001900F2000900398C078B8B3FFE74EF6A1
:1007A0000C50CEF200000068C043C0F3022002905B
:1007B0000298C0F10400019000980299C84000908E
:1007C00003984078019988400290039880780099B6
:1007D000014002980843029002980001029002989A
:1007E000039909784EF20042CEF200028854039831
:1007F000027802F01F01012088401C2101EAD20189
:100800004EF20012CEF2000288500EE003980278F9
:1008100002F01F01012088401C2101EAD2014EF2A2
:100820008012CEF200028850FFE704B0704700004B
:1008300082B08DF8070000919DF90700B0F1FF3FED
:100840000CDCFFE7009800019DF8071001F00F0194
:100850004EF61452CEF20002885409E000980001CE
:100860009DF907104EF20042CEF200028854FFE7D5
:1008700002B070477047000082B001908DF80310FD
:100880009DF8030048B1FFE7019A41F21801C4F254
:10089000020108681043086008E0019A41F218015B
:1008A000C4F20201086890430860FFE702B0704795
:1008B00041F20001C4F20201086840F00100086042
:1008C00041F20402C4F2020210680023CFF2FF03D7
:1008D0001840106008684FF6FF73CFF6F6631840B3
:1008E0000860086820F480200860106820F4FE008A
:1008F0001060086820F0A050086041F20801C4F2BE
:1009000002014FF47F00086041F22C01C4F20201A1
:1009100000200860704700008BB00A900020009013
:10092000099008900790069005900490039002901B
:1009300041F20400C4F20200006800F00C000990CB
:100940000998019040B1FFE7019804280BD0FFE718
:10095000019808280ED073E00A9941F20020C0F2F5
:100960007A00086073E00A9947F64000C0F27D10F3
:1009700008606CE041F20400C4F20200016801F476
:1009800070110891006800F4803007900898800C7E
:10099000089008980D2804D0FFE7089802300890C6
:1009A00002E006200890FFE7079848B9FFE708989B
:1009B00040F60011C0F23D0148430A9908603EE04C
:1009C00041F22C00C4F20200016801F4803105916B
:1009D000006800F00F0001300490059860B9FFE74F
:1009E000049947F64000C0F27D10B0FBF1F0089981
:1009F00048430A99086021E041F22C00C4F2020049
:100A00000168CAB2012101EB12110391006800F4E0
:100A10007061022000EB11200290039947F640001C
:100A2000C0F27D10B0FBF1F0029948430499B0FB8D
:100A3000F1F0089948430A990860FFE7FFE706E0EC
:100A40000A9941F20020C0F27A000860FFE741F203
:100A50000400C4F20200016801F0F0010991099953
:100A600009090991099A43F2B271C0F600018A5C42
:100A700006920A9B1A68DDF818C022FA0CF25A6036
:100A8000026802F4E0620992099A120A0992099A2C
:100A90008A5C06920A9B5A68DDF818C022FA0CF2AA
:100AA0009A60026802F460520992099AD20A099285
:100AB000099A895C06910A9A5168069BD940D160CF
:100AC000006800F4404009900998800B099009994A
:100AD00043F2AE70C0F60000405C06900A99C86808
:100AE000069AB0FBF2F008610BB0704784B08DF845
:100AF0000F000020029001908DF803009DF80F0078
:100B0000400902900298012807D1FFE741F2000056
:100B1000C4F202000068019012E00298022807D196
:100B2000FFE741F22000C4F202000068019006E0F5
:100B300041F22400C4F2020000680190FFE7FFE7E1
:100B40009DF80F0000F01F00029001980299C84024
:100B5000C00720B1FFE701208DF8030003E000206B
:100B60008DF80300FFE79DF8030004B07047000014
:100B700041F20400C4F20200006800F00C0070476B
:100B800082B001900020009041F20401C4F2020101
:100B900008680090009820F0F0000090019A0098FA
:100BA000104300900098086002B0704782B0019036
:100BB00041F20001C4F20201086820F480300860AC
:100BC000086820F48020086001980090B0F5803F0C
:100BD00005D0FFE70098B0F5802F09D011E041F271
:100BE0000001C4F20201086840F48030086009E0A6
:100BF00041F20001C4F20201086840F4A02008603C
:100C000000E0FFE702B0704782B001900020009042
:100C100041F20401C4F2020108680090009820F437
:100C2000E0600090019A00981043009000980860DE
:100C300002B0704782B001900020009041F20401A0
:100C4000C4F2020108680090009820F460500090FF
:100C5000019A009840EAC20000900098086002B033
:100C60007047000081B08DF803009DF803006821F3
:100C7000C4F24221086001B07047000082B00190C8
:100C80000020009041F22C01C4F20201086800909B
:100C9000009820F470600090019A00981043009032
:100CA0000098086002B0704781B08DF803009DF88D
:100CB00003006021C4F24221086001B070470000C7
:100CC00083B0029001910020009041F20401C4F22F
:100CD000020108680090009820F4741000900298B7
:100CE000019A02430098104300900098086003B0F6
:100CF0007047000083B0029001910020009041F203
:100D00002C01C4F202010868009000984FF6F072BE
:100D1000CFF6FE72104000900298019A02430098AC
:100D2000104300900098086003B0704782B00190B3
:100D30000020009041F22C01C4F2020108680090EA
:100D4000009820F0F0000090019A00981043009065
:100D50000098086002B0704782B0019000200090B7
:100D600041F20401C4F2020108680090009820F0EA
:100D700003000090019A00981043009000980860CA
:100D800002B07047704700007047000080B582B025
:100D900000900098B0F1807F03D3FFE7012001901D
:100DA0001BE0009820F07F4001384EF21401CEF293
:100DB000000108604FF0FF300F21FFF739FD4EF2C0
:100DC0001801CEF20001002008604EF21002CEF2AF
:100DD0000002072111600190FFE7019802B080BD79
:100DE00040F27401C2F200010868013008607047E7
:100DF00080B541F20001C4F20201086840F0010030
:100E0000086041F20402C4F2020210680023CFF22B
:100E1000FF031840106008684FF6FF73CFF6F663C3
:100E200018400860086820F480200860106820F4EA
:100E3000FE001060086820F0A050086041F2080130
:100E4000C4F202014FF47F00086041F22C01C4F2A9
:100E5000020100200860FFF797FF4EF60851CEF21E
:100E600000014FF00060086080BD000080B501F017
:100E70005DF880BD82B001908DF803109DF80300ED
:100E800030B1FFE70199888940F40050888105E07E
:100E90000199888920F400508881FFE702B07047EB
:100EA00082B00190ADF8021000208DF80100BDF86D
:100EB0000200B0F5007F01D1FFE7FFE7019800884D
:100EC000BDF802100840000420B1FFE701208DF8B2
:100ED000010003E000208DF80100FFE79DF801000C
:100EE00002B0704786B00590ADF812100020039054
:100EF000029001908DF80300BDF8120040F66A11CF
:100F0000884201D1FFE7FFE79DF8120040090190F8
:100F1000BDF8120000F01F000290029901208840E5
:100F200002900198012806D1FFE70598818902986F
:100F30000840029010E00198022806D1FFE70598CA
:100F4000018A02980840029005E00598818A02987B
:100F500008400290FFE7FFE79DF813000390039914
:100F60000120884003900598018803980840039069
:100F7000029838B1FFE7039820B1FFE701208DF810
:100F8000030003E000208DF80300FFE79DF8030055
:100F900006B0704786B00590ADF812108DF811209C
:100FA00000200390029001900090BDF8120040F6DE
:100FB0006A11884201D1FFE7FFE7059800909DF88C
:100FC000120040090390BDF8120000F01F000290CB
:100FD00002990120884001900398012804D1FFE77D
:100FE00000980C3000900CE00398022804D1FFE731
:100FF00000981030009003E0009814300090FFE754
:10100000FFE79DF8110030B1FFE7019A00990868E9
:101010001043086005E0019A009908689043086051
:10102000FFE706B07047000080B58CB00B900A91C6
:101030000020099008900790069005900A988089F2
:1010400008B1FFE7FFE70B9805900B98008A09901D
:1010500009984CF6FF71084009900A98C1880998D0
:101060000843099009980B9908820B988089099088
:1010700009984EF6F311084009900A9988880A8960
:1010800010434989014309980843099009980B992D
:1010900088810B98808A099009984FF6FF41084093
:1010A00009900A98818909980843099009980B9931
:1010B00088826846FFF730FC059843F60001C4F2C9
:1010C0000101884203D1FFE70398089002E00298EB
:1010D0000890FFE70B988089000400280AD5FFE7F5
:1010E0000898192148430A9909684900B0FBF1F0B2
:1010F000079009E00898192148430A99096889006E
:10110000B0FBF1F00790FFE7079848F21F51C5F2D6
:10111000EB11A0FB01016FF00F0000EA51000990F4
:10112000079A09980009642100FB112006900B988A
:1011300080890004002810D5FFE70699322000EBD3
:10114000C10048F21F51C5F2EB11A0FB0110C0F322
:1011500042110998084309900FE00699322000EBEC
:10116000011048F21F51C5F2EB11A0FB0110C0F3B2
:101170004311099808430990FFE709980B990881E2
:101180000CB080BD81B00090009880886FF35F2024
:1011900001B0704782B00190ADF80210BDF80200B6
:1011A0006FF35F200199888002B0704781B0009092
:1011B00000994FF41650086000990020888000992B
:1011C000C88000990881009A0C215181009988817A
:1011D00001B07047FFE7FEE780B5CAB08DF8270180
:1011E00048918DF81F214693469828B1FFE79DF856
:1011F0001F010630049004E09DF81F0105300490A3
:10120000FFE704988DF8170155208DF81700AA20E4
:101210008DF818009DF827018DF81900469828B11F
:10122000FFE79DF81F010430039004E09DF81F01C3
:1012300003300390FFE703988DF81A000DF11700B3
:10124000043048999DF81F21FEF7F8FF4698C8B171
:10125000FFE70DF11700029002309DF81F110231D7
:1012600000F0B0F8029AADF814009DF815009DF852
:101270001F1111440871BDF814009DF81F1111448D
:1012800048710FE00DF11700019002309DF81F1119
:101290000231C9B200F0E4F8019A9DF81F1111441F
:1012A0000871FFE79DF817110DF1170000F05AFEC5
:1012B0004AB080BD80B58AB08DF82700002002902A
:1012C000ADF82400522009A9022200F08BFC0298FC
:1012D0006421ADF82210ADF8200040F27400C2F293
:1012E000000000680790FFE740F27400C2F20000BF
:1012F00000680799411ABDF8222000209142019010
:101300000AD2FFE7BDF820109DF827200020914267
:10131000B8BF01200190FFE70198C00700284CD01A
:10132000FFE700208DF81000FFE79DF81010002067
:101330000A2900900FDCFFE740F27400C2F20000BF
:1013400000680799411ABDF822200020914238BF59
:1013500001200090FFE70098C00790B1FFE70DF172
:101360000F0001F055FB08B9FFE7DEE79DF80F001D
:101370009DF81020511C8DF810100DF111018854AA
:10138000D3E79DF810000B2816D1FFE79DF8151044
:101390009DF8160040EA0120ADF80C00BDF80C00E5
:1013A00041F26631884206D1FFE7BDF820000130E6
:1013B000ADF82000FFE7FFE796E7BDF820000AB090
:1013C00080BD000083B00290ADF806104FF6FF70AC
:1013D000ADF804000020ADF80200FFE7BDF8020000
:1013E000BDF80610884236DAFFE70298BDF8021011
:1013F000415CBDF8040080EA0120ADF80400002043
:101400008DF80100FFE79DF8010007281CDCFFE7CD
:10141000BDF804000004002809D5FFE7BDF804105A
:1014200041F2210080EA4100ADF8040005E0BDF87A
:1014300004004000ADF80400FFE7FFE79DF801005D
:1014400001308DF80100DEE7FFE7BDF80200013052
:10145000ADF80200C2E7BDF8040003B07047000019
:1014600082B001908DF803101F208DF8020000203B
:101470008DF80100FFE79DF801009DF803108842F8
:1014800015DAFFE79DF8020001999DF80120895CBB
:10149000414043F2C270C0F60000405C8DF802008B
:1014A000FFE79DF8010001308DF80100E3E79DF8AA
:1014B000020002B07047000080B58CB00B900A911A
:1014C0000B9908A89022EB2300F05AFA099807908C
:1014D0000B98079902F0F6F806900698002101F0A3
:1014E0005EFE28B9FFE7069880F000400690FFE70F
:1014F00006984BF21771C3F6D10101F050FE08B9FE
:10150000FFE755E006980021C4F2C80101F047FE4C
:1015100020B9FFE70B9800F0B5FB49E00B9807995D
:1015200001F036FE01464FF0FF30002918BF0120C0
:10153000059007980021C4F2C801009101F050FE07
:1015400001F044FF009904900B9801F049FE01F06E
:101550003DFF0390FFE704980399884224D0FFE7FA
:101560000599049808440490049801F04BFF002169
:10157000C4F2C80101F0DAFF0290029800F082FB89
:1015800040F27400C2F2000000680190FFE740F2F0
:101590007400C2F2000000680199401A0A9988425A
:1015A00001D2FFE7F3E7D6E70B9800F06BFBFFE70C
:1015B0000CB080BD40F26C00C2F2000000787047B1
:1015C00040F26D00C2F200000078704782B0ADF8C2
:1015D00006000091009900200870009A14215170B3
:1015E000009988700099C8709DF8070000990871EB
:1015F000BDF806000099487102B0704780B5B8B0D8
:101600008DF8DB003591082001210D91FFF734F9A9
:101610000D98ADF8D00010208DF8D30003208DF880
:10162000D20040F60040C4F201000C9034A9FEF74D
:10163000B3FF0C980D99FFF797F800203390FFE760
:10164000339802280BDCFFE74EF20000C1F6FF7072
:1016500000F0E6FBFFE7339801303390F0E7052018
:10166000C0F60020CDF8C7004AF65520C0F252500F
:10167000319031A8072100F0D3FA9DF8DB00FFF785
:1016800019FE3090309818B9FFE70020379074E1C8
:10169000309840F26D01C2F2000108700720C0F2DC
:1016A0000030CDF8BB004AF60000C0F200702E906A
:1016B0004AF65520C0F651100A902D902DA80B2106
:1016C0000B9100F0ADFA0A980B994CF20F12CDF87D
:1016D000AF2041F60002C0F6FF722B922A902AA892
:1016E00000F09EFA00F070FA30994FF4807090FB91
:1016F000F1F040F26C01C2F20001087000208DF898
:10170000A700FFE79DF8A7003099884212DAFFE7AB
:101710009DF8A70040F26C01C2F20001097848432D
:10172000C0B200F089FAFFE79DF8A70001308DF8FC
:10173000A700E7E748F20050C0F64040CDF8A3000C
:1017400043F60040C0F28000079028904AF65520EA
:10175000C0F651100890279027A80B21099100F09E
:101760005FFA079A0898099948F20003C1F6201316
:10177000CDF897302592249024A800F051FA4FF428
:10178000807000F06DFA089809990022C1F60352A2
:10179000CDF88B204FF4A8422292219021A800F08E
:1017A0003FFA0898099941F21112C0F21162CDF87E
:1017B0007F2045F60002C1F202121F921E901EA861
:1017C00000F02EFA09997C20C0F20330CDF87300A6
:1017D00042F60040C7F600401C904AF65520C0F67D
:1017E00041101B901BA800F01BFA00208DF86B0025
:1017F000FFE79DF86B003099884280F29380FFE705
:101800009DF86B0040F26C01C2F200010978484378
:101810008DF86A009DF86A008DF86400A8208DF8A4
:101820006500002004908DF8660007208DF86700A1
:1018300001208DF86800F02001908DF869004120AA
:10184000059019A90622069200F0CCF9019B049993
:101850000598069A9DF86AC08DF85EC04FF0180C86
:101860008DF85FC08DF860308DF86110C1238DF860
:1018700062308DF863100DF15E0100F0B3F9049948
:101880000598069A9DF86A308DF858303C230293EB
:101890008DF85930802303938DF85A308DF85B1002
:1018A00085218DF85C1040218DF85D1016A900F09F
:1018B00099F9DDF808C00399049B0598069A9DF8EC
:1018C0006AE08DF852E08DF853C08DF854108DF811
:1018D00055308DF8561020218DF857100DF152011A
:1018E00000F080F9DDF808C0039B04990598069A7A
:1018F0009DF86AE08DF84CE08DF84DC08DF84E30C3
:101900008DF84F1082218DF85010AA218DF85110BA
:1019100013A900F067F9FFE79DF86B0001308DF81F
:101920006B0066E7359800F0ADF912907020ADF8C5
:101930004600BDF8C030BDF84600129A69460860FE
:1019400000200021C3F6F07100F00EFA4FF600708F
:10195000C1F6FF40CDF83F004AF20040C0F29000CF
:101960000F904AF65520C0F651100E900EA80B218C
:1019700000F056F930983790FFE7379838B080BDBF
:1019800080B58AB0049101460498059109908DF8BC
:1019900023208DF8223000204860086048608DF8D0
:1019A0002100FFE79DF82100FF287DDCFFE79DF87F
:1019B00023008DF82000FFE79DF820009DF82210FD
:1019C00088426ADCFFE701208DF81F00FFE79DF8E1
:1019D0001F0007285ADCFFE701208DF81E00FFE7F3
:1019E0009DF81E0007284ADCFFE79DF82100013022
:1019F00001F008FD0021C4F2C81101F097FD01902B
:101A00009DF8200001309DF81F1048439DF81E10DE
:101A1000484301F0F7FC0146019801F0E1FB069014
:101A200006980999029101F04DFE02990246059827
:101A300022F000420392406801F044FE0146039800
:101A400021F0004101F0ABFB90B9FFE705999DF84B
:101A50002100013008709DF82000013048709DF889
:101A60001F0088709DF81E00C87006984860FFE748
:101A7000FFE79DF81E0001308DF81E00B0E7FFE77C
:101A80009DF81F0001308DF81F00A0E7FFE79DF8CB
:101A9000200001308DF820008EE7FFE79DF821003F
:101AA00001308DF821007DE70AB080BD80B58AB095
:101AB0000890079100208DF80F0040F27400C2F2E8
:101AC000000000680290FFE79DF80F000B2857DC2C
:101AD000FFE740F27400C2F2000000680299401A69
:101AE0000799884203D3FFE70020099069E00DF1D0
:101AF000070000F08DFF08B9FFE7E5E79DF80F004C
:101B000080B9FFE79DF80700AA280AD1FFE79DF8F2
:101B100007009DF80F20511C8DF80F1004A9885460
:101B2000FFE72CE09DF80F0001281DD1FFE79DF88D
:101B3000070055280AD1FFE79DF807009DF80F2000
:101B4000511C8DF80F1004A988540CE09DF8070073
:101B50008DF810009DF80700AA38B0FA80F040090F
:101B60008DF80F00FFE709E09DF807009DF80F20B2
:101B7000511C8DF80F1004A98854FFE7FFE7A3E775
:101B800004A802300821FFF76BFC8DF806009DF8D1
:101B90001A0000F01F008DF805009DF806009DF862
:101BA0000510884203D0FFE70020099009E008995A
:101BB0000498059A069B8B604A6008600120099092
:101BC000FFE709980AB080BD80B582B00020ADF86B
:101BD000060053200DF10601022200F003F802B0C6
:101BE00080BD000080B584B08DF80F0002918DF8A3
:101BF00007209DF80F0002999DF807200023FFF7AA
:101C0000EBFA04B080BD000080B582B0019001996C
:101C1000212052220123FFF7DFFA02B080BD00002D
:101C200080B582B001908DF8031001989DF80310E3
:101C300000F098F902B080BD80B582B08DF8070041
:101C40009DF807008DF8050000208DF80600402063
:101C50000DF105010222FFF7C5FF02B080BD0000B3
:101C600080B584B0ADF80E00BDF80E0002A9019158
:101C7000FFF7ACFC019951200622FFF7B3FF04B037
:101C800080BD000080B586B00590059903A890221C
:101C9000EB23FFF775FE9DF80C008DF80B009DF807
:101CA0000D008DF80A009DF80E008DF809009DF8D2
:101CB0000F008DF808009DF80B00322148439DF875
:101CC0000A10B0FBF1F0410940204A2988BF50209A
:101CD0008DF807009DF809109DF80800013800F004
:101CE0000F0040EA011010388DF8060000208DF832
:101CF000000008208DF801009DF807008DF8020013
:101D00009DF80B008DF803009DF80A008DF8040083
:101D10009DF806008DF80500512069460622FFF760
:101D200061FF049806B080BD80B584B003900020A8
:101D30008DF8060010208DF807009DF80F008DF833
:101D40000800BDF80E008DF809000398000A8DF810
:101D50000A0003988DF80B0051200DF106010622B0
:101D6000FFF740FF04B080BD80B590B08C460146BF
:101D70001298CDF83CC00E910D92ADF83230ADF80E
:101D80003000BDF8300000F053FBADF82E00BDF878
:101D9000320000F04DFBADF82C00BDF82E0001F034
:101DA00049FB01464FF09F4001F01AFA0190BDF83F
:101DB0002C0001F03FFB0146019801F011FA0A9056
:101DC0000A9801F049F9002204920023C4F2490361
:101DD00001F044F8029003910D9801F03DF902469C
:101DE00002980B46039900F0AFFE049A0023C3F655
:101DF000E07301F033F8099108900E980F99089A52
:101E0000099B01F02BF8079106900698079900F0BE
:101E1000F7FF05900598FFF787FF10B080BD000021
:101E200080B584B003900398400BADF80A00002001
:101E30008DF80400A4218DF8051090218DF806106E
:101E40008DF807009DF80B008DF80800BDF80A001A
:101E50008DF80900512001A90622FFF7C3FE04B046
:101E600080BD000080B58EB044F2040001210691CF
:101E7000FEF702FD4FF40070ADF8340018208DF825
:101E8000370003208DF8360040F60000C4F2010050
:101E900001900DA90291FEF77FFB019802994FF482
:101EA0008062ADF8342004228DF83720FEF774FBF1
:101EB00009A80390FFF77AF903994FF4E1300790EE
:101EC000099000200490ADF82800ADF82A00ADF884
:101ED0002C000C22ADF82E20ADF8300043F60000A7
:101EE000C4F201000590FFF79FF80598069A40F2AA
:101EF0002551FFF74FF80499069825228DF82020E8
:101F00008DF821008DF822108DF8230008A8FEF727
:101F10003BFC05980699FEF7ADFF079840F20001DB
:101F2000C2F2000108600EB080BD000080B582B032
:101F300043F60000C4F2010040F22551FEF7D2FF43
:101F400068B1FFE743F60000C4F20100FFF71AF999
:101F50008DF807009DF8070000F082FDFFE702B052
:101F600080BD000080B582B00190ADF80210002065
:101F7000ADF80000FFE7BDF80000BDF80210884290
:101F80001CDAFFE7FFE743F60000C4F201008021FE
:101F9000FEF786FF08B9FFE7F5E70198BDF80010E6
:101FA000415C43F60000C4F20100FFF7F3F8FFE7DD
:101FB000BDF800000130ADF80000DCE7FFE743F6B4
:101FC0000000C4F201004021FEF76AFF08B9FFE7F4
:101FD000F5E702B080BD000080B584B08DF80F0039
:101FE0000291ADF8062000930098BDF8061001316B
:101FF00000F06CFD9DF80F0000990871BDF8060017
:10200000012808DBFFE7009805300299BDF806209B
:10201000FEF714F9FFE7BDF80600053080B204B002
:1020200080BD000080B58AB040F26800C2F20000B6
:10203000006808B9FFE755E00DF11D000A21FFF720
:1020400035FD08B9FFE74DE09DF8270000060028A0
:1020500001D4FFE746E09DF8240000F0F8008DF879
:102060001000DDF81F000590DDF81F104FF47F0011
:1020700000EA012040EA01604FF47F4202EA1122A7
:10208000104440EA11600390FFF794FA8DF80B00BA
:102090000398C0F347409DF80B10B0FBF1F08DF8AA
:1020A00011000398400E8DF812009DF8240000F0F6
:1020B00007008DF813000020069040F67A00C2F267
:1020C000000001906946086004A801231A4600F048
:1020D0002FFB01460198ADF80810BDF8081000F07C
:1020E0001FF8FFE70AB080BD82B00190ADF8021082
:1020F000002002B0704700007047000081B00090DF
:10210000002001B0704700000120704782B00190AC
:10211000ADF802104FF0FF3002B07047704700007A
:1021200082B00190ADF802104FF0FF3002B070475E
:1021300080B5D0B04F90ADF83A1140F26800C2F2CD
:102140000000006808B9FFE730E04F98BDF83A1189
:1021500019AA00F0F5F908B9FFE727E09DF8640037
:102160008DF812009DF865008DF813004D980590CC
:102170004C9806904B9807903A9818900DF11200E1
:1021800003900E3019A90191A83120220292FEF786
:1021900055F80199029A03982E308831FEF74EF8CF
:1021A0000398FFF731FD00F07BF8FFE750B080BDEA
:1021B00080B584B00390ADF80A100398BDF80A10FA
:1021C0000DF1060200F070FA08B9FFE70DE0BDF866
:1021D000060001F02FF96421FFF76EF9BDF8060043
:1021E00001F028F9FFF74EFDFFE704B080BD0000C5
:1021F00080B586B01020029001210191FEF73CFBD2
:1022000001992020FEF738FB02984FF40051ADF8F9
:1022100014108DF81700032003908DF8160041F27A
:102220000000C4F2010005A90491FEF7B5F9029A75
:10223000039804994FF44053ADF814308DF81720EB
:102240008DF8160041F20040C4F20100FEF7A4F937
:1022500000F002F806B080BD80B582B041F2000007
:10226000C4F201004FF400510191FEF77DFA41F2F2
:102270000040C4F2010000904FF48051FEF76AFA6A
:1022800000980199FEF766FA02B080BD80B541F270
:102290000000C4F201004FF40051FEF75BFA80BD6C
:1022A00080B541F20000C4F201004FF40051FEF786
:1022B00037FA48B1FFE741F20000C4F201004FF4E1
:1022C0000051FEF747FA08E041F20000C4F20100B5
:1022D0004FF40051FEF748FAFFE780BD80B58AB0A1
:1022E0000020099000F03EFBFFF782FFFFF704FF9C
:1022F000FFF714FF6420FEF7FFF843F6C200C0F6B4
:102300000000FFF7FBFE68B9FFE7FFE7FFF7BEFF3E
:10231000C8200390FEF7F0F8FFF79EFF0398FEF742
:10232000EBF8F3E7FFF79EFD4FF4FA70FEF7E4F8E1
:10233000062048F20001C4F2F231FFF75FF908907D
:102340000899002002900029C8BF012040F26801CE
:10235000C2F200010860FFF799FFC8200190FEF764
:10236000CBF8FFF779FF0198FEF7C6F8FFF78EFF6D
:102370000198FEF7C1F8FFF76FFF029807900690EB
:10238000FFE740F27400C2F200000068059040F2DE
:102390007000C2F20000006888BBFFE7059807994B
:1023A000401A40F6B931884229D3FFE705980790D3
:1023B00043F6D600C0F6000040F6BC71FFF794FE6D
:1023C00004900498012819D1FFE740F27001C2F28D
:1023D000000101200860FFF759FF41F20040C4F2FC
:1023E00001004FF48051FEF7BFF940F67801C2F2C8
:1023F00000010020088000F08BFAFFE7FFE700F003
:102400000DFAFFF70FFE40F27000C2F20000006804
:1024100060B1FFE705980699401AB0F57A7F05D9B3
:10242000FFE705980690FFF73BFFFFE7A9E70000ED
:1024300081B0ADF80200BDF802000138ADF802002D
:10244000BDF8020040EA5000ADF80200BDF80200FD
:1024500040EA9000ADF80200BDF8020040EA10101A
:10246000ADF80200BDF8020040EA1020ADF802000D
:10247000BDF80200013080B201B0704780B584B071
:10248000FFE740F67800C2F20000018840F27800D1
:10249000C2F200000DF10E0203AB00F07BF98DF8E3
:1024A0000B009DF80B0008B9FFE746E040F278000A
:1024B000C2F20000053001909DF80B00014600912A
:1024C000012808D0FFE7009805280AD0FFE7009808
:1024D00006280CD00CE00198BDF80C10FFF728FE80
:1024E00007E00198BDF80C10FFF762FE01E000E084
:1024F000FFE7BDF80E0040F67801C2F2000109883E
:10250000884210DAFFE7BDF80E3040F27800C2F2E0
:102510000000C11840F67802C2F200021288D21AF6
:10252000FDF7D1FEFFE7BDF80E2040F67801C2F2BC
:1025300000010888801A0880A3E704B080BD00006D
:1025400080B586B00490ADF80E100292BDF80E0072
:10255000712803DCFFE700200590A1E00298D42158
:10256000FDF7F3FE0020ADF806000498BDF8061054
:10257000405C02990870BDF806000130ADF8060015
:102580000498BDF80610405C02994870BDF806003A
:102590000130ADF8060002984078052804DBFFE71B
:1025A000029904204870FFE700208DF80500FFE73E
:1025B0009DF8050002994978884219DAFFE70298E8
:1025C0009DF8051000EB411002300499BDF806207B
:1025D00011442022FDF732FEBDF806002030ADF890
:1025E0000600FFE79DF8050001308DF80500DFE7E4
:1025F0000498BDF80610084400F008F90299C1F8E3
:102600008400BDF806000430ADF80600029888305A
:102610000499BDF80620114420220092FDF70EFE19
:10262000009ABDF806002030ADF806000298A830E8
:102630000499BDF806301944FDF700FEBDF8060008
:102640002030ADF806000498BDF80610084400F0EC
:10265000DDF80299C1F8C800BDF806000430ADF8F5
:1026600006000498BDF80610084400F0CFF802995F
:10267000C1F8CC00BDF806000430ADF8060004989F
:10268000BDF80610084400F0C1F80299C1F8D00066
:10269000BDF806000430ADF8060001200590FFE704
:1026A000059806B080BD000084B00290ADF8061019
:1026B0000092BDF80600032803DCFFE7002003902A
:1026C00010E002980178407840EA012000990880E3
:1026D00002988178C07840EA012000994880012062
:1026E0000390FFE7039804B07047000080B586B000
:1026F0000590049105980268436801A8009000F0D5
:10270000F9F900980599097A8DF80C1009300599A6
:10271000498900F0CDF900990598007B8DF80F00EC
:10272000049B04200C22FFF757FC06B080BD00007C
:1027300080B58AB00C9909900793069209980078A1
:102740008DF80600099840788DF807000DF1060015
:10275000009002300999496800F0B8F900980630F5
:102760000999896800F0B2F900980A3040F27401C2
:10277000C2F2000109684FF47A72A1FB022300F053
:10278000B9F900990C9B02201222FFF725FC0AB030
:1027900080BD000080B586B00490ADF80E100292A6
:1027A0000193BDF80E00042804DCFFE700208DF83B
:1027B000170027E0049800F029F800900098B0F581
:1027C000006F03D8FFE7009820B9FFE700208DF8DD
:1027D000170017E0BDF80E0000990431884204D2BA
:1027E000FFE700208DF817000CE0009804300299F4
:1027F00008800098013801990880049800798DF8C4
:102800001700FFE79DF8170006B080BD81B000906B
:102810000098006800BA01B07047000080B582B02F
:1028200040F27000C2F20000006808B9FFE76CE0F7
:10283000FFF76AFC48B1FFE740F27001C2F2000105
:1028400000200860FFF708FD5FE040F67800C2F264
:1028500000000088C0F50060ADF80600BDF8060075
:10286000FF2807DCFFE740F67801C2F200010020F4
:102870000880FFE740F67800C2F20000028840F2CC
:102880007800C2F20000104440F2FF71891A89B248
:10289000FFF73CFC00900098012827DBFFE7009A37
:1028A00040F67801C2F20001088810440880FFF762
:1028B000E5FD41F20040C4F201004FF40051FDF784
:1028C0002FFF48B1FFE741F20040C4F201004FF48E
:1028D0000051FDF73FFF08E041F20040C4F2010063
:1028E0004FF40051FDF740FFFFE70EE00098B0F114
:1028F000FF3F09DCFFE740F27001C2F20001002057
:102900000860FFF7A9FCFFE7FFE702B080BD000009
:1029100080B586B0012003900290FEF751FE8DF83D
:1029200010004FF48070ADF8120040F26800C2F25F
:1029300000000068B0FA80F0400940008DF81400F3
:1029400040F67A01C2F20001009102A8FFF7CEFE24
:1029500001460098ADF80610BDF80610FFF7E0FB41
:1029600006B080BD80B582B0FDF7A2FF4FF4803085
:10297000FEF71CF9FFE73120FEF7B8F808B9FFE7CA
:10298000F9E700200421FEF7B5F94FF480304FF449
:102990004011FEF795F90120FEF786F9FFE739208F
:1029A000FEF7A4F808B9FFE7F9E702200190FDF768
:1029B000DDFD00200090FEF7E3F84FF48060FEF7A5
:1029C00023F90098FEF736F90198FEF7C5F9FFE7FD
:1029D000FEF7CEF8082801D0FFE7F9E74020FEF720
:1029E000A5F94FF40060FEF749F90120FEF73AF926
:1029F000FFE73B20FEF77AF808B9FFE7F9E741F275
:102A00007010C0F20100FEF7C1F902B080BD0000F5
:102A100082B0009040F67A20C2F20000008840F6B2
:102A20007C21C2F200010988884203D1FFE700201F
:102A3000019012E040F67C21C2F200010A8840F6C3
:102A40007A10C2F20000805C009A10700888013091
:102A5000C0B2088001200190FFE7019802B07047E2
:102A600081B08DF8030040F67A20C2F200000088A1
:102A70000130C0B2ADF80000BDF8000040F67C2186
:102A8000C2F200010988884210D0FFE79DF80300D8
:102A900040F67A21C2F200010B8840F67A12C2F2A7
:102AA0000002D054BDF800000880FFE701B0704775
:102AB00082B00190ADF802109DF8030001990870F2
:102AC0009DF802000199487002B0704782B00190F1
:102AD00000919DF8030001990870BDF8020001996A
:102AE00048700098000A0199887000980199C87090
:102AF00002B0704786B005900393029207200190C0
:102B0000FFE7019800281DD4FFE702980399019A76
:102B10004FEAC20C2023A3EBC20301FA03F320FA0D
:102B20000CF018436FF01F0303EBC203D940002BD6
:102B300058BF08460599891AC871FFE701980138FE
:102B40000190DEE706B070472DE9C04130B4DFF8F0
:102B5000A8C23CEA111418BF3CEA131400F0F0803C
:102B60001CEA111481EA030544EAD57418BF1CEA73
:102B7000131500F0CB80A4EB050404F17F7404F579
:102B800000344FF0004545EAC12145EAC32341EA3C
:102B9000505143EA52534FEAC0204FEAC2229942B1
:102BA00008BF904200F0A0804FEA13650FF248166C
:102BB000765D4FEA134506FB05F7C7F1807706FB04
:102BC00007F74FEAD737A7FB03687642A7FB06CE85
:102BD000C8F5803838BFA8F1010807FB08E6A6FB56
:102BE000028C4FF0000EE6FB03CED8F100086FEA2E
:102BF0000C0C5CF1000C6FEA0E0E4EF1004EA6FBC1
:102C00000C584FF00007E6FB0E87A1FB08C6A0FB9F
:102C100007CE16EB0E064FF0000545F10005E1FB6F
:102C2000076515F1E04E7EBFA4F580345FEA4606E5
:102C30006D4116F1800745F100054FEA172747EA75
:102C400005674FEA15254FEA0666A6F1DE46B6F19E
:102C5000805F20D9384605EBC47124F0010C01EBEC
:102C60000C11BCF1FE6F02D8F0BCBDE8008124421B
:102C70005CBF01F5801E9EEAC47F02D4F0BCBDE8B3
:102C80000081244200F13980A1F1C041F0BCBDE8CF
:102C9000004100F0DBB94FEAD02040EA41504FEA52
:102CA000D1214FEAD22242EA43524FEAD323A7FB73
:102CB000028607FB036605FB02661EEA0E0F58BF7D
:102CC000A6EB0056B6EB00564FEA520E4EEAC37E14
:102CD00018EB0E0E56EB530EBCD518EB02085E41F6
:102CE0007F1C55F10005B5E74FF480154FF0000744
:102CF0004FF000064FF00008ACE701F1C04101F0D1
:102D000000414FF00000F0BCBDE800810CEA131553
:102D100011EA0C1F00D00CE013EA0C1F00F0258014
:102D20004FF0000081EA030101F00041F0BCBDE872
:102D30000081F0BCBDE8004181EA030100F086B9E2
:102D4000F0BCBDE8004170B500F032F9097EFC3EF0
:102D500000F007B84FF0000081EA030101F00041E4
:102D6000704781EA030100F071B9F0BCBDE8004191
:102D700022494FF000007047FFFDFBF9F7F5F4F230
:102D8000F0EEEDEBE9E8E6E4E3E1E0DEDDDBDAD806
:102D9000D7D5D4D3D1D0CFCDCCCBCAC8C7C6C5C464
:102DA000C2C1C0BFBEBDBCBBBAB9B8B7B6B5B4B37B
:102DB000B2B1B0AFAEADACABAAA9A8A8A7A6A5A466
:102DC000A3A3A2A1A09F9F9E9D9C9C9B9A9999982A
:102DD0009797969595949393929191908F8F8E8ECD
:102DE0008D8C8C8B8B8A898988888787868585845A
:102DF00084838382828181800000FF070000F87F46
:102E00004FEA1153A3F58063D3F11E03A8BFD3F19A
:102E1000200C08DB4FF0004242EAC12252EA505235
:102E200032FA03F0704709420BD4102BC4BF0020C4
:102E3000704703F5787CBCF1FF3F05D04FF0FF30C1
:102E400070474FF00000704770B500F0B1F800BF58
:102E50004992248000207047F0E7000070B5DFF849
:102E600048C11CEA111E1EBF1CEA13159EEA0C0F76
:102E700095EA0C0F00F06F8081EA03044EEAD47EDD
:102E8000AE4421EA4C1123EA4C1341F4801143F47F
:102E90008013AEF17F7EA1FB024CA0FB03653619C7
:102EA00055EB0C05A1FB034C4CF10003A0FB021CED
:102EB00016EB0C06654153F10003094218BF46F0BA
:102EC000010613F4007F0BD14FEA03314FEA0530BE
:102ED00041EA155140EA165034036FF003020AE04C
:102EE0004FEAC3214FEAC52041EA555140EA565006
:102EF000F4026FF0020202EB2E4201EB025585EA6A
:102F0000CE710AD05FEA440C18BF24F0004450F19F
:102F1000000041F1000120EAD47040F2FE7C6245DD
:102F200000D270BDA84214BF4FF080444FF040441F
:102F3000002E08BF0024BEF1806FA8BFA1F1C041E0
:102F4000BDE8704080F2828001F1C04101F0004193
:102F50004FF0000070470CEA13159EEA0C0F18BFE3
:102F600095EA0C0F06D081EA030E4FF000000EF038
:102F7000004170BD00F01CF88900013E00F007B868
:102F800000F009B84FEA430C5FEA5C5C08D081EAC4
:102F9000030100F05BB84FEA410C5FEA5C5CF6D1DC
:102FA00002494FF0000070470000FF070000F87F63
:102FB0000EF1020E2EF0030E5EF8046B364205D4BD
:102FC000012A43EB030515F5001F12D8012841EB38
:102FD000010C1CF5001F0CD80ED14FEAD17C0CEB74
:102FE0004C0C0CF1020C15F5001F08BF4CEBD37C08
:102FF00004E04FF0080C01E04FEAD37C0CEB4C05E9
:1030000026FA05F606F00706B6F1040C06D20EEB1A
:10301000860CBDE870404CF0010C6047DFE80CF016
:10302000090B02024FF00041A1F500214FF0000012
:1030300070BD19461046012851EB010418BFD4F5A4
:10304000001484BF002001F0004170BD0808A0F505
:1030500000114FEA3101704743004FEAD30C4FEAA9
:103060003C0C43401FBF40070CF1605113F0FE4F72
:1030700070471CF0006F03D10CF000410020704736
:103080000CF0004343EA507040EACC0010B500F069
:10309000CEFA00BF000000924FEA0001FFF7D6BF52
:1030A0004FF00041A1F500214FF0000070470000F3
:1030B00090EA010F48BF81F0004100F10A83421AF3
:1030C0003CBF801A89184FEAD052A2EBD1534FF07F
:1030D0007F4C1CEA410F18BF9CEA026F00F03B8056
:1030E0004FF0004C4CEA00204CEA012121FA03FC8D
:1030F00010EB0C0C1ED202F1FF325FEA1C2040EBF9
:10310000C25038BF70471CF07F0F4FEA400C18BF09
:10311000BCF17F4F38BF7047C3F12003994008BF0F
:1031200020F00100BCF17F4F38BF7047A0F1C040D4
:1031300000F0C3BA4FEA3C00000A40EBC25028BF7F
:103140001CF0FF0F4FEA400CE6D018BFBCF17F4FD8
:1031500038BF7047EAE79CEA026F05D010EA5C0FBF
:1031600008BF00F00040704710B500F060FA00BFE3
:1031700064FBBE3E10B500F0F5F80CBF0120002046
:1031800010BD10B500F0EEF814BF0120002010BDF6
:1031900010B500F063F98CBF0120002010BD10B500
:1031A00000F05CF92CBF0120002010BD10B500F02C
:1031B00089F994BF0120002010BD10B500F082F9FC
:1031C00034BF0120002010BD401058BFC0F1404066
:1031D000491058BFC1F140418142EFF30080704770
:1031E0004FF47F0C1CEAD0121EBF1CEAD11392EAE6
:1031F0000C0F93EA0C0F00F0858090EA010F48BF96
:1032000042F4807240F4000C41F400002CF07F4145
:1032100020F07F4000B5A2EB030281420FF2081CB0
:10322000ACEB504E9EF800E0C0F100004FEA4E0EAD
:1032300000FB0EFC38BF49004FEA2C1C0CFB0EF3C0
:103240004FEACE1E0EEB635E4FEA112C0EFB0CFC18
:103250004FEAC1214FEA1C5300FB031102F5FA02A9
:103260004FEA112C0EFB0CFC4FEA01314FEADC4C0B
:1032700000FB0C1142EB2242C14228BF09184CEB63
:1032800003335DF804EB10EB410143EBC250B2F5A0
:103290007C0F38BF704729D512F0F00F1CBF00F12A
:1032A000C04000F00040704700818283848586879B
:1032B00088898B8C8D8E8F919293959697999A9CF5
:1032C0009D9FA0A2A3A5A7A8AAACAEB0B2B3B5B764
:1032D000B9BCBEC0C2C5C7C9CCCED1D4D7D9DCDF3A
:1032E000E2E6E9ECF0F3F7FAFE0000004FEA400CEA
:1032F0000CF1807CBCF17E4F28BF7047B0F1C0401C
:1033000000F0DBB90CEAD11390EA010F48BF42F498
:103310008072624538BF634507D213F47F0F16D021
:1033200080EA010000F00040704710B500F07FF91E
:10333000097EFC3E00F005B880EA010000F0004084
:10334000704780EA010000F0004000F0B6B912F4C6
:103350007F0F04BF0248704780EA010000F0ADB95A
:103360000000C07F50EA010C00F113801CF5000F33
:1033700058BFBCF5000F01D48842704707D710F53D
:10338000000F58BF11F5000F15D4884270478942CD
:1033900070471CF5000F04D5BCF5000FF7D581422E
:1033A00070474FF0807C1CEB400F38BF1CEB410F87
:1033B00001D28142704710B500F039F992244900DA
:1033C0004FF000504FF08051FFF7FEBE41000B0E52
:1033D000D3F19E0208D950F400034FEA032323FAE5
:1033E00002F048BF4042704710B500F020F900BF1E
:1033F00049922480002070476FF0004282EA20004A
:103400007047000010F0004148BF4042B0FA80F31E
:1034100010FA03F2C3F19D030BD051EAC35101EB43
:103420001220530638BF704700F1010008BF20F09A
:1034300001007047B0FA80F310FA03F2C3F19D0364
:103440000AD0D90501EB1220530638BF704700F1AE
:10345000010008BF20F001007047000050EA010C95
:1034600000F113801CF5000F58BFBCF5000F01D40C
:103470008842704707D710F5000F58BF11F5000FAD
:1034800015D488427047894270471CF5000F04D557
:10349000BCF5000FF7D5814270474FF0807C1CEBE4
:1034A000400F38BF1CEB410F01D28142704710B56D
:1034B00000F0BDF8922449004FF080504FF00051C9
:1034C000FFF782BE50EA010C00F113801CF5000FDB
:1034D00058BFBCF5000F01D48842704707D710F5DC
:1034E000000F58BF11F5000F15D48842704789426C
:1034F00070471CF5000F04D5BCF5000FF7D58142CD
:1035000070474FF0807C1CEB400F38BF1CEB410F25
:1035100001D28142704710B500F089F89224490029
:103520004FF000504FF08051FFF74EBE4FF47F0C2C
:103530001CEAD0121EBF1CEAD11392EA0C0F93EAC8
:103540000C0F00F0478090EA010F48BF42F48072F0
:103550004FF0004C4CEA00204CEA012102EB030240
:10356000A0FB0113A2F50002002918BF43F00103DC
:103570005B0028BF4FEA330342EB22425FEA132C81
:103580004CEBC2502EBFBCEB436FB2F57C0F7047C3
:103590004FEA036CBCF1004F08BF20F00100B2F508
:1035A0007C0F38BF70470BD582F0FF0212F5803FC9
:1035B000C8BF704700F1C040D8BF00F0004070475E
:1035C00000F5000C5FEA4C0C48BF7047B0F1C040FA
:1035D00000F073B80CEAD11390EA010F48BF42F42F
:1035E0008072624538BF634504D280EA010000F072
:1035F0000040704710B500F01AF800BF8900013E86
:1036000000F007B800F009B85FEA410C5FEA1C6CF3
:1036100008D080EA010000F050B85FEA400C5FEA91
:103620001C6CF6D14FF00040A0F5800070470EF101
:10363000020E2EF0030E5EF8044B244204D44FEA2F
:103640004102B2F17F4F11D84FEA4003B3F17F4FEF
:103650000CD80ED14FEAD07C0CEB4C0C0CF1020CC8
:10366000B2F17F4F08BF4CEBD17C04E04FF0080C67
:1036700001E04FEAD17C0CEB4C0324FA03F404F094
:103680000704B4F1040C06D20EEB840CBDE8104024
:103690004CF0010C6047DFE80CF0070802024FF025
:1036A0000040A0F5800010BD0846420018BFD2F1CE
:1036B000807288BF00F0004010BDFF2141EAD05069
:1036C000C005704790EA010F48BF81F000413FF507
:1036D000F6AC421A04D882F00042A0EB020011447A
:1036E0004FEAD052A2EBD1534FF07F4C1CEA410F6E
:1036F00018BF9CEA026F4AD04FF0004C4CEA002001
:103700004CEA012121FA03FCB0EB0C0C0FD412F0AF
:10371000FE0F36D05FEA4C001DD5001240EBC250C0
:1037200038BF70471CF03F0F18BF70470BE05FEACF
:103730001C20A2F1010240EBC25038BF70471CF0C0
:103740007F0F18BF7047C3F12003994014BF401E7C
:1037500020F0010070474FEA1223800808BF70472D
:10376000B0FA80FCA2EB0C02CCF1280C60FA0CF051
:1037700093EA122F04BF00EBC25070474FEAC370A8
:103780007047130A5FEADC1008BF7047F6E79CEA4F
:10379000026F04D010EA5C0F08BF0020704710B51C
:1037A000FFF745FF40DFF63E81F00040704702041E
:1037B00006080000000001020304010203040607DA
:1037C000080900050A0F14111E1B080D02071C1919
:1037D000161310151A1F04010E0B181D12170C09D1
:1037E000060300050A0F14111E1B080D02071C1901
:1037F000161310151A1F04010E0B181D12170C09B1
:10380000060300050A0F14111E1B080D02071C19E0
:10381000161310151A1F04010E0B181D12170C0990
:10382000060300050A0F14111E1B080D02071C19C0
:10383000161310151A1F04010E0B181D12170C0970
:10384000060300050A0F14111E1B080D02071C19A0
:10385000161310151A1F04010E0B181D12170C0950
:10386000060300050A0F14111E1B080D02071C1980
:10387000161310151A1F04010E0B181D12170C0930
:10388000060300050A0F14111E1B080D02071C1960
:10389000161310151A1F04010E0B181D12170C0910
:1038A000060300050A0F14111E1B080D02071C1940
:1038B000161310151A1F04010E0B181D12170C09F0
:1038C00006030008DCABCDEFC0A80164C0A801016D
:1038D000FFFFFF007017C0A8013200000039000888
:1038E00000000020080000009801000808390008C6
:1038F0000800002078100000B80100080000000057
:0839000025C4010000000000D5
:0400000508000135B9
:00000001FF
