:020000040800F2
:1000000068060020890100081F0300081703000884
:100010001B030008110300089903000800000000FA
:1000200000000000000000000000000023030008A2
:100030001503000800000000210300082903000840
:10004000A3010008A3010008A3010008A301000800
:10005000A3010008A3010008A3010008A3010008F0
:10006000A3010008A3010008A3010008A3010008E0
:10007000A3010008A3010008A3010008A3010008D0
:10008000A3010008A3010008A3010008A3010008C0
:10009000A3010008A3010008A3010008A3010008B0
:1000A000A3010008A3010008A3010008A3010008A0
:1000B000A3010008A3010008A3010008A301000890
:1000C000A3010008A3010008A3010008A301000880
:1000D000A3010008A3010008A3010008A301000870
:1000E000A3010008A3010008A301000800F002F822
:1000F00000F03AF80AA090E8000C82448344AAF188
:100100000107DA4501D100F02FF8AFF2090EBAE885
:100110000F0013F0010F18BFFB1A43F0010318473B
:10012000DC030000FC030000103A24BF78C878C14B
:10013000FAD8520724BF30C830C144BF04680C60ED
:10014000704700000023002400250026103A28BF35
:1001500078C1FBD8520728BF30C148BF0B60704739
:100160001FB51FBD10B510BD00F031F81146FFF7E7
:10017000F7FF00F01DF900F04FF803B4FFF7F2FFAE
:1001800003BC00F057F800000948804709480047C1
:10019000FEE7FEE7FEE7FEE7FEE7FEE7FEE7FEE737
:1001A000FEE7FEE704480549054A064B7047000094
:1001B00039030008ED0000086800002068060020F0
:1001C000680200206802002070477047704775463B
:1001D00000F02CF8AE4605006946534620F00700B3
:1001E000854618B020B5FFF7DDFFBDE820404FF091
:1001F00000064FF000074FF000084FF0000B21F011
:100200000701AC46ACE8C009ACE8C009ACE8C009DD
:10021000ACE8C0098D46704710B50446AFF30080C6
:100220002046BDE81040FFF7A8BF00000048704717
:100230000400002001491820ABBEFEE726000200A2
:100240007047000070B50024102030490860052078
:1002500000F0A4F820202D49091F086080200860C4
:10026000022000F09BF8802028490860022000F05E
:1002700095F880202549091F0860022000F08EF8BB
:10028000802022490860022000F088F820201F49C1
:1002900008608020091F0860022000F07FF880209D
:1002A0001A490860022000F079F880201749091FD8
:1002B0000860022000F072F88020144908600220D3
:1002C00000F06CF8002518E080201049091F086034
:1002D000022000F063F86006040E0C480C38006839
:1002E00000F0400008B144F0010480200749086094
:1002F000022000F053F8681CC5B2082DE4DB102082
:100300000249091F0860204670BD00001408014022
:1003100000BFFEE7704700BFFEE700BFFEE7704783
:10032000704770477047000002480068401C014950
:10033000086070470000002010B51348006840F0C6
:1003400001001149086008464068104908400E49FC
:100350004860084600680E4908400B490860084696
:10036000006820F4802008600846406820F4FE0001
:1003700048604FF41F008860FFF7D4FF4FF0006023
:100380000449086010BD0000001002400000FFF8A2
:10039000FFFFF6FE08ED00E000BFFEE7C0EBC00186
:1003A00000E000BF0A1EA1F10101FAD17047000070
:1003B00000250027A8460026A9464748806940F046
:1003C0000C00454988614548006880B244490843AB
:1003D000424908604FF0333042490860081D006808
:1003E0006FF30B0000F23330091D08600846006807
:1003F00020F4702040F4403008601020374910315C
:100400000860FF203749103108604FF44070091D23
:10041000086041F63F704FF0E0214861002088619C
:100420000720086156E030480468A01BC82810D394
:100430002646FFF707FF82464FF4A5710AFB01F03D
:10044000C11700EB1161C1F30725632D00DD6325A2
:1004500000BFA4EB0900B0F5FA7F08D3A1462148FC
:100460000C30006880F480501E490C310860A4EB09
:10047000080003282DD3A0464FF4407019491431C9
:10048000086097B90A2095FBF0F01849085C1549F7
:100490000C31096801F47F41084312490C310860AE
:1004A0008815091D0860012713E00A2095FBF0F16B
:1004B00000FB11500D49085C0A490C31096801F430
:1004C0007F41084307490C3108604815091D086041
:1004D000002700BFA7E7000000100240000801400D
:1004E00000003334000C014000000020F00400083C
:1004F000C0F9A4B0999282F8809000001C05000811
:100500000000002004000000280100082005000869
:100510000400002064060000440100080000000000
:04000005080000ED02
:00000001FF
