:020000040800F2
:100000009840012069010008D5080008D1080008BF
:10001000D3080008EB0400088B0C00080000000067
:10002000000000000000000000000000090A0008B5
:10003000ED04000800000000D7080008D10A0008FD
:100040008301000883010008830100088301000880
:100050008301000883010008830100088301000870
:100060008301000883010008830100088301000860
:100070008301000883010008830100088301000850
:100080008301000883010008830100088301000840
:100090008301000883010008830100088301000830
:1000A0008301000883010008830100088301000820
:1000B0008301000883010008830100088301000810
:1000C0008301000883010008830100088301000800
:1000D000830100083D0B000883010008830100082C
:1000E000830100088301000883010008000000006C
:1000F0000000000000000000000000000000000000
:1001000000000000000000008301000883010008D7
:1001100083010008830100088301000883010008AF
:10012000830100088301000883010008830100089F
:10013000830100088301000883010008830100088F
:10014000830100088301000883010008830100087F
:10015000DFF810D000F0A8F900480047B9240008E3
:10016000AFF30080984001200648804706480047CA
:10017000FEE7FEE7FEE7FEE7FEE7FEE7FEE7FEE757
:10018000FEE7FEE7E10A000851010008202A04DB2F
:10019000203A21FA02F00021704721FA02F3D04000
:1001A000C2F12002914008431946704710B5431A26
:1001B000934209D28318881803E010F8011D03F850
:1001C000011D521EF9D210BD40EA01039B0703D066
:1001D00009E008C9121F08C0042AFAD203E011F886
:1001E000013B00F8013B521EF9D210BDD2B201E032
:1001F00000F8012B491EFBD270470022F6E710B52C
:1002000013460A4604461946FFF7F0FF204610BD84
:1002100030B504460020034600E05B1C934203D245
:10022000E05CCD5C401BF8D030BDF0B480EA010248
:10023000D40F4200B2EB410F02D2024608461146EB
:100240004A0042D0C30DDDB2C1F3C752AD1A202D12
:1002500035DAC1F3160141F4000204B15242C5F18E
:10026000200602FA06F12A411044B3EBD05F23D0F6
:10027000C4B1012DA0EBC35009DCF0BC4FF000422B
:1002800002EAC352DBB200F5000000F0DFB8400024
:1002900000F1807000EBC350A0F1807040EAD17093
:1002A000490009E0490841EAC071A0EBC35000F5DC
:1002B0000000400800EBC350F0BC00F0BEB8614243
:1002C000012202EB4101001BF6E7F0BC704781F010
:1002D0000041AAE780F00040A7E780EA010210B5DC
:1002E00002F00043400022D04A001FD0010E01EB73
:1002F0001261C0F35600C2F3560240F4000042F40B
:100300000002A0FB022000047F39140400D0401C2E
:1003100050EA124001D44000491EC2B20C0604EB60
:10032000D010401C4008802A02D003E0002010BDFD
:1003300020F00100002900DA0020184310BD30B47D
:1003400080EA010202F0004530F0004221F0004056
:1003500013D090B1C30DD40DC2F31601C0F3160033
:10036000E41A41F4000140F400027D34914201D3CB
:10037000641C00E04900002C02DA30BC0020704709
:100380004FF400000023914201D3891A034340082F
:100390004FEA4101F7D151B1914202D14FF00041F2
:1003A00005E002D24FF0010101E06FF0010103EB23
:1003B000C450284430BC00F040B8962300221146B7
:1003C00000F044B8002801DBC0F10040002901DB47
:1003D000C1F10041814270472DE9F05F05460020E0
:1003E00092469B4688460646814640241BE02846A6
:1003F000414647462246FFF7C9FE53465A46C01AB1
:10040000914110D311461846224600F05FF82D1A8C
:1004100067EB01084F4622460120002100F056F804
:1004200017EB00094E41201EA4F10104DFDC484611
:1004300031462A464346BDE8F09F0029A8BF7047D1
:10044000401C490008BF20F00100704710B4B0FA0A
:1004500080FC00FA0CF050EA010404BF10BC7047A5
:1004600049B1CCF1200421FA04F411FA0CF118BFBF
:10047000012121430843A3EB0C01CB1D4FEA00618E
:100480004FEA102042BF002010BC704700EBC35061
:1004900010440029A4BF10BC7047401C490008BF8D
:1004A00020F0010010BC7047064C074D06E0E068E4
:1004B00040F0010394E8070098471034AC42F6D3AB
:1004C000FFF74AFEF06A0008106B0008202A04DBE0
:1004D000203A00FA02F1002070479140C2F1200357
:1004E00020FA03F3194390407047FEE7704700007D
:1004F00010B586B00121480400F0FCF9012121204B
:1005000000F006FA0121082000F0B0F92020ADF833
:10051000140018208DF8170003208DF81600164CD3
:1005200005A9204600F04EF94021ADF81410042131
:100530008DF8171005A9204600F044F901A800F035
:1005400099FB4FF4E13001900020ADF80800ADF8C0
:100550000A00ADF80C000C21ADF80E10ADF810003B
:10056000064C01A9204600F01FFB0121204600F0A7
:10057000E7FA06B010BD000000140140004400403E
:1005800000B502464FF47A7302E0184600F004F812
:10059000521E501CF9D100BD00EBC000C1004FF04D
:1005A000E020416100218161052101610169C903E8
:1005B000FCD504210161704703484FF4E00141611B
:1005C0000021416070470000009002402DE9F04F8B
:1005D000DDE90B6ADDE9099700244FF0004BC6F313
:1005E0000D08A2F1010C14E000EB4415C5F800B0B1
:1005F000C5F8048004FB061EC5F808E0644506D271
:1006000004F1010E00EB4E1EC5F80CE000E0E860BE
:10061000641C9442E8D3002100254FF080767C1EB4
:1006200012E003EB41121660556001FB0A9CC2F810
:1006300008C0A14206D201F1010C03EB4C1CC2F828
:100640000CC000E0D360491CB942EAD30549044A12
:100650000A60C8600B6104488861BDE8F08F000043
:1006600080204102009002400620300401680029E9
:1006700001DA002070470168C90001D400207047EA
:100680000168090401D5002070470068C0F30B40E1
:10069000704700000248006800F001007047000049
:1006A000009002404178027841EA02214279837841
:1006B00042EA0362C37800791B0443EA0020024344
:1006C000064841F000410164426405490160054962
:1006D00041604FF481518161704700000080024009
:1006E0000C4C01000004008030B5144A144B1C6906
:1006F00024F01C0444F010044FF6FF7505EAC020F6
:1007000020434FF4F86404EA8111014321F0020010
:1007100040F00100186101E0521E05D01869C007C1
:10072000FAD1586980B230BD0648016841F0010134
:1007300001600168C907FCD1F3E70000A086010051
:100740000080024000900240C3F30D0141604FF071
:1007500000410160704700000248016841F001015A
:10076000016070470090024030B5134B134C62613A
:10077000226922F01C0242F010024FF6FF7505EAD2
:10078000C02010434FF4F86202EA8111014341F0A6
:10079000020040F00100206101E05B1E03D02069EF
:1007A000C007FAD130BD0648016841F0010101607F
:1007B0000168C907FCD130BDA0860100008002405D
:1007C000009002402DE9F0410022CC7804F00F03A4
:1007D000E40601D58C7823430C784FF00F0714F012
:1007E000FF0F4FF0010C1CD005680CFA02F40E88C4
:1007F0002640A64211D1960007FA06F825EA080518
:1008000003FA06F848EA0505CE78282E02D0482ECD
:1008100002D002E0446100E00461521C082AE4D3E3
:1008200005600A88FF2A1ED94568002202F10806E1
:100830000CFA06F40E882640A64210D1960007FA5C
:1008400006F825EA080503FA06F848EA0505CE7811
:10085000282E00D14461CE78482E00D10461521C6C
:10086000082AE3D34560BDE8F0810000F0B5154CDF
:10087000002801DAE36900E06368C0F30346420D33
:10088000120185B2C0F301579540032F07D0C20271
:100890000CD50322B240934343F0706209E023F089
:1008A0007062636823F07063636002E0AB4343F0FF
:1008B000706201B12A43002801DAE261F0BD626092
:1008C000F0BD0000000001404161704701617047C8
:1008D000FEE7FEE770477047054A002903D05169DB
:1008E0000143516170475169814351617047000074
:1008F00000100240054A002903D0D1690143D161AB
:100900007047D1698143D1617047000000100240F7
:10091000054A002903D091690143916170479169AB
:1009200081439161704700000010024070B5314B67
:10093000596801F00C01304A002928D02F4C0429B5
:1009400027D0082927D00260596801F0F001090971
:100950002B4A545C0168E14041605C6804F4E06447
:10096000240A145D21FA04F484605C6804F4605481
:10097000E40A125DD140C1605A6802F44042920B11
:100980001F4B1B1F9A5CB1FBF2F1016170BD02604D
:10099000DAE70460D8E7596801F470115A6802F484
:1009A0008032890C0D2901D0891C00E00621BAB1E2
:1009B000DA6A02F48035DA6A02F00F02521C9DB145
:1009C000DD6AC5F303156D1CDE6AC6F30326B61C8B
:1009D000B4FBF5F47443B4FBF2F24A430260B3E7AC
:1009E000084A51430160AFE7B4FBF2F24A430260A8
:1009F000AAE700000010024000127A0000366E01E3
:100A00000400002000093D00704700F001B800001C
:100A10000EB50022029201922A49086840F4803003
:100A200008604FF4A063086800F400300190029859
:100A3000401C0290019810B902989842F3D10868BE
:100A4000800302D50120019000E001920198012865
:100A500036D11D48026842F010020260026822F09E
:100A600003020260026842F00202026048684860C5
:100A700048684860486840F480604860086840F012
:100A800080700860114A00920868800103D40098C1
:100A9000401E0090F8D10098002811D0486820F03E
:100AA00003004860486840F00200486000924868CF
:100AB000C0F38100022803D00098401E0090F6D1B8
:100AC0000EBD00000010024000200240400D030057
:100AD00002480168491C01607047000018000020AE
:100AE00010B51248016841F0010101604168104AE7
:100AF0001140416001680F4A11400160016821F412
:100B000080210160416821F4FE014160016821F00B
:100B1000A05101604FF47F0181600021C162FFF7A5
:100B200074FF05494FF00060086010BD00100240DE
:100B30000000FFF0FFFFF6FE08ED00E000F008BC4B
:100B4000002904D0818941F4005181817047818955
:100B500021F40051818170470246002012880A4228
:100B600000D00120704770B5002440F66A12C1F32E
:100B7000421301F01F05012606FA05F2012B0CD0E5
:100B8000022B0DD0838A1340090A8E400088304022
:100B90000BB100B10124204670BD83891340F3E7F7
:100BA000038A1340F0E7000030B585B004460D46D7
:100BB000208A4CF6FF710840E98801432182A08910
:100BC0004EF6F3110840A9882A8911436A89024325
:100BD0001143A181A08A4FF6FF410840A989014332
:100BE000A1826846FFF7A2FE1D48844201D1039806
:100BF00000E00298A189090408D500EBC00101EBCF
:100C0000001029684900B0FBF1F007E000EBC001DB
:100C100001EB001029688900B0FBF1F06422B0FB01
:100C2000F2F109010B096FF018056B4300EB83002B
:100C3000A3891D044FF0320307D503EBC000B0FBBE
:100C4000F2F000F00700084306E003EB0010B0FBF1
:100C5000F2F000F00F000843208105B030BD000025
:100C6000003801408088C0F308007047C1F30801D4
:100C7000818070474FF41651016000218180C1804E
:100C800001810C22428181817047FEE70FB4054B40
:100C900010B503A9044A029800F018F810BC5DF8DA
:100CA00014FB0000411F0008F000002002E008C80B
:100CB000121F08C1002AFAD170477047002001E0D6
:100CC00001C1121F002AFBD1704700002DE9FF4F20
:100CD0008DB00F460546002606E025280BD0DDE93D
:100CE0000F1290476D1C761C28780028F5D111B0A2
:100CF0003046BDE8F08F0024A246A1460122E94912
:100D000000E0044315F8013F203B02FA03F00842DB
:100D1000F7D128782A2810D06FF02F022878A0F178
:100D20003001092914D80AEB8A0102EB410144F091
:100D3000020400EB010A6D1CF0E701CF5FEA000A34
:100D400003D544F40054CAF1000A44F002046D1CB7
:100D500028782E2817D115F8010F44F004042A280A
:100D60000ED06FF02F022878A0F1300109290AD89F
:100D700009EB890102EB410100EB01096D1CF2E76F
:100D800057F8049B6D1C28786C280FD006DC4C2883
:100D900017D068280DD06A2814D104E0742810D028
:100DA0007A280FD10DE044F400140AE044F48014D2
:100DB00001E044F440146978814202D104F58014C2
:100DC0006D1C6D1C28786E281ED00CDC632830D07A
:100DD00004DC00288BD0582811D19FE0642867D00C
:100DE00069280CD164E073282DD004DC6F2872D000
:100DF000702804D194E075286ED078286DD0DDE994
:100E00000F129047761C4BE1C4F30250022806D023
:100E1000032809D0042801CF09D0066040E101CFA2
:100E2000F117C0E900613BE101CF068038E10670AF
:100E300036E117F8040B8DF8000000208DF8010052
:100E4000EB46012003E057F804BB4FF0FF30610789
:100E50004FF0000102D40DE008F101018846494538
:100E60000FDA8045F8DB1BF808100029F4D108E000
:100E700008F1010188468142FADB1BF808100029BD
:100E8000F6D1DDE90F23AAEB08008146214600F0E8
:100E900031F9304400EB080604E0DDE90F121BF8DD
:100EA000010B9047B8F10108F7D221464846F2E01D
:100EB0000A21C4F302524FF0000B0891022A04D019
:100EC00001CFC117032A09D00AE0FF1D27F0070749
:100ED000F7E8020108E02CE01EE01FE000B2C117B5
:100EE000042A01D140B2C117021E71F1000206DAD4
:100EF0000023D0EB030063EB01012D2202E0220569
:100F000004D52B228DF82420012203E0E20701D032
:100F10002022F7E7904653E00A210BE0102109E078
:100F200010214FF0000B44F004044FF00809089121
:100F300003E008214FF0000B0891C4F30252022A8B
:100F400004D001CF0021032A06D006E0FF1D27F0C0
:100F50000707F7E8020103E080B2042A00D1C0B21B
:100F60004FF0000822072BD52A78702A07D0DDF829
:100F700020C08CF0100C5CEA0B0C05D00EE0402277
:100F80008DF82420012208E050EA010306D0302326
:100F90008DF824308DF8252002229046089B83F09E
:100FA000080353EA0B030BD150EA010201D1620797
:100FB00006D530228DF824204FF00108A9F101094F
:100FC0002A78582A04D038A20B9208AA0A920BE079
:100FD0003AA2F9E75B46089AFFF7FEF90B9B9B5C88
:100FE0000A9A521E0A92137050EA0102F2D10A982C
:100FF000ADEB000000F1200B600702D524F4803433
:1010000001E04FF00109D94502DDA9EB0B0000E03A
:10101000002000EB0B0141440890AAEB010AE00319
:1010200006D4DDE90F232146504600F063F806445C
:101030004FF0000908E009A911F80900DDE90F12D5
:10104000904709F10109761CC145F4DBE0030CD59A
:10105000DDE90F232146504600F04CF8064404E039
:10106000DDE90F1230209047761C0899481E089041
:101070000029F5DC08E00A980A990078491C0A91D1
:10108000DDE90F129047761CBBF10001ABF1010BBB
:10109000F1DC21465046DDE90F2300F019F8064443
:1010A0006D1C21E6092801003031323334353637E2
:1010B00038396162636465660000000030313233A4
:1010C0003435363738394142434445460000000044
:1010D0002DE9F041044600251E461746880404D435
:1010E00005E039462020B0476D1C641EF9D528461E
:1010F000BDE8F0812DE9F041044600251E469046EA
:10110000C80301D5302700E02027880404D505E076
:1011100041463846B0476D1C641EF9D52846BDE8E7
:10112000F0812DE9F041C0B00D4614461F46002F56
:1011300002D004F1060101E004F1050101F0FF080D
:101140004FF055018DF800104FF0AA018DF80110F5
:101150008DF8020002D004F1040001E004F1030064
:101160008DF80300224629466E4601A8FFF71EF8B7
:101170000DEB04053FB1A11CB01C00F011F8010AF1
:101180002971687105E0A41CE1B2B01C00F026F8DA
:1011900028714146684600F0EFF840B0BDE8F081A4
:1011A000F0B506464FF6FF70002341F221050446D4
:1011B00011E0F25C80EA02200022070403D585EAF0
:1011C000400080B201E004EA4000521CD2B2082A7A
:1011D000F3D35B1C9BB28B42EBD3F0BD30B503461F
:1011E0001F200022044C04E09D5C4540605D521CC1
:1011F000D2B28A42F8D330BD826800081CB5EB2316
:1012000090220146684600F001F800002DE9FF4FEA
:1012100083B00020019002900027059E38E0012550
:10122000781CFFF7CAF81D49FFF757F88146761C6E
:10123000012406FB05FA0AFB04F0FFF7BEF801469D
:101240004846FFF77CF8804604990298FFF73FF87C
:1012500020F0004B40460499FFF739F820F0004099
:101260005946FFF7AFF80AD2781C8DF804008DF8C4
:1012700005608DF806508DF80740CDF80880641C95
:10128000E4B2072CD7D96D1CEDB2072DD0D9F6B238
:1012900006988642C3D97F1CFFB2BEE70000C84152
:1012A0002DE9FF47814688460024254F3D6801AE61
:1012B00014E03868401B404503D3002004B0BDE86B
:1012C000F087684605F08CFA40B1ACB1012C1BD018
:1012D00020469DF80010641CE4B231540C2CE8D375
:1012E0000821B01CFFF77AFF9DF80E1001F01F01D6
:1012F000884219D00020E1E79DF80020AA2AEDD10C
:1013000001248DF80420E9E79DF80020552A05D036
:101310008DF80420AA2A05D00024DFE702248DF8E6
:101320000520DBE70124D9E70198C9F800000298FD
:10133000C9F804000398C9F808000120BEE70000BE
:10134000180000200123522201462120FFF7E9BEA8
:1013500010B5084C40F225512046FFF704FC002848
:1013600007D02046FFF77EFCC0B2BDE8104005F074
:101370004DBA10BD003801402DE9F04105460F4639
:1013800000240C4E0BE080213046FFF7E5FB0028DF
:10139000F9D0295D3046FFF769FC641CA4B2BC4259
:1013A000F1D340213046FFF7D7FB0028F9D0BDE844
:1013B000F0810000003801402DE9F04106460F465B
:1013C00014461D46611C284605F036FA2E7124B1DC
:1013D00022463946681DFEF7E9FE641DA0B2BDE84D
:1013E000F081000000B597B01948806800282CD023
:1013F000002114A8FFF754FF002826DD00201190DB
:10140000DDF8521012919DF8571001F07F018DF810
:1014100044108DF845009DF856008DF846009DF863
:101420005A0000098DF84700BDF8580000041390D9
:1014300001A800900122022311A802F05BF80146E6
:10144000002902D001A800F0BDF917B000BD0000CE
:101450001400002070B505460C4602F023FAA96876
:1014600009682160A9680C60BDE8704002F01DBAEF
:1014700010B5044602F016FAA1680C682CB1226877
:101480000A6002F012FA204610BD02F00EFA0020A7
:1014900010BD00002DE9F04104460F462B4D0026FB
:1014A000A868002802D002F0EBFAAE600120E860E4
:1014B0006E802E80E0782378617840EA03600E0425
:1014C000A2781B0646EA022443EA014141EA0222CD
:1014D0002043040692B244EA022201F47F0142EA68
:1014E000112141EA1060194910310860AF8003F002
:1014F0009CF9044694B1EA881549204602F028FB7D
:101500001249144B3A461031204602F029FC38B1FA
:10151000204602F0B5FA0020BDE8F0810020FBE78C
:10152000AC600D4E376840F6B83401E000F0EEF8DC
:10153000E868012803D13068C01BA042F6D3E868F0
:10154000022801D00020E7E70120E5E73400002071
:10155000686A0008693E00081800002002F002B91D
:1015600030B587B004464C4821680162A188818467
:10157000D4F806104161D4F80A108161D4F80E1035
:10158000C161618AC18001F047FE00287ED0FFF76B
:10159000E3F8FFF77FF80028FBD13F482030FFF742
:1015A00081F84FF4BE600221CDE901103B4A009260
:1015B000A2F5C053039003F140010422A1F1C00041
:1015C000FFF704F800F03FFFE37A607BA17A227B0B
:1015D0001D0440EA016045EA022528430506090684
:1015E00041EA034141EA022292B245EA022201F4B1
:1015F0007F0142EA112141EA10600590E379607AA7
:10160000A179227A1D0440EA016045EA02252843B7
:101610000506090641EA034141EA022292B245EA7F
:10162000022201F47F0142EA112141EA1060069092
:10163000E27B607CA17B237C150440EA016045EAE3
:10164000032420430406090641EA024141EA032239
:1016500092B244EA022201F47F0142EA112141EAF6
:10166000106004900F490022CDE900210C4802903F
:1016700005AB04AA06A90C4801F042FA0A4801F099
:1016800053FB094801F056FB012000E001E007B0E0
:1016900030BD0020F9E70000340000207422002053
:1016A0004D1E0008612C0008542E00202DE9F04149
:1016B0000C46144E3068002803DA6FF00100BDE8D4
:1016C000F081B768002507E0628978196168FEF744
:1016D0006DFD608905442468002CF5D17560306883
:1016E00040F0E2403060FEF767FF074831680029AC
:1016F00001DA401EFAD108B10020E0E76FF00200E5
:10170000DDE70000740A0020FFFF0F0010B500F0B5
:101710002BF8BDE8104002F0CBB8000070B50446CD
:101720000D46FFF7F3FF0E4AD068022802D04FF0B3
:10173000FF3070BD00200B4B0AE051885E5C014613
:10174000401C80B266545188491CC1F30B01518082
:10175000A842EED211885688B142EED170BD000089
:1017600034000020842E002070B51348FEF77EFF61
:101770000446002C1FD04FF4BE66B4421BD8A1B261
:101780004FF42072002001F010FB054655B10A48C5
:10179000A2B28168284601F014FD0848014602699A
:1017A000284690473346BDE8704003490422C031C3
:1017B0000148FEF7C9BF70BDF4090020542E002077
:1017C0007047000070B506460D460D4CA068002815
:1017D00002D0E168022902D04FF0FF3070BD012332
:1017E0002A46314604F0C1FD10B16FF0010070BD12
:1017F000A06803F08FF8FFF789FF284670BD00004E
:10180000340000202DE9F74F82B005461746082224
:10181000944608240020904681468246834600EB89
:101820004001344B019103EBC1010B7D082C00D129
:1018300003B39BB14DB12E68D1F804E0764504D1D5
:10184000002F35D08E68BE4232D0012B14D0022B2F
:1018500004D3498A594501D384468B46401C00B2C3
:101860000828DCDB03984FF0FF3180071FD4082CD9
:1018700013D015E00446F1E71E4B019E53F83630B5
:101880002BB14E8A4E45E9D38046B146E6E7498AF8
:101890005145E3D302468A46E0E70398C00706D0E5
:1018A000082C13DBBCF1080F05DA64460BE0084690
:1018B00005B0BDE8F08F082A01DA144603E0B8F15C
:1018C000080F15DA4446204600F016F835B10948ED
:1018D00004EB440200EBC20029684160054804EBB8
:1018E000440200EBC2000021418287602046DFE70E
:1018F0000846DDE7D83B012070B5084D00EB4004F9
:10190000002655F83400002803D000F02BFB45F8E2
:10191000346005EBC400067570BD0000D83B0120A3
:101920002DE9F04786B080460D46002D12D0D8F83C
:1019300004404FF480792088484508D12079062852
:1019400005D16079042802D16088082805D0404676
:1019500001F080FB06B0BDE8F087D4F80E100591C9
:10196000A2690492686818B1824204D1012603E09A
:101970000026002705E00026814201D1012700E072
:1019800000270EB1012300E0022304F10802924671
:1019900005A9284600F00AFAE08848450FD176B13B
:1019A0006FB905AACDE901A20221281D05F1220384
:1019B0000391009019465246284600F06BF94046C4
:1019C00001F048FBC6E70000FEB504460E4615468A
:1019D0002146286800F025FB08B1374B3FE0286816
:1019E000C0F303110E2925D0A168636800EA010243
:1019F0000B409A4208D080B2A0F57E41A93903D0AD
:101A0000E068B0B304F10C052C4B2D491A7802EBB9
:101A1000420001EBC000077D022F2ED38768A7424A
:101A20002BD12F684068874227D13146204600F0ED
:101A300049F8FEBD01208DF8040000208DF8050056
:101A40005E208DF80600687800F07F008DF80700B2
:101A5000A8788DF80800E8788DF8090001AB4FF4FC
:101A60000060009004F122023146204600F042FA64
:101A7000FEBDFFE76FF00300FAE7002202EB420031
:101A800001EBC000077D022F0CD38768A74209D164
:101A90002F684068874205D11A703146204600F011
:101AA00011F8E5E7521CD2B2082AE7D3324629469C
:101AB000204600F03DF8DBE76C6A0008EC000020EF
:101AC000D83B01202DE9F84306460F46174802EBA4
:101AD000420100EBC10404F10C05207D022818D15D
:101AE000618A4FF00308B1F58E7F07D9211D30467A
:101AF00000F016F968B984F814800AE0B1F5877F20
:101B000007D32A46211D304600F010F908B984F8A1
:101B100014804FF4006000902B4606F122023946F3
:101B2000304600F0E7F9BDE8F8830000D83B01201B
:101B30002DE9F74F82B088469146029822300190F5
:101B40004FF0FF3A56460024D8F80000029900F002
:101B500068FAA0B9D8F80000C0F303110E290ED01E
:101B6000B8F1000F0BD050B101214046029AFFF7A7
:101B700049FE002806DA40B205B0BDE8F08F6FF0EC
:101B80000F00F9E700F0FF0B40480BEB4B0700EBB1
:101B9000C705287D20B90124012028750298A86076
:101BA00014B9B9F1000F0FD14146029800F0B8F80E
:101BB0000646300005D1287D012802D10CB900204D
:101BC0006882B9F1000F13D0287DDFF8C0800228A9
:101BD00010D32F4880F800B04FF400600090DDE98A
:101BE000012005F10C03494600F084F906464AE05D
:101BF0003046C1E7012846D100214C4605E0207B54
:101C0000400601D5012102E02468002CF7D139B14A
:101C10004A464FF42071102001F071F9814602E02C
:101C2000484601F0A5FAB9F1000F2BD0042000F0CE
:101C30005BFF10B3002100220260C0F8049058F846
:101C4000372042B1012101E01A46491C1368002BDC
:101C5000FAD1106001E048F8370003290BD358F897
:101C60003740206848F83700606801F0F3F92146F2
:101C7000042000F009FF002605E0484601F0EAF9DB
:101C8000564600E05646304676E70000D83B012035
:101C9000EC0000202DE9FF4F81B08B46DDE90F9A63
:101CA000DDF838801E4600274FF420721C211020DA
:101CB00001F07BF8054628002FD06C68119800F0E1
:101CC000BDFBE0803068A060B088A081D9F800003A
:101CD000C4F81200B9F80400E082D8F80000C4F893
:101CE0000E00DAF80000A0614FF480702080082018
:101CF0006080062020710420607140F6060000908C
:101D00005A462946039B019800F0F4F8284601F052
:101D1000A1F9384605B0BDE8F08F4FF0FF30F9E784
:101D2000014A00F003B800006C6A00087FB5064D58
:101D3000031D0124CDE90035CDE902141E331946F7
:101D4000FFF7A8FF04B070BD726A000870B50024E8
:101D5000154D04EB440005EBC002117DF9B1508A2A
:101D6000401C80B25082B0F5967F03D2012905D184
:101D7000052803D32046FFF7BFFD10E0032904D058
:101D8000042905D0012906D009E00420107506E0D9
:101D90000220107503E0111D9068FFF7C1FF641C5D
:101DA000082CD6DB70BD0000D83B01202DE9F84F90
:101DB00005460C4691461E46002C14D0206890B172
:101DC000294600F02EF970B92078C0F303100E28D0
:101DD00009D02A4631462046FFF714FD002805DACF
:101DE00040B2BDE8F88F6FF00F00FAE7164E00EB37
:101DF000400406EBC400022101758560D9F800108B
:101E0000C160B9F804100182002141824FF40067DB
:101E100005F1220811E0086846F83400D1F804A062
:101E2000042000F031FE4B464246514628460097BA
:101E300000F060F8504601F00DF956F83410002912
:101E4000E9D10020CDE70000D83B01202DE9F04189
:101E500004460D460E2760890E283DD960688689A4
:101E6000E17B19B995F82C10491CE1730178CA0778
:101E700015D0012905D006221D49FEF7C9F950B138
:101E80000DE0417859B980785E2808D1607B40F038
:101E90001000607303E0607B40F008006073082E60
:101EA00003D0B6F5C16F17D10DE095F829000007F2
:101EB00012D53946204601F069F968B9294620460D
:101EC00000F0D0F812E095F82900000704D5394653
:101ED000204601F05BF928B1204601F0BBF8002054
:101EE000BDE8F08129462046FFF71AFD0020F7E7FC
:101EF0006C6A00082DE9F04780460F4616461D46DD
:101F0000089800F09BFA81460E21384600F020FF29
:101F100018B16FF00100BDE8F0877C68A4F80C9060
:101F200028682060A888A0803068C4F80600B088BF
:101F3000608139464046D8F81820BDE8F047104780
:101F400070B50446064DE1B22846FEF78FFE8021AB
:101F50002846FEF701FE0028F9D0204670BD00009B
:101F60000044004070B5044608E0254624686868CF
:101F700001F070F82946042000F086FD002CF4D111
:101F800070BD00B500F06CFAC04380B200BD30B443
:101F9000029D1B689CB204EB13442B689DB22C4439
:101FA00004EB13439CB204EB13439CB204EB1343C6
:101FB00030BCAFF300802DE9F04105460F46904656
:101FC0001C46002612E06989686800F049FA20443E
:101FD00081B201EB1044A87AC00706D0FEB10026FA
:101FE000E0B2C4F3072141EA00242D68002DEAD1B4
:101FF00026B1E0B2C4F3072141EA0024384600F0DC
:102000001DFA0444404600F019FA204481B201EB65
:10201000104000EB1040C04380B2BDE8F0810126C3
:10202000DEE708B50090421C07D0020005D091F809
:102030002920920703D4002008BD012008BD4A686A
:10204000824201D1002008BD896800EA01030A40EC
:10205000934202D10143491C01D0002008BD012058
:1020600008BD00002DE9F04707460E467D680421B3
:102070002878B1EB101F05D0384600F0EBFF0020A8
:10208000BDE8F08700074FEA9068688800F0D6F94D
:1020900004463889A04203D92146384601F040F869
:1020A0007889404505D33889A04202D3B8F1140F8E
:1020B00004D2384600F0CEFF0020E1E74146284632
:1020C000FFF75FFF20B1384600F0C4FF0020D7E7DC
:1020D000DFF8F4902869C9F81400E968C9F810100D
:1020E000C0F303100E2805D0304600F071F858B147
:1020F00034461AE096F82900C00703D0706808B18A
:10210000344612E0002410E0002499F814007F28DF
:102110000BD02E48046806E0B44203D0204600F0FD
:1021200057F810B92468002CF6D13146D9F81000C0
:10213000FFF777FF78B999F81000C0F303100E2865
:1021400009D06CB1E88830F0C0000ED0384600F0FD
:1021500081FF002094E7384600F07CFF00208FE7E5
:10216000384600F077FF00208AE7C9F80040C9F838
:102170000460C9F8085028780007800EA9F80C0000
:102180003146384601F002FA012809D04146384666
:1021900000F0FCFF687A062810D0384600F05AFF9D
:1021A0000020C9F80000C9F80400C9F80800A9F81F
:1021B0000C00C9F81000C9F8140061E73146384630
:1021C00001F0D0FFECE70000843E00208C000020EE
:1021D00010B590F82910C9070CD0416851B1064AD2
:1021E00052698A4204D001461046FFF71AFF08B12F
:1021F000012010BD002010BD843E0020FEB5DDE9A9
:1022000008670A9C002A04D00D0001D00D6805B9AA
:10221000211DCDE90067029400F002F8FEBD000028
:102220002DE9F84F0546DDE90B890A9F8A461646D7
:102230009B466FF00104002E4AD01421284600F07E
:1022400087FD10B12046BDE8F88F6C6884F808B0AF
:1022500084F809804FEA082048EA0B2140EA11215E
:102260003068206182B2114401EB10404521217099
:102270006770390247F48A4241EA12210F1828890F
:1022800000F0DCF8608000EB07080020E080184FC9
:10229000388800F0D3F8A08000EB08013888401C93
:1022A0003880BAF1000F0FD0DAF80000E060E06883
:1022B00082B2114401EB104081B201EB104000EBFF
:1022C0001040C04360810CE00A480068E060EEE71F
:1022D0006889142801D22046B5E768680069009033
:1022E0006E46D9F814303246294648469847AAE740
:1022F000EE000020686A000870B5064614480068C1
:1023000014E090F82910CA070FD04A070DD543688A
:102310005BB184683268234002EA04059D4216D00E
:10232000890702D4C1688A4211D000680028E8D128
:102330000848006850B190F82910CA0706D049072C
:1023400004D5416811B131787F2900D1002070BDDA
:102350008C0000209000002038B5049C0094FFF70A
:1023600016FE38BD38B501218020FEF7D1FA4FF4B2
:102370000074ADF8004010208DF8030003208DF8A4
:102380000200054D69462846FEF71CFA21462846FC
:10239000FEF79AFA38BD0000001C01404FF40071AE
:1023A0000148FEF791BA0000001C01404FF4007193
:1023B0000148FEF78BBA0000001C014070B5084DC3
:1023C0004FF4007421462846FEF780FA3220FEF7CB
:1023D000D7F821462846BDE87040FEF775BA0000E0
:1023E000001C014010B504466068804701F088FA7F
:1023F0000A4A216852688B181A1AB2F1004F06D3A4
:1024000022460844BDE81040054901F08DBA224635
:10241000BDE810400249184601F086BAE0000020ED
:10242000E5230008010600F47F4241EA022100F49E
:102430007F0241EA122141EA106070470106090C4F
:1024400041EA1020704710B500F0F4F900F028FBC5
:1024500000F004FC01F084FEBDE8104001F090BAE9
:1024600018B50022009200F00103002B0BD00029C8
:1024700009DD10F8014B8DF80140491E03E030F8EA
:10248000024B2244891E0129F9DC002902DD007873
:102490008DF80000BDF80000104481B201EB10403F
:1024A00081B201EB104023B1C1B2C0F3072040EA72
:1024B000012080B218BD00001CB5FEF719F84DA030
:1024C000FEF7E4FBFFF74EFF4CA0FEF7DFFB57A043
:1024D000FEF7DCFB002202215FA0FEF7D7FB64A021
:1024E000FEF7D4FB6DA0FEF7D1FBFFF737F8FFF73F
:1024F00067F96420FEF744F86FA0FEF7C7FB754844
:10250000FFF72EF8002823D0142000900123082282
:102510001A2171A0FEF7BAFBDFF8E4814FF0000941
:10252000C8F8089077A0FEF7B1FBFFF73FFFC8207F
:10253000FEF726F8FFF732FFC820FEF721F8002546
:1025400000260027D8F80440D8F80C0070B129E024
:102550007BA0FEF79BFBFFF729FFC820FEF710F8D2
:10256000FFF71CFFC820FEF70BF8F4E7601B40F6EE
:10257000B831884216D9254640F6BC7A0B20CDE901
:10258000000A01231A461A2174A0FEF77FFB5C485B
:1025900051461030FEF77EFF014601291DD079A07B
:1025A000FEF774FB01F080F8FEF71CFFD8F80C0072
:1025B00038B1E01B4EF66021884202D9274601F06F
:1025C00053F9D8F80C000028BCD0A01BB0F57A7FD6
:1025D000B8D92646FFF7F2FEB4E70120C8F80C0090
:1025E000FFF7E4FEA8F800906EA0FEF74FFB01F0A5
:1025F0003BF9D7E7422E2E2E0D0A00000D0A3D3D75
:102600003D3D3D3D3D3D3D3D3D3D3D3D3D3D3D3DFA
:102610003D3D3D3D3D3D3D3D3D3D3D3D3D3D3D3DEA
:102620003D3D3D3D3D3D0D0A00000000202042544F
:10263000434D696E6572436F6E74726F6C204631E4
:10264000303720E99CB8E5A4A9E8998E524320E5EB
:1026500090AFE58AA80D0A00202046572076256411
:102660002E25642C2032344D487A0D0A00000000DB
:102670003D3D3D3D3D3D3D3D3D3D3D3D3D3D3D3D8A
:102680003D3D3D3D3D3D3D3D3D3D3D3D3D3D3D3D7A
:102690003D3D3D3D3D3D3D3D0D0A00005B535953E1
:1026A0005D20455448204750494F20696E69742E7B
:1026B0002E2E0D0A000000005B5359535D20455437
:1026C00048204D41432B50485920696E69742E2E85
:1026D0002E0D0A006E6800085B5359535D20455467
:1026E0004820696E6974204F4B202849503A2025B4
:1026F000642E25642E25642E2564290D0A00000011
:10270000140000205B5359535D20424D313336365F
:102710002064697361626C656420284558504543A4
:102720005445445F434F554E543D30292C20455469
:10273000482074657374206D6F64650D0A00000095
:102740005B4552525D2045544820696E69742046AD
:1027500041494C4544210D0A000000005B4E4554A0
:102760005D20436F6E6E656374696E6720746F20C1
:1027700025642E25642E25642E25643A25642E2E8C
:102780002E0D0A005B4E45545D20436F6E6E6563EF
:1027900074206661696C656420287265743D2564E7
:1027A000290D0A005B4E45545D2054435020636F51
:1027B0006E6E65637465640D0A00000070B50028D4
:1027C00034D0810705D001F06DF8BDE8704001F00C
:1027D0006CB8A0F10804164D29688C4203D36968CF
:1027E0000C30884205D901F05DF8BDE8704001F079
:1027F0005CB8207970B1204600F038F880B1002034
:102800002071A868844200D2AC602046BDE87040C8
:1028100000F0B6BD01F046F8BDE8704001F045B8E3
:1028200001F040F8BDE8704001F03FB870BD000015
:102830005C00002070B50B480B4C20F003002060BA
:102840004FF4F0450580002141800171284600F0D9
:1028500097FE606001210171058045802068A060BD
:1028600070BD00009F3E00205C00002070B5044653
:10287000204600F087F80546208800F081FE0646D5
:10288000608800F07DFE014620884FF4F0429042BF
:102890000ED8608890420BD8A84202D00888A8427F
:1028A00006D105484068864204D07088A84201D00D
:1028B000002070BD012070BD5C0000202DE9F047B4
:1028C00000280FD0C51C4FF6FC710D400C2D00D216
:1028D0000C254FF4F048454501D8854204D200202C
:1028E000BDE8F0870020FBE7254FB86800F04AF804
:1028F0000646C5F5F0493FE0304600F041FE04468B
:102900002079A0BB2088801B0838A84230D32088BB
:1029100005F11401801B08384FF00109884214D3D7
:102920007019083085B2284600F02AFE0021017196
:10293000218801804680258084F8049000884045E5
:1029400005D000F01DFE458001E084F80490B868D1
:10295000844203D008E0008800F012FE017911B132
:1029600079688842F7D1B86004F10800B8E7FFE75A
:10297000304600F005FE0688B145BDD80020AFE71F
:102980005C00002002490988401A80B270470000AC
:102990005C0000202DE9F05F0746CC1C4FF6FC7070
:1029A00004400C2C00D20C244FF4F0494C4501D8C3
:1029B0008C4202D20020BDE8F09FDFF8C880D8F832
:1029C0000000874203D3D8F80400874205D300F003
:1029D00069FF00F06AFF3846EDE7A7F108063046C8
:1029E000FFF7D0FF05463088411B08391FFA81FBED
:1029F0005C4502D94FF00000DDE701D13846DAE747
:102A000000F0BEFD01794FF0000AE9B104F11400B5
:102A1000584517D82819083084B2204600F0B0FD78
:102A2000D8F80810884201D2C8F8080080F804A03D
:102A300031880180458034800088484502D000F00C
:102A40009FFD44803846B6E7B0F800B02919083138
:102A50008CB2D8F80810814204D1204600F090FDD5
:102A6000C8F80800204600F08BFD80F804A0A0F80C
:102A700000B04580348000884845E3D000F080FDF8
:102A80004480DFE75C000020082806D2002904D03B
:102A9000024A52F82000FEF7DDBC7047E4690008E6
:102AA00030B50024044D55F8240000F007F8641CEC
:102AB000A4B2082CF7D330BDE46900088268002175
:102AC00011604168C91C21F00301002207E08368FE
:102AD0001B680B608368196003881944521C438883
:102AE0009342F4DC70470000082801D300207047AF
:102AF000024951F82000FEF7BBBC0000E469000861
:102B00002DE9F0410446DDE906570898002C02D073
:102B100027B129B105E00020BDE8F0810020FBE7E6
:102B2000214902B9204A03B91F4B00266660A660FE
:102B3000E660DFF878C0C4F814C0268484F8296001
:102B4000E5611B4D95F800C084F82CC0206120463B
:102B500000F0B8F82046B84708B10020DCE76B6801
:102B600094F82C00FF2801D184F82C60184694F8C2
:102B70002C1008E090F82C208A4203D1491C84F8DC
:102B80002C1002E000680028F4D10028E8D194F865
:102B90002C00FE2805D0401C287023606C60204665
:102BA000BAE72E70F9E70000686A0008BF2C000839
:102BB0008800002070B504460D462946204601F0E5
:102BC000FDFD29462046BDE8704000F047BD0A687B
:102BD000C3689A4204D001B90022C2600120704744
:102BE0000020704738B505460C46104621686A68D3
:102BF000914211D021680091696801606946FFF730
:102C0000D9FF3CB1206868600121284600F046F8F1
:102C1000012038BD0020F6E7002038BD0A6883682F
:102C20009A4204D001B9002282600120704700203E
:102C300070470000014600290BD00748406806E0B5
:102C400090F82C20521CD2B28A4203D0006800288F
:102C5000F6D1002070470000880000207047000077
:102C60006521143081757421C175094901600949D4
:102C7000416040F2DC5181810E21417506210175D0
:102C800005490A6AC0F80E20898C418200207047ED
:102C9000C9190008AD1600083400002090F829205A
:102CA00053070BD5D30709D0C90707D041680029BE
:102CB00004D0110702D5011DFFF732B870476FF03D
:102CC0000B0070472DE9F84F82460C4616461F460A
:102CD0004FF00008C146002C00D1124C06B9114E2D
:102CE00007B9104FDCB12068C8B1002525B16A468C
:102CF00021465046FFF776FF424631465046FFF7E1
:102D00008DFF4A4639465046FFF761FF002D04D13A
:102D10006A4621465046FFF765FFBDE8F88F01255A
:102D2000E4E70000686A0008014988607047000015
:102D30008800002000280AD090F82910CA0706D180
:102D400041F0010180F829100321FFF7A7BF704768
:102D50000022AFF3008030B5002802D0B1F5803FEB
:102D600001D3012030BD39B18BB204891C44A4B217
:102D70009C4203D2012030BD002030BD057B2D06D2
:102D800007D54268511A00F11002914204D2012085
:102D900030BD42B14268511A4160418919444181B4
:102DA0000481002030BD012030BD2DE9FC5F0746C5
:102DB0000D469146B9F1010F0DD0B9F1410F0AD07E
:102DC0004FF0000BB9F5C17F0CD0B9F5207F3BD097
:102DD0000020BDE8FC9F4A462946002000F05AF832
:102DE000064653E00026B2460720FFF77DFE044664
:102DF00020001FD0F81C20F00300C0F5BE601FFAB1
:102E000080F8A84500D9A846E0191330CDE9009B09
:102E100020F0030143462A46204600F067F98EB1B0
:102E2000CAF80040A246A5EB080085B20027002D95
:102E3000DAD12BE000F068F916B1304600F00AF95B
:102E40000020C6E72646EDE7F81C20F00302E81C48
:102E500020F00301501880B200F1100292B28142BA
:102E600001D8914201D90020B3E71046FFF726FDB3
:102E7000064630000CD0F0191330CDE9009B20F04D
:102E800003012B462A46304600F030F93046A0E7D1
:102E900000209EE72DE9FC4107460E461546062018
:102EA000FFF722FE04465CB10020CDE90050334616
:102EB00032463946204600F019F92046BDE8FC812B
:102EC0000020FBE710B500280FD000290DD004E04A
:102ED00003890C892344038110460268002AF7D134
:102EE00002890B891A440281016010BD002102E0B1
:102EF000491C89B200680028FAD10846704770B5AD
:102F00000B4615461A462989FFF74FFF04462CB198
:102F10002946204600F004F8204670BD002070BD10
:102F2000002903D00A89002300F038B86FF00F00A1
:102F300070472DE9F047894616460027B846002815
:102F400004D0B9F1000F04D0044622E00020BDE80F
:102F5000F0870020FBE72BB16089984202D8181A4D
:102F600083B215E06089C01A85B2B54200D93546F2
:102F700060682A46C11809EB0700FDF717F908EB4E
:102F800005001FFA80F8781987B2701B86B20023FB
:102F900024680EB1002CDED14046D8E72DE9F05F61
:102FA00004460D4616461F464FF000086FF00F0A04
:102FB000002D02D02889B04202D25046BDE8F09FD1
:102FC0001CB120899919884201D25046F6E76FF06A
:102FD000050B60896989C01BA1EB0809484500D22F
:102FE00081464E4500D2B14668684A4600EB08016A
:102FF00060683844FDF7DAF84F44C844A6EB09008E
:1030000086B26889404506D84FF000082D6815B98A
:103010000EB15046D2E76089B84205D10027246836
:1030200014B90EB15046C9E73DB168892989884273
:1030300003D1286808B15846C0E73CB160892189AE
:10304000884203D1206808B15846B7E7002EC0D1A6
:103050000020B3E770B50446002C01D000260BE039
:10306000002070BD00F01EFCA17B491ECDB2A573EF
:1030700000F01BFC25B10024002CF3D1304670BDBC
:103080002568207B00F00F00022803D0012806D01D
:1030900050B10CE021460720FFF7F6FC07E021467F
:1030A0000620FFF7F1FC02E02046FFF787FB761CC5
:1030B000F6B22C46E0E7000010B500F0F3FB094A39
:1030C0000021117000F0F1FB0748006806E0416F35
:1030D00019B1BDE8104001F011B8C0680028F6D160
:1030E00010BD000094000020B400002070B5DDE9A0
:1030F00004560024046041600281438105734673D5
:1031000001218173C47370BD10B500F0CBFB034A7D
:1031100001211170BDE8104000F0C7BB94000020F1
:1031200070B502898A4222D9521A92B20D460446DB
:1031300005E0281A85B22089801A208124686089D8
:10314000A842F6D3207B000709D16089A84206D0A7
:10315000A088001B284481B22046FFF71BFC658134
:103160002581206808B1FFF775FF0020206070BD41
:1031700010B50446002C08D000F094FBA17B491C3C
:10318000A173BDE8104000F090BB10BD10B5002841
:1031900002D0B1F5803F01D3012010BD29B18AB220
:1031A0004389934203D2012010BD002010BD446822
:1031B00021444160991A41810189891A01810020C5
:1031C00010BD2DE9F0418846154600276FF00F012C
:1031D000002808D0B8F1000F07D00189914206D22B
:1031E000781EBDE8F0810846FBE70846F9E7064689
:1031F0000DE02C467089A04200D2044608EB07017E
:1032000022467068FCF7D2FF2D1B27443668002D3C
:10321000EFD10020E5E7000038B501212020FDF7BF
:1032200077FB0420ADF8000010208DF80300032088
:103230008DF802002A4C69462046FDF7C3FA0421A6
:103240002046FDF741FB0A20FDF79AF904212046AC
:10325000FDF73CFB6420FDF793F93220FDF790F970
:1032600002210120FDF740FA054603210120FDF768
:103270003BFA0446224629461AA0FDF707FD4FF601
:10328000FF718D420FD075B18C4211D084B11DA059
:10329000FDF7FCFC4FF4905200210120FDF764FA89
:1032A0006FF07F440BE01EA0FDF7F0FC002038BD5E
:1032B00025A0FDF7EBFC002038BD641E0AD00121DB
:1032C0000846FDF711FA8006F7D524A0FDF7DEFCCD
:1032D000012038BD25A0FDF7D9FC002038BD000035
:1032E000001401405B5048595D204944313D30781D
:1032F00025303458204944323D3078253034580D3B
:103300000A0000005B5048595D204175746F2D6EB6
:1033100065676F74696174652E2E2E0D0A000000BA
:103320005B5048595D2049443120696E76616C6973
:10333000642C20504859206E6F7420726573706F32
:103340006E64696E670D0A005B5048595D20494400
:103350003220696E76616C69640D0A005B504859D1
:103360005D20496E6974204F4B0D0A005B5048592F
:103370005D20414E2074696D656F75740D0A000003
:103380002DE9F0410446208800F0FAF805461B4E6E
:103390004FF4F047AC4216D02879A0B97068854246
:1033A00011D0B068A84200D1B46028882080288855
:1033B000B84208D02046FFF7E5FA8046288800F09A
:1033C000DFF8A0F80280608800F0DAF8A04212D09E
:1033D000017900290FD1B168A14200D1B0602188E4
:1033E00001802188B94206D0FFF7CCFA0546208833
:1033F00000F0C6F84580BDE8F08100005C000020C8
:103400002DE9F04105461446722902D20020BDE89C
:10341000F081D4212046FCF7F0FE287820706878EF
:1034200060700226042801D90420607000270AE099
:1034300004EB4710A919801C2022FCF7B7FE2036A8
:10344000B6B27F1CFFB26078B842F1D8A81900F07C
:103450001FF9C4F88400361DB6B2A919202204F160
:103460008800FCF7A3FE2036B6B2A919202204F189
:10347000A800FCF79BFE2036B6B2A81900F008F9A8
:1034800044F8C80F361DB6B2A81900F001F9606003
:10349000361DB0B2284400F0FBF8A0600120B6E76A
:1034A000042901D2002070474178037841EA0321C2
:1034B0001180C178807841EA002050800120704757
:1034C0003EB504460D46D4E90023684603F0BCF936
:1034D000207A8DF8080061890DF1090003F0A8F940
:1034E000207B8DF80B002B460C2269460420FDF74B
:1034F00063FF3EBD70B586B004460A9D20788DF806
:10350000040060788DF8050001AEB01C616803F01E
:1035100093F9B01DA16803F08FF9094800684FF4D2
:103520007A71A0FB01230DF10E0003F08DF92B46FB
:10353000122201A90220FDF73FFF06B070BD000076
:10354000180000202DE9F04106460D461746984622
:10355000052D02D20020BDE8F081304600F098F839
:10356000441EB4F5006F01D30020F4E7001D85422E
:1035700001D20020EFE73880A8F800403079EAE770
:1035800001490968084470475C0000202DE9F05F9C
:1035900082460026DFF87C80D8F80010D8F81400A6
:1035A000FEF73FFD8346DAF80400477A0025DFF88E
:1035B0006890D9F8004029E0207CB84224D15946CF
:1035C000204600F02BF8F8B1607CC00704D060689A
:1035D000D8F81010884217D1D4F814C0BCF1000FED
:1035E00012D002260B4B524610332146A069E04709
:1035F00050B135B1E068E860D9F80000E060C9F882
:1036000000400120BDE8F09F2546E468002CD3D19E
:103610003046F7E7843E00209800002010B5027A7B
:103620000D4B002A08D05C6894F82C40641CE4B26E
:10363000A24201D0002010BD21B108B1006848B9F4
:10364000012010BD20B1006810B15969884201D134
:10365000012010BD002010BD843E002010B50028C0
:1036600013D00268002A10D000290ED00A68002A60
:103670000BD0064A126806E013680468A34201D121
:103680000B681360D268002AF6D110BD98000020A4
:10369000C178027841EA026142788078120442EAF5
:1036A000002008437047000010B5B8B04FF4006127
:1036B0001F48FEF733F8002827DD1E4C81B2218019
:1036C00036AB37AA1A48FFF73DFF00281DD0BDF8DA
:1036D000DC10002919D0012819D0052815D135AAE8
:1036E0001348FFF7DDFE00280FDDA06830B1BDF8FC
:1036F000D400FCF762FE6421FDF780FDBDF8D62002
:10370000BDF8D4100CA0FDF7C1FA38B010BD01AA65
:103710000748FFF775FE0028F7DDA06810B101A883
:10372000FDF710FE9DF804100AA0FDF7AFFAECE7D4
:10373000F4000020140000205B504152414D5D20F8
:10374000667265713D25642C20766F6C743D25642E
:103750000D0A00005B4A4F425D2069643D25640DFF
:103760000A0000002DE9F8433A48816941F480419C
:10377000816101214FF4E030FDF7AEF801213D20D9
:10378000FDF7C6F80227ADF8007004248DF8034059
:10379000DFF8C48069464046FDF714F8ADF80040F4
:1037A00018258DF8035003268DF8026069464046BF
:1037B000FDF708F88020ADF800008DF80340694659
:1037C0004046FCF7FFFF6002ADF800008DF80350A3
:1037D0008DF80260DFF8848069464046FCF7F2FF0E
:1037E000A002ADF800008DF803508DF80260694624
:1037F0004046FCF7E7FFE002ADF800008DF803500B
:103800008DF8026069464046FCF7DCFFADF80070B9
:103810008DF803508DF80260114D69462846FCF77B
:10382000D1FF1021ADF800108DF8034069462846FD
:10383000FCF7C8FF2021ADF800108DF80340694661
:103840002846FCF7BFFF0748416841F4000141608A
:10385000BDE8F8830010024000080140000C014060
:10386000001001400000014000B595B00121022088
:10387000CDE910100002ADF84A000948007A8DF831
:10388000480000208DF84C00694610A8FFF718FE8C
:103890000146002902D06846FDF794FF15B000BD2F
:1038A0001400002072B60020704762B67047000016
:1038B0002DE9F04100F024F806460F4F0F4D3878FF
:1038C00008B1FFF7F9FB2968002912D04A68B01A3D
:1038D000B0F1004F0DD2086828608C68D1F80C80D8
:1038E0006A600520FFF7D0F8002CE8D04046A047DA
:1038F000E5E7BDE8F081000094000020E000002032
:1039000001480068704700001800002070B50446A8
:103910000D461646FFF7F4FF204432462946BDE81F
:10392000704000F001B8000070B504460D46164620
:103930000520FFF7D9F800280FD00022026085602B
:10394000C66044600D4A116841B14B684FF00045B4
:10395000E31AAB420DD30160106070BD106070BD02
:103960005368E31AAB4203D30A680260086070BD73
:1039700011460A68002AF7D0F2E70000E0000020B4
:1039800070B50124054D064905EBC40255F8340015
:10399000FFF7BCFF641C022CF5D370BD586A000809
:1039A000E52300082DE9FE4F0446002C63D0207D5E
:1039B0000A283FD000250027D4F85090D4F824A03E
:1039C000D4F89060D4F810B0DFF8B08088B30D461A
:1039D000E78A214608F1180001F027FA012088F84B
:1039E0000000206F08B102F0CFF9E06E08B102F0DC
:1039F000CBF9606F08B102F0C7F9204600F09AF8E1
:103A000055B1208B211DCDE9001702902346524667
:103A10004946204602F03FF9204600F035FB002ED3
:103A200029D003B05846B446BDE8F04F6FF00C0102
:103A3000604709E0114821461C3001F0F6F92046A4
:103A4000BDE8FE4F00F020BBE08A0028C9D0D8F8BE
:103A50001000A0420AD1C068C8F8100008E0C16890
:103A6000A14202D1E168C16002E008460028F6D117
:103A70000020E060B5E7BDE8FE8F00009C0000205C
:103A80000121FFF78FBF000070B505460120FFF749
:103A90002BF80446FCB900F04FFB00F0D5FD0120E7
:103AA000FFF722F80446B4B9092000F0AFFD012069
:103AB000FFF71AF8044674B9082000F0A7FD0120AA
:103AC000FFF712F8044634B9284600F077FD0120CC
:103AD000FFF70AF8044624B39C212046FCF78DFB2F
:103AE0000C34657241F2D060A4F85800E083A083E2
:103AF000FF2104F8011C4FF40671E1840621A18620
:103B00006186C91FA1840121A1870749CA68626132
:103B10008978A174E0870548A0670548C4F8880043
:103B20000C3C204670BD00009C000020995A000803
:103B300000DD6D00418B890509D5C16F002906D0D4
:103B40004A7F521E4A77418B21F4007141837047AE
:103B50002DE9F04107460C460420002C00D11E4CF4
:103B60002FB1397D31B16FF00500BDE8F0816FF004
:103B70000F00FAE71AB10021DFF860C01CE000F086
:103B800057FE0246100019D1801EEEE75CF8213086
:103B90001B680EE0DD8A95420AD133B11D6825B15C
:103BA0001CB126680EB1B54202D16FF00700DCE708
:103BB000DB68002BEED1491C8142E7DB14B12068A1
:103BC00000B13860FA8206480169F960076102F0C5
:103BD0004DFB0020C9E70000686A0008486A000839
:103BE0009C000020002809D0017D012903D0418BD1
:103BF00041F010014183012100F004B86FF00F0083
:103C000070470000FEB5044600250127207D384E90
:103C1000002936D0042801D0072832D1A16F21B95C
:103C2000218DA1F5B052D03A2BD0E18A208B221DF4
:103C3000CDE90021029023462046626A216D02F000
:103C40002AF8204601F0CAF8B069A04209D1C0683C
:103C5000B06108E0C168A14202D1E168C16002E040
:103C600008460028F6D1E560377022480068A04277
:103C700002D102F059FB02E0204600F005FA0020D4
:103C8000FEBD40B101281CD0022826D02046BDE848
:103C9000FE4000F031B8E08A78B13069A04209D125
:103CA000C068306108E0C168A14202D1E168C1602A
:103CB00002E008460028F6D1E560204600F0E4F96D
:103CC00014E0204600F0DAFC09482146143001F0E7
:103CD000ACF8204600F00EFA08E0054821461830FE
:103CE00001F0A3F83770204600F0CEF90020FEBDA9
:103CF0009C000020DC00002070B505460526287DCC
:103D0000032805D004280DD0072812D0002070BD4C
:103D1000284602F072F8044694B92846FFF70AFFD5
:103D20002E750DE0284602F068F8044644B92E7559
:103D300006E0284602F061F804460CB9092028750F
:103D400014B1601C05D002E0284600F0E3FD2046D7
:103D500070BD688B40F008006883002070BD0000D3
:103D60002DE9F04704461E466FF00F00002C05D0E9
:103D7000002903D0207D18B16FF00900BDE8F0875D
:103D8000086860602283207A18B1FEF753FF054669
:103D900003E0201DFEF7B0FA05466FF0030115B1F0
:103DA000206810B105E00846E8E7281D38B1006832
:103DB0002060B4F81690B9F1000F02D005E0084673
:103DC000DCE700F035FDE08230B3204600F05CFD1A
:103DD000002767622065401E6064A065E06541F2CF
:103DE000D06060852085E762A4F860004FF406701B
:103DF0006086221D294600F0A6F860864FF0010873
:103E0000A4F84880C4F888600221204600F0AAF88F
:103E10000546280003D022E06FF00100AEE7022043
:103E20002075104EB9F1000F0FD03069A04209D1B2
:103E3000C068306108E0C168A14202D1E168C16098
:103E400002E008460028F6D1E760B069E060B4619E
:103E500002F00CFA86F80080204600F05BFD284650
:103E60008CE700009C00002010B50C460A4B002A8D
:103E700005D04FF0FF30D8606FF00C0010BD02226B
:103E8000DA600649204601F0CDFD0549204600F0E4
:103E9000B7F8002010BD000034000020315A00089F
:103EA0000D4000082DE9F0470746DDF820800E465A
:103EB00091469A465FEAC87001D0042500E00025CB
:103EC0000320FEF711FE041E14D084F80A804FF080
:103ED0000008C4F8008066603089401B20811421EE
:103EE0003046FEF735FF50B1204601F03EFF00207E
:103EF000BDE8F0873046FFF7ADF80020F8E76068CE
:103F00004068E060F88AFEF799FAE1680880388B2B
:103F1000FEF794FAE16848805046FEF783FAE168BC
:103F20004860052000EB95004FF6FF7101EA003074
:103F300040EA0900FEF782FAE1688881E068A0F8AB
:103F400012802046D4E700290BD0098C002908D024
:103F5000282902D9283989B200E00021884200D3FB
:103F600008467047F8B504460D460026A80700D558
:103F70000126F00701D0042100E000214FF4207257
:103F80003820FEF712FF4FF0FF3758B10096014678
:103F90002A462046E36DFFF785FF021E08D0E06E3B
:103FA00060B10EE0608B40F0800060833846F8BD61
:103FB000608B40F0800060833846F8BDE26604E024
:103FC000084601680029FBD102600020A4F86800BF
:103FD00005F0020005F00101084302D0E06D401C2D
:103FE000E065E80703D0608B40F0200060835068F4
:103FF000FEF77CFF34F8661F084420800020F8BDDF
:10400000002801D0C0F8901070470000024800213D
:10401000C1608160704700003400002070B5194E07
:10402000B078401CB070B46928E0A17FB0788142BC
:1040300023D0A077608BC10709D040F002006083D5
:10404000204600F067FC608B20F003006083608BEB
:10405000010705D520F0080060832046FFF74CFEDD
:10406000E568A06F38B100203070204601F036F9C5
:1040700030780028D7D12C4600E0E468002CD4D159
:1040800070BD00009C00002001460120FEF7FCBC32
:104090002DE9F04106460C46154F10E025462468F0
:1040A0006868FEF723FF36F8661F081A30802889F3
:1040B000398908443881284601F057FE663E9CB194
:1040C000E0684068FEF7AEF90546E0688089FEF7D3
:1040D000B5F9800701D0012000E0002021892844A3
:1040E0000844B969081AD9D52046BDE8F081000016
:1040F000BC00002001460220FEF7C6BC10B50446F5
:10410000606F002803D001F03FFE0020606710BD03
:10411000084BD888411CD9801969002902D09A8897
:10412000904203D2D9681431085C7047801AC0B23B
:10413000085C7047BC00002010B50848806909E0A1
:10414000C468418B0A0704D521F008014183FFF7B9
:10415000D3FD20460028F3D110BD00009C000020B4
:10416000704700002DE9F04F85B00546ED4E6868B8
:10417000F060688914287DD3EB4F39687869FDF7C2
:1041800050FF002876D1387DC0F303100E2871D07F
:1041900007F1140004900090031F2A890621284685
:1041A0000393FEF7D9F80028ECD1F0688089FEF778
:1041B00045F9000B81001429DDD328898842DAD320
:1041C000A1F1140080B27080002232616A898A42B3
:1041D00004D3B0802846FEF7D9FF17E01421284603
:1041E000FEF7D4FF6989B1807088401A84B22846EE
:1041F000FEF7CCFF28684189A142BCD341683161F8
:104200002146FEF7C3FF2889001B2881F06800883B
:10421000FEF714F90146F06801804088FEF70EF9B8
:104220000146F06841804068FEF7FCF80146F068FE
:10423000416071618068FEF7F5F8F1688860B061EF
:10424000C889FEF7FBF80146F068C1818089FEF756
:10425000F5F800F03F0C86F800C0288970815FEA0D
:104260008C7104D0411C89B27181884202D800202F
:10427000AE4B00E050E11A6814462BE0217A59B1A8
:10428000D7F8048098F82C8008F1010808F0FF089E
:10429000414501D020461CE0F168B4F81880B1F81F
:1042A0000090C84514D1B4F81680498888450FD1CC
:1042B0006168D7F8108041450AD12168D7F8148089
:1042C000414505D140B1E168C160E2601C6003E096
:1042D0002046E468002CD1D18CBB95480468D7F8FF
:1042E00004803B69F268D7F814901FE0207A28B167
:1042F00098F82C10491CC9B2884216D1208B11881D
:10430000884212D1E08A518888420ED16068984272
:104310000BD12068484508D1204601F0C1FF05B007
:104320002846BDE8F04FFEF795BEE468002CDDD1CD
:104330000021DFF800B2DBF80000824618E029E037
:10434000037A4BB198F82CE00EF1010E0EF0FF0E3F
:10435000734501D001460AE0C38AB2F802E0734512
:1043600004D103684B4505D020B11BB10146C0689C
:104370000028E5D170B129B1C268CA60C0F80CA0AC
:10438000CBF8000000F08AF905B02846BDE8F04FF0
:10439000FEF760BE002C7BD0DFF89C810027C8F8B8
:1043A00000702889A8F80800C8F80450F068C8F818
:1043B0000C00F761777037815FEA0C7003D5687B7A
:1043C00040F001006873A06F70B1204600F086FFD6
:1043D0000D3003D0A06F38B1708928B1608DA8BBB3
:1043E000204601F0DAFC6FE03462204600F046FD22
:1043F0000D3069D0707800070ED5D4F890201AB12E
:104400006FF00D01206990472146484800F00DFDEE
:104410002046FFF739FE57E00020328942B1D4F838
:10442000803013B12146206998470D304CD0378138
:10443000204600F083F848B9F069F8B1A17EC906BA
:1044400005D5FEF707FE2046FFF71AFB3CE0D4F83F
:1044500084503DB1D4F810C0024600232146604686
:10446000A84705E0002302462146184601F014FB48
:1044700010F10D0F28D008B1F069A06770788006A0
:104480001AD5A06F28B1417B41F02001417313E0A0
:1044900027E0208DA0F5B051D03901D0401C2085F7
:1044A000D4F884502DB100231A4621462069A8472C
:1044B00000E000200D3007D03762204600F03EF8C3
:1044C00010B9204600F026FA3762F761D8F80400E8
:1044D000002803D0FEF7BEFDC8F8047005B0BDE8A3
:1044E000F08FF0688089FDF7A9FF40070ED4F068CF
:1044F000039A049B018840880291CDE900207189CC
:10450000706942187868B16901F003FC05B028466B
:10451000BDE8F04FFEF79EBD05B02846BDE8F04F60
:10452000FEF798BDBC000020843E0020B4000020AF
:10453000B8000020B0000020C83B012010B50446A0
:104540000C484078C00612D5A07EC00606D4D4F828
:1045500090201AB16FF00E0120699047214606485D
:1045600000F063FC2046FFF78FFD012010BD002006
:1045700010BD0000BC000020B400002070B505464E
:104580000024286D401EFDF74DFF03460022214602
:10459000284600F0C7FA04466CB100231A462146AB
:1045A000284600F04DFB2B1D2A4621462846BDE833
:1045B000704000F006BB4FF0FF3070BDF0B47F28B4
:1045C00000D97F2000281DD0401EC4B20025002045
:1045D0000D4989690C4AD3680DE04A7DA24205D392
:1045E00008D10E6AA3EB0606AE4203D3086A1D1A71
:1045F00008461446C9680029EFD1002802D0F0BC53
:10460000FFF73EBAF0BC70479C00002030B404466F
:10461000002300200B498A69CD6809E0117DA14281
:1046200005D1116A691A994201D30B461046D26826
:10463000002AF3D1002803D030BC0021FFF7B2B923
:1046400030BC70479C00002030B4002300200A4991
:10465000C969094AD46806E00A6AA21A9A4201D3D3
:1046600013460846C9680029F6D1002802D030BC9C
:10467000FFF706BA30BC70479C00002070B50646B4
:104680000124054D314655F82400006801F03CFA3C
:10469000641C042CF6D370BD486A0008FEB50546BC
:1046A000424E3078410713D4414FC10611D5F0680E
:1046B00007F1100207F11403018840880291CDE947
:1046C00000207189706942187868B16901F021FB96
:1046D000FEBD8007FCD5687F297F8842F8D2687DBF
:1046E000FFF7D2F9044620004FD0687F401C68775E
:1046F000608B40F400706083786920603869606086
:10470000E88AE082F06800882083032020757069C1
:10471000401C6062E062204600F0B6F8A0652065AB
:104720006064E0657069401E606528692061E56726
:10473000687A00F00C006072287A20721D480168C7
:10474000E160046001F092FD1B49012008702046E1
:1047500000F0E0FAF068C089A4F86000A4F86200F4
:10476000201DFDF7C9FD0146608E221DFFF7EBFB02
:10477000608612212046FFF7F5FB88B103B0204682
:10478000BDE8F0400021FFF70DB9AB69002B9FD0C9
:10479000286903B04FF0FF32BDE8F0400021184710
:1047A0002046BDE8FE4000F0B5B80000BC00002087
:1047B000843E0020B40000209C00002070B5044618
:1047C0000D46002C1DD0206800281AD00D4E204622
:1047D000B16900F019F82046316900F015F8002D94
:1047E0000FD0286800280CD006F11400026806E0FB
:1047F00010682168884201D128681060D268002AB8
:10480000F6D170BD9C00002070B50546084609E051
:1048100001682A68914204D1C468FFF731F9204643
:1048200000E0C0680028F3D170BD4020FFF72CB92C
:10483000F0B50024124E134D4FF6FF77A888401CA8
:1048400080B2A880B84202D14FF44040A880002135
:10485000AA8856F8210000680AE0C38A934206D16C
:10486000641CA4B2B4F5804FE8D30020F0BDC0684A
:104870000028F2D1491CC9B20429EAD3A888F0BDA6
:10488000486A00089C0000200249D1E90202104455
:10489000886070479C00002070B505460C46E868AB
:1048A0008089FDF7CBFDC00704D0204601F06CFAEB
:1048B00000242AE0164E10E08089FDF7BFFDC007F6
:1048C00007D00120FDF7BAFD0146E868828911434F
:1048D00081812046246801F048FA44B1E0682289C9
:1048E0007369416811442A891A44511AE4D564B1A4
:1048F000E0682A894168706902448A1A05D5081A55
:1049000081B229816868FEF70BFC2C6070BD000045
:10491000BC0000202DE9F05F044681480068A042F9
:1049200002D10020BDE8F09FB4F86080B4F84800E0
:10493000804500D38046E56E75B1221D2146204694
:1049400001F0A0F981465FEA09006FF003010BD086
:1049500064B1206850B10EE0A07E80077ED520466D
:10496000BDE8F05F01F019BA0846DBE709F1040081
:10497000A0B100682060E8684068FDF753FD616CF5
:104980004FF0000A401A2989084440451AD9B4F862
:10499000600040450ED1206F10B10BE00846C1E722
:1049A00094F8990030B984F898A0012084F899000F
:1049B00084F89AA0A07E800750D52046BDE8F05F1D
:1049C00001F0EBB984F899A0276F0FB991E0074681
:1049D00038680028FBD18CE0E8688089FDF72EFD5F
:1049E000206FA8B1618B11F0440F11D1E06E28B196
:1049F00002686AB90089628E904209D2B4F86400F4
:104A000030B1B4F86600102802D211F0A00F7CD0AB
:104A1000207D022807D01020FDF710FD0146E86830
:104A20008289114381814A462146284600F00AF9CD
:104A300020B1618B41F08001618373E72868E066F3
:104A4000207D022803D0608B20F003006083E8689B
:104A50004068FDF7E7FC0646E86800E059E0808919
:104A6000FDF7ECFC800701D0012000E0002029893F
:104A700030440844216D091A00D52065E868808912
:104A8000FDF7DCFC800701D0012000E0002029892F
:104A9000C8422AD0C5F800A0206F68B1E868406815
:104AA000FDF7C0FC0646F8684068FDF7BBFC301A0D
:104AB00018D504F1700603E025672F4618E0366824
:104AC000306858B1C0684068FDF7ACFC8346E868C0
:104AD0004068FDF7A7FCBBEB0000F0D4306828600D
:104AE000356005E03D602F4602E0284601F03DF9C3
:104AF000E56E55B1E8684068FDF794FC616C401ABA
:104B00002989084440457FF667AFE06E08B9A4F8EC
:104B100068A0608B20F080006083002002E7000026
:104B2000DC0000202DE9FF4104461027608D258B15
:104B3000E68ACDE9015700960390606A00F009F813
:104B4000002803D0628D616A1144E16204B0BDE8BF
:104B5000F0812DE9F05F8146DDE90AABDDF83080B8
:104B60000E461F46B018143081B24FF42072242034
:104B7000FEF71BF90546280020D06C685046FDF76B
:104B80005DFC20805846FDF759FC60806760484610
:104B9000FDF748FCA060052000EB96004FF6FF7182
:104BA00001EA003040EA0800FDF748FCA0810D98BA
:104BB000FDF744FCE0810020208260822846BDE8A9
:104BC000F09FF8B507460C4615461E463246294664
:104BD000384601F057F838B1009033462A4621464E
:104BE000384600F007F8F8BD2046FEF733FA6FF0BC
:104BF0000300F8BD2DE9FE430446DDF828800D468C
:104C000091461F466E6800972A894B460621284622
:104C1000FDF7A2FB308214B1E37AA07A01E0FF2312
:104C2000002006218DE803013A4649462846FDF753
:104C3000E5FA04462846FEF70DFA2046BDE8FE8355
:104C400070470000FEB505460C461646284600F0A3
:104C500059F808B10020FEBD606AFDF7E3FBE96882
:104C60008860608DFDF7EAFBE968C881618D606A44
:104C70000844E062EF681437A87AC0070AD0221D02
:104C8000314640F2B450FFF75EF940F00170FDF795
:104C9000C9FB3860B4F930000027002800DA278605
:104CA000606B38B9164800686063E8684068FDF7D3
:104CB000B9FBA0636968A8898A88801A4A89121A90
:104CC0004A8169680A89101A08816968E868486039
:104CD000E8680782201D0090686823460621028943
:104CE000FDF73AFBE9680882A07A06218DE84300C7
:104CF000E37A221D21466868FDF780FAFEBD0000B8
:104D0000A80000204068807B012801D00120704766
:104D1000002070472DE9F04105461A4C60880028B4
:104D200018D00020E08040F2B4560FE0FFF7F0F911
:104D300000280FD0012809D002280DD0FFF7E8F98C
:104D4000022807D3E1880844801EE080E08861885B
:104D50008842EBD3BDE8F081FFF7DAF90428F9D1F6
:104D6000E0886188801C8842F4D8FFF7D1F90702F7
:104D7000FFF7CEF93843B04200D800B93046688614
:104D8000E4E70000BC0000202DE9F0411E46DDE90B
:104D90000737069D0C462146944211D29B0707D443
:104DA000AB7E5B060CD41FB1EB6E0BB92B6F3BB126
:104DB00004F2B75121F00301914200D80A4691B2A2
:104DC0004FF42072FDF7F1FF30B14189091B3180AA
:104DD00004814481BDE8F0810020FBE770B5044602
:104DE000002C21D0207D00281ED00A281CD00128AC
:104DF0001AD02046FEF79EFEA06F002510B1FEF7E8
:104E000029F9A567606F10B12046FFF777F94FF0D9
:104E1000FF302086E06E00F0B7FF206F00F0B4FF97
:104E2000E5662567A4F8685070BD70B502460C466B
:104E30001068A04209D1C068106008E0C168A142B2
:104E400002D1E168C16002E008460028F6D10025E1
:104E5000E5602046FFF7C2FF207D0A280AD001281E
:104E600008D0608BC10705D040F002006083204667
:104E7000FFF750FD2575E58270BD00002DE9FF5F4D
:104E80000446002000210391DFF838B49BF800109D
:104E90004A072CD5217D022906D0616ADBF814204F
:104EA000914208D1012010E0226DDBF818108A42EF
:104EB0000BD1012009E0531A07D4238D1944891A14
:104EC00003D4618B41F00201618370B19BF8010052
:104ED00040F008008BF80100608B20F00100608337
:104EE0006FF00D0004B0BDE8F09F0020FAE78807DE
:104EF0000AD5207D022807D0032805D0608B40F01A
:104F0000020060830020EDE7A07EC00602D4EE48D8
:104F1000006820624FF0000A84F89BA084F89AA0F1
:104F20002046FFF7F7FE9BF80000810706D5217D9C
:104F3000022903D0032901D00020D3E7E34B94F8E2
:104F400014C003F11001ACF1020C01270422143348
:104F5000DFF87C83DF4EE04D4FF00A09BCF1080F0B
:104F60005BD2DFE80CF00483F3F1F0F3EFEEC5065B
:104F70005FD585075DD5666CDBF81850761CAE42B0
:104F800057D1DBF814000146401C6062E0626564A2
:104F9000DBF80C00C089A4F86000A4F86200491E88
:104FA00061652275201DFDF7A7F90146608E221D5F
:104FB000FEF7C9FF608641F21C11B1EB400F01D230
:104FC000420000E00A46B2EB800F01D9810003E005
:104FD000B1EB400F00D2410024F8481FE08B401E87
:104FE000E083A06A483CC8B10168216700F0BDFEBB
:104FF000206FB8B1A4F830A084F842A0D4F888306B
:1050000023B10022214620699847039003980D3070
:105010000CD0608B40F00200608351E1E06E0168CB
:10502000E166E3E74FF0FF302086E7E76FF00C0022
:1050300058E7C006F1D5DBF80C0002884088CDE9BE
:1050400001020091BBF80A10DBF814004218204658
:10505000DBF8181000F01FFE94F842000628DCD29E
:10506000A4F830A0204600F0BDFD29E1850709D550
:10507000606ADBF81410401E8842CED1204600F052
:105080004DFD1DE1C006C8D5656CDBF81800451B59
:10509000012D46D4256D2D1A43D42275E06F50B1F1
:1050A0002046FEF747FDE06F83693BB100222146B1
:1050B0002069984704E06FF0050001E06FF00F00F1
:1050C00038B10D3002D02046FEF7DAFC6FF00C004C
:1050D00008E7204600F040F9BBF8080010B1401E78
:1050E000ABF80800608E41F21C11B1EB400F01D209
:1050F000420000E00A46B2EB800F01D9810003E0D4
:10510000B1EB400F00D24100A4F848109BF8010019
:10511000800605D5608B40F0020060830720207573
:10512000CEE0DBF80C20158852888DE82600BBF80D
:105130000A20DBF814100A440146204600F0ABFDBB
:10514000BEE0A9E07EE056E00EE0FFE7204600F07A
:1051500003F99BF80100800605D5608B40F0020042
:10516000608307202075ABE0204600F0F5F89BF83F
:105170000100800631D59BF80000C00606D5206DE1
:10518000DBF81810884201D1E06E30B1608B40F03E
:10519000020060830820207592E0608B40F00200DE
:1051A00060832046FFF71AFE2868A04209D1C06834
:1051B000286008E0C168A14202D1E168C16002E054
:1051C00008460028F6D188F8007084F814903068FA
:1051D000E060346001F04AF872E09BF80000C0061D
:1051E0006ED5206DDBF81810884269D1E06E40BBA7
:1051F0000620207564E0204600F0AEF89BF8010020
:1052000080065DD5608B40F0020060832046FFF78A
:10521000E5FD2868A04209D1C068286008E0C1689F
:10522000A14202D1E168C16002E008460028F6D13F
:1052300088F8007084F814903068E060346001F001
:1052400015F83DE0204600F087F89BF80000C00606
:1052500036D5206DDBF81810884231D1E06E78BB6E
:105260002046FFF7BBFD2868A04209D1C06828602E
:1052700008E0C168A14202D1E168C16002E00846CD
:105280000028F6D188F8007084F814903068E06047
:10529000346000F0EBFF13E0204600F05DF89BF86F
:1052A0000000C0060CD5206DDBF81810884207D12D
:1052B000E06E28B99BF8010040F010008BF8010067
:1052C00000200FE6BC000020A8000020843E002043
:1052D0009C000020B8000020B40000202DE9F0411F
:1052E0000446002C0CD0A56F6F7B0020A067D4F87B
:1052F00084604EB100232A4621462069B04709E068
:105300006FF00F00BDE8F08100232A4621461846C1
:1053100000F0C2FB6FF00C0628B10D301AD0A56763
:105320006FF00400EEE7B90610D5218DA1F5B0525B
:10533000D03A01D0491C2185D4F8845025B10023EE
:105340001A4621462069A8470D3001D00020D9E730
:105350003046D7E73046D5E72DE9F0470446FE4F03
:105360004FF000063878C0067ED5B4F860C0A16D55
:105370000CEB01083846656D7A69C3688069B5EB46
:10538000020908D4954201D10D1A04D481420DD1ED
:10539000D98961450AD9D989A4F86010B4F8623076
:1053A0008B4201D2A4F862106265A065616C4FF671
:1053B000FF730A1A2CD47A89002A28D1B4F86050D5
:1053C000A26D2A444245F8D1B4F93020002A1EDBF0
:1053D00081421CD194F84300411CC9B2814201D9D9
:1053E00084F8431094F8431003290BD9B4F84820EB
:1053F000608E104480B2904202D3A4F8480001E0CD
:10540000A4F84830032902D3204600F0BDFB9CE0FD
:10541000411A012970D4226D121A6DD4628B55077E
:1054200008D522F004026283B4F84A20A4F8482088
:10543000A4F86A6084F84260E28FB4F93C5002EB51
:10544000E502A4F8402089B284F843606064207DBE
:10545000042839D3B4F84800B4F84A20904217D24F
:10546000628B120503D500E08FE0012200E00222EA
:10547000658E5543AAB28A4200D81146014489B2CA
:10548000814202D3A4F848101EE0A4F848301BE083
:10549000B4F86A20114489B2914202D3A4F86A1088
:1054A00001E0A4F86A30B4F86A1081420CD3091AFA
:1054B000A4F86A10618E014489B2814202D3A4F833
:1054C000481001E0A4F84830D4E91B31A3A22046DB
:1054D000FEF7DEFD20670346A2A22046E16EFEF73E
:1054E000D7FDE066216F19B12686267728B106E040
:1054F0004FF0FF322286F8E724E0A4F86860B4F8A1
:1055000064203B891A44A4F86420628B12051CD5E0
:1055100059B1C8684068FCF785FFE16C401A14D4A3
:10552000608B20F4006060830FE030B1C068406899
:10553000FCF778FFE16C401A07D4608B20F4006020
:10554000608302E0204600F028FC606BE8B1A16BAC
:10555000BA69891A19D585490988081AB4F93C101D
:10556000A0EBE10000B2014409B2A187002801DAF2
:10557000404200B2B4F93E20A0EBA2001044E08704
:1055800000EBE100A4F8400066637B89002B7DD02E
:10559000207D07287AD2606A7969DFF8D481421ABF
:1055A000012A1FD40B441B1A012B1BD4D8F804006A
:1055B00091B2B8F80820521AA8F808200289521AA5
:1055C00093B204E0891A89B2038146810068428956
:1055D0008A42F7D3FDF7DAFD606A7861D8F80C10DB
:1055E000486005E0081A03D5608B40F00200608334
:1055F000616A7869421A7DD4228D0A44121A012AFE
:10560000F9D4814277D1D8F80C008089FCF716FFD5
:10561000800701D0012000E00020B8F808100844FD
:1056200080B27881218D81423DD2D8F80C008089EA
:10563000FCF704FFC00711D0D8F80C008089FCF7F4
:10564000FDFEC0F344004000FCF7F8FE0146D8F828
:105650000C00828922F47C5211438181208DA8F8AC
:105660000800D8F80C008089FCF7E8FE800704D514
:10567000B8F80800401EA8F80800B8F80810D8F8D4
:105680000400FDF74DFDD8F80C0000E0B8E180897A
:10569000FCF7D4FE800701D0012000E00020B8F81C
:1056A000081008447881606F30B3D8F80C00808906
:1056B000FCF7C4FEC00704D107E00168616700F091
:1056C00054FB606F0028F8D16EE0656F26E080899A
:1056D000FCF7B4FEC0071DD0D8F80C008089FCF799
:1056E000ADFE800716D40120FCF7A8FED8F80C10F8
:1056F0008A8902E07FE1CAE056E010438881FCF726
:105700009DFE800701D0012000E00020B8F80810BD
:105710000844788128462D6800F027FB45B1E868E9
:105720002A897B89416811447A691A44511ACED575
:105730008DB1E8687A89796940680A44821A32D55D
:10574000401AA8F80800D8F80C008089FCF776FE0B
:10575000800714D50EE026E0BC000020756E616362
:105760006B656400756E73656E740000A8000020A0
:10577000C83B0120B8F80800401EA8F80800B8F897
:105780000810D8F80400FDF7CBFCD8F80C0080898D
:10579000FCF754FE800701D0012000E00020B8F89B
:1057A00008100844788165677889796901446162E5
:1057B000218D081A2085204600F0BEFDD8F804008F
:1057C000018911B1F861C8F80460D8F80C0080892B
:1057D000FCF734FEC00745D0787840F020007870A0
:1057E00040E078618889FCF729FE800701D001201C
:1057F00000E000202A89616A114408446062E86878
:105800008089FCF71BFEE8688089FCF717FE80079B
:1058100001D0012000E0002029890844218D081AC8
:105820002085204600F088FD6968088930B1F86954
:1058300010B1FDF747FB00E0F9616E60E868808910
:10584000FCF7FCFDC00708D0787840F020007870A5
:10585000207D042801D1072020752868606728462C
:1058600000F083FA656F25B1E968626A4868904282
:10587000B7D0608BC10706D020F0010040F00200D5
:105880006083BDE8F08740F001006083F9E7656F51
:105890000DB10026A7E0624800F054FA6067A5E069
:1058A000E9684968814212D1B8F80800298988421C
:1058B00030D9286870B35A4800F044FA50B30EB19A
:1058C000306000E060672946FEF7E6FF8EE016B321
:1058D000F2685268821A012A28D40A1A012A25D4A9
:1058E0004F4800F02FFA80465FEA08007ED0F0684B
:1058F00031894068421879698A1A05D5081A81B237
:1059000031817068FDF70CFCC6F8008029464046DE
:10591000FEF7C2FF6AE0421A08D5414800F012FAC9
:10592000F0B360672946FEF7B7FF5FE02E462A68AE
:10593000BABB091A56D5E8688089FCF77FFDC00715
:1059400054D1374800F0FEF9286048B3E868416850
:1059500028890A187869821A05D5401A81B22981E6
:105960006868FDF7DDFB218D606A7A6908447989F2
:105970001144401A3AD52868C0688089FCF75EFD5A
:10598000C00714D02868C0688089FCF757FDC0F3B1
:1059900044004000FCF752FD01462868C06801E061
:1059A00024E01FE0828922F47C5211438181A08C83
:1059B000218D0844B98A401A81B22868018128687B
:1059C0004068FDF7ADFB2868C0688089FCF736FDAC
:1059D000800701D0012000E00020296809890844DF
:1059E000788103E01546002D7FF45AAF2046BDE8CC
:1059F000F04700F0D2B92046BDE8F04700F0CDB93D
:105A0000616A7869421A05D4228D1144081A012866
:105A10007FF53CAF608B40F00200608331E700000F
:105A2000C83B0120002801D0C0F884107047000056
:105A30002DE9F0410F461646154D002E01D0344693
:105A40001AE00020E860BDE8F081002011490FE075
:105A50002A88521CC2F30B036A88934206D06268FC
:105A6000B5F800C0125C01F80C202B80401C80B2FD
:105A700062898242ECD82468002CE6D1318938460C
:105A800000F021F83046FDF7E5FA0020DBE70000E2
:105A900034000020842E002010B50846144600284B
:105AA00007D04CB1218900F00EF82046FDF7D2FA5C
:105AB00003E06FF00F0010BD0BB1002010BDBDE87A
:105AC0001040FEF78FB810B50446002C1BD0228D75
:105AD000501880B241F2D061884201D8824201D987
